{
  "contractName": "Approval",
  "abi": [
    {
      "anonymous": false,
      "inputs": [
        {
          "indexed": false,
          "internalType": "uint256[]",
          "name": "ProposalIDs",
          "type": "uint256[]"
        },
        {
          "indexed": false,
          "internalType": "address",
          "name": "councilMember",
          "type": "address"
        }
      ],
      "name": "ProposalsApproved",
      "type": "event"
    },
    {
      "anonymous": false,
      "inputs": [
        {
          "indexed": false,
          "internalType": "uint256[]",
          "name": "final_proposals",
          "type": "uint256[]"
        }
      ],
      "name": "ProposalsFinalized",
      "type": "event"
    },
    {
      "constant": false,
      "inputs": [
        {
          "internalType": "uint256[]",
          "name": "proposalIDs",
          "type": "uint256[]"
        }
      ],
      "name": "approve_proposals",
      "outputs": [
        {
          "internalType": "uint256",
          "name": "",
          "type": "uint256"
        }
      ],
      "payable": false,
      "stateMutability": "nonpayable",
      "type": "function"
    },
    {
      "constant": true,
      "inputs": [],
      "name": "get_member_approval_status",
      "outputs": [
        {
          "internalType": "uint8",
          "name": "",
          "type": "uint8"
        }
      ],
      "payable": false,
      "stateMutability": "view",
      "type": "function"
    },
    {
      "constant": true,
      "inputs": [
        {
          "internalType": "uint256",
          "name": "proposalID",
          "type": "uint256"
        }
      ],
      "name": "get_proposal_approval_count",
      "outputs": [
        {
          "internalType": "uint256",
          "name": "",
          "type": "uint256"
        }
      ],
      "payable": false,
      "stateMutability": "view",
      "type": "function"
    },
    {
      "constant": false,
      "inputs": [
        {
          "internalType": "address",
          "name": "proposal_add",
          "type": "address"
        },
        {
          "internalType": "address",
          "name": "govtoken_add",
          "type": "address"
        }
      ],
      "name": "setContractAddress",
      "outputs": [],
      "payable": false,
      "stateMutability": "nonpayable",
      "type": "function"
    }
  ],
  "bytecode": "0x6080604052733d416cfa03d21155529dc2aa7f877137b719ca746000806101000a81548173ffffffffffffffffffffffffffffffffffffffff021916908373ffffffffffffffffffffffffffffffffffffffff1602179055507340b4a36a8f733bbec4e65fdd75cd522fab53aef5600160006101000a81548173ffffffffffffffffffffffffffffffffffffffff021916908373ffffffffffffffffffffffffffffffffffffffff160217905550600160009054906101000a900473ffffffffffffffffffffffffffffffffffffffff16600260006101000a81548173ffffffffffffffffffffffffffffffffffffffff021916908373ffffffffffffffffffffffffffffffffffffffff160217905550600060035534801561012157600080fd5b5061131d806101316000396000f3fe608060405234801561001057600080fd5b506004361061004c5760003560e01c806323626df714610051578063b6c45a211461006d578063bdb420171461009d578063d8719965146100cd575b600080fd5b61006b60048036036100669190810190610de4565b6100eb565b005b61008760048036036100829190810190610ea2565b610170565b604051610094919061111e565b60405180910390f35b6100b760048036036100b29190810190610e61565b61023c565b6040516100c4919061111e565b60405180910390f35b6100d561061d565b6040516100e29190611139565b60405180910390f35b81600260006101000a81548173ffffffffffffffffffffffffffffffffffffffff021916908373ffffffffffffffffffffffffffffffffffffffff160217905550806000806101000a81548173ffffffffffffffffffffffffffffffffffffffff021916908373ffffffffffffffffffffffffffffffffffffffff1602179055505050565b6000600560008060009054906101000a900473ffffffffffffffffffffffffffffffffffffffff1673ffffffffffffffffffffffffffffffffffffffff1663837a9bc76040518163ffffffff1660e01b815260040160206040518083038186803b1580156101dd57600080fd5b505afa1580156101f1573d6000803e3d6000fd5b505050506040513d601f19601f820116820180604052506102159190810190610ecb565b81526020019081526020016000206000838152602001908152602001600020549050919050565b600060016000809054906101000a900473ffffffffffffffffffffffffffffffffffffffff1673ffffffffffffffffffffffffffffffffffffffff16638561cf55336040518263ffffffff1660e01b815260040161029a919061106a565b60206040518083038186803b1580156102b257600080fd5b505afa1580156102c6573d6000803e3d6000fd5b505050506040513d601f19601f820116820180604052506102ea9190810190610ecb565b1461032a576040517f08c379a0000000000000000000000000000000000000000000000000000000008152600401610321906110fe565b60405180910390fd5b6001600460003373ffffffffffffffffffffffffffffffffffffffff1673ffffffffffffffffffffffffffffffffffffffff16815260200190815260200160002060009054906101000a900460ff1660ff1614156103bd576040517f08c379a00000000000000000000000000000000000000000000000000000000081526004016103b4906110de565b60405180910390fd5b60008251905060008090505b818110156104c2576001600560008060009054906101000a900473ffffffffffffffffffffffffffffffffffffffff1673ffffffffffffffffffffffffffffffffffffffff1663837a9bc76040518163ffffffff1660e01b815260040160206040518083038186803b15801561043e57600080fd5b505afa158015610452573d6000803e3d6000fd5b505050506040513d601f19601f820116820180604052506104769190810190610ecb565b8152602001908152602001600020600086848151811061049257fe5b602002602001015181526020019081526020016000206000828254019250508190555080806001019150506103c9565b506001600460003373ffffffffffffffffffffffffffffffffffffffff1673ffffffffffffffffffffffffffffffffffffffff16815260200190815260200160002060006101000a81548160ff021916908360ff16021790555060016003600082825401925050819055507f21e2c30c9e2a02b0af1658b9e7d40b14c2e4e2cc420a6987eb487030a4a39d6d833360405161055e929190611085565b60405180910390a16000809054906101000a900473ffffffffffffffffffffffffffffffffffffffff1673ffffffffffffffffffffffffffffffffffffffff16634627da506040518163ffffffff1660e01b815260040160206040518083038186803b1580156105cd57600080fd5b505afa1580156105e1573d6000803e3d6000fd5b505050506040513d601f19601f820116820180604052506106059190810190610ecb565b600354141561061757610616610671565b5b50919050565b6000600460003373ffffffffffffffffffffffffffffffffffffffff1673ffffffffffffffffffffffffffffffffffffffff16815260200190815260200160002060009054906101000a900460ff16905090565b6000600160026000809054906101000a900473ffffffffffffffffffffffffffffffffffffffff1673ffffffffffffffffffffffffffffffffffffffff16634627da506040518163ffffffff1660e01b815260040160206040518083038186803b1580156106de57600080fd5b505afa1580156106f2573d6000803e3d6000fd5b505050506040513d601f19601f820116820180604052506107169190810190610ecb565b8161071d57fe5b040190506000600260009054906101000a900473ffffffffffffffffffffffffffffffffffffffff1673ffffffffffffffffffffffffffffffffffffffff1663c08cc02d6040518163ffffffff1660e01b815260040160206040518083038186803b15801561078b57600080fd5b505afa15801561079f573d6000803e3d6000fd5b505050506040513d601f19601f820116820180604052506107c39190810190610ecb565b905060008090505b81811015610a765782600560008060009054906101000a900473ffffffffffffffffffffffffffffffffffffffff1673ffffffffffffffffffffffffffffffffffffffff1663837a9bc76040518163ffffffff1660e01b815260040160206040518083038186803b15801561083f57600080fd5b505afa158015610853573d6000803e3d6000fd5b505050506040513d601f19601f820116820180604052506108779190810190610ecb565b815260200190815260200160002060008381526020019081526020016000205410610a6957600260009054906101000a900473ffffffffffffffffffffffffffffffffffffffff1673ffffffffffffffffffffffffffffffffffffffff1663c01a80ab826040518263ffffffff1660e01b81526004016108f7919061111e565b600060405180830381600087803b15801561091157600080fd5b505af1158015610925573d6000803e3d6000fd5b505050506000600260009054906101000a900473ffffffffffffffffffffffffffffffffffffffff1673ffffffffffffffffffffffffffffffffffffffff1663e14bd874836040518263ffffffff1660e01b8152600401610986919061111e565b60206040518083038186803b15801561099e57600080fd5b505afa1580156109b2573d6000803e3d6000fd5b505050506040513d601f19601f820116820180604052506109d69190810190610dbb565b90506000809054906101000a900473ffffffffffffffffffffffffffffffffffffffff1673ffffffffffffffffffffffffffffffffffffffff1663f4c628526064836040518363ffffffff1660e01b8152600401610a359291906110b5565b600060405180830381600087803b158015610a4f57600080fd5b505af1158015610a63573d6000803e3d6000fd5b50505050505b80806001019150506107cb565b50610a7f610b25565b6000809054906101000a900473ffffffffffffffffffffffffffffffffffffffff1673ffffffffffffffffffffffffffffffffffffffff16636043351a6040518163ffffffff1660e01b8152600401602060405180830381600087803b158015610ae857600080fd5b505af1158015610afc573d6000803e3d6000fd5b505050506040513d601f19601f82011682018060405250610b209190810190610ecb565b505050565b60606000809054906101000a900473ffffffffffffffffffffffffffffffffffffffff1673ffffffffffffffffffffffffffffffffffffffff1663606a6b766040518163ffffffff1660e01b815260040160006040518083038186803b158015610b8e57600080fd5b505afa158015610ba2573d6000803e3d6000fd5b505050506040513d6000823e3d601f19601f82011682018060405250610bcb9190810190610e20565b905060008090505b8151811015610c5557600060046000848481518110610bee57fe5b602002602001015173ffffffffffffffffffffffffffffffffffffffff1673ffffffffffffffffffffffffffffffffffffffff16815260200190815260200160002060006101000a81548160ff021916908360ff1602179055508080600101915050610bd3565b50600060038190555050565b600081359050610c70816112ac565b92915050565b600081519050610c85816112ac565b92915050565b600082601f830112610c9c57600080fd5b8151610caf610caa82611181565b611154565b91508181835260208401935060208101905083856020840282011115610cd457600080fd5b60005b83811015610d045781610cea8882610c76565b845260208401935060208301925050600181019050610cd7565b5050505092915050565b600082601f830112610d1f57600080fd5b8135610d32610d2d826111a9565b611154565b91508181835260208401935060208101905083856020840282011115610d5757600080fd5b60005b83811015610d875781610d6d8882610d91565b845260208401935060208301925050600181019050610d5a565b5050505092915050565b600081359050610da0816112c3565b92915050565b600081519050610db5816112c3565b92915050565b600060208284031215610dcd57600080fd5b6000610ddb84828501610c76565b91505092915050565b60008060408385031215610df757600080fd5b6000610e0585828601610c61565b9250506020610e1685828601610c61565b9150509250929050565b600060208284031215610e3257600080fd5b600082015167ffffffffffffffff811115610e4c57600080fd5b610e5884828501610c8b565b91505092915050565b600060208284031215610e7357600080fd5b600082013567ffffffffffffffff811115610e8d57600080fd5b610e9984828501610d0e565b91505092915050565b600060208284031215610eb457600080fd5b6000610ec284828501610d91565b91505092915050565b600060208284031215610edd57600080fd5b6000610eeb84828501610da6565b91505092915050565b6000610f00838361103d565b60208301905092915050565b610f1581611264565b82525050565b610f248161121b565b82525050565b6000610f35826111e1565b610f3f81856111f9565b9350610f4a836111d1565b8060005b83811015610f7b578151610f628882610ef4565b9750610f6d836111ec565b925050600181019050610f4e565b5085935050505092915050565b610f9181611276565b82525050565b6000610fa4603a8361120a565b91507f6120636f756e63696c206d656d6265722063616e206f6e6c79207375626d697460008301527f20617070726f76616c73206f6e636520696e20612065706f63680000000000006020830152604082019050919050565b600061100a60208361120a565b91507f6f6e6c7920636f756e63696c206d656d626572732063616e20617070726f76656000830152602082019050919050565b6110468161124d565b82525050565b6110558161124d565b82525050565b61106481611257565b82525050565b600060208201905061107f6000830184610f0c565b92915050565b6000604082019050818103600083015261109f8185610f2a565b90506110ae6020830184610f0c565b9392505050565b60006040820190506110ca6000830185610f88565b6110d76020830184610f1b565b9392505050565b600060208201905081810360008301526110f781610f97565b9050919050565b6000602082019050818103600083015261111781610ffd565b9050919050565b6000602082019050611133600083018461104c565b92915050565b600060208201905061114e600083018461105b565b92915050565b6000604051905081810181811067ffffffffffffffff8211171561117757600080fd5b8060405250919050565b600067ffffffffffffffff82111561119857600080fd5b602082029050602081019050919050565b600067ffffffffffffffff8211156111c057600080fd5b602082029050602081019050919050565b6000819050602082019050919050565b600081519050919050565b6000602082019050919050565b600082825260208201905092915050565b600082825260208201905092915050565b60006112268261122d565b9050919050565b600073ffffffffffffffffffffffffffffffffffffffff82169050919050565b6000819050919050565b600060ff82169050919050565b600061126f82611288565b9050919050565b60006112818261124d565b9050919050565b60006112938261129a565b9050919050565b60006112a58261122d565b9050919050565b6112b58161121b565b81146112c057600080fd5b50565b6112cc8161124d565b81146112d757600080fd5b5056fea365627a7a723158207a4fd0b14a898d4e027a9ee265e30eaaa89d88544cdaf65c486212abf48a30c26c6578706572696d656e74616cf564736f6c63430005100040",
  "source": "pragma solidity >=0.4.21 <0.7.0;\npragma experimental ABIEncoderV2;\nimport \"./GovToken.sol\";\nimport \"./ProposalContract.sol\";\n\ncontract Approval {\n    GovToken gt = GovToken(0x3D416Cfa03D21155529Dc2aa7f877137B719ca74);\n    \n    address proposal_contract_address = 0x40B4A36A8f733BbeC4E65FdD75Cd522faB53AeF5;\n    ProposalContract p = ProposalContract(proposal_contract_address);\n    \n    \n    uint approval_count = 0;\n    // mapping of epoch to approved_proposals\n    // mapping(uint => uint[]) approved_proposals;\n    // mapping(uint => mapping(uint => uint8)) approved_proposals;\n    \n    \n    mapping(address => uint8) private member_status;\n    \n    // map epoch and id to number of approvals\n    mapping(uint256 => mapping(uint => uint)) private approvals;\n    \n\n    event ProposalsApproved(uint[] ProposalIDs, address councilMember);\n    event ProposalsFinalized(uint[] final_proposals);\n    \n    // function getApprovalsByEpoch(uint epoch) public view returns (uint[] memory) {\n    //     return approved_proposals[epoch];\n    // }\n\n  \n    function approve_proposals(uint[] memory proposalIDs) public returns (uint) {\n        // only council member can access \n        require(gt.check_if_council_member_new(msg.sender) == 1, \"only council members can approve\");\n        // they should not have already approved \n        require(member_status[msg.sender] != 1, \"a council member can only submit approvals once in a epoch\");\n        \n        // approve (increase proposal approve count)\n        uint len = proposalIDs.length;\n        for (uint i =0; i<len; i++) {\n            approvals[gt.get_current_epoch()][proposalIDs[i]] += 1;\n        }\n        // set member status\n        member_status[msg.sender] = 1;\n        approval_count += 1;\n       \n        \n        emit ProposalsApproved(proposalIDs, msg.sender);\n        \n        // if (approval_count == gt.getCouncilCount()) {\n        //     uint[] memory final_proposals = get_final_proposals();\n        //     reset_member_statuses();\n        //     emit ProposalsFinalized(final_proposals);\n        // }\n        if (approval_count == gt.getCouncilCount()) {\n            decide_final_approvals();\n            \n        }\n        \n      \n    }\n    \n    function decide_final_approvals() private {\n \n        uint min_approvals = (gt.getCouncilCount() /2) + 1; // > 50% of council members \n       \n        uint proposal_count = p.getProposalCount();\n        \n    \n        for (uint i = 0; i<proposal_count; i++){\n            if (approvals[gt.get_current_epoch()][i] >= min_approvals) {\n                // approved_proposals[gt.get_current_epoch()].push(i);\n                p.updateApprovalStatus(i);\n                // approved_proposals_for_epochs[gt.get_current_epoch()][i] = 1;\n                // transfer coins to winning proposals \n                address proposer = p.getProposer(i);\n                gt.mint_and_tranfer(100, proposer);\n            }\n        }\n        \n        reset_member_statuses();\n        gt.start_new_epoch();\n        \n        \n        \n        // return approved_proposals[gt.get_current_epoch()];\n        \n    }\n    \n    \n    function reset_member_statuses() private {\n        // need a way to get an array of keys - google suggests keeping an external database on top of bc\n        address[] memory council_members = gt.getCouncilMembers();\n        \n        for (uint i = 0; i< council_members.length; i++){\n            member_status[council_members[i]] = 0;\n        }\n        \n        approval_count = 0;\n    }\n    \n    // returns 1 if a member already submitted his approvals\n    function get_member_approval_status() public view returns (uint8) {\n        return member_status[msg.sender];\n    }\n    \n    function get_proposal_approval_count(uint proposalID) public view returns (uint256) {\n        return approvals[gt.get_current_epoch()][proposalID];\n    }\n    \n    function setContractAddress(address proposal_add,address govtoken_add) public {\n        p = ProposalContract(proposal_add);\n        gt = GovToken(govtoken_add);\n    }\n    \n    \n}",
  "sourcePath": "/Users/shashwat.arya/Desktop/BlockChain Project (Pied Piper)/BlockChain-Project--Pied-Piper-/contracts/Approval.sol",
  "compiler": {
    "name": "solc",
    "version": "0.5.16+commit.9c3226ce.Emscripten.clang"
  },
  "schemaVersion": "3.4.3",
  "updatedAt": "2021-11-20T12:40:58.475Z",
  "networkType": "ethereum",
  "devdoc": {
    "methods": {}
  },
  "userdoc": {
    "methods": {}
  }
}