{
  "contractName": "Approval",
  "abi": [
    {
      "anonymous": false,
      "inputs": [
        {
          "indexed": false,
          "internalType": "uint256[]",
          "name": "ProposalIDs",
          "type": "uint256[]"
        },
        {
          "indexed": false,
          "internalType": "address",
          "name": "councilMember",
          "type": "address"
        }
      ],
      "name": "ProposalsApproved",
      "type": "event"
    },
    {
      "anonymous": false,
      "inputs": [
        {
          "indexed": false,
          "internalType": "uint256[]",
          "name": "final_proposals",
          "type": "uint256[]"
        }
      ],
      "name": "ProposalsFinalized",
      "type": "event"
    },
    {
      "constant": false,
      "inputs": [
        {
          "internalType": "uint256[]",
          "name": "proposalIDs",
          "type": "uint256[]"
        }
      ],
      "name": "approve_proposals",
      "outputs": [
        {
          "internalType": "uint256",
          "name": "",
          "type": "uint256"
        }
      ],
      "payable": false,
      "stateMutability": "nonpayable",
      "type": "function"
    },
    {
      "constant": true,
      "inputs": [],
      "name": "get_member_approval_status",
      "outputs": [
        {
          "internalType": "uint8",
          "name": "",
          "type": "uint8"
        }
      ],
      "payable": false,
      "stateMutability": "view",
      "type": "function"
    },
    {
      "constant": true,
      "inputs": [
        {
          "internalType": "uint256",
          "name": "proposalID",
          "type": "uint256"
        }
      ],
      "name": "get_proposal_approval_count",
      "outputs": [
        {
          "internalType": "uint256",
          "name": "",
          "type": "uint256"
        }
      ],
      "payable": false,
      "stateMutability": "view",
      "type": "function"
    }
  ],
  "bytecode": "0x6080604052733d416cfa03d21155529dc2aa7f877137b719ca746000806101000a81548173ffffffffffffffffffffffffffffffffffffffff021916908373ffffffffffffffffffffffffffffffffffffffff1602179055507340b4a36a8f733bbec4e65fdd75cd522fab53aef5600160006101000a81548173ffffffffffffffffffffffffffffffffffffffff021916908373ffffffffffffffffffffffffffffffffffffffff160217905550600160009054906101000a900473ffffffffffffffffffffffffffffffffffffffff16600260006101000a81548173ffffffffffffffffffffffffffffffffffffffff021916908373ffffffffffffffffffffffffffffffffffffffff160217905550600060035534801561012157600080fd5b506111bb806101316000396000f3fe608060405234801561001057600080fd5b50600436106100415760003560e01c8063b6c45a2114610046578063bdb4201714610076578063d8719965146100a6575b600080fd5b610060600480360361005b9190810190610e15565b6100c4565b60405161006d9190610fcd565b60405180910390f35b610090600480360361008b9190810190610dd4565b610190565b60405161009d9190610fcd565b60405180910390f35b6100ae610536565b6040516100bb9190610fe8565b60405180910390f35b6000600660008060009054906101000a900473ffffffffffffffffffffffffffffffffffffffff1673ffffffffffffffffffffffffffffffffffffffff1663837a9bc76040518163ffffffff1660e01b815260040160206040518083038186803b15801561013157600080fd5b505afa158015610145573d6000803e3d6000fd5b505050506040513d601f19601f820116820180604052506101699190810190610e3e565b81526020019081526020016000206000838152602001908152602001600020549050919050565b600060016000809054906101000a900473ffffffffffffffffffffffffffffffffffffffff1673ffffffffffffffffffffffffffffffffffffffff16638561cf55336040518263ffffffff1660e01b81526004016101ee9190610f37565b60206040518083038186803b15801561020657600080fd5b505afa15801561021a573d6000803e3d6000fd5b505050506040513d601f19601f8201168201806040525061023e9190810190610e3e565b1461024857600080fd5b6001600560003373ffffffffffffffffffffffffffffffffffffffff1673ffffffffffffffffffffffffffffffffffffffff16815260200190815260200160002060009054906101000a900460ff1660ff1614156102a557600080fd5b60008251905060008090505b81811015610397576001600660008060009054906101000a900473ffffffffffffffffffffffffffffffffffffffff1673ffffffffffffffffffffffffffffffffffffffff1663837a9bc76040518163ffffffff1660e01b815260040160206040518083038186803b15801561032657600080fd5b505afa15801561033a573d6000803e3d6000fd5b505050506040513d601f19601f8201168201806040525061035e9190810190610e3e565b815260200190815260200160002060008381526020019081526020016000206000828254019250508190555080806001019150506102b1565b506001600560003373ffffffffffffffffffffffffffffffffffffffff1673ffffffffffffffffffffffffffffffffffffffff16815260200190815260200160002060006101000a81548160ff021916908360ff16021790555060016003600082825401925050819055507f21e2c30c9e2a02b0af1658b9e7d40b14c2e4e2cc420a6987eb487030a4a39d6d8333604051610433929190610f74565b60405180910390a16000809054906101000a900473ffffffffffffffffffffffffffffffffffffffff1673ffffffffffffffffffffffffffffffffffffffff16634627da506040518163ffffffff1660e01b815260040160206040518083038186803b1580156104a257600080fd5b505afa1580156104b6573d6000803e3d6000fd5b505050506040513d601f19601f820116820180604052506104da9190810190610e3e565b60035414156105305760606104ed61058a565b90506104f7610af1565b7f29bd606d3258de78d2696d663f8b57cad52f58fbe20532d4752e0d0d84685ab5816040516105269190610f52565b60405180910390a1505b50919050565b6000600560003373ffffffffffffffffffffffffffffffffffffffff1673ffffffffffffffffffffffffffffffffffffffff16815260200190815260200160002060009054906101000a900460ff16905090565b60606000600260016000809054906101000a900473ffffffffffffffffffffffffffffffffffffffff1673ffffffffffffffffffffffffffffffffffffffff16634627da506040518163ffffffff1660e01b815260040160206040518083038186803b1580156105f957600080fd5b505afa15801561060d573d6000803e3d6000fd5b505050506040513d601f19601f820116820180604052506106319190810190610e3e565b018161063957fe5b0490506000600260009054906101000a900473ffffffffffffffffffffffffffffffffffffffff1673ffffffffffffffffffffffffffffffffffffffff1663c08cc02d6040518163ffffffff1660e01b815260040160206040518083038186803b1580156106a657600080fd5b505afa1580156106ba573d6000803e3d6000fd5b505050506040513d601f19601f820116820180604052506106de9190810190610e3e565b905060008090505b818110156109e657826006600060016000809054906101000a900473ffffffffffffffffffffffffffffffffffffffff1673ffffffffffffffffffffffffffffffffffffffff1663837a9bc76040518163ffffffff1660e01b815260040160206040518083038186803b15801561075c57600080fd5b505afa158015610770573d6000803e3d6000fd5b505050506040513d601f19601f820116820180604052506107949190810190610e3e565b03815260200190815260200160002060008381526020019081526020016000205411156109d9576004600060016000809054906101000a900473ffffffffffffffffffffffffffffffffffffffff1673ffffffffffffffffffffffffffffffffffffffff1663837a9bc76040518163ffffffff1660e01b815260040160206040518083038186803b15801561082857600080fd5b505afa15801561083c573d6000803e3d6000fd5b505050506040513d601f19601f820116820180604052506108609190810190610e3e565b0381526020019081526020016000208190806001815401808255809150509060018203906000526020600020016000909192909190915055506000600260009054906101000a900473ffffffffffffffffffffffffffffffffffffffff1673ffffffffffffffffffffffffffffffffffffffff1663e14bd874836040518263ffffffff1660e01b81526004016108f69190610fcd565b60206040518083038186803b15801561090e57600080fd5b505afa158015610922573d6000803e3d6000fd5b505050506040513d601f19601f820116820180604052506109469190810190610d6a565b90506000809054906101000a900473ffffffffffffffffffffffffffffffffffffffff1673ffffffffffffffffffffffffffffffffffffffff1663f4c628526064836040518363ffffffff1660e01b81526004016109a5929190610fa4565b600060405180830381600087803b1580156109bf57600080fd5b505af11580156109d3573d6000803e3d6000fd5b50505050505b80806001019150506106e6565b506004600060016000809054906101000a900473ffffffffffffffffffffffffffffffffffffffff1673ffffffffffffffffffffffffffffffffffffffff1663837a9bc76040518163ffffffff1660e01b815260040160206040518083038186803b158015610a5457600080fd5b505afa158015610a68573d6000803e3d6000fd5b505050506040513d601f19601f82011682018060405250610a8c9190810190610e3e565b038152602001908152602001600020805480602002602001604051908101604052809291908181526020018280548015610ae557602002820191906000526020600020905b815481526020019060010190808311610ad1575b50505050509250505090565b60606000809054906101000a900473ffffffffffffffffffffffffffffffffffffffff1673ffffffffffffffffffffffffffffffffffffffff1663606a6b766040518163ffffffff1660e01b815260040160006040518083038186803b158015610b5a57600080fd5b505afa158015610b6e573d6000803e3d6000fd5b505050506040513d6000823e3d601f19601f82011682018060405250610b979190810190610d93565b905060008090505b8151811015610c2157600060056000848481518110610bba57fe5b602002602001015173ffffffffffffffffffffffffffffffffffffffff1673ffffffffffffffffffffffffffffffffffffffff16815260200190815260200160002060006101000a81548160ff021916908360ff1602179055508080600101915050610b9f565b5050565b600081519050610c348161114a565b92915050565b600082601f830112610c4b57600080fd5b8151610c5e610c5982611030565b611003565b91508181835260208401935060208101905083856020840282011115610c8357600080fd5b60005b83811015610cb35781610c998882610c25565b845260208401935060208301925050600181019050610c86565b5050505092915050565b600082601f830112610cce57600080fd5b8135610ce1610cdc82611058565b611003565b91508181835260208401935060208101905083856020840282011115610d0657600080fd5b60005b83811015610d365781610d1c8882610d40565b845260208401935060208301925050600181019050610d09565b5050505092915050565b600081359050610d4f81611161565b92915050565b600081519050610d6481611161565b92915050565b600060208284031215610d7c57600080fd5b6000610d8a84828501610c25565b91505092915050565b600060208284031215610da557600080fd5b600082015167ffffffffffffffff811115610dbf57600080fd5b610dcb84828501610c3a565b91505092915050565b600060208284031215610de657600080fd5b600082013567ffffffffffffffff811115610e0057600080fd5b610e0c84828501610cbd565b91505092915050565b600060208284031215610e2757600080fd5b6000610e3584828501610d40565b91505092915050565b600060208284031215610e5057600080fd5b6000610e5e84828501610d55565b91505092915050565b6000610e738383610f0a565b60208301905092915050565b610e8881611102565b82525050565b610e97816110b9565b82525050565b6000610ea882611090565b610eb281856110a8565b9350610ebd83611080565b8060005b83811015610eee578151610ed58882610e67565b9750610ee08361109b565b925050600181019050610ec1565b5085935050505092915050565b610f0481611114565b82525050565b610f13816110eb565b82525050565b610f22816110eb565b82525050565b610f31816110f5565b82525050565b6000602082019050610f4c6000830184610e7f565b92915050565b60006020820190508181036000830152610f6c8184610e9d565b905092915050565b60006040820190508181036000830152610f8e8185610e9d565b9050610f9d6020830184610e7f565b9392505050565b6000604082019050610fb96000830185610efb565b610fc66020830184610e8e565b9392505050565b6000602082019050610fe26000830184610f19565b92915050565b6000602082019050610ffd6000830184610f28565b92915050565b6000604051905081810181811067ffffffffffffffff8211171561102657600080fd5b8060405250919050565b600067ffffffffffffffff82111561104757600080fd5b602082029050602081019050919050565b600067ffffffffffffffff82111561106f57600080fd5b602082029050602081019050919050565b6000819050602082019050919050565b600081519050919050565b6000602082019050919050565b600082825260208201905092915050565b60006110c4826110cb565b9050919050565b600073ffffffffffffffffffffffffffffffffffffffff82169050919050565b6000819050919050565b600060ff82169050919050565b600061110d82611126565b9050919050565b600061111f826110eb565b9050919050565b600061113182611138565b9050919050565b6000611143826110cb565b9050919050565b611153816110b9565b811461115e57600080fd5b50565b61116a816110eb565b811461117557600080fd5b5056fea365627a7a723158207465640c384c1db7f12e5b1ae7182d7cc01f14f0aa036d06fee263a718a087766c6578706572696d656e74616cf564736f6c63430005100040",
  "source": "pragma solidity >=0.4.21 <0.7.0;\npragma experimental ABIEncoderV2;\nimport \"./GovToken.sol\";\nimport \"./ProposalContract.sol\";\n\ncontract Approval {\n    GovToken gt = GovToken(0x3D416Cfa03D21155529Dc2aa7f877137B719ca74);\n    \n    address proposal_contract_address = 0x40B4A36A8f733BbeC4E65FdD75Cd522faB53AeF5;\n    ProposalContract p = ProposalContract(proposal_contract_address);\n    \n   \n    \n    uint approval_count = 0;\n    // mapping of epoch to approved_proposals\n    mapping(uint => uint[]) approved_proposals;\n    \n    \n    mapping(address => uint8) private member_status;\n    \n    // map epoch and id to number of approvals\n    mapping(uint256 => mapping(uint => uint)) private approvals;\n    \n\n    event ProposalsApproved(uint[] ProposalIDs, address councilMember);\n    event ProposalsFinalized(uint[] final_proposals);\n\n\n  \n    function approve_proposals(uint[] memory proposalIDs) public returns (uint) {\n        // only council member can access TODO\n        require(gt.check_if_council_member_new(msg.sender) == 1);\n        // they should not have already approved \n        require(member_status[msg.sender] != 1);\n        \n        // approve (increase proposal approve count)\n        uint len = proposalIDs.length;\n        for (uint i =0; i<len; i++) {\n            approvals[gt.get_current_epoch()][i] += 1;\n        }\n        // set member status\n        member_status[msg.sender] = 1;\n        approval_count += 1;\n       \n        \n        emit ProposalsApproved(proposalIDs, msg.sender);\n        \n        if (approval_count == gt.getCouncilCount()) {\n            uint[] memory final_proposals = get_final_proposals();\n            reset_member_statuses();\n            emit ProposalsFinalized(final_proposals);\n        }\n        \n      \n    }\n    \n    function get_final_proposals() private returns (uint[] memory) {\n \n        uint min_approvals = (gt.getCouncilCount() + 1)/2; // > 50% of council members \n       \n        uint proposal_count = p.getProposalCount();\n        \n    \n        for (uint i = 0; i<proposal_count; i++){\n            if (approvals[gt.get_current_epoch()-1][i] > min_approvals) {\n                approved_proposals[gt.get_current_epoch() -1].push(i);\n                // transfer coins to winning proposals \n                address proposer = p.getProposer(i);\n                gt.mint_and_tranfer(100, proposer);\n            }\n        }\n        \n        return approved_proposals[gt.get_current_epoch() -1];\n        \n    }\n    \n    function reset_member_statuses() private {\n        // need a way to get an array of keys - google suggests keeping an external database on top of bc\n        address[] memory council_members = gt.getCouncilMembers();\n        \n        for (uint i = 0; i< council_members.length; i++){\n            member_status[council_members[i]] = 0;\n        }\n    }\n    \n    // returns 1 if a member already submitted his approvals\n    function get_member_approval_status() public view returns (uint8) {\n        return member_status[msg.sender];\n    }\n    \n    function get_proposal_approval_count(uint proposalID) public view returns (uint256) {\n        return approvals[gt.get_current_epoch()][proposalID];\n    }\n    \n    \n}",
  "sourcePath": "/Users/shashwat.arya/Desktop/BlockChain Project (Pied Piper)/BlockChain-Project--Pied-Piper-/contracts/Approval.sol",
  "compiler": {
    "name": "solc",
    "version": "0.5.16+commit.9c3226ce.Emscripten.clang"
  },
  "schemaVersion": "3.4.3",
  "updatedAt": "2021-11-18T13:44:55.021Z",
  "networkType": "ethereum",
  "devdoc": {
    "methods": {}
  },
  "userdoc": {
    "methods": {}
  }
}