{
  "contractName": "Approval",
  "abi": [
    {
      "anonymous": false,
      "inputs": [
        {
          "indexed": false,
          "internalType": "uint256[]",
          "name": "ProposalIDs",
          "type": "uint256[]"
        },
        {
          "indexed": false,
          "internalType": "address",
          "name": "councilMember",
          "type": "address"
        }
      ],
      "name": "ProposalsApproved",
      "type": "event"
    },
    {
      "anonymous": false,
      "inputs": [
        {
          "indexed": false,
          "internalType": "uint256[]",
          "name": "final_proposals",
          "type": "uint256[]"
        }
      ],
      "name": "ProposalsFinalized",
      "type": "event"
    },
    {
      "constant": false,
      "inputs": [
        {
          "internalType": "uint256[]",
          "name": "proposalIDs",
          "type": "uint256[]"
        }
      ],
      "name": "approve_proposals",
      "outputs": [
        {
          "internalType": "uint256",
          "name": "",
          "type": "uint256"
        }
      ],
      "payable": false,
      "stateMutability": "nonpayable",
      "type": "function"
    },
    {
      "constant": true,
      "inputs": [],
      "name": "get_member_approval_status",
      "outputs": [
        {
          "internalType": "uint8",
          "name": "",
          "type": "uint8"
        }
      ],
      "payable": false,
      "stateMutability": "view",
      "type": "function"
    },
    {
      "constant": true,
      "inputs": [
        {
          "internalType": "uint256",
          "name": "proposalID",
          "type": "uint256"
        }
      ],
      "name": "get_proposal_approval_count",
      "outputs": [
        {
          "internalType": "uint256",
          "name": "",
          "type": "uint256"
        }
      ],
      "payable": false,
      "stateMutability": "view",
      "type": "function"
    }
  ],
  "bytecode": "0x6080604052733d416cfa03d21155529dc2aa7f877137b719ca746000806101000a81548173ffffffffffffffffffffffffffffffffffffffff021916908373ffffffffffffffffffffffffffffffffffffffff1602179055507340b4a36a8f733bbec4e65fdd75cd522fab53aef5600160006101000a81548173ffffffffffffffffffffffffffffffffffffffff021916908373ffffffffffffffffffffffffffffffffffffffff160217905550600160009054906101000a900473ffffffffffffffffffffffffffffffffffffffff16600260006101000a81548173ffffffffffffffffffffffffffffffffffffffff021916908373ffffffffffffffffffffffffffffffffffffffff160217905550600060035534801561012157600080fd5b50611198806101316000396000f3fe608060405234801561001057600080fd5b50600436106100415760003560e01c8063b6c45a2114610046578063bdb4201714610076578063d8719965146100a6575b600080fd5b610060600480360361005b9190810190610e0d565b6100c4565b60405161006d9190610faa565b60405180910390f35b610090600480360361008b9190810190610dcc565b610190565b60405161009d9190610faa565b60405180910390f35b6100ae61052e565b6040516100bb9190610fc5565b60405180910390f35b6000600660008060009054906101000a900473ffffffffffffffffffffffffffffffffffffffff1673ffffffffffffffffffffffffffffffffffffffff1663837a9bc76040518163ffffffff1660e01b815260040160206040518083038186803b15801561013157600080fd5b505afa158015610145573d6000803e3d6000fd5b505050506040513d601f19601f820116820180604052506101699190810190610e36565b81526020019081526020016000206000838152602001908152602001600020549050919050565b600060016000809054906101000a900473ffffffffffffffffffffffffffffffffffffffff1673ffffffffffffffffffffffffffffffffffffffff166359c1414c6040518163ffffffff1660e01b815260040160206040518083038186803b1580156101fb57600080fd5b505afa15801561020f573d6000803e3d6000fd5b505050506040513d601f19601f820116820180604052506102339190810190610e36565b1461023d57600080fd5b6001600560003373ffffffffffffffffffffffffffffffffffffffff1673ffffffffffffffffffffffffffffffffffffffff16815260200190815260200160002060009054906101000a900460ff1660ff16141561029a57600080fd5b60008251905060008090505b8181101561038f5760016006600060016000809054906101000a900473ffffffffffffffffffffffffffffffffffffffff1673ffffffffffffffffffffffffffffffffffffffff1663837a9bc76040518163ffffffff1660e01b815260040160206040518083038186803b15801561031d57600080fd5b505afa158015610331573d6000803e3d6000fd5b505050506040513d601f19601f820116820180604052506103559190810190610e36565b03815260200190815260200160002060008381526020019081526020016000206000828254019250508190555080806001019150506102a6565b506001600560003373ffffffffffffffffffffffffffffffffffffffff1673ffffffffffffffffffffffffffffffffffffffff16815260200190815260200160002060006101000a81548160ff021916908360ff16021790555060016003600082825401925050819055507f21e2c30c9e2a02b0af1658b9e7d40b14c2e4e2cc420a6987eb487030a4a39d6d833360405161042b929190610f51565b60405180910390a16000809054906101000a900473ffffffffffffffffffffffffffffffffffffffff1673ffffffffffffffffffffffffffffffffffffffff16634627da506040518163ffffffff1660e01b815260040160206040518083038186803b15801561049a57600080fd5b505afa1580156104ae573d6000803e3d6000fd5b505050506040513d601f19601f820116820180604052506104d29190810190610e36565b60035414156105285760606104e5610582565b90506104ef610ae9565b7f29bd606d3258de78d2696d663f8b57cad52f58fbe20532d4752e0d0d84685ab58160405161051e9190610f2f565b60405180910390a1505b50919050565b6000600560003373ffffffffffffffffffffffffffffffffffffffff1673ffffffffffffffffffffffffffffffffffffffff16815260200190815260200160002060009054906101000a900460ff16905090565b60606000600260016000809054906101000a900473ffffffffffffffffffffffffffffffffffffffff1673ffffffffffffffffffffffffffffffffffffffff16634627da506040518163ffffffff1660e01b815260040160206040518083038186803b1580156105f157600080fd5b505afa158015610605573d6000803e3d6000fd5b505050506040513d601f19601f820116820180604052506106299190810190610e36565b018161063157fe5b0490506000600260009054906101000a900473ffffffffffffffffffffffffffffffffffffffff1673ffffffffffffffffffffffffffffffffffffffff1663c08cc02d6040518163ffffffff1660e01b815260040160206040518083038186803b15801561069e57600080fd5b505afa1580156106b2573d6000803e3d6000fd5b505050506040513d601f19601f820116820180604052506106d69190810190610e36565b905060008090505b818110156109de57826006600060016000809054906101000a900473ffffffffffffffffffffffffffffffffffffffff1673ffffffffffffffffffffffffffffffffffffffff1663837a9bc76040518163ffffffff1660e01b815260040160206040518083038186803b15801561075457600080fd5b505afa158015610768573d6000803e3d6000fd5b505050506040513d601f19601f8201168201806040525061078c9190810190610e36565b03815260200190815260200160002060008381526020019081526020016000205411156109d1576004600060016000809054906101000a900473ffffffffffffffffffffffffffffffffffffffff1673ffffffffffffffffffffffffffffffffffffffff1663837a9bc76040518163ffffffff1660e01b815260040160206040518083038186803b15801561082057600080fd5b505afa158015610834573d6000803e3d6000fd5b505050506040513d601f19601f820116820180604052506108589190810190610e36565b0381526020019081526020016000208190806001815401808255809150509060018203906000526020600020016000909192909190915055506000600260009054906101000a900473ffffffffffffffffffffffffffffffffffffffff1673ffffffffffffffffffffffffffffffffffffffff1663e14bd874836040518263ffffffff1660e01b81526004016108ee9190610faa565b60206040518083038186803b15801561090657600080fd5b505afa15801561091a573d6000803e3d6000fd5b505050506040513d601f19601f8201168201806040525061093e9190810190610d62565b90506000809054906101000a900473ffffffffffffffffffffffffffffffffffffffff1673ffffffffffffffffffffffffffffffffffffffff1663f4c628526064836040518363ffffffff1660e01b815260040161099d929190610f81565b600060405180830381600087803b1580156109b757600080fd5b505af11580156109cb573d6000803e3d6000fd5b50505050505b80806001019150506106de565b506004600060016000809054906101000a900473ffffffffffffffffffffffffffffffffffffffff1673ffffffffffffffffffffffffffffffffffffffff1663837a9bc76040518163ffffffff1660e01b815260040160206040518083038186803b158015610a4c57600080fd5b505afa158015610a60573d6000803e3d6000fd5b505050506040513d601f19601f82011682018060405250610a849190810190610e36565b038152602001908152602001600020805480602002602001604051908101604052809291908181526020018280548015610add57602002820191906000526020600020905b815481526020019060010190808311610ac9575b50505050509250505090565b60606000809054906101000a900473ffffffffffffffffffffffffffffffffffffffff1673ffffffffffffffffffffffffffffffffffffffff1663606a6b766040518163ffffffff1660e01b815260040160006040518083038186803b158015610b5257600080fd5b505afa158015610b66573d6000803e3d6000fd5b505050506040513d6000823e3d601f19601f82011682018060405250610b8f9190810190610d8b565b905060008090505b8151811015610c1957600060056000848481518110610bb257fe5b602002602001015173ffffffffffffffffffffffffffffffffffffffff1673ffffffffffffffffffffffffffffffffffffffff16815260200190815260200160002060006101000a81548160ff021916908360ff1602179055508080600101915050610b97565b5050565b600081519050610c2c81611127565b92915050565b600082601f830112610c4357600080fd5b8151610c56610c518261100d565b610fe0565b91508181835260208401935060208101905083856020840282011115610c7b57600080fd5b60005b83811015610cab5781610c918882610c1d565b845260208401935060208301925050600181019050610c7e565b5050505092915050565b600082601f830112610cc657600080fd5b8135610cd9610cd482611035565b610fe0565b91508181835260208401935060208101905083856020840282011115610cfe57600080fd5b60005b83811015610d2e5781610d148882610d38565b845260208401935060208301925050600181019050610d01565b5050505092915050565b600081359050610d478161113e565b92915050565b600081519050610d5c8161113e565b92915050565b600060208284031215610d7457600080fd5b6000610d8284828501610c1d565b91505092915050565b600060208284031215610d9d57600080fd5b600082015167ffffffffffffffff811115610db757600080fd5b610dc384828501610c32565b91505092915050565b600060208284031215610dde57600080fd5b600082013567ffffffffffffffff811115610df857600080fd5b610e0484828501610cb5565b91505092915050565b600060208284031215610e1f57600080fd5b6000610e2d84828501610d38565b91505092915050565b600060208284031215610e4857600080fd5b6000610e5684828501610d4d565b91505092915050565b6000610e6b8383610f02565b60208301905092915050565b610e80816110df565b82525050565b610e8f81611096565b82525050565b6000610ea08261106d565b610eaa8185611085565b9350610eb58361105d565b8060005b83811015610ee6578151610ecd8882610e5f565b9750610ed883611078565b925050600181019050610eb9565b5085935050505092915050565b610efc816110f1565b82525050565b610f0b816110c8565b82525050565b610f1a816110c8565b82525050565b610f29816110d2565b82525050565b60006020820190508181036000830152610f498184610e95565b905092915050565b60006040820190508181036000830152610f6b8185610e95565b9050610f7a6020830184610e77565b9392505050565b6000604082019050610f966000830185610ef3565b610fa36020830184610e86565b9392505050565b6000602082019050610fbf6000830184610f11565b92915050565b6000602082019050610fda6000830184610f20565b92915050565b6000604051905081810181811067ffffffffffffffff8211171561100357600080fd5b8060405250919050565b600067ffffffffffffffff82111561102457600080fd5b602082029050602081019050919050565b600067ffffffffffffffff82111561104c57600080fd5b602082029050602081019050919050565b6000819050602082019050919050565b600081519050919050565b6000602082019050919050565b600082825260208201905092915050565b60006110a1826110a8565b9050919050565b600073ffffffffffffffffffffffffffffffffffffffff82169050919050565b6000819050919050565b600060ff82169050919050565b60006110ea82611103565b9050919050565b60006110fc826110c8565b9050919050565b600061110e82611115565b9050919050565b6000611120826110a8565b9050919050565b61113081611096565b811461113b57600080fd5b50565b611147816110c8565b811461115257600080fd5b5056fea365627a7a723158201ebedd7a5b47cb821a01d3f0b3658339a0111dc01aa91019da17c2908e7b3fd36c6578706572696d656e74616cf564736f6c63430005100040",
  "source": "pragma solidity >=0.4.21 <0.7.0;\npragma experimental ABIEncoderV2;\nimport \"./GovToken.sol\";\nimport \"./ProposalContract.sol\";\n\ncontract Approval {\n    GovToken gt = GovToken(0x3D416Cfa03D21155529Dc2aa7f877137B719ca74);\n    \n    address proposal_contract_address = 0x40B4A36A8f733BbeC4E65FdD75Cd522faB53AeF5;\n    ProposalContract p = ProposalContract(proposal_contract_address);\n    \n   \n    \n    uint approval_count = 0;\n    // mapping of epoch to approved_proposals\n    mapping(uint => uint[]) approved_proposals;\n    \n    \n    mapping(address => uint8) private member_status;\n    \n    // map epoch and id to number of approvals\n    mapping(uint256 => mapping(uint => uint)) private approvals;\n    \n\n    event ProposalsApproved(uint[] ProposalIDs, address councilMember);\n    event ProposalsFinalized(uint[] final_proposals);\n\n\n  \n    function approve_proposals(uint[] memory proposalIDs) public returns (uint) {\n        // only council member can access TODO\n        require(gt.check_if_council_member() == 1);\n        // they should not have already approved \n        require(member_status[msg.sender] != 1);\n        \n        // approve (increase proposal approve count)\n        uint len = proposalIDs.length;\n        for (uint i =0; i<len; i++) {\n            approvals[gt.get_current_epoch()-1][i] += 1;\n        }\n        // set member status\n        member_status[msg.sender] = 1;\n        approval_count += 1;\n       \n        \n        emit ProposalsApproved(proposalIDs, msg.sender);\n        \n        if (approval_count == gt.getCouncilCount()) {\n            uint[] memory final_proposals = get_final_proposals();\n            reset_member_statuses();\n            emit ProposalsFinalized(final_proposals);\n        }\n        \n      \n    }\n    \n    function get_final_proposals() private returns (uint[] memory) {\n \n        uint min_approvals = (gt.getCouncilCount() + 1)/2; // > 50% of council members \n       \n        uint proposal_count = p.getProposalCount();\n        \n    \n        for (uint i = 0; i<proposal_count; i++){\n            if (approvals[gt.get_current_epoch()-1][i] > min_approvals) {\n                approved_proposals[gt.get_current_epoch() -1].push(i);\n                // transfer coins to winning proposals \n                address proposer = p.getProposer(i);\n                gt.mint_and_tranfer(100, proposer);\n            }\n        }\n        \n        return approved_proposals[gt.get_current_epoch() -1];\n        \n    }\n    \n    function reset_member_statuses() private {\n        // need a way to get an array of keys - google suggests keeping an external database on top of bc\n        address[] memory council_members = gt.getCouncilMembers();\n        \n        for (uint i = 0; i< council_members.length; i++){\n            member_status[council_members[i]] = 0;\n        }\n    }\n    \n    // returns 1 if a member already submitted his approvals\n    function get_member_approval_status() public view returns (uint8) {\n        return member_status[msg.sender];\n    }\n    \n    function get_proposal_approval_count(uint proposalID) public view returns (uint256) {\n        return approvals[gt.get_current_epoch()][proposalID];\n    }\n    \n    \n}",
  "sourcePath": "/Users/shashwat.arya/Desktop/BlockChain Project (Pied Piper)/BlockChain-Project--Pied-Piper-/contracts/Approve.sol",
  "compiler": {
    "name": "solc",
    "version": "0.5.16+commit.9c3226ce.Emscripten.clang"
  },
  "schemaVersion": "3.4.3",
  "updatedAt": "2021-11-17T09:42:52.008Z",
  "devdoc": {
    "methods": {}
  },
  "userdoc": {
    "methods": {}
  }
}