{
  "contractName": "Approval",
  "abi": [
    {
      "anonymous": false,
      "inputs": [
        {
          "indexed": false,
          "internalType": "uint256[]",
          "name": "ProposalIDs",
          "type": "uint256[]"
        },
        {
          "indexed": false,
          "internalType": "address",
          "name": "councilMember",
          "type": "address"
        }
      ],
      "name": "ProposalsApproved",
      "type": "event"
    },
    {
      "anonymous": false,
      "inputs": [
        {
          "indexed": false,
          "internalType": "uint256[]",
          "name": "final_proposals",
          "type": "uint256[]"
        }
      ],
      "name": "ProposalsFinalized",
      "type": "event"
    },
    {
      "constant": false,
      "inputs": [
        {
          "internalType": "uint256[]",
          "name": "proposalIDs",
          "type": "uint256[]"
        }
      ],
      "name": "approve_proposals",
      "outputs": [
        {
          "internalType": "uint256",
          "name": "",
          "type": "uint256"
        }
      ],
      "payable": false,
      "stateMutability": "nonpayable",
      "type": "function"
    },
    {
      "constant": false,
      "inputs": [],
      "name": "decide_final_approvals",
      "outputs": [],
      "payable": false,
      "stateMutability": "nonpayable",
      "type": "function"
    },
    {
      "constant": true,
      "inputs": [],
      "name": "get_member_approval_status",
      "outputs": [
        {
          "internalType": "uint8",
          "name": "",
          "type": "uint8"
        }
      ],
      "payable": false,
      "stateMutability": "view",
      "type": "function"
    },
    {
      "constant": true,
      "inputs": [
        {
          "internalType": "uint256",
          "name": "proposalID",
          "type": "uint256"
        }
      ],
      "name": "get_proposal_approval_count",
      "outputs": [
        {
          "internalType": "uint256",
          "name": "",
          "type": "uint256"
        }
      ],
      "payable": false,
      "stateMutability": "view",
      "type": "function"
    },
    {
      "constant": false,
      "inputs": [
        {
          "internalType": "address",
          "name": "proposal_add",
          "type": "address"
        },
        {
          "internalType": "address",
          "name": "govtoken_add",
          "type": "address"
        }
      ],
      "name": "setContractAddress",
      "outputs": [],
      "payable": false,
      "stateMutability": "nonpayable",
      "type": "function"
    }
  ],
  "bytecode": "0x6080604052733d416cfa03d21155529dc2aa7f877137b719ca746000806101000a81548173ffffffffffffffffffffffffffffffffffffffff021916908373ffffffffffffffffffffffffffffffffffffffff1602179055507340b4a36a8f733bbec4e65fdd75cd522fab53aef5600160006101000a81548173ffffffffffffffffffffffffffffffffffffffff021916908373ffffffffffffffffffffffffffffffffffffffff160217905550600160009054906101000a900473ffffffffffffffffffffffffffffffffffffffff16600260006101000a81548173ffffffffffffffffffffffffffffffffffffffff021916908373ffffffffffffffffffffffffffffffffffffffff160217905550600060035534801561012157600080fd5b50610f4d806101316000396000f3fe608060405234801561001057600080fd5b50600436106100575760003560e01c806323626df71461005c578063b5a8db1014610078578063b6c45a2114610082578063bdb42017146100b2578063d8719965146100e2575b600080fd5b61007660048036036100719190810190610b26565b610100565b005b610080610185565b005b61009c60048036036100979190810190610be4565b610597565b6040516100a99190610d5f565b60405180910390f35b6100cc60048036036100c79190810190610ba3565b610663565b6040516100d99190610d5f565b60405180910390f35b6100ea610813565b6040516100f79190610d7a565b60405180910390f35b81600260006101000a81548173ffffffffffffffffffffffffffffffffffffffff021916908373ffffffffffffffffffffffffffffffffffffffff160217905550806000806101000a81548173ffffffffffffffffffffffffffffffffffffffff021916908373ffffffffffffffffffffffffffffffffffffffff1602179055505050565b6000600160026000809054906101000a900473ffffffffffffffffffffffffffffffffffffffff1673ffffffffffffffffffffffffffffffffffffffff16634627da506040518163ffffffff1660e01b815260040160206040518083038186803b1580156101f257600080fd5b505afa158015610206573d6000803e3d6000fd5b505050506040513d601f19601f8201168201806040525061022a9190810190610c0d565b8161023157fe5b040190506000600260009054906101000a900473ffffffffffffffffffffffffffffffffffffffff1673ffffffffffffffffffffffffffffffffffffffff1663c08cc02d6040518163ffffffff1660e01b815260040160206040518083038186803b15801561029f57600080fd5b505afa1580156102b3573d6000803e3d6000fd5b505050506040513d601f19601f820116820180604052506102d79190810190610c0d565b905060008090505b8181101561058a5782600560008060009054906101000a900473ffffffffffffffffffffffffffffffffffffffff1673ffffffffffffffffffffffffffffffffffffffff1663837a9bc76040518163ffffffff1660e01b815260040160206040518083038186803b15801561035357600080fd5b505afa158015610367573d6000803e3d6000fd5b505050506040513d601f19601f8201168201806040525061038b9190810190610c0d565b81526020019081526020016000206000838152602001908152602001600020541061057d57600260009054906101000a900473ffffffffffffffffffffffffffffffffffffffff1673ffffffffffffffffffffffffffffffffffffffff1663c01a80ab826040518263ffffffff1660e01b815260040161040b9190610d5f565b600060405180830381600087803b15801561042557600080fd5b505af1158015610439573d6000803e3d6000fd5b505050506000600260009054906101000a900473ffffffffffffffffffffffffffffffffffffffff1673ffffffffffffffffffffffffffffffffffffffff1663e14bd874836040518263ffffffff1660e01b815260040161049a9190610d5f565b60206040518083038186803b1580156104b257600080fd5b505afa1580156104c6573d6000803e3d6000fd5b505050506040513d601f19601f820116820180604052506104ea9190810190610afd565b90506000809054906101000a900473ffffffffffffffffffffffffffffffffffffffff1673ffffffffffffffffffffffffffffffffffffffff1663f4c628526064836040518363ffffffff1660e01b8152600401610549929190610d36565b600060405180830381600087803b15801561056357600080fd5b505af1158015610577573d6000803e3d6000fd5b50505050505b80806001019150506102df565b50610593610867565b5050565b6000600560008060009054906101000a900473ffffffffffffffffffffffffffffffffffffffff1673ffffffffffffffffffffffffffffffffffffffff1663837a9bc76040518163ffffffff1660e01b815260040160206040518083038186803b15801561060457600080fd5b505afa158015610618573d6000803e3d6000fd5b505050506040513d601f19601f8201168201806040525061063c9190810190610c0d565b81526020019081526020016000206000838152602001908152602001600020549050919050565b6000808251905060008090505b81811015610769576001600560008060009054906101000a900473ffffffffffffffffffffffffffffffffffffffff1673ffffffffffffffffffffffffffffffffffffffff1663837a9bc76040518163ffffffff1660e01b815260040160206040518083038186803b1580156106e557600080fd5b505afa1580156106f9573d6000803e3d6000fd5b505050506040513d601f19601f8201168201806040525061071d9190810190610c0d565b8152602001908152602001600020600086848151811061073957fe5b60200260200101518152602001908152602001600020600082825401925050819055508080600101915050610670565b506001600460003373ffffffffffffffffffffffffffffffffffffffff1673ffffffffffffffffffffffffffffffffffffffff16815260200190815260200160002060006101000a81548160ff021916908360ff16021790555060016003600082825401925050819055507f21e2c30c9e2a02b0af1658b9e7d40b14c2e4e2cc420a6987eb487030a4a39d6d8333604051610805929190610d06565b60405180910390a150919050565b6000600460003373ffffffffffffffffffffffffffffffffffffffff1673ffffffffffffffffffffffffffffffffffffffff16815260200190815260200160002060009054906101000a900460ff16905090565b60606000809054906101000a900473ffffffffffffffffffffffffffffffffffffffff1673ffffffffffffffffffffffffffffffffffffffff1663606a6b766040518163ffffffff1660e01b815260040160006040518083038186803b1580156108d057600080fd5b505afa1580156108e4573d6000803e3d6000fd5b505050506040513d6000823e3d601f19601f8201168201806040525061090d9190810190610b62565b905060008090505b81518110156109975760006004600084848151811061093057fe5b602002602001015173ffffffffffffffffffffffffffffffffffffffff1673ffffffffffffffffffffffffffffffffffffffff16815260200190815260200160002060006101000a81548160ff021916908360ff1602179055508080600101915050610915565b50600060038190555050565b6000813590506109b281610edc565b92915050565b6000815190506109c781610edc565b92915050565b600082601f8301126109de57600080fd5b81516109f16109ec82610dc2565b610d95565b91508181835260208401935060208101905083856020840282011115610a1657600080fd5b60005b83811015610a465781610a2c88826109b8565b845260208401935060208301925050600181019050610a19565b5050505092915050565b600082601f830112610a6157600080fd5b8135610a74610a6f82610dea565b610d95565b91508181835260208401935060208101905083856020840282011115610a9957600080fd5b60005b83811015610ac95781610aaf8882610ad3565b845260208401935060208301925050600181019050610a9c565b5050505092915050565b600081359050610ae281610ef3565b92915050565b600081519050610af781610ef3565b92915050565b600060208284031215610b0f57600080fd5b6000610b1d848285016109b8565b91505092915050565b60008060408385031215610b3957600080fd5b6000610b47858286016109a3565b9250506020610b58858286016109a3565b9150509250929050565b600060208284031215610b7457600080fd5b600082015167ffffffffffffffff811115610b8e57600080fd5b610b9a848285016109cd565b91505092915050565b600060208284031215610bb557600080fd5b600082013567ffffffffffffffff811115610bcf57600080fd5b610bdb84828501610a50565b91505092915050565b600060208284031215610bf657600080fd5b6000610c0484828501610ad3565b91505092915050565b600060208284031215610c1f57600080fd5b6000610c2d84828501610ae8565b91505092915050565b6000610c428383610cd9565b60208301905092915050565b610c5781610e94565b82525050565b610c6681610e4b565b82525050565b6000610c7782610e22565b610c818185610e3a565b9350610c8c83610e12565b8060005b83811015610cbd578151610ca48882610c36565b9750610caf83610e2d565b925050600181019050610c90565b5085935050505092915050565b610cd381610ea6565b82525050565b610ce281610e7d565b82525050565b610cf181610e7d565b82525050565b610d0081610e87565b82525050565b60006040820190508181036000830152610d208185610c6c565b9050610d2f6020830184610c4e565b9392505050565b6000604082019050610d4b6000830185610cca565b610d586020830184610c5d565b9392505050565b6000602082019050610d746000830184610ce8565b92915050565b6000602082019050610d8f6000830184610cf7565b92915050565b6000604051905081810181811067ffffffffffffffff82111715610db857600080fd5b8060405250919050565b600067ffffffffffffffff821115610dd957600080fd5b602082029050602081019050919050565b600067ffffffffffffffff821115610e0157600080fd5b602082029050602081019050919050565b6000819050602082019050919050565b600081519050919050565b6000602082019050919050565b600082825260208201905092915050565b6000610e5682610e5d565b9050919050565b600073ffffffffffffffffffffffffffffffffffffffff82169050919050565b6000819050919050565b600060ff82169050919050565b6000610e9f82610eb8565b9050919050565b6000610eb182610e7d565b9050919050565b6000610ec382610eca565b9050919050565b6000610ed582610e5d565b9050919050565b610ee581610e4b565b8114610ef057600080fd5b50565b610efc81610e7d565b8114610f0757600080fd5b5056fea365627a7a72315820c6a1828fe402eca7a70ee72c44361e92888f2d571a56e6dd4d7e5b84e7be93096c6578706572696d656e74616cf564736f6c63430005100040",
  "source": "pragma solidity >=0.4.21 <0.7.0;\npragma experimental ABIEncoderV2;\nimport \"./GovToken.sol\";\nimport \"./ProposalContract.sol\";\n\ncontract Approval {\n    GovToken gt = GovToken(0x3D416Cfa03D21155529Dc2aa7f877137B719ca74);\n    \n    address proposal_contract_address = 0x40B4A36A8f733BbeC4E65FdD75Cd522faB53AeF5;\n    ProposalContract p = ProposalContract(proposal_contract_address);\n    \n    \n    uint approval_count = 0;\n    // mapping of epoch to approved_proposals\n    // mapping(uint => uint[]) approved_proposals;\n    // mapping(uint => mapping(uint => uint8)) approved_proposals;\n    \n    \n    mapping(address => uint8) private member_status;\n    \n    // map epoch and id to number of approvals\n    mapping(uint256 => mapping(uint => uint)) private approvals;\n    \n\n    event ProposalsApproved(uint[] ProposalIDs, address councilMember);\n    event ProposalsFinalized(uint[] final_proposals);\n    \n    // function getApprovalsByEpoch(uint epoch) public view returns (uint[] memory) {\n    //     return approved_proposals[epoch];\n    // }\n\n  \n    function approve_proposals(uint[] memory proposalIDs) public returns (uint) {\n        // only council member can access \n        // require(gt.check_if_council_member_new(msg.sender) == 1, \"only council members can approve\");\n        // they should not have already approved \n        // require(member_status[msg.sender] != 1, \"a council member can only submit approvals once in a epoch\");\n        \n        // approve (increase proposal approve count)\n        uint len = proposalIDs.length;\n        for (uint i =0; i<len; i++) {\n            approvals[gt.get_current_epoch()][proposalIDs[i]] += 1;\n        }\n        // set member status\n        member_status[msg.sender] = 1;\n        approval_count += 1;\n       \n        \n        emit ProposalsApproved(proposalIDs, msg.sender);\n        \n        // if (approval_count == gt.getCouncilCount()) {\n        //     uint[] memory final_proposals = get_final_proposals();\n        //     reset_member_statuses();\n        //     emit ProposalsFinalized(final_proposals);\n        // }\n        // if (approval_count == gt.getCouncilCount()) {\n        //     decide_final_approvals();\n            \n        // }\n        \n      \n    }\n    \n    function decide_final_approvals() public {\n \n        uint min_approvals = (gt.getCouncilCount() /2) + 1; // > 50% of council members \n       \n        uint proposal_count = p.getProposalCount();\n        \n    \n        for (uint i = 0; i<proposal_count; i++){\n            if (approvals[gt.get_current_epoch()][i] >= min_approvals) {\n                // approved_proposals[gt.get_current_epoch()].push(i);\n                p.updateApprovalStatus(i);\n                // approved_proposals_for_epochs[gt.get_current_epoch()][i] = 1;\n                // transfer coins to winning proposals \n                address proposer = p.getProposer(i);\n                gt.mint_and_tranfer(100, proposer);\n            }\n        }\n        \n        // commented\n        reset_member_statuses();\n        // gt.start_new_epoch();\n        \n        \n        \n        // return approved_proposals[gt.get_current_epoch()];\n        \n    }\n    \n    \n    function reset_member_statuses() private {\n        // need a way to get an array of keys - google suggests keeping an external database on top of bc\n        address[] memory council_members = gt.getCouncilMembers();\n        \n        for (uint i = 0; i< council_members.length; i++){\n            member_status[council_members[i]] = 0;\n        }\n        \n        approval_count = 0;\n    }\n    \n    // returns 1 if a member already submitted his approvals\n    function get_member_approval_status() public view returns (uint8) {\n        return member_status[msg.sender];\n    }\n    \n    function get_proposal_approval_count(uint proposalID) public view returns (uint256) {\n        return approvals[gt.get_current_epoch()][proposalID];\n    }\n    \n    function setContractAddress(address proposal_add,address govtoken_add) public {\n        p = ProposalContract(proposal_add);\n        gt = GovToken(govtoken_add);\n    }\n    \n    \n}",
  "sourcePath": "/Users/shashwat.arya/Desktop/BlockChain Project (Pied Piper)/BlockChain-Project--Pied-Piper-/contracts/Approval.sol",
  "compiler": {
    "name": "solc",
    "version": "0.5.16+commit.9c3226ce.Emscripten.clang"
  },
  "schemaVersion": "3.4.3",
  "updatedAt": "2021-11-27T07:27:23.237Z",
  "networkType": "ethereum",
  "devdoc": {
    "methods": {}
  },
  "userdoc": {
    "methods": {}
  }
}