{
  "contractName": "Approval",
  "abi": [
    {
      "anonymous": false,
      "inputs": [
        {
          "indexed": false,
          "internalType": "uint256[]",
          "name": "ProposalIDs",
          "type": "uint256[]"
        },
        {
          "indexed": false,
          "internalType": "address",
          "name": "councilMember",
          "type": "address"
        }
      ],
      "name": "ProposalsApproved",
      "type": "event"
    },
    {
      "anonymous": false,
      "inputs": [
        {
          "indexed": false,
          "internalType": "uint256[]",
          "name": "final_proposals",
          "type": "uint256[]"
        }
      ],
      "name": "ProposalsFinalized",
      "type": "event"
    },
    {
      "constant": false,
      "inputs": [
        {
          "internalType": "uint256[]",
          "name": "proposalIDs",
          "type": "uint256[]"
        }
      ],
      "name": "approve_proposals",
      "outputs": [
        {
          "internalType": "uint256",
          "name": "",
          "type": "uint256"
        }
      ],
      "payable": false,
      "stateMutability": "nonpayable",
      "type": "function"
    }
  ],
  "bytecode": "0x60806040526000600255600060035534801561001a57600080fd5b50610d3c8061002a6000396000f3fe608060405234801561001057600080fd5b506004361061002b5760003560e01c8063bdb4201714610030575b600080fd5b61004a60048036036100459190810190610906565b610060565b6040516100579190610b3f565b60405180910390f35b60006001600560003373ffffffffffffffffffffffffffffffffffffffff1673ffffffffffffffffffffffffffffffffffffffff16815260200190815260200160002060009054906101000a900460ff1660ff1614156100bf57600080fd5b60008251905060008090505b818110156101b1576001600660008060009054906101000a900473ffffffffffffffffffffffffffffffffffffffff1673ffffffffffffffffffffffffffffffffffffffff1663837a9bc76040518163ffffffff1660e01b815260040160206040518083038186803b15801561014057600080fd5b505afa158015610154573d6000803e3d6000fd5b505050506040513d601f19601f8201168201806040525061017891908101906109da565b815260200190815260200160002060008381526020019081526020016000206000828254019250508190555080806001019150506100cb565b506001600560003373ffffffffffffffffffffffffffffffffffffffff1673ffffffffffffffffffffffffffffffffffffffff16815260200190815260200160002060006101000a81548160ff021916908360ff16021790555060016003600082825401925050819055507f21e2c30c9e2a02b0af1658b9e7d40b14c2e4e2cc420a6987eb487030a4a39d6d833360405161024d929190610ae6565b60405180910390a16000809054906101000a900473ffffffffffffffffffffffffffffffffffffffff1673ffffffffffffffffffffffffffffffffffffffff16634627da506040518163ffffffff1660e01b815260040160206040518083038186803b1580156102bc57600080fd5b505afa1580156102d0573d6000803e3d6000fd5b505050506040513d601f19601f820116820180604052506102f491908101906109da565b600354141561034a576060610307610350565b9050610311610762565b7f29bd606d3258de78d2696d663f8b57cad52f58fbe20532d4752e0d0d84685ab5816040516103409190610ac4565b60405180910390a1505b50919050565b60606000600260016000809054906101000a900473ffffffffffffffffffffffffffffffffffffffff1673ffffffffffffffffffffffffffffffffffffffff16634627da506040518163ffffffff1660e01b815260040160206040518083038186803b1580156103bf57600080fd5b505afa1580156103d3573d6000803e3d6000fd5b505050506040513d601f19601f820116820180604052506103f791908101906109da565b01816103ff57fe5b0490506000600160009054906101000a900473ffffffffffffffffffffffffffffffffffffffff1673ffffffffffffffffffffffffffffffffffffffff1663c08cc02d6040518163ffffffff1660e01b815260040160206040518083038186803b15801561046c57600080fd5b505afa158015610480573d6000803e3d6000fd5b505050506040513d601f19601f820116820180604052506104a491908101906109da565b905060008090505b818110156107095782600660008060009054906101000a900473ffffffffffffffffffffffffffffffffffffffff1673ffffffffffffffffffffffffffffffffffffffff1663837a9bc76040518163ffffffff1660e01b815260040160206040518083038186803b15801561052057600080fd5b505afa158015610534573d6000803e3d6000fd5b505050506040513d601f19601f8201168201806040525061055891908101906109da565b815260200190815260200160002060008381526020019081526020016000205411156106fc576004819080600181540180825580915050906001820390600052602060002001600090919290919091505550606080600080600160009054906101000a900473ffffffffffffffffffffffffffffffffffffffff1673ffffffffffffffffffffffffffffffffffffffff16633656de21866040518263ffffffff1660e01b815260040161060b9190610b3f565b60006040518083038186803b15801561062357600080fd5b505afa158015610637573d6000803e3d6000fd5b505050506040513d6000823e3d601f19601f820116820180604052506106609190810190610947565b93509350935093506000809054906101000a900473ffffffffffffffffffffffffffffffffffffffff1673ffffffffffffffffffffffffffffffffffffffff1663f4c628526064836040518363ffffffff1660e01b81526004016106c5929190610b16565b600060405180830381600087803b1580156106df57600080fd5b505af11580156106f3573d6000803e3d6000fd5b50505050505050505b80806001019150506104ac565b50600480548060200260200160405190810160405280929190818152602001828054801561075657602002820191906000526020600020905b815481526020019060010190808311610742575b50505050509250505090565b606060008090505b81518110156107ec5760006005600084848151811061078557fe5b602002602001015173ffffffffffffffffffffffffffffffffffffffff1673ffffffffffffffffffffffffffffffffffffffff16815260200190815260200160002060006101000a81548160ff021916908360ff160217905550808060010191505061076a565b5050565b6000815190506107ff81610ccb565b92915050565b600082601f83011261081657600080fd5b813561082961082482610b87565b610b5a565b9150818183526020840193506020810190508385602084028201111561084e57600080fd5b60005b8381101561087e578161086488826108dc565b845260208401935060208301925050600181019050610851565b5050505092915050565b600082601f83011261089957600080fd5b81516108ac6108a782610baf565b610b5a565b915080825260208301602083018583830111156108c857600080fd5b6108d3838284610c98565b50505092915050565b6000813590506108eb81610ce2565b92915050565b60008151905061090081610ce2565b92915050565b60006020828403121561091857600080fd5b600082013567ffffffffffffffff81111561093257600080fd5b61093e84828501610805565b91505092915050565b6000806000806080858703121561095d57600080fd5b600085015167ffffffffffffffff81111561097757600080fd5b61098387828801610888565b945050602085015167ffffffffffffffff8111156109a057600080fd5b6109ac87828801610888565b93505060406109bd878288016108f1565b92505060606109ce878288016107f0565b91505092959194509250565b6000602082840312156109ec57600080fd5b60006109fa848285016108f1565b91505092915050565b6000610a0f8383610aa6565b60208301905092915050565b610a2481610c50565b82525050565b610a3381610c14565b82525050565b6000610a4482610beb565b610a4e8185610c03565b9350610a5983610bdb565b8060005b83811015610a8a578151610a718882610a03565b9750610a7c83610bf6565b925050600181019050610a5d565b5085935050505092915050565b610aa081610c62565b82525050565b610aaf81610c46565b82525050565b610abe81610c46565b82525050565b60006020820190508181036000830152610ade8184610a39565b905092915050565b60006040820190508181036000830152610b008185610a39565b9050610b0f6020830184610a1b565b9392505050565b6000604082019050610b2b6000830185610a97565b610b386020830184610a2a565b9392505050565b6000602082019050610b546000830184610ab5565b92915050565b6000604051905081810181811067ffffffffffffffff82111715610b7d57600080fd5b8060405250919050565b600067ffffffffffffffff821115610b9e57600080fd5b602082029050602081019050919050565b600067ffffffffffffffff821115610bc657600080fd5b601f19601f8301169050602081019050919050565b6000819050602082019050919050565b600081519050919050565b6000602082019050919050565b600082825260208201905092915050565b6000610c1f82610c26565b9050919050565b600073ffffffffffffffffffffffffffffffffffffffff82169050919050565b6000819050919050565b6000610c5b82610c74565b9050919050565b6000610c6d82610c46565b9050919050565b6000610c7f82610c86565b9050919050565b6000610c9182610c26565b9050919050565b60005b83811015610cb6578082015181840152602081019050610c9b565b83811115610cc5576000848401525b50505050565b610cd481610c14565b8114610cdf57600080fd5b50565b610ceb81610c46565b8114610cf657600080fd5b5056fea365627a7a72315820eb521b03a7c6300c08e9d98eeacef9f8aa436df0a553e5ee5ed69d329ff363cf6c6578706572696d656e74616cf564736f6c63430005100040",
  "source": "pragma solidity >=0.4.21 <0.7.0;\npragma experimental ABIEncoderV2;\nimport \"./GovToken.sol\";\nimport \"./ProposalContract.sol\";\n\ncontract Approval {\n    GovToken gt;\n    ProposalContract p;\n    \n    uint epoch = 0;\n    \n    uint approval_count = 0;\n    uint[] approved_proposals;\n    \n    \n    mapping(address => uint8) private member_status;\n    \n    // mapping(uint => uint) private approvals;\n    // map epoch and id to number of approvals\n    mapping(uint256 => mapping(uint256 => uint256)) private approvals;\n\n    event ProposalsApproved(uint[] ProposalIDs, address councilMember);\n    event ProposalsFinalized(uint[] final_proposals);\n\n\n  \n    function approve_proposals(uint[] memory proposalIDs) public returns (uint) {\n        // only council member can access TODO\n        // they should not have already approved \n        require(member_status[msg.sender] != 1);\n        \n        // approve (increase proposal approve count)\n        uint len = proposalIDs.length;\n        for (uint i =0; i<len; i++) {\n            approvals[gt.get_current_epoch()][i] += 1;\n        }\n        // set member status\n        member_status[msg.sender] = 1;\n        approval_count += 1;\n       \n        \n        emit ProposalsApproved(proposalIDs, msg.sender);\n        \n        if (approval_count == gt.getCouncilCount()) {\n            uint[] memory final_proposals = get_final_proposals();\n            reset_member_statuses();\n            emit ProposalsFinalized(final_proposals);\n        }\n        \n      \n    }\n    \n    function get_final_proposals() private returns (uint[] memory) {\n        // check again whether only 1 proposal can be chosen in the end or multiple\n        // loop through the approvals and get the project with the max\n        \n        \n        uint min_approvals = (gt.getCouncilCount() + 1)/2; // > 50% of council members \n       \n        //mapping memory current_approvals = approvals[g.get_current_epoch()];\n        uint proposal_count = p.getProposalCount();\n        \n        // uint max_count = 0\n        // int winning_proposal\n        // for (uint i = 0; i<proposal_count; i++){\n        //     if (current_approvals[i] > max_count) {\n        //         max_count = current_approvals[i]\n        //         winning_proposal = i\n        //     }\n        // }\n        for (uint i = 0; i<proposal_count; i++){\n            if (approvals[gt.get_current_epoch()][i] > min_approvals) {\n                approved_proposals.push(i);\n                // transfer coins to winning proposals \n                (string memory text,string memory title,uint votes,address proposer) = p.getProposalById(i);\n                gt.mint_and_tranfer(100, proposer);\n            }\n        }\n        \n        \n        \n        \n        return approved_proposals;\n        \n    }\n    \n    function reset_member_statuses() private {\n        // need a way to get an array of keys - google suggests keeping an external database on top of bc\n        //address[] memory council_members = gt.getCouncilMembers();\n        address[] memory council_members;\n        for (uint i = 0; i< council_members.length; i++){\n            member_status[council_members[i]] = 0;\n        }\n    }\n    \n    // to check if a member aleader approved\n    // function get_member_approval_status() public view returns (uint8) {\n    //     return member_status[msg.sender];\n    // }\n    \n    // function get_proposal_approval_count(uint proposalID) public view returns (uint) {\n    //     return approvals[proposalID];\n    // }\n    \n\n  \n\n   \n    \n}",
  "sourcePath": "/Users/kirath/Desktop/BlockChain-Project--Pied-Piper-/contracts/Approve.sol",
  "compiler": {
    "name": "solc",
    "version": "0.5.16+commit.9c3226ce.Emscripten.clang"
  },
  "schemaVersion": "3.4.3",
  "updatedAt": "2021-11-14T14:54:58.183Z",
  "devdoc": {
    "methods": {}
  },
  "userdoc": {
    "methods": {}
  }
}