{
  "contractName": "Approval",
  "abi": [
    {
      "anonymous": false,
      "inputs": [
        {
          "indexed": false,
          "internalType": "uint256[]",
          "name": "ProposalIDs",
          "type": "uint256[]"
        },
        {
          "indexed": false,
          "internalType": "address",
          "name": "councilMember",
          "type": "address"
        }
      ],
      "name": "ProposalsApproved",
      "type": "event"
    },
    {
      "anonymous": false,
      "inputs": [
        {
          "indexed": false,
          "internalType": "uint256[]",
          "name": "final_proposals",
          "type": "uint256[]"
        }
      ],
      "name": "ProposalsFinalized",
      "type": "event"
    },
    {
      "constant": false,
      "inputs": [
        {
          "internalType": "uint256[]",
          "name": "proposalIDs",
          "type": "uint256[]"
        }
      ],
      "name": "approve_proposals",
      "outputs": [
        {
          "internalType": "uint256",
          "name": "",
          "type": "uint256"
        }
      ],
      "payable": false,
      "stateMutability": "nonpayable",
      "type": "function"
    },
    {
      "constant": true,
      "inputs": [],
      "name": "get_member_approval_status",
      "outputs": [
        {
          "internalType": "uint8",
          "name": "",
          "type": "uint8"
        }
      ],
      "payable": false,
      "stateMutability": "view",
      "type": "function"
    },
    {
      "constant": true,
      "inputs": [
        {
          "internalType": "uint256",
          "name": "proposalID",
          "type": "uint256"
        }
      ],
      "name": "get_proposal_approval_count",
      "outputs": [
        {
          "internalType": "uint256",
          "name": "",
          "type": "uint256"
        }
      ],
      "payable": false,
      "stateMutability": "view",
      "type": "function"
    },
    {
      "constant": false,
      "inputs": [
        {
          "internalType": "address",
          "name": "proposal_add",
          "type": "address"
        },
        {
          "internalType": "address",
          "name": "govtoken_add",
          "type": "address"
        }
      ],
      "name": "setContractAddress",
      "outputs": [],
      "payable": false,
      "stateMutability": "nonpayable",
      "type": "function"
    }
  ],
  "bytecode": "0x6080604052733d416cfa03d21155529dc2aa7f877137b719ca746000806101000a81548173ffffffffffffffffffffffffffffffffffffffff021916908373ffffffffffffffffffffffffffffffffffffffff1602179055507340b4a36a8f733bbec4e65fdd75cd522fab53aef5600160006101000a81548173ffffffffffffffffffffffffffffffffffffffff021916908373ffffffffffffffffffffffffffffffffffffffff160217905550600160009054906101000a900473ffffffffffffffffffffffffffffffffffffffff16600260006101000a81548173ffffffffffffffffffffffffffffffffffffffff021916908373ffffffffffffffffffffffffffffffffffffffff160217905550600060035534801561012157600080fd5b5061108b806101316000396000f3fe608060405234801561001057600080fd5b506004361061004c5760003560e01c806323626df714610051578063b6c45a211461006d578063bdb420171461009d578063d8719965146100cd575b600080fd5b61006b60048036036100669190810190610c64565b6100eb565b005b61008760048036036100829190810190610d22565b610170565b6040516100949190610e9d565b60405180910390f35b6100b760048036036100b29190810190610ce1565b61023c565b6040516100c49190610e9d565b60405180910390f35b6100d561049d565b6040516100e29190610eb8565b60405180910390f35b81600260006101000a81548173ffffffffffffffffffffffffffffffffffffffff021916908373ffffffffffffffffffffffffffffffffffffffff160217905550806000806101000a81548173ffffffffffffffffffffffffffffffffffffffff021916908373ffffffffffffffffffffffffffffffffffffffff1602179055505050565b6000600560008060009054906101000a900473ffffffffffffffffffffffffffffffffffffffff1673ffffffffffffffffffffffffffffffffffffffff1663837a9bc76040518163ffffffff1660e01b815260040160206040518083038186803b1580156101dd57600080fd5b505afa1580156101f1573d6000803e3d6000fd5b505050506040513d601f19601f820116820180604052506102159190810190610d4b565b81526020019081526020016000206000838152602001908152602001600020549050919050565b6000808251905060008090505b81811015610342576001600560008060009054906101000a900473ffffffffffffffffffffffffffffffffffffffff1673ffffffffffffffffffffffffffffffffffffffff1663837a9bc76040518163ffffffff1660e01b815260040160206040518083038186803b1580156102be57600080fd5b505afa1580156102d2573d6000803e3d6000fd5b505050506040513d601f19601f820116820180604052506102f69190810190610d4b565b8152602001908152602001600020600086848151811061031257fe5b60200260200101518152602001908152602001600020600082825401925050819055508080600101915050610249565b506001600460003373ffffffffffffffffffffffffffffffffffffffff1673ffffffffffffffffffffffffffffffffffffffff16815260200190815260200160002060006101000a81548160ff021916908360ff16021790555060016003600082825401925050819055507f21e2c30c9e2a02b0af1658b9e7d40b14c2e4e2cc420a6987eb487030a4a39d6d83336040516103de929190610e44565b60405180910390a16000809054906101000a900473ffffffffffffffffffffffffffffffffffffffff1673ffffffffffffffffffffffffffffffffffffffff16634627da506040518163ffffffff1660e01b815260040160206040518083038186803b15801561044d57600080fd5b505afa158015610461573d6000803e3d6000fd5b505050506040513d601f19601f820116820180604052506104859190810190610d4b565b6003541415610497576104966104f1565b5b50919050565b6000600460003373ffffffffffffffffffffffffffffffffffffffff1673ffffffffffffffffffffffffffffffffffffffff16815260200190815260200160002060009054906101000a900460ff16905090565b6000600160026000809054906101000a900473ffffffffffffffffffffffffffffffffffffffff1673ffffffffffffffffffffffffffffffffffffffff16634627da506040518163ffffffff1660e01b815260040160206040518083038186803b15801561055e57600080fd5b505afa158015610572573d6000803e3d6000fd5b505050506040513d601f19601f820116820180604052506105969190810190610d4b565b8161059d57fe5b040190506000600260009054906101000a900473ffffffffffffffffffffffffffffffffffffffff1673ffffffffffffffffffffffffffffffffffffffff1663c08cc02d6040518163ffffffff1660e01b815260040160206040518083038186803b15801561060b57600080fd5b505afa15801561061f573d6000803e3d6000fd5b505050506040513d601f19601f820116820180604052506106439190810190610d4b565b905060008090505b818110156108f65782600560008060009054906101000a900473ffffffffffffffffffffffffffffffffffffffff1673ffffffffffffffffffffffffffffffffffffffff1663837a9bc76040518163ffffffff1660e01b815260040160206040518083038186803b1580156106bf57600080fd5b505afa1580156106d3573d6000803e3d6000fd5b505050506040513d601f19601f820116820180604052506106f79190810190610d4b565b8152602001908152602001600020600083815260200190815260200160002054106108e957600260009054906101000a900473ffffffffffffffffffffffffffffffffffffffff1673ffffffffffffffffffffffffffffffffffffffff1663c01a80ab826040518263ffffffff1660e01b81526004016107779190610e9d565b600060405180830381600087803b15801561079157600080fd5b505af11580156107a5573d6000803e3d6000fd5b505050506000600260009054906101000a900473ffffffffffffffffffffffffffffffffffffffff1673ffffffffffffffffffffffffffffffffffffffff1663e14bd874836040518263ffffffff1660e01b81526004016108069190610e9d565b60206040518083038186803b15801561081e57600080fd5b505afa158015610832573d6000803e3d6000fd5b505050506040513d601f19601f820116820180604052506108569190810190610c3b565b90506000809054906101000a900473ffffffffffffffffffffffffffffffffffffffff1673ffffffffffffffffffffffffffffffffffffffff1663f4c628526064836040518363ffffffff1660e01b81526004016108b5929190610e74565b600060405180830381600087803b1580156108cf57600080fd5b505af11580156108e3573d6000803e3d6000fd5b50505050505b808060010191505061064b565b506108ff6109a5565b6000809054906101000a900473ffffffffffffffffffffffffffffffffffffffff1673ffffffffffffffffffffffffffffffffffffffff16636043351a6040518163ffffffff1660e01b8152600401602060405180830381600087803b15801561096857600080fd5b505af115801561097c573d6000803e3d6000fd5b505050506040513d601f19601f820116820180604052506109a09190810190610d4b565b505050565b60606000809054906101000a900473ffffffffffffffffffffffffffffffffffffffff1673ffffffffffffffffffffffffffffffffffffffff1663606a6b766040518163ffffffff1660e01b815260040160006040518083038186803b158015610a0e57600080fd5b505afa158015610a22573d6000803e3d6000fd5b505050506040513d6000823e3d601f19601f82011682018060405250610a4b9190810190610ca0565b905060008090505b8151811015610ad557600060046000848481518110610a6e57fe5b602002602001015173ffffffffffffffffffffffffffffffffffffffff1673ffffffffffffffffffffffffffffffffffffffff16815260200190815260200160002060006101000a81548160ff021916908360ff1602179055508080600101915050610a53565b50600060038190555050565b600081359050610af08161101a565b92915050565b600081519050610b058161101a565b92915050565b600082601f830112610b1c57600080fd5b8151610b2f610b2a82610f00565b610ed3565b91508181835260208401935060208101905083856020840282011115610b5457600080fd5b60005b83811015610b845781610b6a8882610af6565b845260208401935060208301925050600181019050610b57565b5050505092915050565b600082601f830112610b9f57600080fd5b8135610bb2610bad82610f28565b610ed3565b91508181835260208401935060208101905083856020840282011115610bd757600080fd5b60005b83811015610c075781610bed8882610c11565b845260208401935060208301925050600181019050610bda565b5050505092915050565b600081359050610c2081611031565b92915050565b600081519050610c3581611031565b92915050565b600060208284031215610c4d57600080fd5b6000610c5b84828501610af6565b91505092915050565b60008060408385031215610c7757600080fd5b6000610c8585828601610ae1565b9250506020610c9685828601610ae1565b9150509250929050565b600060208284031215610cb257600080fd5b600082015167ffffffffffffffff811115610ccc57600080fd5b610cd884828501610b0b565b91505092915050565b600060208284031215610cf357600080fd5b600082013567ffffffffffffffff811115610d0d57600080fd5b610d1984828501610b8e565b91505092915050565b600060208284031215610d3457600080fd5b6000610d4284828501610c11565b91505092915050565b600060208284031215610d5d57600080fd5b6000610d6b84828501610c26565b91505092915050565b6000610d808383610e17565b60208301905092915050565b610d9581610fd2565b82525050565b610da481610f89565b82525050565b6000610db582610f60565b610dbf8185610f78565b9350610dca83610f50565b8060005b83811015610dfb578151610de28882610d74565b9750610ded83610f6b565b925050600181019050610dce565b5085935050505092915050565b610e1181610fe4565b82525050565b610e2081610fbb565b82525050565b610e2f81610fbb565b82525050565b610e3e81610fc5565b82525050565b60006040820190508181036000830152610e5e8185610daa565b9050610e6d6020830184610d8c565b9392505050565b6000604082019050610e896000830185610e08565b610e966020830184610d9b565b9392505050565b6000602082019050610eb26000830184610e26565b92915050565b6000602082019050610ecd6000830184610e35565b92915050565b6000604051905081810181811067ffffffffffffffff82111715610ef657600080fd5b8060405250919050565b600067ffffffffffffffff821115610f1757600080fd5b602082029050602081019050919050565b600067ffffffffffffffff821115610f3f57600080fd5b602082029050602081019050919050565b6000819050602082019050919050565b600081519050919050565b6000602082019050919050565b600082825260208201905092915050565b6000610f9482610f9b565b9050919050565b600073ffffffffffffffffffffffffffffffffffffffff82169050919050565b6000819050919050565b600060ff82169050919050565b6000610fdd82610ff6565b9050919050565b6000610fef82610fbb565b9050919050565b600061100182611008565b9050919050565b600061101382610f9b565b9050919050565b61102381610f89565b811461102e57600080fd5b50565b61103a81610fbb565b811461104557600080fd5b5056fea365627a7a7231582058715a140afc68b8dd47f40e5b3003895d3dd248e118b42e4046b79b110877bf6c6578706572696d656e74616cf564736f6c63430005100040",
  "source": "pragma solidity >=0.4.21 <0.7.0;\npragma experimental ABIEncoderV2;\nimport \"./GovToken.sol\";\nimport \"./ProposalContract.sol\";\n\ncontract Approval {\n    GovToken gt = GovToken(0x3D416Cfa03D21155529Dc2aa7f877137B719ca74);\n    \n    address proposal_contract_address = 0x40B4A36A8f733BbeC4E65FdD75Cd522faB53AeF5;\n    ProposalContract p = ProposalContract(proposal_contract_address);\n    \n    \n    uint approval_count = 0;\n    // mapping of epoch to approved_proposals\n    // mapping(uint => uint[]) approved_proposals;\n    // mapping(uint => mapping(uint => uint8)) approved_proposals;\n    \n    \n    mapping(address => uint8) private member_status;\n    \n    // map epoch and id to number of approvals\n    mapping(uint256 => mapping(uint => uint)) private approvals;\n    \n\n    event ProposalsApproved(uint[] ProposalIDs, address councilMember);\n    event ProposalsFinalized(uint[] final_proposals);\n    \n    // function getApprovalsByEpoch(uint epoch) public view returns (uint[] memory) {\n    //     return approved_proposals[epoch];\n    // }\n\n  \n    function approve_proposals(uint[] memory proposalIDs) public returns (uint) {\n        // only council member can access \n        // require(gt.check_if_council_member_new(msg.sender) == 1, \"only council members can approve\");\n        // they should not have already approved \n        // require(member_status[msg.sender] != 1, \"a council member can only submit approvals once in a epoch\");\n        \n        // approve (increase proposal approve count)\n        uint len = proposalIDs.length;\n        for (uint i =0; i<len; i++) {\n            approvals[gt.get_current_epoch()][proposalIDs[i]] += 1;\n        }\n        // set member status\n        member_status[msg.sender] = 1;\n        approval_count += 1;\n       \n        \n        emit ProposalsApproved(proposalIDs, msg.sender);\n        \n        // if (approval_count == gt.getCouncilCount()) {\n        //     uint[] memory final_proposals = get_final_proposals();\n        //     reset_member_statuses();\n        //     emit ProposalsFinalized(final_proposals);\n        // }\n        if (approval_count == gt.getCouncilCount()) {\n            decide_final_approvals();\n            \n        }\n        \n      \n    }\n    \n    function decide_final_approvals() private {\n \n        uint min_approvals = (gt.getCouncilCount() /2) + 1; // > 50% of council members \n       \n        uint proposal_count = p.getProposalCount();\n        \n    \n        for (uint i = 0; i<proposal_count; i++){\n            if (approvals[gt.get_current_epoch()][i] >= min_approvals) {\n                // approved_proposals[gt.get_current_epoch()].push(i);\n                p.updateApprovalStatus(i);\n                // approved_proposals_for_epochs[gt.get_current_epoch()][i] = 1;\n                // transfer coins to winning proposals \n                address proposer = p.getProposer(i);\n                gt.mint_and_tranfer(100, proposer);\n            }\n        }\n        \n        reset_member_statuses();\n        gt.start_new_epoch();\n        \n        \n        \n        // return approved_proposals[gt.get_current_epoch()];\n        \n    }\n    \n    \n    function reset_member_statuses() private {\n        // need a way to get an array of keys - google suggests keeping an external database on top of bc\n        address[] memory council_members = gt.getCouncilMembers();\n        \n        for (uint i = 0; i< council_members.length; i++){\n            member_status[council_members[i]] = 0;\n        }\n        \n        approval_count = 0;\n    }\n    \n    // returns 1 if a member already submitted his approvals\n    function get_member_approval_status() public view returns (uint8) {\n        return member_status[msg.sender];\n    }\n    \n    function get_proposal_approval_count(uint proposalID) public view returns (uint256) {\n        return approvals[gt.get_current_epoch()][proposalID];\n    }\n    \n    function setContractAddress(address proposal_add,address govtoken_add) public {\n        p = ProposalContract(proposal_add);\n        gt = GovToken(govtoken_add);\n    }\n    \n    \n}",
  "sourcePath": "/Users/shashwat.arya/Desktop/BlockChain Project (Pied Piper)/BlockChain-Project--Pied-Piper-/contracts/Approval.sol",
  "compiler": {
    "name": "solc",
    "version": "0.5.16+commit.9c3226ce.Emscripten.clang"
  },
  "schemaVersion": "3.4.3",
  "updatedAt": "2021-11-21T10:47:50.922Z",
  "networkType": "ethereum",
  "devdoc": {
    "methods": {}
  },
  "userdoc": {
    "methods": {}
  }
}