{
  "contractName": "Auth",
  "abi": [
    {
      "anonymous": false,
      "inputs": [
        {
          "indexed": false,
          "internalType": "string",
          "name": "username",
          "type": "string"
        }
      ],
      "name": "PasswordUpdated",
      "type": "event"
    },
    {
      "anonymous": false,
      "inputs": [
        {
          "indexed": false,
          "internalType": "string",
          "name": "username",
          "type": "string"
        },
        {
          "indexed": false,
          "internalType": "address",
          "name": "wallet_address",
          "type": "address"
        }
      ],
      "name": "ProfileCreated",
      "type": "event"
    },
    {
      "anonymous": false,
      "inputs": [
        {
          "indexed": false,
          "internalType": "string",
          "name": "username",
          "type": "string"
        }
      ],
      "name": "loginUnsuccessful",
      "type": "event"
    },
    {
      "constant": true,
      "inputs": [
        {
          "internalType": "address",
          "name": "",
          "type": "address"
        }
      ],
      "name": "number_of_profiles",
      "outputs": [
        {
          "internalType": "uint256",
          "name": "",
          "type": "uint256"
        }
      ],
      "payable": false,
      "stateMutability": "view",
      "type": "function"
    },
    {
      "constant": true,
      "inputs": [
        {
          "internalType": "address",
          "name": "",
          "type": "address"
        },
        {
          "internalType": "uint256",
          "name": "",
          "type": "uint256"
        }
      ],
      "name": "profiles",
      "outputs": [
        {
          "internalType": "string",
          "name": "username",
          "type": "string"
        },
        {
          "internalType": "string",
          "name": "password",
          "type": "string"
        },
        {
          "internalType": "string",
          "name": "secret_phrase",
          "type": "string"
        }
      ],
      "payable": false,
      "stateMutability": "view",
      "type": "function"
    },
    {
      "constant": false,
      "inputs": [
        {
          "internalType": "string",
          "name": "username",
          "type": "string"
        },
        {
          "internalType": "string",
          "name": "password",
          "type": "string"
        },
        {
          "internalType": "string",
          "name": "secret_phrase",
          "type": "string"
        }
      ],
      "name": "addProfile",
      "outputs": [
        {
          "internalType": "bool",
          "name": "",
          "type": "bool"
        }
      ],
      "payable": false,
      "stateMutability": "nonpayable",
      "type": "function"
    },
    {
      "constant": false,
      "inputs": [
        {
          "internalType": "string",
          "name": "username",
          "type": "string"
        },
        {
          "internalType": "string",
          "name": "secret_phrase",
          "type": "string"
        },
        {
          "internalType": "string",
          "name": "new_password",
          "type": "string"
        }
      ],
      "name": "updatePassword",
      "outputs": [
        {
          "internalType": "bool",
          "name": "",
          "type": "bool"
        }
      ],
      "payable": false,
      "stateMutability": "nonpayable",
      "type": "function"
    },
    {
      "constant": false,
      "inputs": [
        {
          "internalType": "string",
          "name": "username",
          "type": "string"
        },
        {
          "internalType": "string",
          "name": "password",
          "type": "string"
        }
      ],
      "name": "login",
      "outputs": [
        {
          "internalType": "uint256",
          "name": "",
          "type": "uint256"
        }
      ],
      "payable": false,
      "stateMutability": "nonpayable",
      "type": "function"
    }
  ],
  "bytecode": "0x6080604052600060035534801561001557600080fd5b50611180806100256000396000f3fe608060405234801561001057600080fd5b50600436106100575760003560e01c80631b2ed49c1461005c578063507b4e791461008e57806358467dbc146100be578063d5f4d694146100ee578063d909bf0e1461011e575b600080fd5b61007660048036036100719190810190610bff565b61014e565b60405161008593929190610f37565b60405180910390f35b6100a860048036036100a39190810190610ca7565b61035a565b6040516100b59190610eca565b60405180910390f35b6100d860048036036100d39190810190610c3b565b6105d4565b6040516100e59190610f83565b60405180910390f35b61010860048036036101039190810190610bd6565b6107a9565b6040516101159190610f83565b60405180910390f35b61013860048036036101339190810190610ca7565b6107c1565b6040516101459190610eca565b60405180910390f35b6000602052816000526040600020818154811061016757fe5b906000526020600020906003020160009150915050806000018054600181600116156101000203166002900480601f0160208091040260200160405190810160405280929190818152602001828054600181600116156101000203166002900480156102145780601f106101e957610100808354040283529160200191610214565b820191906000526020600020905b8154815290600101906020018083116101f757829003601f168201915b505050505090806001018054600181600116156101000203166002900480601f0160208091040260200160405190810160405280929190818152602001828054600181600116156101000203166002900480156102b25780601f10610287576101008083540402835291602001916102b2565b820191906000526020600020905b81548152906001019060200180831161029557829003601f168201915b505050505090806002018054600181600116156101000203166002900480601f0160208091040260200160405190810160405280929190818152602001828054600181600116156101000203166002900480156103505780601f1061032557610100808354040283529160200191610350565b820191906000526020600020905b81548152906001019060200180831161033357829003601f168201915b5050505050905083565b600080600160003373ffffffffffffffffffffffffffffffffffffffff1673ffffffffffffffffffffffffffffffffffffffff16815260200190815260200160002054905060008090505b818110156105c657856040516020016103be9190610e9c565b604051602081830303815290604052805190602001206000803373ffffffffffffffffffffffffffffffffffffffff1673ffffffffffffffffffffffffffffffffffffffff168152602001908152602001600020828154811061041d57fe5b906000526020600020906003020160000160405160200161043e9190610eb3565b6040516020818303038152906040528051906020012014801561050557508460405160200161046d9190610e9c565b604051602081830303815290604052805190602001206000803373ffffffffffffffffffffffffffffffffffffffff1673ffffffffffffffffffffffffffffffffffffffff16815260200190815260200160002082815481106104cc57fe5b90600052602060002090600302016002016040516020016104ed9190610eb3565b60405160208183030381529060405280519060200120145b156105bb57836000803373ffffffffffffffffffffffffffffffffffffffff1673ffffffffffffffffffffffffffffffffffffffff168152602001908152602001600020828154811061055457fe5b90600052602060002090600302016001019080519060200190610578929190610a33565b507fd0b43b0b96083c98cc0f0370575812de87ee48ff1bde30bcd74f3518443bc4f5866040516105a89190610ee5565b60405180910390a16001925050506105cd565b6001810190506103a5565b5060009150505b9392505050565b600080600160003373ffffffffffffffffffffffffffffffffffffffff1673ffffffffffffffffffffffffffffffffffffffff16815260200190815260200160002054905060008090505b8181101561079c57846040516020016106389190610e9c565b604051602081830303815290604052805190602001206000803373ffffffffffffffffffffffffffffffffffffffff1673ffffffffffffffffffffffffffffffffffffffff168152602001908152602001600020828154811061069757fe5b90600052602060002090600302016000016040516020016106b89190610eb3565b6040516020818303038152906040528051906020012014801561077f5750836040516020016106e79190610e9c565b604051602081830303815290604052805190602001206000803373ffffffffffffffffffffffffffffffffffffffff1673ffffffffffffffffffffffffffffffffffffffff168152602001908152602001600020828154811061074657fe5b90600052602060002090600302016001016040516020016107679190610eb3565b60405160208183030381529060405280519060200120145b1561078f576001925050506107a3565b808060010191505061061f565b5060009150505b92915050565b60016020528060005260406000206000915090505481565b60006107cc84610997565b156107da5760009050610990565b6000803373ffffffffffffffffffffffffffffffffffffffff1673ffffffffffffffffffffffffffffffffffffffff16815260200190815260200160002060405180606001604052808681526020018581526020018481525090806001815401808255809150509060018203906000526020600020906003020160009091929091909150600082015181600001908051906020019061087a929190610ab3565b506020820151816001019080519060200190610897929190610ab3565b5060408201518160020190805190602001906108b4929190610ab3565b50505050600160003373ffffffffffffffffffffffffffffffffffffffff1673ffffffffffffffffffffffffffffffffffffffff168152602001908152602001600020600081548092919060010191905055506002849080600181540180825580915050906001820390600052602060002001600090919290919091509080519060200190610944929190610a33565b50506001600354016003819055507f48cd04660754343a75aabc83899998826b6c3fc1c623d3cfb42bcd3e465cfa3c8433604051610983929190610f07565b60405180910390a1600190505b9392505050565b600080600090505b600354811015610a2857826040516020016109ba9190610e9c565b60405160208183030381529060405280519060200120600282815481106109dd57fe5b906000526020600020016040516020016109f79190610eb3565b604051602081830303815290604052805190602001201415610a1d576001915050610a2e565b60018101905061099f565b50600090505b919050565b828054600181600116156101000203166002900490600052602060002090601f016020900481019282601f10610a7457805160ff1916838001178555610aa2565b82800160010185558215610aa2579182015b82811115610aa1578251825591602001919060010190610a86565b5b509050610aaf9190610b33565b5090565b828054600181600116156101000203166002900490600052602060002090601f016020900481019282601f10610af457805160ff1916838001178555610b22565b82800160010185558215610b22579182015b82811115610b21578251825591602001919060010190610b06565b5b509050610b2f9190610b33565b5090565b610b5591905b80821115610b51576000816000905550600101610b39565b5090565b90565b600081359050610b678161110f565b92915050565b600082601f830112610b7e57600080fd5b8135610b91610b8c82610fcb565b610f9e565b91508082526020830160208301858383011115610bad57600080fd5b610bb88382846110bc565b50505092915050565b600081359050610bd081611126565b92915050565b600060208284031215610be857600080fd5b6000610bf684828501610b58565b91505092915050565b60008060408385031215610c1257600080fd5b6000610c2085828601610b58565b9250506020610c3185828601610bc1565b9150509250929050565b60008060408385031215610c4e57600080fd5b600083013567ffffffffffffffff811115610c6857600080fd5b610c7485828601610b6d565b925050602083013567ffffffffffffffff811115610c9157600080fd5b610c9d85828601610b6d565b9150509250929050565b600080600060608486031215610cbc57600080fd5b600084013567ffffffffffffffff811115610cd657600080fd5b610ce286828701610b6d565b935050602084013567ffffffffffffffff811115610cff57600080fd5b610d0b86828701610b6d565b925050604084013567ffffffffffffffff811115610d2857600080fd5b610d3486828701610b6d565b9150509250925092565b610d4781611086565b82525050565b610d5681611050565b82525050565b6000610d6782611017565b610d718185611022565b9350610d818185602086016110cb565b610d8a816110fe565b840191505092915050565b6000610da082611017565b610daa8185611033565b9350610dba8185602086016110cb565b80840191505092915050565b6000610dd18261100c565b610ddb8185611022565b9350610deb8185602086016110cb565b610df4816110fe565b840191505092915050565b600081546001811660008114610e1c5760018114610e4157610e85565b607f6002830416610e2d8187611033565b955060ff1983168652808601935050610e85565b60028204610e4f8187611033565b9550610e5a85610ff7565b60005b82811015610e7c57815481890152600182019150602081019050610e5d565b82880195505050505b505092915050565b610e968161107c565b82525050565b6000610ea88284610d95565b915081905092915050565b6000610ebf8284610dff565b915081905092915050565b6000602082019050610edf6000830184610d4d565b92915050565b60006020820190508181036000830152610eff8184610d5c565b905092915050565b60006040820190508181036000830152610f218185610d5c565b9050610f306020830184610d3e565b9392505050565b60006060820190508181036000830152610f518186610dc6565b90508181036020830152610f658185610dc6565b90508181036040830152610f798184610dc6565b9050949350505050565b6000602082019050610f986000830184610e8d565b92915050565b6000604051905081810181811067ffffffffffffffff82111715610fc157600080fd5b8060405250919050565b600067ffffffffffffffff821115610fe257600080fd5b601f19601f8301169050602081019050919050565b60008190508160005260206000209050919050565b600081519050919050565b600081519050919050565b600082825260208201905092915050565b600081905092915050565b60006110498261105c565b9050919050565b60008115159050919050565b600073ffffffffffffffffffffffffffffffffffffffff82169050919050565b6000819050919050565b600061109182611098565b9050919050565b60006110a3826110aa565b9050919050565b60006110b58261105c565b9050919050565b82818337600083830152505050565b60005b838110156110e95780820151818401526020810190506110ce565b838111156110f8576000848401525b50505050565b6000601f19601f8301169050919050565b6111188161103e565b811461112357600080fd5b50565b61112f8161107c565b811461113a57600080fd5b5056fea365627a7a72315820e97e6988d63f7dd04e8c1640a40383ef99398e7f74a9e3dad985b4a5057153786c6578706572696d656e74616cf564736f6c63430005100040",
  "source": "pragma solidity >=0.4.21 <0.7.0;\npragma experimental ABIEncoderV2;\n\ncontract Auth{\n    \n    struct Profile {\n        string username;\n        string password;\n        string secret_phrase;\n    }\n    \n    mapping(address => Profile[]) public profiles;\n    mapping(address => uint) public number_of_profiles;\n    string [] usernames;\n    uint username_count = 0;\n    \n    event ProfileCreated(string username, address wallet_address);\n    event PasswordUpdated(string username);\n    event loginUnsuccessful(string username);\n    \n    function addProfile(string memory username , string memory password , string memory secret_phrase) public returns (bool){\n        if(checkUsernameExists(username)){\n            return false;\n        }\n        profiles[msg.sender].push(Profile(username , password , secret_phrase));\n        number_of_profiles[msg.sender]++;\n        usernames.push(username);\n        username_count = username_count+1;\n        emit ProfileCreated(username , msg.sender);\n        return true;\n    }\n    \n    //function viewProfile(string memory username) public view;\n    \n    function updatePassword(string memory username , string memory secret_phrase , string memory new_password) public returns (bool){\n        \n        uint loop_end = number_of_profiles[msg.sender];\n        for(uint i=0 ; i<loop_end ; i=i+1){\n            if(keccak256(abi.encodePacked(profiles[msg.sender][i].username)) == keccak256(abi.encodePacked(username)) && keccak256(abi.encodePacked(profiles[msg.sender][i].secret_phrase)) == keccak256(abi.encodePacked(secret_phrase))){\n                profiles[msg.sender][i].password = new_password;\n                emit PasswordUpdated(username);\n                return true;\n            }\n        }\n        return false;\n    }\n    \n    function checkUsernameExists(string memory username) private view returns (bool){\n        for(uint i=0; i < username_count ; i=i+1){\n            if(keccak256(abi.encodePacked(usernames[i])) == keccak256(abi.encodePacked(username))){\n                return true;\n            }\n        }\n        return false;\n    }\n    \n    function login(string memory username , string memory password) public returns(uint){\n        uint total_users = number_of_profiles[msg.sender];\n        for(uint i=0; i<total_users ; i++){\n            if(keccak256(abi.encodePacked(profiles[msg.sender][i].username)) == keccak256(abi.encodePacked(username)) && keccak256(abi.encodePacked(profiles[msg.sender][i].password)) == keccak256(abi.encodePacked(password))){\n                // check if the address has any govt tokens\n                return 1;\n            }\n        }\n        return 0;\n    }\n    \n    \n}",
  "sourcePath": "/Users/shashwat.arya/Desktop/BlockChain Project (Pied Piper)/BlockChain-Project--Pied-Piper-/contracts/Auth.sol",
  "compiler": {
    "name": "solc",
    "version": "0.5.16+commit.9c3226ce.Emscripten.clang"
  },
  "schemaVersion": "3.4.3",
  "updatedAt": "2021-10-31T13:56:50.022Z",
  "networkType": "ethereum",
  "devdoc": {
    "methods": {}
  },
  "userdoc": {
    "methods": {}
  }
}