{
  "contractName": "Auth",
  "abi": [
    {
      "anonymous": false,
      "inputs": [
        {
          "indexed": false,
          "internalType": "string",
          "name": "username",
          "type": "string"
        }
      ],
      "name": "PasswordUpdated",
      "type": "event"
    },
    {
      "anonymous": false,
      "inputs": [
        {
          "indexed": false,
          "internalType": "string",
          "name": "username",
          "type": "string"
        },
        {
          "indexed": false,
          "internalType": "address",
          "name": "wallet_address",
          "type": "address"
        }
      ],
      "name": "ProfileCreated",
      "type": "event"
    },
    {
      "anonymous": false,
      "inputs": [
        {
          "indexed": false,
          "internalType": "string",
          "name": "username",
          "type": "string"
        }
      ],
      "name": "loginUnsuccessful",
      "type": "event"
    },
    {
      "constant": true,
      "inputs": [
        {
          "internalType": "address",
          "name": "",
          "type": "address"
        }
      ],
      "name": "number_of_profiles",
      "outputs": [
        {
          "internalType": "uint256",
          "name": "",
          "type": "uint256"
        }
      ],
      "payable": false,
      "stateMutability": "view",
      "type": "function"
    },
    {
      "constant": true,
      "inputs": [
        {
          "internalType": "address",
          "name": "",
          "type": "address"
        },
        {
          "internalType": "uint256",
          "name": "",
          "type": "uint256"
        }
      ],
      "name": "profiles",
      "outputs": [
        {
          "internalType": "string",
          "name": "username",
          "type": "string"
        },
        {
          "internalType": "string",
          "name": "password",
          "type": "string"
        },
        {
          "internalType": "string",
          "name": "secret_phrase",
          "type": "string"
        }
      ],
      "payable": false,
      "stateMutability": "view",
      "type": "function"
    },
    {
      "constant": false,
      "inputs": [
        {
          "internalType": "string",
          "name": "username",
          "type": "string"
        },
        {
          "internalType": "string",
          "name": "password",
          "type": "string"
        },
        {
          "internalType": "string",
          "name": "secret_phrase",
          "type": "string"
        }
      ],
      "name": "addProfile",
      "outputs": [
        {
          "internalType": "uint256",
          "name": "",
          "type": "uint256"
        }
      ],
      "payable": false,
      "stateMutability": "nonpayable",
      "type": "function"
    },
    {
      "constant": false,
      "inputs": [
        {
          "internalType": "string",
          "name": "username",
          "type": "string"
        },
        {
          "internalType": "string",
          "name": "secret_phrase",
          "type": "string"
        },
        {
          "internalType": "string",
          "name": "new_password",
          "type": "string"
        }
      ],
      "name": "updatePassword",
      "outputs": [
        {
          "internalType": "uint256",
          "name": "",
          "type": "uint256"
        }
      ],
      "payable": false,
      "stateMutability": "nonpayable",
      "type": "function"
    },
    {
      "constant": true,
      "inputs": [
        {
          "internalType": "string",
          "name": "username",
          "type": "string"
        },
        {
          "internalType": "string",
          "name": "password",
          "type": "string"
        }
      ],
      "name": "login",
      "outputs": [
        {
          "internalType": "uint256",
          "name": "",
          "type": "uint256"
        }
      ],
      "payable": false,
      "stateMutability": "view",
      "type": "function"
    },
    {
      "constant": false,
      "inputs": [
        {
          "internalType": "address",
          "name": "govtoken_add",
          "type": "address"
        }
      ],
      "name": "setContractAddress",
      "outputs": [],
      "payable": false,
      "stateMutability": "nonpayable",
      "type": "function"
    }
  ],
  "bytecode": "0x6080604052733d416cfa03d21155529dc2aa7f877137b719ca746000806101000a81548173ffffffffffffffffffffffffffffffffffffffff021916908373ffffffffffffffffffffffffffffffffffffffff160217905550600060045534801561006957600080fd5b506113cd806100796000396000f3fe608060405234801561001057600080fd5b50600436106100625760003560e01c80631b2ed49c14610067578063477bddaa14610099578063507b4e79146100b557806358467dbc146100e5578063d5f4d69414610115578063d909bf0e14610145575b600080fd5b610081600480360361007c9190810190610e0f565b610175565b6040516100909392919061117e565b60405180910390f35b6100b360048036036100ae9190810190610de6565b610381565b005b6100cf60048036036100ca9190810190610eb7565b6103c4565b6040516100dc91906111ca565b60405180910390f35b6100ff60048036036100fa9190810190610e4b565b610641565b60405161010c91906111ca565b60405180910390f35b61012f600480360361012a9190810190610de6565b610818565b60405161013c91906111ca565b60405180910390f35b61015f600480360361015a9190810190610eb7565b610830565b60405161016c91906111ca565b60405180910390f35b6001602052816000526040600020818154811061018e57fe5b906000526020600020906003020160009150915050806000018054600181600116156101000203166002900480601f01602080910402602001604051908101604052809291908181526020018280546001816001161561010002031660029004801561023b5780601f106102105761010080835404028352916020019161023b565b820191906000526020600020905b81548152906001019060200180831161021e57829003601f168201915b505050505090806001018054600181600116156101000203166002900480601f0160208091040260200160405190810160405280929190818152602001828054600181600116156101000203166002900480156102d95780601f106102ae576101008083540402835291602001916102d9565b820191906000526020600020905b8154815290600101906020018083116102bc57829003601f168201915b505050505090806002018054600181600116156101000203166002900480601f0160208091040260200160405190810160405280929190818152602001828054600181600116156101000203166002900480156103775780601f1061034c57610100808354040283529160200191610377565b820191906000526020600020905b81548152906001019060200180831161035a57829003601f168201915b5050505050905083565b806000806101000a81548173ffffffffffffffffffffffffffffffffffffffff021916908373ffffffffffffffffffffffffffffffffffffffff16021790555050565b600080600260003373ffffffffffffffffffffffffffffffffffffffff1673ffffffffffffffffffffffffffffffffffffffff16815260200190815260200160002054905060008090505b81811015610633578560405160200161042891906110d5565b60405160208183030381529060405280519060200120600160003373ffffffffffffffffffffffffffffffffffffffff1673ffffffffffffffffffffffffffffffffffffffff168152602001908152602001600020828154811061048857fe5b90600052602060002090600302016000016040516020016104a991906110ec565b604051602081830303815290604052805190602001201480156105715750846040516020016104d891906110d5565b60405160208183030381529060405280519060200120600160003373ffffffffffffffffffffffffffffffffffffffff1673ffffffffffffffffffffffffffffffffffffffff168152602001908152602001600020828154811061053857fe5b906000526020600020906003020160020160405160200161055991906110ec565b60405160208183030381529060405280519060200120145b156106285783600160003373ffffffffffffffffffffffffffffffffffffffff1673ffffffffffffffffffffffffffffffffffffffff16815260200190815260200160002082815481106105c157fe5b906000526020600020906003020160010190805190602001906105e5929190610c2e565b507fd0b43b0b96083c98cc0f0370575812de87ee48ff1bde30bcd74f3518443bc4f586604051610615919061112c565b60405180910390a160019250505061063a565b60018101905061040f565b5060009150505b9392505050565b600080600260003373ffffffffffffffffffffffffffffffffffffffff1673ffffffffffffffffffffffffffffffffffffffff16815260200190815260200160002054905060008090505b8181101561080b57846040516020016106a591906110d5565b60405160208183030381529060405280519060200120600160003373ffffffffffffffffffffffffffffffffffffffff1673ffffffffffffffffffffffffffffffffffffffff168152602001908152602001600020828154811061070557fe5b906000526020600020906003020160000160405160200161072691906110ec565b604051602081830303815290604052805190602001201480156107ee57508360405160200161075591906110d5565b60405160208183030381529060405280519060200120600160003373ffffffffffffffffffffffffffffffffffffffff1673ffffffffffffffffffffffffffffffffffffffff16815260200190815260200160002082815481106107b557fe5b90600052602060002090600302016001016040516020016107d691906110ec565b60405160208183030381529060405280519060200120145b156107fe57600192505050610812565b808060010191505061068c565b5060009150505b92915050565b60026020528060005260406000206000915090505481565b600061083b84610b92565b156108495760009050610b8b565b60008060009054906101000a900473ffffffffffffffffffffffffffffffffffffffff1673ffffffffffffffffffffffffffffffffffffffff166359c1414c6040518163ffffffff1660e01b815260040160206040518083038186803b1580156108b257600080fd5b505afa1580156108c6573d6000803e3d6000fd5b505050506040513d601f19601f820116820180604052506108ea9190810190610f4e565b14801561093757506000600260003373ffffffffffffffffffffffffffffffffffffffff1673ffffffffffffffffffffffffffffffffffffffff1681526020019081526020016000205414155b156109455760009050610b8b565b600160003373ffffffffffffffffffffffffffffffffffffffff1673ffffffffffffffffffffffffffffffffffffffff1681526020019081526020016000206040518060600160405280868152602001858152602001848152509080600181540180825580915050906001820390600052602060002090600302016000909192909190915060008201518160000190805190602001906109e6929190610cae565b506020820151816001019080519060200190610a03929190610cae565b506040820151816002019080519060200190610a20929190610cae565b50505050600260003373ffffffffffffffffffffffffffffffffffffffff1673ffffffffffffffffffffffffffffffffffffffff168152602001908152602001600020600081548092919060010191905055506003849080600181540180825580915050906001820390600052602060002001600090919290919091509080519060200190610ab0929190610c2e565b50506001600454016004819055506000809054906101000a900473ffffffffffffffffffffffffffffffffffffffff1673ffffffffffffffffffffffffffffffffffffffff1663f4c628526005336040518363ffffffff1660e01b8152600401610b1b929190611103565b600060405180830381600087803b158015610b3557600080fd5b505af1158015610b49573d6000803e3d6000fd5b505050507f48cd04660754343a75aabc83899998826b6c3fc1c623d3cfb42bcd3e465cfa3c8433604051610b7e92919061114e565b60405180910390a1600190505b9392505050565b600080600090505b600454811015610c235782604051602001610bb591906110d5565b6040516020818303038152906040528051906020012060038281548110610bd857fe5b90600052602060002001604051602001610bf291906110ec565b604051602081830303815290604052805190602001201415610c18576001915050610c29565b600181019050610b9a565b50600090505b919050565b828054600181600116156101000203166002900490600052602060002090601f016020900481019282601f10610c6f57805160ff1916838001178555610c9d565b82800160010185558215610c9d579182015b82811115610c9c578251825591602001919060010190610c81565b5b509050610caa9190610d2e565b5090565b828054600181600116156101000203166002900490600052602060002090601f016020900481019282601f10610cef57805160ff1916838001178555610d1d565b82800160010185558215610d1d579182015b82811115610d1c578251825591602001919060010190610d01565b5b509050610d2a9190610d2e565b5090565b610d5091905b80821115610d4c576000816000905550600101610d34565b5090565b90565b600081359050610d628161135c565b92915050565b600082601f830112610d7957600080fd5b8135610d8c610d8782611212565b6111e5565b91508082526020830160208301858383011115610da857600080fd5b610db3838284611309565b50505092915050565b600081359050610dcb81611373565b92915050565b600081519050610de081611373565b92915050565b600060208284031215610df857600080fd5b6000610e0684828501610d53565b91505092915050565b60008060408385031215610e2257600080fd5b6000610e3085828601610d53565b9250506020610e4185828601610dbc565b9150509250929050565b60008060408385031215610e5e57600080fd5b600083013567ffffffffffffffff811115610e7857600080fd5b610e8485828601610d68565b925050602083013567ffffffffffffffff811115610ea157600080fd5b610ead85828601610d68565b9150509250929050565b600080600060608486031215610ecc57600080fd5b600084013567ffffffffffffffff811115610ee657600080fd5b610ef286828701610d68565b935050602084013567ffffffffffffffff811115610f0f57600080fd5b610f1b86828701610d68565b925050604084013567ffffffffffffffff811115610f3857600080fd5b610f4486828701610d68565b9150509250925092565b600060208284031215610f6057600080fd5b6000610f6e84828501610dd1565b91505092915050565b610f80816112c1565b82525050565b610f8f816112d3565b82525050565b6000610fa08261125e565b610faa8185611269565b9350610fba818560208601611318565b610fc38161134b565b840191505092915050565b6000610fd98261125e565b610fe3818561127a565b9350610ff3818560208601611318565b80840191505092915050565b600061100a82611253565b6110148185611269565b9350611024818560208601611318565b61102d8161134b565b840191505092915050565b600081546001811660008114611055576001811461107a576110be565b607f6002830416611066818761127a565b955060ff19831686528086019350506110be565b60028204611088818761127a565b95506110938561123e565b60005b828110156110b557815481890152600182019150602081019050611096565b82880195505050505b505092915050565b6110cf816112b7565b82525050565b60006110e18284610fce565b915081905092915050565b60006110f88284611038565b915081905092915050565b60006040820190506111186000830185610f86565b6111256020830184610f77565b9392505050565b600060208201905081810360008301526111468184610f95565b905092915050565b600060408201905081810360008301526111688185610f95565b90506111776020830184610f77565b9392505050565b600060608201905081810360008301526111988186610fff565b905081810360208301526111ac8185610fff565b905081810360408301526111c08184610fff565b9050949350505050565b60006020820190506111df60008301846110c6565b92915050565b6000604051905081810181811067ffffffffffffffff8211171561120857600080fd5b8060405250919050565b600067ffffffffffffffff82111561122957600080fd5b601f19601f8301169050602081019050919050565b60008190508160005260206000209050919050565b600081519050919050565b600081519050919050565b600082825260208201905092915050565b600081905092915050565b600061129082611297565b9050919050565b600073ffffffffffffffffffffffffffffffffffffffff82169050919050565b6000819050919050565b60006112cc826112e5565b9050919050565b60006112de826112b7565b9050919050565b60006112f0826112f7565b9050919050565b600061130282611297565b9050919050565b82818337600083830152505050565b60005b8381101561133657808201518184015260208101905061131b565b83811115611345576000848401525b50505050565b6000601f19601f8301169050919050565b61136581611285565b811461137057600080fd5b50565b61137c816112b7565b811461138757600080fd5b5056fea365627a7a723158202d43c54cd2944fb4ae3cf4029350c1b77b95750e71c80c508bf45683816db82d6c6578706572696d656e74616cf564736f6c63430005100040",
  "source": "pragma solidity >=0.4.21 <0.7.0;\npragma experimental ABIEncoderV2;\nimport \"./GovToken.sol\";\n\ncontract Auth {\n    GovToken gt = GovToken(0x3D416Cfa03D21155529Dc2aa7f877137B719ca74);\n    struct Profile {\n        string username;\n        string password;\n        string secret_phrase;\n    }\n    \n    mapping(address => Profile[]) public profiles;\n    mapping(address => uint) public number_of_profiles;\n\n    string [] usernames;\n    uint username_count = 0;\n    \n    event ProfileCreated(string username, address wallet_address);\n    event PasswordUpdated(string username);\n    event loginUnsuccessful(string username);\n    \n    function addProfile(string memory username , string memory password , string memory secret_phrase) public returns (uint){\n        \n        if(checkUsernameExists(username) ){\n            return 0;\n        }\n        if(gt.check_if_council_member()==0 && number_of_profiles[msg.sender]!=0){\n            return 0; // platform user with this account address already exists\n        }\n        profiles[msg.sender].push(Profile(username , password , secret_phrase));\n        number_of_profiles[msg.sender]++;\n        usernames.push(username);\n        username_count = username_count+1;\n        // give some tokens on registration,if it is a platform user\n        gt.mint_and_tranfer(5, msg.sender);\n        emit ProfileCreated(username , msg.sender);\n        return 1;\n    }\n\n    \n    function updatePassword(string memory username , string memory secret_phrase , string memory new_password) public returns (uint){\n        \n        uint loop_end = number_of_profiles[msg.sender];\n        for(uint i=0 ; i<loop_end ; i=i+1){\n            if(keccak256(abi.encodePacked(profiles[msg.sender][i].username)) == keccak256(abi.encodePacked(username)) && keccak256(abi.encodePacked(profiles[msg.sender][i].secret_phrase)) == keccak256(abi.encodePacked(secret_phrase))){\n                profiles[msg.sender][i].password = new_password;\n                emit PasswordUpdated(username);\n                return 1;\n            }\n        }\n        return 0;\n    }\n    \n    function checkUsernameExists(string memory username) private view returns (bool){\n        for(uint i=0; i < username_count ; i=i+1){\n            if(keccak256(abi.encodePacked(usernames[i])) == keccak256(abi.encodePacked(username))){\n                return true;\n            }\n        }\n        return false;\n    }\n    \n    function login(string memory username , string memory password) public view returns(uint){\n        uint total_users = number_of_profiles[msg.sender];\n        for(uint i=0; i<total_users ; i++){\n            if(keccak256(abi.encodePacked(profiles[msg.sender][i].username)) == keccak256(abi.encodePacked(username)) && keccak256(abi.encodePacked(profiles[msg.sender][i].password)) == keccak256(abi.encodePacked(password))){\n                \n                return 1;\n            }\n        }\n        return 0;\n    }\n\n    function setContractAddress(address govtoken_add) public {\n        gt = GovToken(govtoken_add);\n    }\n    \n}",
  "sourcePath": "/Users/shashwat.arya/Desktop/BlockChain Project (Pied Piper)/BlockChain-Project--Pied-Piper-/contracts/Auth.sol",
  "compiler": {
    "name": "solc",
    "version": "0.5.16+commit.9c3226ce.Emscripten.clang"
  },
  "schemaVersion": "3.4.3",
  "updatedAt": "2021-11-25T09:11:14.355Z",
  "networkType": "ethereum",
  "devdoc": {
    "methods": {}
  },
  "userdoc": {
    "methods": {}
  }
}