{
  "contractName": "GovToken",
  "abi": [
    {
      "inputs": [
        {
          "internalType": "string",
          "name": "_name",
          "type": "string"
        },
        {
          "internalType": "string",
          "name": "_symbol",
          "type": "string"
        },
        {
          "internalType": "uint256",
          "name": "_supply",
          "type": "uint256"
        }
      ],
      "payable": false,
      "stateMutability": "nonpayable",
      "type": "constructor"
    },
    {
      "anonymous": false,
      "inputs": [
        {
          "indexed": false,
          "internalType": "address",
          "name": "from",
          "type": "address"
        },
        {
          "indexed": false,
          "internalType": "address",
          "name": "to",
          "type": "address"
        },
        {
          "indexed": false,
          "internalType": "uint256",
          "name": "amount",
          "type": "uint256"
        },
        {
          "indexed": false,
          "internalType": "string",
          "name": "txnType",
          "type": "string"
        },
        {
          "indexed": false,
          "internalType": "uint256",
          "name": "transactionId",
          "type": "uint256"
        }
      ],
      "name": "TransactionCompleted",
      "type": "event"
    },
    {
      "anonymous": false,
      "inputs": [
        {
          "indexed": false,
          "internalType": "address",
          "name": "from",
          "type": "address"
        },
        {
          "indexed": false,
          "internalType": "address",
          "name": "to",
          "type": "address"
        },
        {
          "indexed": false,
          "internalType": "uint256",
          "name": "amount",
          "type": "uint256"
        },
        {
          "indexed": false,
          "internalType": "string",
          "name": "txnType",
          "type": "string"
        },
        {
          "indexed": false,
          "internalType": "uint256",
          "name": "transactionId",
          "type": "uint256"
        }
      ],
      "name": "TransactionCreated",
      "type": "event"
    },
    {
      "anonymous": false,
      "inputs": [
        {
          "indexed": false,
          "internalType": "address",
          "name": "by",
          "type": "address"
        },
        {
          "indexed": false,
          "internalType": "string",
          "name": "txnType",
          "type": "string"
        },
        {
          "indexed": false,
          "internalType": "uint256",
          "name": "transactionId",
          "type": "uint256"
        }
      ],
      "name": "TransactionSigned",
      "type": "event"
    },
    {
      "anonymous": false,
      "inputs": [
        {
          "indexed": true,
          "internalType": "address",
          "name": "from",
          "type": "address"
        },
        {
          "indexed": true,
          "internalType": "address",
          "name": "to",
          "type": "address"
        },
        {
          "indexed": false,
          "internalType": "uint256",
          "name": "tokens",
          "type": "uint256"
        }
      ],
      "name": "Transfer",
      "type": "event"
    },
    {
      "constant": true,
      "inputs": [],
      "name": "_totalSupply",
      "outputs": [
        {
          "internalType": "uint256",
          "name": "",
          "type": "uint256"
        }
      ],
      "payable": false,
      "stateMutability": "view",
      "type": "function"
    },
    {
      "constant": true,
      "inputs": [
        {
          "internalType": "address",
          "name": "",
          "type": "address"
        }
      ],
      "name": "balances",
      "outputs": [
        {
          "internalType": "uint256",
          "name": "",
          "type": "uint256"
        }
      ],
      "payable": false,
      "stateMutability": "view",
      "type": "function"
    },
    {
      "constant": true,
      "inputs": [],
      "name": "name",
      "outputs": [
        {
          "internalType": "string",
          "name": "",
          "type": "string"
        }
      ],
      "payable": false,
      "stateMutability": "view",
      "type": "function"
    },
    {
      "constant": true,
      "inputs": [],
      "name": "symbol",
      "outputs": [
        {
          "internalType": "string",
          "name": "",
          "type": "string"
        }
      ],
      "payable": false,
      "stateMutability": "view",
      "type": "function"
    },
    {
      "constant": false,
      "inputs": [],
      "name": "start_new_epoch",
      "outputs": [
        {
          "internalType": "uint256",
          "name": "",
          "type": "uint256"
        }
      ],
      "payable": false,
      "stateMutability": "nonpayable",
      "type": "function"
    },
    {
      "constant": true,
      "inputs": [],
      "name": "getWalletBalance",
      "outputs": [
        {
          "internalType": "uint256",
          "name": "",
          "type": "uint256"
        }
      ],
      "payable": false,
      "stateMutability": "view",
      "type": "function"
    },
    {
      "constant": true,
      "inputs": [],
      "name": "getAccountType",
      "outputs": [
        {
          "internalType": "string",
          "name": "",
          "type": "string"
        }
      ],
      "payable": false,
      "stateMutability": "view",
      "type": "function"
    },
    {
      "constant": false,
      "inputs": [
        {
          "internalType": "string",
          "name": "wallet_type",
          "type": "string"
        },
        {
          "internalType": "address",
          "name": "receiver_address",
          "type": "address"
        },
        {
          "internalType": "uint256",
          "name": "tokens",
          "type": "uint256"
        }
      ],
      "name": "initial_transfer",
      "outputs": [
        {
          "internalType": "uint256",
          "name": "",
          "type": "uint256"
        }
      ],
      "payable": false,
      "stateMutability": "nonpayable",
      "type": "function"
    },
    {
      "constant": true,
      "inputs": [],
      "name": "totalSupply",
      "outputs": [
        {
          "internalType": "uint256",
          "name": "",
          "type": "uint256"
        }
      ],
      "payable": false,
      "stateMutability": "view",
      "type": "function"
    },
    {
      "constant": true,
      "inputs": [
        {
          "internalType": "address",
          "name": "tokenOwner",
          "type": "address"
        }
      ],
      "name": "balanceOf",
      "outputs": [
        {
          "internalType": "uint256",
          "name": "",
          "type": "uint256"
        }
      ],
      "payable": false,
      "stateMutability": "view",
      "type": "function"
    },
    {
      "constant": false,
      "inputs": [
        {
          "internalType": "address",
          "name": "to",
          "type": "address"
        },
        {
          "internalType": "uint256",
          "name": "tokens",
          "type": "uint256"
        }
      ],
      "name": "transfer",
      "outputs": [
        {
          "internalType": "uint256",
          "name": "success",
          "type": "uint256"
        }
      ],
      "payable": false,
      "stateMutability": "nonpayable",
      "type": "function"
    },
    {
      "constant": false,
      "inputs": [
        {
          "internalType": "address",
          "name": "from",
          "type": "address"
        },
        {
          "internalType": "address",
          "name": "to",
          "type": "address"
        },
        {
          "internalType": "uint256",
          "name": "tokens",
          "type": "uint256"
        }
      ],
      "name": "transferFrom",
      "outputs": [
        {
          "internalType": "uint256",
          "name": "success",
          "type": "uint256"
        }
      ],
      "payable": false,
      "stateMutability": "nonpayable",
      "type": "function"
    },
    {
      "constant": false,
      "inputs": [
        {
          "internalType": "uint256",
          "name": "tokens",
          "type": "uint256"
        }
      ],
      "name": "mintTokens",
      "outputs": [],
      "payable": false,
      "stateMutability": "nonpayable",
      "type": "function"
    },
    {
      "constant": false,
      "inputs": [
        {
          "internalType": "uint256",
          "name": "tokens",
          "type": "uint256"
        }
      ],
      "name": "receiveTokens",
      "outputs": [],
      "payable": false,
      "stateMutability": "nonpayable",
      "type": "function"
    },
    {
      "constant": false,
      "inputs": [
        {
          "internalType": "address",
          "name": "to",
          "type": "address"
        },
        {
          "internalType": "uint256",
          "name": "tokens",
          "type": "uint256"
        }
      ],
      "name": "transferTo",
      "outputs": [],
      "payable": false,
      "stateMutability": "nonpayable",
      "type": "function"
    },
    {
      "constant": false,
      "inputs": [
        {
          "internalType": "address",
          "name": "user",
          "type": "address"
        },
        {
          "internalType": "uint256",
          "name": "tokens",
          "type": "uint256"
        }
      ],
      "name": "deductToken",
      "outputs": [
        {
          "internalType": "uint256",
          "name": "",
          "type": "uint256"
        }
      ],
      "payable": false,
      "stateMutability": "nonpayable",
      "type": "function"
    },
    {
      "constant": true,
      "inputs": [],
      "name": "getDriverAddress",
      "outputs": [
        {
          "internalType": "address",
          "name": "",
          "type": "address"
        }
      ],
      "payable": false,
      "stateMutability": "view",
      "type": "function"
    },
    {
      "constant": true,
      "inputs": [],
      "name": "getPendingTransactions",
      "outputs": [
        {
          "internalType": "uint256[]",
          "name": "",
          "type": "uint256[]"
        }
      ],
      "payable": false,
      "stateMutability": "view",
      "type": "function"
    },
    {
      "constant": false,
      "inputs": [
        {
          "internalType": "uint256",
          "name": "transactionId",
          "type": "uint256"
        }
      ],
      "name": "signTransaction",
      "outputs": [],
      "payable": false,
      "stateMutability": "nonpayable",
      "type": "function"
    },
    {
      "constant": false,
      "inputs": [
        {
          "internalType": "uint256",
          "name": "transactionId",
          "type": "uint256"
        }
      ],
      "name": "deleteTransaction",
      "outputs": [],
      "payable": false,
      "stateMutability": "nonpayable",
      "type": "function"
    },
    {
      "constant": false,
      "inputs": [],
      "name": "start_council_meeting",
      "outputs": [
        {
          "internalType": "uint256",
          "name": "",
          "type": "uint256"
        }
      ],
      "payable": false,
      "stateMutability": "nonpayable",
      "type": "function"
    },
    {
      "constant": true,
      "inputs": [],
      "name": "check_if_council_member",
      "outputs": [
        {
          "internalType": "uint256",
          "name": "",
          "type": "uint256"
        }
      ],
      "payable": false,
      "stateMutability": "view",
      "type": "function"
    },
    {
      "constant": true,
      "inputs": [
        {
          "internalType": "address",
          "name": "user",
          "type": "address"
        }
      ],
      "name": "check_if_address_is_council_member",
      "outputs": [
        {
          "internalType": "uint256",
          "name": "",
          "type": "uint256"
        }
      ],
      "payable": false,
      "stateMutability": "view",
      "type": "function"
    },
    {
      "constant": false,
      "inputs": [],
      "name": "increment_epoch",
      "outputs": [],
      "payable": false,
      "stateMutability": "nonpayable",
      "type": "function"
    },
    {
      "constant": true,
      "inputs": [],
      "name": "get_current_epoch",
      "outputs": [
        {
          "internalType": "uint256",
          "name": "",
          "type": "uint256"
        }
      ],
      "payable": false,
      "stateMutability": "view",
      "type": "function"
    }
  ],
  "bytecode": "0x608060405260006005556000600660006101000a81548160ff02191690831515021790555060006008553480156200003657600080fd5b50604051620032ce380380620032ce833981810160405260608110156200005c57600080fd5b81019080805160405193929190846401000000008211156200007d57600080fd5b838201915060208201858111156200009457600080fd5b8251866001820283011164010000000082111715620000b257600080fd5b8083526020830192505050908051906020019080838360005b83811015620000e8578082015181840152602081019050620000cb565b50505050905090810190601f168015620001165780820380516001836020036101000a031916815260200191505b50604052602001805160405193929190846401000000008211156200013a57600080fd5b838201915060208201858111156200015157600080fd5b82518660018202830111640100000000821117156200016f57600080fd5b8083526020830192505050908051906020019080838360005b83811015620001a557808201518184015260208101905062000188565b50505050905090810190601f168015620001d35780820380516001836020036101000a031916815260200191505b50604052602001805190602001909291905050508160029080519060200190620001ff92919062000314565b5082600390805190602001906200021892919062000314565b508060048190555080600960003373ffffffffffffffffffffffffffffffffffffffff1673ffffffffffffffffffffffffffffffffffffffff1681526020019081526020016000208190555033600660016101000a81548173ffffffffffffffffffffffffffffffffffffffff021916908373ffffffffffffffffffffffffffffffffffffffff1602179055503373ffffffffffffffffffffffffffffffffffffffff16600073ffffffffffffffffffffffffffffffffffffffff167fddf252ad1be2c89b69c2b068fc378daa952ba7f163c4a11628f55a4df523b3ef836040518082815260200191505060405180910390a3505050620003c3565b828054600181600116156101000203166002900490600052602060002090601f016020900481019282601f106200035757805160ff191683800117855562000388565b8280016001018555821562000388579182015b82811115620003875782518255916020019190600101906200036a565b5b5090506200039791906200039b565b5090565b620003c091905b80821115620003bc576000816000905550600101620003a2565b5090565b90565b612efb80620003d36000396000f3fe608060405234801561001057600080fd5b50600436106101725760003560e01c80635d9ec210116100de578063870d702211610097578063a9059cbb11610071578063a9059cbb1461070e578063ac11a36814610770578063c640dd931461077a578063d11db83f1461087357610172565b8063870d70221461060557806395d89b411461065d57806397304ced146106e057610172565b80635d9ec210146104f75780636043351a1461052557806370a0823114610543578063743e0c9b1461059b5780637a0347cb146105c9578063837a9bc7146105e757610172565b80632ccb1b30116101305780632ccb1b301461036a578063329a27e7146103b85780633eaaf86b146103d657806352d6a0a3146103f457806359c1414c146104775780635b39ad551461049557610172565b8062e9c0061461017757806306fdde03146101a5578063121d3f4e1461022857806318160ddd1461027257806323b872dd1461029057806327e235e314610312575b600080fd5b6101a36004803603602081101561018d57600080fd5b81019080803590602001909291905050506108d2565b005b6101ad610acd565b6040518080602001828103825283818151815260200191508051906020019080838360005b838110156101ed5780820151818401526020810190506101d2565b50505050905090810190601f16801561021a5780820380516001836020036101000a031916815260200191505b509250505060405180910390f35b610230610b6b565b604051808273ffffffffffffffffffffffffffffffffffffffff1673ffffffffffffffffffffffffffffffffffffffff16815260200191505060405180910390f35b61027a610b95565b6040518082815260200191505060405180910390f35b6102fc600480360360608110156102a657600080fd5b81019080803573ffffffffffffffffffffffffffffffffffffffff169060200190929190803573ffffffffffffffffffffffffffffffffffffffff16906020019092919080359060200190929190505050610be0565b6040518082815260200191505060405180910390f35b6103546004803603602081101561032857600080fd5b81019080803573ffffffffffffffffffffffffffffffffffffffff169060200190929190505050610d1a565b6040518082815260200191505060405180910390f35b6103b66004803603604081101561038057600080fd5b81019080803573ffffffffffffffffffffffffffffffffffffffff16906020019092919080359060200190929190505050610d32565b005b6103c0610e2b565b6040518082815260200191505060405180910390f35b6103de610e72565b6040518082815260200191505060405180910390f35b6103fc610e78565b6040518080602001828103825283818151815260200191508051906020019080838360005b8381101561043c578082015181840152602081019050610421565b50505050905090810190601f1680156104695780820380516001836020036101000a031916815260200191505b509250505060405180910390f35b61047f610f57565b6040518082815260200191505060405180910390f35b6104e1600480360360408110156104ab57600080fd5b81019080803573ffffffffffffffffffffffffffffffffffffffff1690602001909291908035906020019092919050505061101a565b6040518082815260200191505060405180910390f35b6105236004803603602081101561050d57600080fd5b81019080803590602001909291905050506110c3565b005b61052d61183a565b6040518082815260200191505060405180910390f35b6105856004803603602081101561055957600080fd5b81019080803573ffffffffffffffffffffffffffffffffffffffff169060200190929190505050611955565b6040518082815260200191505060405180910390f35b6105c7600480360360208110156105b157600080fd5b810190808035906020019092919050505061199e565b005b6105d1611ab8565b6040518082815260200191505060405180910390f35b6105ef611b16565b6040518082815260200191505060405180910390f35b6106476004803603602081101561061b57600080fd5b81019080803573ffffffffffffffffffffffffffffffffffffffff169060200190929190505050611b20565b6040518082815260200191505060405180910390f35b610665611b8d565b6040518080602001828103825283818151815260200191508051906020019080838360005b838110156106a557808201518184015260208101905061068a565b50505050905090810190601f1680156106d25780820380516001836020036101000a031916815260200191505b509250505060405180910390f35b61070c600480360360208110156106f657600080fd5b8101908080359060200190929190505050611c2b565b005b61075a6004803603604081101561072457600080fd5b81019080803573ffffffffffffffffffffffffffffffffffffffff16906020019092919080359060200190929190505050611cc9565b6040518082815260200191505060405180910390f35b610778611dca565b005b61085d6004803603606081101561079057600080fd5b81019080803590602001906401000000008111156107ad57600080fd5b8201836020820111156107bf57600080fd5b803590602001918460018302840111640100000000831117156107e157600080fd5b91908080601f016020809104026020016040519081016040528093929190818152602001838380828437600081840152601f19601f820116905080830192505050505050509192919290803573ffffffffffffffffffffffffffffffffffffffff16906020019092919080359060200190929190505050611dde565b6040518082815260200191505060405180910390f35b61087b612267565b6040518080602001828103825283818151815260200191508051906020019060200280838360005b838110156108be5780820151818401526020810190506108a3565b505050509050019250505060405180910390f35b600660019054906101000a900473ffffffffffffffffffffffffffffffffffffffff1673ffffffffffffffffffffffffffffffffffffffff163373ffffffffffffffffffffffffffffffffffffffff16148061097d57506001600760003373ffffffffffffffffffffffffffffffffffffffff1673ffffffffffffffffffffffffffffffffffffffff16815260200190815260200160002060009054906101000a900460ff1660ff16145b61098657600080fd5b600080905060008090505b600d80549050811015610a17578160ff16600114156109e557600d81815481106109b757fe5b9060005260206000200154600d60018303815481106109d257fe5b9060005260206000200181905550610a0a565b600d81815481106109f257fe5b9060005260206000200154831415610a0957600191505b5b8080600101915050610991565b50600d805480610a2357fe5b60019003818190600052602060002001600090559055600c600083815260200190815260200160002060008082016000610a5d9190612cfb565b6001820160006101000a81549073ffffffffffffffffffffffffffffffffffffffff02191690556002820160006101000a81549073ffffffffffffffffffffffffffffffffffffffff021916905560038201600090556004820160006101000a81549060ff021916905550505050565b60038054600181600116156101000203166002900480601f016020809104026020016040519081016040528092919081815260200182805460018160011615610100020316600290048015610b635780601f10610b3857610100808354040283529160200191610b63565b820191906000526020600020905b815481529060010190602001808311610b4657829003601f168201915b505050505081565b6000600660019054906101000a900473ffffffffffffffffffffffffffffffffffffffff16905090565b6000600960008073ffffffffffffffffffffffffffffffffffffffff1673ffffffffffffffffffffffffffffffffffffffff1681526020019081526020016000205460045403905090565b6000600660019054906101000a900473ffffffffffffffffffffffffffffffffffffffff1673ffffffffffffffffffffffffffffffffffffffff163373ffffffffffffffffffffffffffffffffffffffff161480610c8d57506001600760003373ffffffffffffffffffffffffffffffffffffffff1673ffffffffffffffffffffffffffffffffffffffff16815260200190815260200160002060009054906101000a900460ff1660ff16145b610c9657600080fd5b8373ffffffffffffffffffffffffffffffffffffffff163373ffffffffffffffffffffffffffffffffffffffff1614610cce57600080fd5b610d0f8484846040518060400160405280600881526020017f5452414e53464552000000000000000000000000000000000000000000000000815250612373565b600190509392505050565b60096020528060005260406000206000915090505481565b600660019054906101000a900473ffffffffffffffffffffffffffffffffffffffff1673ffffffffffffffffffffffffffffffffffffffff163373ffffffffffffffffffffffffffffffffffffffff161480610ddd57506001600760003373ffffffffffffffffffffffffffffffffffffffff1673ffffffffffffffffffffffffffffffffffffffff16815260200190815260200160002060009054906101000a900460ff1660ff16145b610de657600080fd5b610e273383836040518060400160405280600881526020017f5452414e53464552000000000000000000000000000000000000000000000000815250612373565b5050565b6000600960003373ffffffffffffffffffffffffffffffffffffffff1673ffffffffffffffffffffffffffffffffffffffff16815260200190815260200160002054905090565b60045481565b6060600a60003373ffffffffffffffffffffffffffffffffffffffff1673ffffffffffffffffffffffffffffffffffffffff1681526020019081526020016000208054600181600116156101000203166002900480601f016020809104026020016040519081016040528092919081815260200182805460018160011615610100020316600290048015610f4d5780601f10610f2257610100808354040283529160200191610f4d565b820191906000526020600020905b815481529060010190602001808311610f3057829003601f168201915b5050505050905090565b6000600660019054906101000a900473ffffffffffffffffffffffffffffffffffffffff1673ffffffffffffffffffffffffffffffffffffffff163373ffffffffffffffffffffffffffffffffffffffff16148061100457506001600760003373ffffffffffffffffffffffffffffffffffffffff1673ffffffffffffffffffffffffffffffffffffffff16815260200190815260200160002060009054906101000a900460ff1660ff16145b156110125760019050611017565b600090505b90565b600081600960008573ffffffffffffffffffffffffffffffffffffffff1673ffffffffffffffffffffffffffffffffffffffff16815260200190815260200160002054106110b85781600960008573ffffffffffffffffffffffffffffffffffffffff1673ffffffffffffffffffffffffffffffffffffffff16815260200190815260200160002060008282540392505081905550600190506110bd565b600090505b92915050565b600660019054906101000a900473ffffffffffffffffffffffffffffffffffffffff1673ffffffffffffffffffffffffffffffffffffffff163373ffffffffffffffffffffffffffffffffffffffff16148061116e57506001600760003373ffffffffffffffffffffffffffffffffffffffff1673ffffffffffffffffffffffffffffffffffffffff16815260200190815260200160002060009054906101000a900460ff1660ff16145b61117757600080fd5b6000600c600083815260200190815260200160002090508060010160009054906101000a900473ffffffffffffffffffffffffffffffffffffffff1673ffffffffffffffffffffffffffffffffffffffff16600073ffffffffffffffffffffffffffffffffffffffff1614156111ec57600080fd5b60405160200180807f52454345495645000000000000000000000000000000000000000000000000008152506007019050604051602081830303815290604052805190602001208160000160405160200180828054600181600116156101000203166002900480156112955780601f10611273576101008083540402835291820191611295565b820191906000526020600020905b815481529060010190602001808311611281575b5050915050604051602081830303815290604052805190602001201415611318578060020160009054906101000a900473ffffffffffffffffffffffffffffffffffffffff1673ffffffffffffffffffffffffffffffffffffffff163373ffffffffffffffffffffffffffffffffffffffff16141561131357600080fd5b611376565b8060010160009054906101000a900473ffffffffffffffffffffffffffffffffffffffff1673ffffffffffffffffffffffffffffffffffffffff163373ffffffffffffffffffffffffffffffffffffffff16141561137557600080fd5b5b60018160050160003373ffffffffffffffffffffffffffffffffffffffff1673ffffffffffffffffffffffffffffffffffffffff16815260200190815260200160002060009054906101000a900460ff1660ff1614156113d557600080fd5b60018160050160003373ffffffffffffffffffffffffffffffffffffffff1673ffffffffffffffffffffffffffffffffffffffff16815260200190815260200160002060006101000a81548160ff021916908360ff16021790555080600401600081819054906101000a900460ff168092919060010191906101000a81548160ff021916908360ff160217905550507ed302441f7789d3c0b048a3afa15b3bb872dbaaee83c64cb63a99a5973f2c87338260000184604051808473ffffffffffffffffffffffffffffffffffffffff1673ffffffffffffffffffffffffffffffffffffffff1681526020018060200183815260200182810382528481815460018160011615610100020316600290048152602001915080546001816001161561010002031660029004801561154b5780601f106115205761010080835404028352916020019161154b565b820191906000526020600020905b81548152906001019060200180831161152e57829003601f168201915b505094505050505060405180910390a16008548160040160009054906101000a900460ff1660ff16106118365760405160200180807f4d494e54494e47000000000000000000000000000000000000000000000000008152506007019050604051602081830303815290604052805190602001208160000160405160200180828054600181600116156101000203166002900480156116215780601f106115ff576101008083540402835291820191611621565b820191906000526020600020905b81548152906001019060200180831161160d575b50509150506040516020818303038152906040528051906020012014156116545761164f816003015461270f565b6116ac565b6116ab8160010160009054906101000a900473ffffffffffffffffffffffffffffffffffffffff168260020160009054906101000a900473ffffffffffffffffffffffffffffffffffffffff16836003015461283a565b5b7f69b93c8351bb1a78d209527eed15f087c238c3120ba9a338db78be6b247f3fcb8160010160009054906101000a900473ffffffffffffffffffffffffffffffffffffffff168260020160009054906101000a900473ffffffffffffffffffffffffffffffffffffffff1683600301548460000186604051808673ffffffffffffffffffffffffffffffffffffffff1673ffffffffffffffffffffffffffffffffffffffff1681526020018573ffffffffffffffffffffffffffffffffffffffff1673ffffffffffffffffffffffffffffffffffffffff1681526020018481526020018060200183815260200182810382528481815460018160011615610100020316600290048152602001915080546001816001161561010002031660029004801561181a5780601f106117ef5761010080835404028352916020019161181a565b820191906000526020600020905b8154815290600101906020018083116117fd57829003601f168201915b5050965050505050505060405180910390a1611835826108d2565b5b5050565b6000803390506000600660019054906101000a900473ffffffffffffffffffffffffffffffffffffffff1690508073ffffffffffffffffffffffffffffffffffffffff168273ffffffffffffffffffffffffffffffffffffffff1614806118a9575060016118a783611b20565b145b1561194b576118b6612a19565b600160009054906101000a900473ffffffffffffffffffffffffffffffffffffffff1673ffffffffffffffffffffffffffffffffffffffff16631da003dc6040518163ffffffff1660e01b8152600401600060405180830381600087803b15801561192057600080fd5b505af1158015611934573d6000803e3d6000fd5b50505050611940611dca565b600192505050611952565b6000925050505b90565b6000600960008373ffffffffffffffffffffffffffffffffffffffff1673ffffffffffffffffffffffffffffffffffffffff168152602001908152602001600020549050919050565b600660019054906101000a900473ffffffffffffffffffffffffffffffffffffffff1673ffffffffffffffffffffffffffffffffffffffff163373ffffffffffffffffffffffffffffffffffffffff161480611a4957506001600760003373ffffffffffffffffffffffffffffffffffffffff1673ffffffffffffffffffffffffffffffffffffffff16815260200190815260200160002060009054906101000a900460ff1660ff16145b611a5257600080fd5b611ab5600660019054906101000a900473ffffffffffffffffffffffffffffffffffffffff1633836040518060400160405280600781526020017f5245434549564500000000000000000000000000000000000000000000000000815250612373565b50565b6000600660009054906101000a900460ff1615611af3576000600660006101000a81548160ff02191690831515021790555060009050611b13565b6001600660006101000a81548160ff021916908315150217905550600190505b90565b6000600554905090565b60006001600760008473ffffffffffffffffffffffffffffffffffffffff1673ffffffffffffffffffffffffffffffffffffffff16815260200190815260200160002060009054906101000a900460ff1660ff161415611b835760019050611b88565b600090505b919050565b60028054600181600116156101000203166002900480601f016020809104026020016040519081016040528092919081815260200182805460018160011615610100020316600290048015611c235780601f10611bf857610100808354040283529160200191611c23565b820191906000526020600020905b815481529060010190602001808311611c0657829003601f168201915b505050505081565b600660019054906101000a900473ffffffffffffffffffffffffffffffffffffffff1673ffffffffffffffffffffffffffffffffffffffff163373ffffffffffffffffffffffffffffffffffffffff1614611c8557600080fd5b611cc63333836040518060400160405280600781526020017f4d494e54494e4700000000000000000000000000000000000000000000000000815250612373565b50565b6000600660019054906101000a900473ffffffffffffffffffffffffffffffffffffffff1673ffffffffffffffffffffffffffffffffffffffff163373ffffffffffffffffffffffffffffffffffffffff161480611d7657506001600760003373ffffffffffffffffffffffffffffffffffffffff1673ffffffffffffffffffffffffffffffffffffffff16815260200190815260200160002060009054906101000a900460ff1660ff16145b611d7f57600080fd5b611dc03384846040518060400160405280600881526020017f5452414e53464552000000000000000000000000000000000000000000000000815250612373565b6001905092915050565b600560008154809291906001019190505550565b6000600660019054906101000a900473ffffffffffffffffffffffffffffffffffffffff1673ffffffffffffffffffffffffffffffffffffffff163373ffffffffffffffffffffffffffffffffffffffff1614611e3a57600080fd5b6000600960008573ffffffffffffffffffffffffffffffffffffffff1673ffffffffffffffffffffffffffffffffffffffff16815260200190815260200160002054148015611f60575060405160200180600001905060405160208183030381529060405280519060200120600a60008573ffffffffffffffffffffffffffffffffffffffff1673ffffffffffffffffffffffffffffffffffffffff1681526020019081526020016000206040516020018082805460018160011615610100020316600290048015611f435780601f10611f21576101008083540402835291820191611f43565b820191906000526020600020905b815481529060010190602001808311611f2f575b505091505060405160208183030381529060405280519060200120145b1561225b5760405160200180807f636f756e63696c5f6d656d626572000000000000000000000000000000000000815250600e01905060405160208183030381529060405280519060200120846040516020018082805190602001908083835b60208310611fe35780518252602082019150602081019050602083039250611fc0565b6001836020036101000a038019825116818451168082178552505050505050905001915050604051602081830303815290604052805190602001201415612090576001600760008573ffffffffffffffffffffffffffffffffffffffff1673ffffffffffffffffffffffffffffffffffffffff16815260200190815260200160002060006101000a81548160ff021916908360ff1602179055506008600081548092919060010191905055505b83600a60008573ffffffffffffffffffffffffffffffffffffffff1673ffffffffffffffffffffffffffffffffffffffff16815260200190815260200160002090805190602001906120e3929190612d43565b506121588260096000600660019054906101000a900473ffffffffffffffffffffffffffffffffffffffff1673ffffffffffffffffffffffffffffffffffffffff1673ffffffffffffffffffffffffffffffffffffffff16815260200190815260200160002054612cc890919063ffffffff16565b60096000600660019054906101000a900473ffffffffffffffffffffffffffffffffffffffff1673ffffffffffffffffffffffffffffffffffffffff1673ffffffffffffffffffffffffffffffffffffffff1681526020019081526020016000208190555061220f82600960008673ffffffffffffffffffffffffffffffffffffffff1673ffffffffffffffffffffffffffffffffffffffff16815260200190815260200160002054612cdf90919063ffffffff16565b600960008573ffffffffffffffffffffffffffffffffffffffff1673ffffffffffffffffffffffffffffffffffffffff1681526020019081526020016000208190555060019050612260565b600090505b9392505050565b6060600660019054906101000a900473ffffffffffffffffffffffffffffffffffffffff1673ffffffffffffffffffffffffffffffffffffffff163373ffffffffffffffffffffffffffffffffffffffff16148061231457506001600760003373ffffffffffffffffffffffffffffffffffffffff1673ffffffffffffffffffffffffffffffffffffffff16815260200190815260200160002060009054906101000a900460ff1660ff16145b61231d57600080fd5b600d80548060200260200160405190810160405280929190818152602001828054801561236957602002820191906000526020600020905b815481526020019060010190808311612355575b5050505050905090565b600660019054906101000a900473ffffffffffffffffffffffffffffffffffffffff1673ffffffffffffffffffffffffffffffffffffffff163373ffffffffffffffffffffffffffffffffffffffff16148061241e57506001600760003373ffffffffffffffffffffffffffffffffffffffff1673ffffffffffffffffffffffffffffffffffffffff16815260200190815260200160002060009054906101000a900460ff1660ff16145b61242757600080fd5b6000600b6000815480929190600101919050559050612444612dc3565b82816000018190525085816020019073ffffffffffffffffffffffffffffffffffffffff16908173ffffffffffffffffffffffffffffffffffffffff168152505084816040019073ffffffffffffffffffffffffffffffffffffffff16908173ffffffffffffffffffffffffffffffffffffffff1681525050838160600181815250506000816080019060ff16908160ff168152505080600c6000848152602001908152602001600020600082015181600001908051906020019061250a929190612e21565b5060208201518160010160006101000a81548173ffffffffffffffffffffffffffffffffffffffff021916908373ffffffffffffffffffffffffffffffffffffffff16021790555060408201518160020160006101000a81548173ffffffffffffffffffffffffffffffffffffffff021916908373ffffffffffffffffffffffffffffffffffffffff1602179055506060820151816003015560808201518160040160006101000a81548160ff021916908360ff160217905550905050600d8290806001815401808255809150509060018203906000526020600020016000909192909190915055507f03381a518e187d6c4794b6bac94cc51b997c5cffeff1a8b77945e34a427940be8686868686604051808673ffffffffffffffffffffffffffffffffffffffff1673ffffffffffffffffffffffffffffffffffffffff1681526020018573ffffffffffffffffffffffffffffffffffffffff1673ffffffffffffffffffffffffffffffffffffffff16815260200184815260200180602001838152602001828103825284818151815260200191508051906020019080838360005b838110156126c95780820151818401526020810190506126ae565b50505050905090810190601f1680156126f65780820380516001836020036101000a031916815260200191505b50965050505050505060405180910390a1505050505050565b806004600082825401925050819055508060096000600660019054906101000a900473ffffffffffffffffffffffffffffffffffffffff1673ffffffffffffffffffffffffffffffffffffffff1673ffffffffffffffffffffffffffffffffffffffff16815260200190815260200160002060008282540192505081905550600660019054906101000a900473ffffffffffffffffffffffffffffffffffffffff1673ffffffffffffffffffffffffffffffffffffffff16600660019054906101000a900473ffffffffffffffffffffffffffffffffffffffff1673ffffffffffffffffffffffffffffffffffffffff167fddf252ad1be2c89b69c2b068fc378daa952ba7f163c4a11628f55a4df523b3ef836040518082815260200191505060405180910390a350565b600960008473ffffffffffffffffffffffffffffffffffffffff1673ffffffffffffffffffffffffffffffffffffffff16815260200190815260200160002054811061288557600080fd5b6128d781600960008673ffffffffffffffffffffffffffffffffffffffff1673ffffffffffffffffffffffffffffffffffffffff16815260200190815260200160002054612cc890919063ffffffff16565b600960008573ffffffffffffffffffffffffffffffffffffffff1673ffffffffffffffffffffffffffffffffffffffff1681526020019081526020016000208190555061296c81600960008573ffffffffffffffffffffffffffffffffffffffff1673ffffffffffffffffffffffffffffffffffffffff16815260200190815260200160002054612cdf90919063ffffffff16565b600960008473ffffffffffffffffffffffffffffffffffffffff1673ffffffffffffffffffffffffffffffffffffffff168152602001908152602001600020819055508173ffffffffffffffffffffffffffffffffffffffff168373ffffffffffffffffffffffffffffffffffffffff167fddf252ad1be2c89b69c2b068fc378daa952ba7f163c4a11628f55a4df523b3ef836040518082815260200191505060405180910390a3505050565b60008060009054906101000a900473ffffffffffffffffffffffffffffffffffffffff1673ffffffffffffffffffffffffffffffffffffffff1663c08cc02d6040518163ffffffff1660e01b815260040160206040518083038186803b158015612a8257600080fd5b505afa158015612a96573d6000803e3d6000fd5b505050506040513d6020811015612aac57600080fd5b8101908080519060200190929190505050905060008090505b81811015612cc4576000600160009054906101000a900473ffffffffffffffffffffffffffffffffffffffff1673ffffffffffffffffffffffffffffffffffffffff16638387a152836040518263ffffffff1660e01b81526004018082815260200191505060206040518083038186803b158015612b4257600080fd5b505afa158015612b56573d6000803e3d6000fd5b505050506040513d6020811015612b6c57600080fd5b8101908080519060200190929190505050905060008090505b81811015612cb557600080600160009054906101000a900473ffffffffffffffffffffffffffffffffffffffff1673ffffffffffffffffffffffffffffffffffffffff1663795cce9686856040518363ffffffff1660e01b81526004018083815260200182815260200192505050604080518083038186803b158015612c0a57600080fd5b505afa158015612c1e573d6000803e3d6000fd5b505050506040513d6040811015612c3457600080fd5b81019080805190602001909291908051906020019092919050505091509150612ca582600960008473ffffffffffffffffffffffffffffffffffffffff1673ffffffffffffffffffffffffffffffffffffffff16815260200190815260200160002054612cdf90919063ffffffff16565b5050508080600101915050612b85565b50508080600101915050612ac5565b5050565b600082821115612cd457fe5b818303905092915050565b600080828401905083811015612cf157fe5b8091505092915050565b50805460018160011615610100020316600290046000825580601f10612d215750612d40565b601f016020900490600052602060002090810190612d3f9190612ea1565b5b50565b828054600181600116156101000203166002900490600052602060002090601f016020900481019282601f10612d8457805160ff1916838001178555612db2565b82800160010185558215612db2579182015b82811115612db1578251825591602001919060010190612d96565b5b509050612dbf9190612ea1565b5090565b6040518060a0016040528060608152602001600073ffffffffffffffffffffffffffffffffffffffff168152602001600073ffffffffffffffffffffffffffffffffffffffff16815260200160008152602001600060ff1681525090565b828054600181600116156101000203166002900490600052602060002090601f016020900481019282601f10612e6257805160ff1916838001178555612e90565b82800160010185558215612e90579182015b82811115612e8f578251825591602001919060010190612e74565b5b509050612e9d9190612ea1565b5090565b612ec391905b80821115612ebf576000816000905550600101612ea7565b5090565b9056fea265627a7a72315820e97d73acd3d54a4e78896ec1243926fbfac938bb960e2b9bb9ad910a75a1e5e264736f6c63430005100032",
  "source": "pragma solidity >=0.4.21 <0.7.0;\n import \"./Vote.sol\";\nimport \"./ProposalContract.sol\";\nimport \"./Safemath.sol\";\n\n// contract SafeMath {\n \n//     function safeAdd(uint a, uint b) public pure returns (uint c) {\n//         c = a + b;\n//         require(c >= a);\n//     }\n \n//     function safeSub(uint a, uint b) public pure returns (uint c) {\n//         require(b <= a);\n//         c = a - b;\n//     }\n \n//     function safeMul(uint a, uint b) public pure returns (uint c) {\n//         c = a * b;\n//         require(a == 0 || c / a == b);\n//     }\n \n//     function safeDiv(uint a, uint b) public pure returns (uint c) {\n//         require(b > 0);\n//         c = a / b;\n//     }\n// }\n \n \n//ERC Token Standard #20 Interface\ncontract ERC20Interface {\n    function totalSupply() public view returns (uint);\n    function balanceOf(address tokenOwner) public view returns (uint balance);\n    function transfer(address to, uint tokens) public returns (uint success);\n    function transferFrom(address from, address to, uint tokens) public returns (uint success);\n    event Transfer(address indexed from, address indexed to, uint tokens);\n    \n}\n \ncontract GovToken is ERC20Interface {\n    ProposalContract p;\n    Vote vote;\n    // currently the allocation etc is for council members only, need to extend to other platform users.\n    string public symbol;\n    string public  name;\n    uint public _totalSupply;\n    uint current_epoch = 0;\n    bool council_meeting = false;\n    \n    address internal _driver;\n    mapping(address => uint8) internal _councilMembers;\n    \n    uint private MIN_SIGNATURES = 0;\n    \n\n    // struct Council{\n    //     address root_user;\n    //     address council_member_one;\n    //     address council_member_two;\n    // }\n    \n    modifier isOwner() {\n        require(msg.sender == _driver);\n        _;\n    }\n\n    modifier validOwner() {\n        require(msg.sender == _driver || _councilMembers[msg.sender] == 1);\n        _;\n    }\n    \n    using SafeMath for uint256;\n    mapping(address => uint256) public balances;\n    mapping(address => string) account_type;\n    // Council newCouncil = Council(address(0) , address(0) , address(0));\n    \n    constructor(string memory _name , string memory _symbol , uint _supply) public {\n        symbol = _symbol;\n        name = _name;\n        _totalSupply = _supply;\n        balances[msg.sender] = _supply;\n        // newCouncil.root_user = msg.sender;\n        _driver = msg.sender;\n        emit Transfer(address(0), msg.sender, _supply);\n    }\n\n    function revert_casted_votes_after_epoch_ends() internal {\n        uint end = p.getProposalCount();\n        for(uint i=0;i<end;i++){\n            uint casted_votes = vote.get_casted_votes_array_length(i);\n            for(uint k=0;k<casted_votes;k++){\n                (uint votes ,address  wallet_address ) = vote.get_token_and_address_for_a_cast(i,k);\n                balances[wallet_address].add(votes);\n            }\n        }\n    }\n\n    function start_new_epoch() public  returns (uint){\n        address user = msg.sender;\n        address driver = _driver;\n        if(user == driver || check_if_address_is_council_member(user)==1) {\n            revert_casted_votes_after_epoch_ends();\n            vote.clear_casted_votes_after_epoch_ends();\n            increment_epoch();\n            return 1;\n        }\n        return 0;\n    }\n\n    function getWalletBalance() public view returns(uint){\n      return balances[msg.sender];\n    }\n\n    function getAccountType() public view returns (string memory){\n      return account_type[msg.sender];\n    }\n    \n    function initial_transfer(string memory wallet_type, address receiver_address , uint tokens) isOwner public returns (uint){\n        \n        if(balances[receiver_address] == 0 && keccak256(abi.encodePacked(account_type[receiver_address])) == keccak256(abi.encodePacked(\"\"))){\n\n            if(keccak256(abi.encodePacked(wallet_type)) == keccak256(abi.encodePacked(\"council_member\"))){\n\n                // if(newCouncil.council_member_one == address(0)){\n                //     newCouncil.council_member_one = receiver_address;\n                // }\n                // else if(newCouncil.council_member_two == address(0)){\n                //     newCouncil.council_member_two = receiver_address;\n                // }\n                // else{\n                //     return 0;\n                // }\n                _councilMembers[receiver_address] =1;\n                MIN_SIGNATURES++;\n              \n            }\n\n            account_type[receiver_address] = wallet_type;\n            // balances[newCouncil.root_user] = safeSub(balances[newCouncil.root_user],tokens);\n            // balances[_driver] = safeSub(balances[_driver],tokens);\n            balances[_driver] = balances[_driver].sub(tokens);\n            balances[receiver_address] = balances[receiver_address].add(tokens);\n            // balances[receiver_address] = safeAdd(balances[receiver_address],tokens);\n            return 1;\n        }\n        return 0;\n\n        // else{\n        //     return 0;\n        // }\n        \n    }\n    \n    function totalSupply() public view returns (uint) {\n        return _totalSupply  - balances[address(0)];\n    }\n    // is this the supply that has yet to be assigned? we can display this so council knows when thr is a need to mint more?\n    // currently the driver initially has all the tokens\n    // when registering, r we minting new tokens? need multisig for these mints??\n    // else, transfer from driver, but this means driver's power changes constantly.\n \n    function balanceOf(address tokenOwner) public view returns (uint) {\n        return balances[tokenOwner];\n    }\n \n    // function transfer(address to, uint tokens) private returns (uint) {\n    //     if(tokens < balances[msg.sender]){\n    //         return 0;\n    //     }\n    //     balances[msg.sender] = safeSub(balances[msg.sender], tokens);\n    //     balances[to] = safeAdd(balances[to], tokens);\n    //     emit Transfer(msg.sender, to, tokens);\n    //     return 1;\n    // }\n    function _transfer(address from, address to, uint tokens) private  {\n        require (tokens < balances[from]);\n        balances[from] = balances[from].sub(tokens);\n        balances[to] = balances[to].add(tokens);\n        emit Transfer(from, to, tokens);\n        \n    }\n \n\n    function _mint(uint tokens) private {\n        _totalSupply += tokens;\n        balances[_driver] += tokens;\n        emit Transfer(_driver, _driver, tokens);\n    }\n    \n   \n    function transfer(address to, uint tokens) validOwner public returns (uint success) {\n        createTransction(msg.sender, to, tokens, \"TRANSFER\");\n        return 1;\n    }\n    \n    function transferFrom(address from, address to, uint tokens) validOwner public returns (uint success) {\n        require(msg.sender == from);\n        createTransction(from, to, tokens, \"TRANSFER\");\n        return 1;\n    }\n    \n    // do we need a way for non \n    \n    function mintTokens(uint tokens) isOwner public {\n        createTransction(msg.sender, msg.sender, tokens, \"MINTING\");\n    }\n    \n    function receiveTokens(uint tokens) validOwner public {\n        createTransction(_driver, msg.sender, tokens, \"RECEIVE\");\n    }\n    \n    function transferTo(address to, uint tokens) validOwner public  {\n        createTransction(msg.sender, to, tokens, \"TRANSFER\");\n    }\n    \n    function deductToken(address user , uint tokens) public returns (uint){\n        if(balances[user]>=tokens){\n            balances[user]-=tokens;\n            return 1;\n        }\n        return 0;\n    }\n\n    function getDriverAddress() public view returns (address){\n        return _driver;\n    }\n    \n    // multisig features\n    \n    struct Transaction {\n      string txnType;\n      address from;\n      address to;\n      uint tokens;\n      uint8 signatureCount;\n      mapping (address => uint8) signatures;\n    }\n    \n    uint private _transactionIdx;\n    mapping (uint => Transaction) private _transactions;\n    uint[] private _pendingTransactions;\n    \n    event TransactionCreated(address from, address to, uint amount, string txnType, uint transactionId);\n    event TransactionCompleted(address from, address to, uint amount, string txnType,  uint transactionId);\n    event TransactionSigned(address by, string txnType, uint transactionId);\n    \n    \n  \n    function createTransction(address from, address to, uint tokens, string memory txnType) validOwner private {\n        uint transactionId = _transactionIdx++;\n        Transaction memory transaction;\n        transaction.txnType = txnType;\n        transaction.from = from;\n        transaction.to = to;\n        transaction.tokens = tokens;\n        transaction.signatureCount = 0;\n        \n        _transactions[transactionId] = transaction;\n        _pendingTransactions.push(transactionId);\n\n        emit TransactionCreated(from, to, tokens,txnType, transactionId);\n        \n    }\n    function getPendingTransactions()\n      view\n      validOwner\n      public\n      returns (uint[] memory) {\n      return _pendingTransactions;\n    }\n    \n    function signTransaction(uint transactionId)\n      validOwner\n      public {\n\n      Transaction storage transaction = _transactions[transactionId];\n\n      // Transaction must exist\n      require(address(0x0) != transaction.from);\n      // Creator cannot sign the transaction\n      if (keccak256(abi.encodePacked(transaction.txnType)) == keccak256(abi.encodePacked(\"RECEIVE\"))) {\n     \n          require(msg.sender != transaction.to);\n      } else {\n          require(msg.sender != transaction.from);\n      }\n      \n      // Cannot sign a transaction more than once\n      require(transaction.signatures[msg.sender] != 1);\n\n      transaction.signatures[msg.sender] = 1;\n      transaction.signatureCount++;\n\n      emit TransactionSigned(msg.sender, transaction.txnType, transactionId);\n\n      if (transaction.signatureCount >= MIN_SIGNATURES) {\n        if (keccak256(abi.encodePacked(transaction.txnType)) == keccak256(abi.encodePacked(\"MINTING\"))) {\n      \n            // mint(transaction.to, transaction.tokens);\n            _mint(transaction.tokens);\n            //mint, i.e. increase vlue of _totalSupply and _driver balance\n        } else {\n            _transfer(transaction.from, transaction.to, transaction.tokens);\n            \n            //transfer tokens from transaction.from to transaction.to\n            // receive, i.e. transfer tokens from _driver to transaction.to\n        }\n          \n          \n        // require(address(this).balance >= transaction.amount);\n        // transaction.to.transfer(transaction.amount);\n        emit TransactionCompleted(transaction.from, transaction.to, transaction.tokens, transaction.txnType, transactionId);\n        deleteTransaction(transactionId);\n      }\n    }\n    \n    function deleteTransaction(uint transactionId)\n      validOwner\n      public {\n      uint8 replace = 0;\n      for(uint i = 0; i < _pendingTransactions.length; i++) {\n        if (1 == replace) {\n          _pendingTransactions[i-1] = _pendingTransactions[i];\n        } else if (transactionId == _pendingTransactions[i]) {\n          replace = 1;\n        }\n      }\n      _pendingTransactions.pop();\n      delete _transactions[transactionId];\n    }\n\n//  \n    function start_council_meeting() public returns (uint){\n        if(council_meeting){\n            council_meeting = false;\n            return 0;\n        }\n        else{\n            council_meeting = true;\n            return 1;\n        }\n    }\n\n    function check_if_council_member() public view returns (uint){\n        if(msg.sender == _driver || _councilMembers[msg.sender] == 1){\n            return 1;\n        }\n        return 0;\n    }\n\n    function check_if_address_is_council_member(address user) public view returns (uint){\n        if(_councilMembers[user]==1){\n            return 1;\n        }\n        return 0;\n    }\n\n    function increment_epoch() public {\n        current_epoch++;\n    }\n\n    function get_current_epoch() public view returns (uint){\n        return current_epoch;\n    }\n\n \n}",
  "sourcePath": "/Users/shashwat.arya/Desktop/BlockChain Project (Pied Piper)/BlockChain-Project--Pied-Piper-/contracts/GovToken.sol",
  "compiler": {
    "name": "solc",
    "version": "0.5.16+commit.9c3226ce.Emscripten.clang"
  },
  "schemaVersion": "3.4.3",
  "updatedAt": "2021-11-13T17:07:12.198Z",
  "devdoc": {
    "methods": {}
  },
  "userdoc": {
    "methods": {}
  }
}