{
  "contractName": "GovToken",
  "abi": [
    {
      "inputs": [
        {
          "internalType": "string",
          "name": "_name",
          "type": "string"
        },
        {
          "internalType": "string",
          "name": "_symbol",
          "type": "string"
        },
        {
          "internalType": "uint256",
          "name": "_supply",
          "type": "uint256"
        }
      ],
      "payable": false,
      "stateMutability": "nonpayable",
      "type": "constructor"
    },
    {
      "anonymous": false,
      "inputs": [
        {
          "indexed": false,
          "internalType": "address",
          "name": "from",
          "type": "address"
        },
        {
          "indexed": false,
          "internalType": "address",
          "name": "to",
          "type": "address"
        },
        {
          "indexed": false,
          "internalType": "uint256",
          "name": "amount",
          "type": "uint256"
        },
        {
          "indexed": false,
          "internalType": "string",
          "name": "txnType",
          "type": "string"
        },
        {
          "indexed": false,
          "internalType": "uint256",
          "name": "transactionId",
          "type": "uint256"
        }
      ],
      "name": "TransactionCompleted",
      "type": "event"
    },
    {
      "anonymous": false,
      "inputs": [
        {
          "indexed": false,
          "internalType": "address",
          "name": "from",
          "type": "address"
        },
        {
          "indexed": false,
          "internalType": "address",
          "name": "to",
          "type": "address"
        },
        {
          "indexed": false,
          "internalType": "uint256",
          "name": "amount",
          "type": "uint256"
        },
        {
          "indexed": false,
          "internalType": "string",
          "name": "txnType",
          "type": "string"
        },
        {
          "indexed": false,
          "internalType": "uint256",
          "name": "transactionId",
          "type": "uint256"
        }
      ],
      "name": "TransactionCreated",
      "type": "event"
    },
    {
      "anonymous": false,
      "inputs": [
        {
          "indexed": false,
          "internalType": "address",
          "name": "by",
          "type": "address"
        },
        {
          "indexed": false,
          "internalType": "string",
          "name": "txnType",
          "type": "string"
        },
        {
          "indexed": false,
          "internalType": "uint256",
          "name": "transactionId",
          "type": "uint256"
        }
      ],
      "name": "TransactionSigned",
      "type": "event"
    },
    {
      "anonymous": false,
      "inputs": [
        {
          "indexed": true,
          "internalType": "address",
          "name": "from",
          "type": "address"
        },
        {
          "indexed": true,
          "internalType": "address",
          "name": "to",
          "type": "address"
        },
        {
          "indexed": false,
          "internalType": "uint256",
          "name": "tokens",
          "type": "uint256"
        }
      ],
      "name": "Transfer",
      "type": "event"
    },
    {
      "constant": true,
      "inputs": [],
      "name": "_totalSupply",
      "outputs": [
        {
          "internalType": "uint256",
          "name": "",
          "type": "uint256"
        }
      ],
      "payable": false,
      "stateMutability": "view",
      "type": "function"
    },
    {
      "constant": true,
      "inputs": [],
      "name": "name",
      "outputs": [
        {
          "internalType": "string",
          "name": "",
          "type": "string"
        }
      ],
      "payable": false,
      "stateMutability": "view",
      "type": "function"
    },
    {
      "constant": true,
      "inputs": [],
      "name": "symbol",
      "outputs": [
        {
          "internalType": "string",
          "name": "",
          "type": "string"
        }
      ],
      "payable": false,
      "stateMutability": "view",
      "type": "function"
    },
    {
      "constant": true,
      "inputs": [],
      "name": "getCurrentEpoch",
      "outputs": [
        {
          "internalType": "uint256",
          "name": "",
          "type": "uint256"
        }
      ],
      "payable": false,
      "stateMutability": "view",
      "type": "function"
    },
    {
      "constant": true,
      "inputs": [],
      "name": "getWalletBalance",
      "outputs": [
        {
          "internalType": "uint256",
          "name": "",
          "type": "uint256"
        }
      ],
      "payable": false,
      "stateMutability": "view",
      "type": "function"
    },
    {
      "constant": true,
      "inputs": [],
      "name": "getAccountType",
      "outputs": [
        {
          "internalType": "string",
          "name": "",
          "type": "string"
        }
      ],
      "payable": false,
      "stateMutability": "view",
      "type": "function"
    },
    {
      "constant": false,
      "inputs": [
        {
          "internalType": "string",
          "name": "wallet_type",
          "type": "string"
        },
        {
          "internalType": "address",
          "name": "receiver_address",
          "type": "address"
        },
        {
          "internalType": "uint256",
          "name": "tokens",
          "type": "uint256"
        }
      ],
      "name": "initial_transfer",
      "outputs": [
        {
          "internalType": "uint256",
          "name": "",
          "type": "uint256"
        }
      ],
      "payable": false,
      "stateMutability": "nonpayable",
      "type": "function"
    },
    {
      "constant": true,
      "inputs": [],
      "name": "totalSupply",
      "outputs": [
        {
          "internalType": "uint256",
          "name": "",
          "type": "uint256"
        }
      ],
      "payable": false,
      "stateMutability": "view",
      "type": "function"
    },
    {
      "constant": true,
      "inputs": [
        {
          "internalType": "address",
          "name": "tokenOwner",
          "type": "address"
        }
      ],
      "name": "balanceOf",
      "outputs": [
        {
          "internalType": "uint256",
          "name": "",
          "type": "uint256"
        }
      ],
      "payable": false,
      "stateMutability": "view",
      "type": "function"
    },
    {
      "constant": false,
      "inputs": [
        {
          "internalType": "address",
          "name": "to",
          "type": "address"
        },
        {
          "internalType": "uint256",
          "name": "tokens",
          "type": "uint256"
        }
      ],
      "name": "transfer",
      "outputs": [
        {
          "internalType": "uint256",
          "name": "success",
          "type": "uint256"
        }
      ],
      "payable": false,
      "stateMutability": "nonpayable",
      "type": "function"
    },
    {
      "constant": false,
      "inputs": [
        {
          "internalType": "address",
          "name": "from",
          "type": "address"
        },
        {
          "internalType": "address",
          "name": "to",
          "type": "address"
        },
        {
          "internalType": "uint256",
          "name": "tokens",
          "type": "uint256"
        }
      ],
      "name": "transferFrom",
      "outputs": [
        {
          "internalType": "uint256",
          "name": "success",
          "type": "uint256"
        }
      ],
      "payable": false,
      "stateMutability": "nonpayable",
      "type": "function"
    },
    {
      "constant": false,
      "inputs": [
        {
          "internalType": "uint256",
          "name": "tokens",
          "type": "uint256"
        }
      ],
      "name": "mintTokens",
      "outputs": [],
      "payable": false,
      "stateMutability": "nonpayable",
      "type": "function"
    },
    {
      "constant": false,
      "inputs": [
        {
          "internalType": "uint256",
          "name": "tokens",
          "type": "uint256"
        }
      ],
      "name": "receiveTokens",
      "outputs": [],
      "payable": false,
      "stateMutability": "nonpayable",
      "type": "function"
    },
    {
      "constant": false,
      "inputs": [
        {
          "internalType": "address",
          "name": "to",
          "type": "address"
        },
        {
          "internalType": "uint256",
          "name": "tokens",
          "type": "uint256"
        }
      ],
      "name": "transferTo",
      "outputs": [],
      "payable": false,
      "stateMutability": "nonpayable",
      "type": "function"
    },
    {
      "constant": true,
      "inputs": [],
      "name": "getPendingTransactions",
      "outputs": [
        {
          "internalType": "uint256[]",
          "name": "",
          "type": "uint256[]"
        }
      ],
      "payable": false,
      "stateMutability": "view",
      "type": "function"
    },
    {
      "constant": false,
      "inputs": [
        {
          "internalType": "uint256",
          "name": "transactionId",
          "type": "uint256"
        }
      ],
      "name": "signTransaction",
      "outputs": [],
      "payable": false,
      "stateMutability": "nonpayable",
      "type": "function"
    },
    {
      "constant": false,
      "inputs": [
        {
          "internalType": "uint256",
          "name": "transactionId",
          "type": "uint256"
        }
      ],
      "name": "deleteTransaction",
      "outputs": [],
      "payable": false,
      "stateMutability": "nonpayable",
      "type": "function"
    },
    {
      "constant": false,
      "inputs": [],
      "name": "start_council_meeting",
      "outputs": [
        {
          "internalType": "uint256",
          "name": "",
          "type": "uint256"
        }
      ],
      "payable": false,
      "stateMutability": "nonpayable",
      "type": "function"
    }
  ],
  "bytecode": "0x608060405260006003556000600460006101000a81548160ff02191690831515021790555060006006553480156200003657600080fd5b5060405162002ad638038062002ad6833981810160405260608110156200005c57600080fd5b81019080805160405193929190846401000000008211156200007d57600080fd5b838201915060208201858111156200009457600080fd5b8251866001820283011164010000000082111715620000b257600080fd5b8083526020830192505050908051906020019080838360005b83811015620000e8578082015181840152602081019050620000cb565b50505050905090810190601f168015620001165780820380516001836020036101000a031916815260200191505b50604052602001805160405193929190846401000000008211156200013a57600080fd5b838201915060208201858111156200015157600080fd5b82518660018202830111640100000000821117156200016f57600080fd5b8083526020830192505050908051906020019080838360005b83811015620001a557808201518184015260208101905062000188565b50505050905090810190601f168015620001d35780820380516001836020036101000a031916815260200191505b50604052602001805190602001909291905050508160009080519060200190620001ff92919062000314565b5082600190805190602001906200021892919062000314565b508060028190555080600760003373ffffffffffffffffffffffffffffffffffffffff1673ffffffffffffffffffffffffffffffffffffffff1681526020019081526020016000208190555033600460016101000a81548173ffffffffffffffffffffffffffffffffffffffff021916908373ffffffffffffffffffffffffffffffffffffffff1602179055503373ffffffffffffffffffffffffffffffffffffffff16600073ffffffffffffffffffffffffffffffffffffffff167fddf252ad1be2c89b69c2b068fc378daa952ba7f163c4a11628f55a4df523b3ef836040518082815260200191505060405180910390a3505050620003c3565b828054600181600116156101000203166002900490600052602060002090601f016020900481019282601f106200035757805160ff191683800117855562000388565b8280016001018555821562000388579182015b82811115620003875782518255916020019190600101906200036a565b5b5090506200039791906200039b565b5090565b620003c091905b80821115620003bc576000816000905550600101620003a2565b5090565b90565b61270380620003d36000396000f3fe608060405234801561001057600080fd5b50600436106101155760003560e01c806370a08231116100a257806397304ced1161007157806397304ced146104cd578063a9059cbb146104fb578063b97dd9e21461055d578063c640dd931461057b578063d11db83f1461067457610115565b806370a08231146103a6578063743e0c9b146103fe5780637a0347cb1461042c57806395d89b411461044a57610115565b80632ccb1b30116100e95780632ccb1b301461026b578063329a27e7146102b95780633eaaf86b146102d757806352d6a0a3146102f55780635d9ec2101461037857610115565b8062e9c0061461011a57806306fdde031461014857806318160ddd146101cb57806323b872dd146101e9575b600080fd5b6101466004803603602081101561013057600080fd5b81019080803590602001909291905050506106d3565b005b6101506108ce565b6040518080602001828103825283818151815260200191508051906020019080838360005b83811015610190578082015181840152602081019050610175565b50505050905090810190601f1680156101bd5780820380516001836020036101000a031916815260200191505b509250505060405180910390f35b6101d361096c565b6040518082815260200191505060405180910390f35b610255600480360360608110156101ff57600080fd5b81019080803573ffffffffffffffffffffffffffffffffffffffff169060200190929190803573ffffffffffffffffffffffffffffffffffffffff169060200190929190803590602001909291905050506109b7565b6040518082815260200191505060405180910390f35b6102b76004803603604081101561028157600080fd5b81019080803573ffffffffffffffffffffffffffffffffffffffff16906020019092919080359060200190929190505050610af1565b005b6102c1610bea565b6040518082815260200191505060405180910390f35b6102df610c31565b6040518082815260200191505060405180910390f35b6102fd610c37565b6040518080602001828103825283818151815260200191508051906020019080838360005b8381101561033d578082015181840152602081019050610322565b50505050905090810190601f16801561036a5780820380516001836020036101000a031916815260200191505b509250505060405180910390f35b6103a46004803603602081101561038e57600080fd5b8101908080359060200190929190505050610d16565b005b6103e8600480360360208110156103bc57600080fd5b81019080803573ffffffffffffffffffffffffffffffffffffffff16906020019092919050505061148d565b6040518082815260200191505060405180910390f35b61042a6004803603602081101561041457600080fd5b81019080803590602001909291905050506114d6565b005b6104346115f0565b6040518082815260200191505060405180910390f35b61045261164e565b6040518080602001828103825283818151815260200191508051906020019080838360005b83811015610492578082015181840152602081019050610477565b50505050905090810190601f1680156104bf5780820380516001836020036101000a031916815260200191505b509250505060405180910390f35b6104f9600480360360208110156104e357600080fd5b81019080803590602001909291905050506116ec565b005b6105476004803603604081101561051157600080fd5b81019080803573ffffffffffffffffffffffffffffffffffffffff1690602001909291908035906020019092919050505061178a565b6040518082815260200191505060405180910390f35b61056561188b565b6040518082815260200191505060405180910390f35b61065e6004803603606081101561059157600080fd5b81019080803590602001906401000000008111156105ae57600080fd5b8201836020820111156105c057600080fd5b803590602001918460018302840111640100000000831117156105e257600080fd5b91908080601f016020809104026020016040519081016040528093929190818152602001838380828437600081840152601f19601f820116905080830192505050505050509192919290803573ffffffffffffffffffffffffffffffffffffffff16906020019092919080359060200190929190505050611895565b6040518082815260200191505060405180910390f35b61067c611d1e565b6040518080602001828103825283818151815260200191508051906020019060200280838360005b838110156106bf5780820151818401526020810190506106a4565b505050509050019250505060405180910390f35b600460019054906101000a900473ffffffffffffffffffffffffffffffffffffffff1673ffffffffffffffffffffffffffffffffffffffff163373ffffffffffffffffffffffffffffffffffffffff16148061077e57506001600560003373ffffffffffffffffffffffffffffffffffffffff1673ffffffffffffffffffffffffffffffffffffffff16815260200190815260200160002060009054906101000a900460ff1660ff16145b61078757600080fd5b600080905060008090505b600b80549050811015610818578160ff16600114156107e657600b81815481106107b857fe5b9060005260206000200154600b60018303815481106107d357fe5b906000526020600020018190555061080b565b600b81815481106107f357fe5b906000526020600020015483141561080a57600191505b5b8080600101915050610792565b50600b80548061082457fe5b60019003818190600052602060002001600090559055600a60008381526020019081526020016000206000808201600061085e9190612503565b6001820160006101000a81549073ffffffffffffffffffffffffffffffffffffffff02191690556002820160006101000a81549073ffffffffffffffffffffffffffffffffffffffff021916905560038201600090556004820160006101000a81549060ff021916905550505050565b60018054600181600116156101000203166002900480601f0160208091040260200160405190810160405280929190818152602001828054600181600116156101000203166002900480156109645780601f1061093957610100808354040283529160200191610964565b820191906000526020600020905b81548152906001019060200180831161094757829003601f168201915b505050505081565b6000600760008073ffffffffffffffffffffffffffffffffffffffff1673ffffffffffffffffffffffffffffffffffffffff1681526020019081526020016000205460025403905090565b6000600460019054906101000a900473ffffffffffffffffffffffffffffffffffffffff1673ffffffffffffffffffffffffffffffffffffffff163373ffffffffffffffffffffffffffffffffffffffff161480610a6457506001600560003373ffffffffffffffffffffffffffffffffffffffff1673ffffffffffffffffffffffffffffffffffffffff16815260200190815260200160002060009054906101000a900460ff1660ff16145b610a6d57600080fd5b8373ffffffffffffffffffffffffffffffffffffffff163373ffffffffffffffffffffffffffffffffffffffff1614610aa557600080fd5b610ae68484846040518060400160405280600881526020017f5452414e53464552000000000000000000000000000000000000000000000000815250611e2a565b600190509392505050565b600460019054906101000a900473ffffffffffffffffffffffffffffffffffffffff1673ffffffffffffffffffffffffffffffffffffffff163373ffffffffffffffffffffffffffffffffffffffff161480610b9c57506001600560003373ffffffffffffffffffffffffffffffffffffffff1673ffffffffffffffffffffffffffffffffffffffff16815260200190815260200160002060009054906101000a900460ff1660ff16145b610ba557600080fd5b610be63383836040518060400160405280600881526020017f5452414e53464552000000000000000000000000000000000000000000000000815250611e2a565b5050565b6000600760003373ffffffffffffffffffffffffffffffffffffffff1673ffffffffffffffffffffffffffffffffffffffff16815260200190815260200160002054905090565b60025481565b6060600860003373ffffffffffffffffffffffffffffffffffffffff1673ffffffffffffffffffffffffffffffffffffffff1681526020019081526020016000208054600181600116156101000203166002900480601f016020809104026020016040519081016040528092919081815260200182805460018160011615610100020316600290048015610d0c5780601f10610ce157610100808354040283529160200191610d0c565b820191906000526020600020905b815481529060010190602001808311610cef57829003601f168201915b5050505050905090565b600460019054906101000a900473ffffffffffffffffffffffffffffffffffffffff1673ffffffffffffffffffffffffffffffffffffffff163373ffffffffffffffffffffffffffffffffffffffff161480610dc157506001600560003373ffffffffffffffffffffffffffffffffffffffff1673ffffffffffffffffffffffffffffffffffffffff16815260200190815260200160002060009054906101000a900460ff1660ff16145b610dca57600080fd5b6000600a600083815260200190815260200160002090508060010160009054906101000a900473ffffffffffffffffffffffffffffffffffffffff1673ffffffffffffffffffffffffffffffffffffffff16600073ffffffffffffffffffffffffffffffffffffffff161415610e3f57600080fd5b60405160200180807f5245434549564500000000000000000000000000000000000000000000000000815250600701905060405160208183030381529060405280519060200120816000016040516020018082805460018160011615610100020316600290048015610ee85780601f10610ec6576101008083540402835291820191610ee8565b820191906000526020600020905b815481529060010190602001808311610ed4575b5050915050604051602081830303815290604052805190602001201415610f6b578060020160009054906101000a900473ffffffffffffffffffffffffffffffffffffffff1673ffffffffffffffffffffffffffffffffffffffff163373ffffffffffffffffffffffffffffffffffffffff161415610f6657600080fd5b610fc9565b8060010160009054906101000a900473ffffffffffffffffffffffffffffffffffffffff1673ffffffffffffffffffffffffffffffffffffffff163373ffffffffffffffffffffffffffffffffffffffff161415610fc857600080fd5b5b60018160050160003373ffffffffffffffffffffffffffffffffffffffff1673ffffffffffffffffffffffffffffffffffffffff16815260200190815260200160002060009054906101000a900460ff1660ff16141561102857600080fd5b60018160050160003373ffffffffffffffffffffffffffffffffffffffff1673ffffffffffffffffffffffffffffffffffffffff16815260200190815260200160002060006101000a81548160ff021916908360ff16021790555080600401600081819054906101000a900460ff168092919060010191906101000a81548160ff021916908360ff160217905550507ed302441f7789d3c0b048a3afa15b3bb872dbaaee83c64cb63a99a5973f2c87338260000184604051808473ffffffffffffffffffffffffffffffffffffffff1673ffffffffffffffffffffffffffffffffffffffff1681526020018060200183815260200182810382528481815460018160011615610100020316600290048152602001915080546001816001161561010002031660029004801561119e5780601f106111735761010080835404028352916020019161119e565b820191906000526020600020905b81548152906001019060200180831161118157829003601f168201915b505094505050505060405180910390a16006548160040160009054906101000a900460ff1660ff16106114895760405160200180807f4d494e54494e47000000000000000000000000000000000000000000000000008152506007019050604051602081830303815290604052805190602001208160000160405160200180828054600181600116156101000203166002900480156112745780601f10611252576101008083540402835291820191611274565b820191906000526020600020905b815481529060010190602001808311611260575b50509150506040516020818303038152906040528051906020012014156112a7576112a281600301546121c6565b6112ff565b6112fe8160010160009054906101000a900473ffffffffffffffffffffffffffffffffffffffff168260020160009054906101000a900473ffffffffffffffffffffffffffffffffffffffff1683600301546122f1565b5b7f69b93c8351bb1a78d209527eed15f087c238c3120ba9a338db78be6b247f3fcb8160010160009054906101000a900473ffffffffffffffffffffffffffffffffffffffff168260020160009054906101000a900473ffffffffffffffffffffffffffffffffffffffff1683600301548460000186604051808673ffffffffffffffffffffffffffffffffffffffff1673ffffffffffffffffffffffffffffffffffffffff1681526020018573ffffffffffffffffffffffffffffffffffffffff1673ffffffffffffffffffffffffffffffffffffffff1681526020018481526020018060200183815260200182810382528481815460018160011615610100020316600290048152602001915080546001816001161561010002031660029004801561146d5780601f106114425761010080835404028352916020019161146d565b820191906000526020600020905b81548152906001019060200180831161145057829003601f168201915b5050965050505050505060405180910390a1611488826106d3565b5b5050565b6000600760008373ffffffffffffffffffffffffffffffffffffffff1673ffffffffffffffffffffffffffffffffffffffff168152602001908152602001600020549050919050565b600460019054906101000a900473ffffffffffffffffffffffffffffffffffffffff1673ffffffffffffffffffffffffffffffffffffffff163373ffffffffffffffffffffffffffffffffffffffff16148061158157506001600560003373ffffffffffffffffffffffffffffffffffffffff1673ffffffffffffffffffffffffffffffffffffffff16815260200190815260200160002060009054906101000a900460ff1660ff16145b61158a57600080fd5b6115ed600460019054906101000a900473ffffffffffffffffffffffffffffffffffffffff1633836040518060400160405280600781526020017f5245434549564500000000000000000000000000000000000000000000000000815250611e2a565b50565b6000600460009054906101000a900460ff161561162b576000600460006101000a81548160ff0219169083151502179055506000905061164b565b6001600460006101000a81548160ff021916908315150217905550600190505b90565b60008054600181600116156101000203166002900480601f0160208091040260200160405190810160405280929190818152602001828054600181600116156101000203166002900480156116e45780601f106116b9576101008083540402835291602001916116e4565b820191906000526020600020905b8154815290600101906020018083116116c757829003601f168201915b505050505081565b600460019054906101000a900473ffffffffffffffffffffffffffffffffffffffff1673ffffffffffffffffffffffffffffffffffffffff163373ffffffffffffffffffffffffffffffffffffffff161461174657600080fd5b6117873333836040518060400160405280600781526020017f4d494e54494e4700000000000000000000000000000000000000000000000000815250611e2a565b50565b6000600460019054906101000a900473ffffffffffffffffffffffffffffffffffffffff1673ffffffffffffffffffffffffffffffffffffffff163373ffffffffffffffffffffffffffffffffffffffff16148061183757506001600560003373ffffffffffffffffffffffffffffffffffffffff1673ffffffffffffffffffffffffffffffffffffffff16815260200190815260200160002060009054906101000a900460ff1660ff16145b61184057600080fd5b6118813384846040518060400160405280600881526020017f5452414e53464552000000000000000000000000000000000000000000000000815250611e2a565b6001905092915050565b6000600354905090565b6000600460019054906101000a900473ffffffffffffffffffffffffffffffffffffffff1673ffffffffffffffffffffffffffffffffffffffff163373ffffffffffffffffffffffffffffffffffffffff16146118f157600080fd5b6000600760008573ffffffffffffffffffffffffffffffffffffffff1673ffffffffffffffffffffffffffffffffffffffff16815260200190815260200160002054148015611a17575060405160200180600001905060405160208183030381529060405280519060200120600860008573ffffffffffffffffffffffffffffffffffffffff1673ffffffffffffffffffffffffffffffffffffffff16815260200190815260200160002060405160200180828054600181600116156101000203166002900480156119fa5780601f106119d85761010080835404028352918201916119fa565b820191906000526020600020905b8154815290600101906020018083116119e6575b505091505060405160208183030381529060405280519060200120145b15611d125760405160200180807f636f756e63696c5f6d656d626572000000000000000000000000000000000000815250600e01905060405160208183030381529060405280519060200120846040516020018082805190602001908083835b60208310611a9a5780518252602082019150602081019050602083039250611a77565b6001836020036101000a038019825116818451168082178552505050505050905001915050604051602081830303815290604052805190602001201415611b47576001600560008573ffffffffffffffffffffffffffffffffffffffff1673ffffffffffffffffffffffffffffffffffffffff16815260200190815260200160002060006101000a81548160ff021916908360ff1602179055506006600081548092919060010191905055505b83600860008573ffffffffffffffffffffffffffffffffffffffff1673ffffffffffffffffffffffffffffffffffffffff1681526020019081526020016000209080519060200190611b9a92919061254b565b50611c0f8260076000600460019054906101000a900473ffffffffffffffffffffffffffffffffffffffff1673ffffffffffffffffffffffffffffffffffffffff1673ffffffffffffffffffffffffffffffffffffffff168152602001908152602001600020546124d090919063ffffffff16565b60076000600460019054906101000a900473ffffffffffffffffffffffffffffffffffffffff1673ffffffffffffffffffffffffffffffffffffffff1673ffffffffffffffffffffffffffffffffffffffff16815260200190815260200160002081905550611cc682600760008673ffffffffffffffffffffffffffffffffffffffff1673ffffffffffffffffffffffffffffffffffffffff168152602001908152602001600020546124e790919063ffffffff16565b600760008573ffffffffffffffffffffffffffffffffffffffff1673ffffffffffffffffffffffffffffffffffffffff1681526020019081526020016000208190555060019050611d17565b600090505b9392505050565b6060600460019054906101000a900473ffffffffffffffffffffffffffffffffffffffff1673ffffffffffffffffffffffffffffffffffffffff163373ffffffffffffffffffffffffffffffffffffffff161480611dcb57506001600560003373ffffffffffffffffffffffffffffffffffffffff1673ffffffffffffffffffffffffffffffffffffffff16815260200190815260200160002060009054906101000a900460ff1660ff16145b611dd457600080fd5b600b805480602002602001604051908101604052809291908181526020018280548015611e2057602002820191906000526020600020905b815481526020019060010190808311611e0c575b5050505050905090565b600460019054906101000a900473ffffffffffffffffffffffffffffffffffffffff1673ffffffffffffffffffffffffffffffffffffffff163373ffffffffffffffffffffffffffffffffffffffff161480611ed557506001600560003373ffffffffffffffffffffffffffffffffffffffff1673ffffffffffffffffffffffffffffffffffffffff16815260200190815260200160002060009054906101000a900460ff1660ff16145b611ede57600080fd5b600060096000815480929190600101919050559050611efb6125cb565b82816000018190525085816020019073ffffffffffffffffffffffffffffffffffffffff16908173ffffffffffffffffffffffffffffffffffffffff168152505084816040019073ffffffffffffffffffffffffffffffffffffffff16908173ffffffffffffffffffffffffffffffffffffffff1681525050838160600181815250506000816080019060ff16908160ff168152505080600a60008481526020019081526020016000206000820151816000019080519060200190611fc1929190612629565b5060208201518160010160006101000a81548173ffffffffffffffffffffffffffffffffffffffff021916908373ffffffffffffffffffffffffffffffffffffffff16021790555060408201518160020160006101000a81548173ffffffffffffffffffffffffffffffffffffffff021916908373ffffffffffffffffffffffffffffffffffffffff1602179055506060820151816003015560808201518160040160006101000a81548160ff021916908360ff160217905550905050600b8290806001815401808255809150509060018203906000526020600020016000909192909190915055507f03381a518e187d6c4794b6bac94cc51b997c5cffeff1a8b77945e34a427940be8686868686604051808673ffffffffffffffffffffffffffffffffffffffff1673ffffffffffffffffffffffffffffffffffffffff1681526020018573ffffffffffffffffffffffffffffffffffffffff1673ffffffffffffffffffffffffffffffffffffffff16815260200184815260200180602001838152602001828103825284818151815260200191508051906020019080838360005b83811015612180578082015181840152602081019050612165565b50505050905090810190601f1680156121ad5780820380516001836020036101000a031916815260200191505b50965050505050505060405180910390a1505050505050565b806002600082825401925050819055508060076000600460019054906101000a900473ffffffffffffffffffffffffffffffffffffffff1673ffffffffffffffffffffffffffffffffffffffff1673ffffffffffffffffffffffffffffffffffffffff16815260200190815260200160002060008282540192505081905550600460019054906101000a900473ffffffffffffffffffffffffffffffffffffffff1673ffffffffffffffffffffffffffffffffffffffff16600460019054906101000a900473ffffffffffffffffffffffffffffffffffffffff1673ffffffffffffffffffffffffffffffffffffffff167fddf252ad1be2c89b69c2b068fc378daa952ba7f163c4a11628f55a4df523b3ef836040518082815260200191505060405180910390a350565b600760008473ffffffffffffffffffffffffffffffffffffffff1673ffffffffffffffffffffffffffffffffffffffff16815260200190815260200160002054811061233c57600080fd5b61238e81600760008673ffffffffffffffffffffffffffffffffffffffff1673ffffffffffffffffffffffffffffffffffffffff168152602001908152602001600020546124d090919063ffffffff16565b600760008573ffffffffffffffffffffffffffffffffffffffff1673ffffffffffffffffffffffffffffffffffffffff1681526020019081526020016000208190555061242381600760008573ffffffffffffffffffffffffffffffffffffffff1673ffffffffffffffffffffffffffffffffffffffff168152602001908152602001600020546124e790919063ffffffff16565b600760008473ffffffffffffffffffffffffffffffffffffffff1673ffffffffffffffffffffffffffffffffffffffff168152602001908152602001600020819055508173ffffffffffffffffffffffffffffffffffffffff168373ffffffffffffffffffffffffffffffffffffffff167fddf252ad1be2c89b69c2b068fc378daa952ba7f163c4a11628f55a4df523b3ef836040518082815260200191505060405180910390a3505050565b6000828211156124dc57fe5b818303905092915050565b6000808284019050838110156124f957fe5b8091505092915050565b50805460018160011615610100020316600290046000825580601f106125295750612548565b601f01602090049060005260206000209081019061254791906126a9565b5b50565b828054600181600116156101000203166002900490600052602060002090601f016020900481019282601f1061258c57805160ff19168380011785556125ba565b828001600101855582156125ba579182015b828111156125b957825182559160200191906001019061259e565b5b5090506125c791906126a9565b5090565b6040518060a0016040528060608152602001600073ffffffffffffffffffffffffffffffffffffffff168152602001600073ffffffffffffffffffffffffffffffffffffffff16815260200160008152602001600060ff1681525090565b828054600181600116156101000203166002900490600052602060002090601f016020900481019282601f1061266a57805160ff1916838001178555612698565b82800160010185558215612698579182015b8281111561269757825182559160200191906001019061267c565b5b5090506126a591906126a9565b5090565b6126cb91905b808211156126c75760008160009055506001016126af565b5090565b9056fea265627a7a723158207fd2163bad5504665deba8f6319bc64f5808beba7edf43eaa951a7c325e5ded664736f6c63430005100032",
  "source": "pragma solidity >=0.4.21 <0.7.0;\n \n\nimport \"./Safemath.sol\";\n\n// contract SafeMath {\n \n//     function safeAdd(uint a, uint b) public pure returns (uint c) {\n//         c = a + b;\n//         require(c >= a);\n//     }\n \n//     function safeSub(uint a, uint b) public pure returns (uint c) {\n//         require(b <= a);\n//         c = a - b;\n//     }\n \n//     function safeMul(uint a, uint b) public pure returns (uint c) {\n//         c = a * b;\n//         require(a == 0 || c / a == b);\n//     }\n \n//     function safeDiv(uint a, uint b) public pure returns (uint c) {\n//         require(b > 0);\n//         c = a / b;\n//     }\n// }\n \n \n//ERC Token Standard #20 Interface\ncontract ERC20Interface {\n    function totalSupply() public view returns (uint);\n    function balanceOf(address tokenOwner) public view returns (uint balance);\n    function transfer(address to, uint tokens) public returns (uint success);\n    function transferFrom(address from, address to, uint tokens) public returns (uint success);\n    event Transfer(address indexed from, address indexed to, uint tokens);\n    \n}\n \ncontract GovToken is ERC20Interface {\n    // currently the allocation etc is for council members only, need to extend to other platform users.\n    string public symbol;\n    string public  name;\n    uint public _totalSupply;\n    uint current_epoch = 0;\n    bool council_meeting = false;\n    \n    address internal _driver;\n    mapping(address => uint8) internal _councilMembers;\n    \n    uint private MIN_SIGNATURES = 0;\n    \n\n    // struct Council{\n    //     address root_user;\n    //     address council_member_one;\n    //     address council_member_two;\n    // }\n    \n    modifier isOwner() {\n        require(msg.sender == _driver);\n        _;\n    }\n\n    modifier validOwner() {\n        require(msg.sender == _driver || _councilMembers[msg.sender] == 1);\n        _;\n    }\n    \n    using SafeMath for uint256;\n    mapping(address => uint256) balances;\n    mapping(address => string) account_type;\n    // Council newCouncil = Council(address(0) , address(0) , address(0));\n    \n    constructor(string memory _name , string memory _symbol , uint _supply) public {\n        symbol = _symbol;\n        name = _name;\n        _totalSupply = _supply;\n        balances[msg.sender] = _supply;\n        // newCouncil.root_user = msg.sender;\n        _driver = msg.sender;\n        emit Transfer(address(0), msg.sender, _supply);\n    }\n\n    function getCurrentEpoch() public view returns (uint) {\n        return current_epoch;\n    }\n\n    function getWalletBalance() public view returns(uint){\n      return balances[msg.sender];\n    }\n\n    function getAccountType() public view returns (string memory){\n      return account_type[msg.sender];\n    }\n    \n    function initial_transfer(string memory wallet_type, address receiver_address , uint tokens) isOwner public returns (uint){\n        \n        if(balances[receiver_address] == 0 && keccak256(abi.encodePacked(account_type[receiver_address])) == keccak256(abi.encodePacked(\"\"))){\n\n            if(keccak256(abi.encodePacked(wallet_type)) == keccak256(abi.encodePacked(\"council_member\"))){\n\n                // if(newCouncil.council_member_one == address(0)){\n                //     newCouncil.council_member_one = receiver_address;\n                // }\n                // else if(newCouncil.council_member_two == address(0)){\n                //     newCouncil.council_member_two = receiver_address;\n                // }\n                // else{\n                //     return 0;\n                // }\n                _councilMembers[receiver_address] =1;\n                MIN_SIGNATURES++;\n              \n            }\n\n            account_type[receiver_address] = wallet_type;\n            // balances[newCouncil.root_user] = safeSub(balances[newCouncil.root_user],tokens);\n            // balances[_driver] = safeSub(balances[_driver],tokens);\n            balances[_driver] = balances[_driver].sub(tokens);\n            balances[receiver_address] = balances[receiver_address].add(tokens);\n            // balances[receiver_address] = safeAdd(balances[receiver_address],tokens);\n            return 1;\n        }\n        return 0;\n\n        // else{\n        //     return 0;\n        // }\n        \n    }\n    \n    function totalSupply() public view returns (uint) {\n        return _totalSupply  - balances[address(0)];\n    }\n    // is this the supply that has yet to be assigned? we can display this so council knows when thr is a need to mint more?\n    // currently the driver initially has all the tokens\n    // when registering, r we minting new tokens? need multisig for these mints??\n    // else, transfer from driver, but this means driver's power changes constantly.\n \n    function balanceOf(address tokenOwner) public view returns (uint) {\n        return balances[tokenOwner];\n    }\n \n    // function transfer(address to, uint tokens) private returns (uint) {\n    //     if(tokens < balances[msg.sender]){\n    //         return 0;\n    //     }\n    //     balances[msg.sender] = safeSub(balances[msg.sender], tokens);\n    //     balances[to] = safeAdd(balances[to], tokens);\n    //     emit Transfer(msg.sender, to, tokens);\n    //     return 1;\n    // }\n    function _transfer(address from, address to, uint tokens) private  {\n        require (tokens < balances[from]);\n        balances[from] = balances[from].sub(tokens);\n        balances[to] = balances[to].add(tokens);\n        emit Transfer(from, to, tokens);\n        \n    }\n \n\n    function _mint(uint tokens) private {\n        _totalSupply += tokens;\n        balances[_driver] += tokens;\n        emit Transfer(_driver, _driver, tokens);\n    }\n    \n   \n    function transfer(address to, uint tokens) validOwner public returns (uint success) {\n        createTransction(msg.sender, to, tokens, \"TRANSFER\");\n        return 1;\n    }\n    \n    function transferFrom(address from, address to, uint tokens) validOwner public returns (uint success) {\n        require(msg.sender == from);\n        createTransction(from, to, tokens, \"TRANSFER\");\n        return 1;\n    }\n    \n    // do we need a way for non \n    \n    function mintTokens(uint tokens) isOwner public {\n        createTransction(msg.sender, msg.sender, tokens, \"MINTING\");\n    }\n    \n    function receiveTokens(uint tokens) validOwner public {\n        createTransction(_driver, msg.sender, tokens, \"RECEIVE\");\n    }\n    \n    function transferTo(address to, uint tokens) validOwner public  {\n        createTransction(msg.sender, to, tokens, \"TRANSFER\");\n    }\n    \n    \n    // multisig features\n    \n    struct Transaction {\n      string txnType;\n      address from;\n      address to;\n      uint tokens;\n      uint8 signatureCount;\n      mapping (address => uint8) signatures;\n    }\n    \n    uint private _transactionIdx;\n    mapping (uint => Transaction) private _transactions;\n    uint[] private _pendingTransactions;\n    \n    event TransactionCreated(address from, address to, uint amount, string txnType, uint transactionId);\n    event TransactionCompleted(address from, address to, uint amount, string txnType,  uint transactionId);\n    event TransactionSigned(address by, string txnType, uint transactionId);\n    \n    \n  \n    function createTransction(address from, address to, uint tokens, string memory txnType) validOwner private {\n        uint transactionId = _transactionIdx++;\n        Transaction memory transaction;\n        transaction.txnType = txnType;\n        transaction.from = from;\n        transaction.to = to;\n        transaction.tokens = tokens;\n        transaction.signatureCount = 0;\n        \n        _transactions[transactionId] = transaction;\n        _pendingTransactions.push(transactionId);\n\n        emit TransactionCreated(from, to, tokens,txnType, transactionId);\n        \n    }\n    function getPendingTransactions()\n      view\n      validOwner\n      public\n      returns (uint[] memory) {\n      return _pendingTransactions;\n    }\n    \n    function signTransaction(uint transactionId)\n      validOwner\n      public {\n\n      Transaction storage transaction = _transactions[transactionId];\n\n      // Transaction must exist\n      require(address(0x0) != transaction.from);\n      // Creator cannot sign the transaction\n      if (keccak256(abi.encodePacked(transaction.txnType)) == keccak256(abi.encodePacked(\"RECEIVE\"))) {\n     \n          require(msg.sender != transaction.to);\n      } else {\n          require(msg.sender != transaction.from);\n      }\n      \n      // Cannot sign a transaction more than once\n      require(transaction.signatures[msg.sender] != 1);\n\n      transaction.signatures[msg.sender] = 1;\n      transaction.signatureCount++;\n\n      emit TransactionSigned(msg.sender, transaction.txnType, transactionId);\n\n      if (transaction.signatureCount >= MIN_SIGNATURES) {\n        if (keccak256(abi.encodePacked(transaction.txnType)) == keccak256(abi.encodePacked(\"MINTING\"))) {\n      \n            // mint(transaction.to, transaction.tokens);\n            _mint(transaction.tokens);\n            //mint, i.e. increase vlue of _totalSupply and _driver balance\n        } else {\n            _transfer(transaction.from, transaction.to, transaction.tokens);\n            \n            //transfer tokens from transaction.from to transaction.to\n            // receive, i.e. transfer tokens from _driver to transaction.to\n        }\n          \n          \n        // require(address(this).balance >= transaction.amount);\n        // transaction.to.transfer(transaction.amount);\n        emit TransactionCompleted(transaction.from, transaction.to, transaction.tokens, transaction.txnType, transactionId);\n        deleteTransaction(transactionId);\n      }\n    }\n    \n    function deleteTransaction(uint transactionId)\n      validOwner\n      public {\n      uint8 replace = 0;\n      for(uint i = 0; i < _pendingTransactions.length; i++) {\n        if (1 == replace) {\n          _pendingTransactions[i-1] = _pendingTransactions[i];\n        } else if (transactionId == _pendingTransactions[i]) {\n          replace = 1;\n        }\n      }\n      _pendingTransactions.pop();\n      delete _transactions[transactionId];\n    }\n\n//  \n    function start_council_meeting() public returns (uint){\n        if(council_meeting){\n            council_meeting = false;\n            return 0;\n        }\n        else{\n            council_meeting = true;\n            return 1;\n        }\n    }\n\n \n}",
  "sourcePath": "/Users/shashwat.arya/Desktop/BlockChain Project (Pied Piper)/BlockChain-Project--Pied-Piper-/contracts/GovToken.sol",
  "compiler": {
    "name": "solc",
    "version": "0.5.16+commit.9c3226ce.Emscripten.clang"
  },
  "schemaVersion": "3.4.3",
  "updatedAt": "2021-11-11T13:20:38.927Z",
  "devdoc": {
    "methods": {}
  },
  "userdoc": {
    "methods": {}
  }
}