{
  "contractName": "GovToken",
  "abi": [
    {
      "inputs": [
        {
          "internalType": "string",
          "name": "_name",
          "type": "string"
        },
        {
          "internalType": "string",
          "name": "_symbol",
          "type": "string"
        },
        {
          "internalType": "uint256",
          "name": "_supply",
          "type": "uint256"
        }
      ],
      "payable": false,
      "stateMutability": "nonpayable",
      "type": "constructor"
    },
    {
      "anonymous": false,
      "inputs": [
        {
          "indexed": false,
          "internalType": "address",
          "name": "from",
          "type": "address"
        },
        {
          "indexed": false,
          "internalType": "address",
          "name": "to",
          "type": "address"
        },
        {
          "indexed": false,
          "internalType": "uint256",
          "name": "amount",
          "type": "uint256"
        },
        {
          "indexed": false,
          "internalType": "string",
          "name": "txnType",
          "type": "string"
        },
        {
          "indexed": false,
          "internalType": "uint256",
          "name": "transactionId",
          "type": "uint256"
        }
      ],
      "name": "TransactionCompleted",
      "type": "event"
    },
    {
      "anonymous": false,
      "inputs": [
        {
          "indexed": false,
          "internalType": "address",
          "name": "from",
          "type": "address"
        },
        {
          "indexed": false,
          "internalType": "address",
          "name": "to",
          "type": "address"
        },
        {
          "indexed": false,
          "internalType": "uint256",
          "name": "amount",
          "type": "uint256"
        },
        {
          "indexed": false,
          "internalType": "string",
          "name": "txnType",
          "type": "string"
        },
        {
          "indexed": false,
          "internalType": "uint256",
          "name": "transactionId",
          "type": "uint256"
        }
      ],
      "name": "TransactionCreated",
      "type": "event"
    },
    {
      "anonymous": false,
      "inputs": [
        {
          "indexed": false,
          "internalType": "address",
          "name": "by",
          "type": "address"
        },
        {
          "indexed": false,
          "internalType": "string",
          "name": "txnType",
          "type": "string"
        },
        {
          "indexed": false,
          "internalType": "uint256",
          "name": "transactionId",
          "type": "uint256"
        }
      ],
      "name": "TransactionSigned",
      "type": "event"
    },
    {
      "anonymous": false,
      "inputs": [
        {
          "indexed": true,
          "internalType": "address",
          "name": "from",
          "type": "address"
        },
        {
          "indexed": true,
          "internalType": "address",
          "name": "to",
          "type": "address"
        },
        {
          "indexed": false,
          "internalType": "uint256",
          "name": "tokens",
          "type": "uint256"
        }
      ],
      "name": "Transfer",
      "type": "event"
    },
    {
      "constant": true,
      "inputs": [],
      "name": "_totalSupply",
      "outputs": [
        {
          "internalType": "uint256",
          "name": "",
          "type": "uint256"
        }
      ],
      "payable": false,
      "stateMutability": "view",
      "type": "function"
    },
    {
      "constant": true,
      "inputs": [
        {
          "internalType": "address",
          "name": "",
          "type": "address"
        }
      ],
      "name": "balances",
      "outputs": [
        {
          "internalType": "uint256",
          "name": "",
          "type": "uint256"
        }
      ],
      "payable": false,
      "stateMutability": "view",
      "type": "function"
    },
    {
      "constant": true,
      "inputs": [],
      "name": "name",
      "outputs": [
        {
          "internalType": "string",
          "name": "",
          "type": "string"
        }
      ],
      "payable": false,
      "stateMutability": "view",
      "type": "function"
    },
    {
      "constant": true,
      "inputs": [],
      "name": "symbol",
      "outputs": [
        {
          "internalType": "string",
          "name": "",
          "type": "string"
        }
      ],
      "payable": false,
      "stateMutability": "view",
      "type": "function"
    },
    {
      "constant": false,
      "inputs": [],
      "name": "start_new_epoch",
      "outputs": [
        {
          "internalType": "uint256",
          "name": "",
          "type": "uint256"
        }
      ],
      "payable": false,
      "stateMutability": "nonpayable",
      "type": "function"
    },
    {
      "constant": true,
      "inputs": [],
      "name": "getWalletBalance",
      "outputs": [
        {
          "internalType": "uint256",
          "name": "",
          "type": "uint256"
        },
        {
          "internalType": "address",
          "name": "",
          "type": "address"
        },
        {
          "internalType": "uint256",
          "name": "",
          "type": "uint256"
        },
        {
          "internalType": "address",
          "name": "",
          "type": "address"
        }
      ],
      "payable": false,
      "stateMutability": "view",
      "type": "function"
    },
    {
      "constant": true,
      "inputs": [],
      "name": "getAccountType",
      "outputs": [
        {
          "internalType": "string",
          "name": "",
          "type": "string"
        }
      ],
      "payable": false,
      "stateMutability": "view",
      "type": "function"
    },
    {
      "constant": false,
      "inputs": [
        {
          "internalType": "string",
          "name": "wallet_type",
          "type": "string"
        },
        {
          "internalType": "address",
          "name": "receiver_address",
          "type": "address"
        },
        {
          "internalType": "uint256",
          "name": "tokens",
          "type": "uint256"
        }
      ],
      "name": "initial_transfer",
      "outputs": [
        {
          "internalType": "uint256",
          "name": "",
          "type": "uint256"
        }
      ],
      "payable": false,
      "stateMutability": "nonpayable",
      "type": "function"
    },
    {
      "constant": true,
      "inputs": [],
      "name": "totalSupply",
      "outputs": [
        {
          "internalType": "uint256",
          "name": "",
          "type": "uint256"
        }
      ],
      "payable": false,
      "stateMutability": "view",
      "type": "function"
    },
    {
      "constant": true,
      "inputs": [
        {
          "internalType": "address",
          "name": "tokenOwner",
          "type": "address"
        }
      ],
      "name": "balanceOf",
      "outputs": [
        {
          "internalType": "uint256",
          "name": "",
          "type": "uint256"
        }
      ],
      "payable": false,
      "stateMutability": "view",
      "type": "function"
    },
    {
      "constant": false,
      "inputs": [
        {
          "internalType": "address",
          "name": "to",
          "type": "address"
        },
        {
          "internalType": "uint256",
          "name": "tokens",
          "type": "uint256"
        }
      ],
      "name": "transfer",
      "outputs": [
        {
          "internalType": "uint256",
          "name": "success",
          "type": "uint256"
        }
      ],
      "payable": false,
      "stateMutability": "nonpayable",
      "type": "function"
    },
    {
      "constant": false,
      "inputs": [
        {
          "internalType": "address",
          "name": "from",
          "type": "address"
        },
        {
          "internalType": "address",
          "name": "to",
          "type": "address"
        },
        {
          "internalType": "uint256",
          "name": "tokens",
          "type": "uint256"
        }
      ],
      "name": "transferFrom",
      "outputs": [
        {
          "internalType": "uint256",
          "name": "success",
          "type": "uint256"
        }
      ],
      "payable": false,
      "stateMutability": "nonpayable",
      "type": "function"
    },
    {
      "constant": false,
      "inputs": [
        {
          "internalType": "uint256",
          "name": "tokens",
          "type": "uint256"
        }
      ],
      "name": "mintTokens",
      "outputs": [],
      "payable": false,
      "stateMutability": "nonpayable",
      "type": "function"
    },
    {
      "constant": false,
      "inputs": [
        {
          "internalType": "uint256",
          "name": "tokens",
          "type": "uint256"
        },
        {
          "internalType": "address",
          "name": "to",
          "type": "address"
        }
      ],
      "name": "mint_and_tranfer",
      "outputs": [],
      "payable": false,
      "stateMutability": "nonpayable",
      "type": "function"
    },
    {
      "constant": false,
      "inputs": [
        {
          "internalType": "address",
          "name": "user",
          "type": "address"
        },
        {
          "internalType": "uint256",
          "name": "tokens",
          "type": "uint256"
        }
      ],
      "name": "deductToken",
      "outputs": [
        {
          "internalType": "uint256",
          "name": "",
          "type": "uint256"
        }
      ],
      "payable": false,
      "stateMutability": "nonpayable",
      "type": "function"
    },
    {
      "constant": true,
      "inputs": [],
      "name": "getDriverAddress",
      "outputs": [
        {
          "internalType": "address",
          "name": "",
          "type": "address"
        }
      ],
      "payable": false,
      "stateMutability": "view",
      "type": "function"
    },
    {
      "constant": true,
      "inputs": [],
      "name": "getCouncilCount",
      "outputs": [
        {
          "internalType": "uint256",
          "name": "",
          "type": "uint256"
        }
      ],
      "payable": false,
      "stateMutability": "view",
      "type": "function"
    },
    {
      "constant": true,
      "inputs": [],
      "name": "getCouncilMembers",
      "outputs": [
        {
          "internalType": "address[]",
          "name": "",
          "type": "address[]"
        }
      ],
      "payable": false,
      "stateMutability": "view",
      "type": "function"
    },
    {
      "constant": true,
      "inputs": [],
      "name": "getTransactionCount",
      "outputs": [
        {
          "internalType": "uint256",
          "name": "",
          "type": "uint256"
        }
      ],
      "payable": false,
      "stateMutability": "view",
      "type": "function"
    },
    {
      "constant": true,
      "inputs": [],
      "name": "getPendingTransactions",
      "outputs": [
        {
          "internalType": "uint256[]",
          "name": "",
          "type": "uint256[]"
        }
      ],
      "payable": false,
      "stateMutability": "view",
      "type": "function"
    },
    {
      "constant": true,
      "inputs": [
        {
          "internalType": "uint256",
          "name": "transactionId",
          "type": "uint256"
        }
      ],
      "name": "getTransactionById",
      "outputs": [
        {
          "internalType": "string",
          "name": "",
          "type": "string"
        },
        {
          "internalType": "address",
          "name": "",
          "type": "address"
        },
        {
          "internalType": "address",
          "name": "",
          "type": "address"
        },
        {
          "internalType": "uint256",
          "name": "",
          "type": "uint256"
        },
        {
          "internalType": "uint256",
          "name": "",
          "type": "uint256"
        }
      ],
      "payable": false,
      "stateMutability": "view",
      "type": "function"
    },
    {
      "constant": false,
      "inputs": [
        {
          "internalType": "uint256",
          "name": "transactionId",
          "type": "uint256"
        },
        {
          "internalType": "bool",
          "name": "accept",
          "type": "bool"
        }
      ],
      "name": "signTransaction",
      "outputs": [],
      "payable": false,
      "stateMutability": "nonpayable",
      "type": "function"
    },
    {
      "constant": false,
      "inputs": [
        {
          "internalType": "uint256",
          "name": "transactionId",
          "type": "uint256"
        }
      ],
      "name": "deleteTransaction",
      "outputs": [],
      "payable": false,
      "stateMutability": "nonpayable",
      "type": "function"
    },
    {
      "constant": false,
      "inputs": [],
      "name": "start_council_meeting",
      "outputs": [
        {
          "internalType": "uint256",
          "name": "",
          "type": "uint256"
        }
      ],
      "payable": false,
      "stateMutability": "nonpayable",
      "type": "function"
    },
    {
      "constant": true,
      "inputs": [],
      "name": "check_if_council_member",
      "outputs": [
        {
          "internalType": "uint256",
          "name": "",
          "type": "uint256"
        }
      ],
      "payable": false,
      "stateMutability": "view",
      "type": "function"
    },
    {
      "constant": false,
      "inputs": [],
      "name": "increment_epoch",
      "outputs": [],
      "payable": false,
      "stateMutability": "nonpayable",
      "type": "function"
    },
    {
      "constant": true,
      "inputs": [],
      "name": "get_current_epoch",
      "outputs": [
        {
          "internalType": "uint256",
          "name": "",
          "type": "uint256"
        }
      ],
      "payable": false,
      "stateMutability": "view",
      "type": "function"
    }
  ],
  "bytecode": "0x60806040527340b4a36a8f733bbec4e65fdd75cd522fab53aef56000806101000a81548173ffffffffffffffffffffffffffffffffffffffff021916908373ffffffffffffffffffffffffffffffffffffffff1602179055506000809054906101000a900473ffffffffffffffffffffffffffffffffffffffff16600160006101000a81548173ffffffffffffffffffffffffffffffffffffffff021916908373ffffffffffffffffffffffffffffffffffffffff16021790555073d1dd440475d2d5b9185927b3751c8f716aecabd2600260006101000a81548173ffffffffffffffffffffffffffffffffffffffff021916908373ffffffffffffffffffffffffffffffffffffffff160217905550600260009054906101000a900473ffffffffffffffffffffffffffffffffffffffff16600360006101000a81548173ffffffffffffffffffffffffffffffffffffffff021916908373ffffffffffffffffffffffffffffffffffffffff16021790555060006007556000600860006101000a81548160ff0219169083151502179055506000600b556000600e55348015620001a957600080fd5b50604051620039163803806200391683398181016040526060811015620001cf57600080fd5b8101908080516040519392919084640100000000821115620001f057600080fd5b838201915060208201858111156200020757600080fd5b82518660018202830111640100000000821117156200022557600080fd5b8083526020830192505050908051906020019080838360005b838110156200025b5780820151818401526020810190506200023e565b50505050905090810190601f168015620002895780820380516001836020036101000a031916815260200191505b5060405260200180516040519392919084640100000000821115620002ad57600080fd5b83820191506020820185811115620002c457600080fd5b8251866001820283011164010000000082111715620002e257600080fd5b8083526020830192505050908051906020019080838360005b8381101562000318578082015181840152602081019050620002fb565b50505050905090810190601f168015620003465780820380516001836020036101000a031916815260200191505b5060405260200180519060200190929190505050816004908051906020019062000372929190620004ed565b5082600590805190602001906200038b929190620004ed565b508060068190555080600c60003373ffffffffffffffffffffffffffffffffffffffff1673ffffffffffffffffffffffffffffffffffffffff1681526020019081526020016000208190555033600860016101000a81548173ffffffffffffffffffffffffffffffffffffffff021916908373ffffffffffffffffffffffffffffffffffffffff160217905550600a3390806001815401808255809150509060018203906000526020600020016000909192909190916101000a81548173ffffffffffffffffffffffffffffffffffffffff021916908373ffffffffffffffffffffffffffffffffffffffff160217905550503373ffffffffffffffffffffffffffffffffffffffff16600073ffffffffffffffffffffffffffffffffffffffff167fddf252ad1be2c89b69c2b068fc378daa952ba7f163c4a11628f55a4df523b3ef836040518082815260200191505060405180910390a35050506200059c565b828054600181600116156101000203166002900490600052602060002090601f016020900481019282601f106200053057805160ff191683800117855562000561565b8280016001018555821562000561579182015b828111156200056057825182559160200191906001019062000543565b5b50905062000570919062000574565b5090565b6200059991905b80821115620005955760008160009055506001016200057b565b5090565b90565b61336a80620005ac6000396000f3fe608060405234801561001057600080fd5b50600436106101a85760003560e01c80636043351a116100f9578063a9059cbb11610097578063c640dd9311610071578063c640dd93146107f0578063d11db83f146108e9578063f4b30eaf14610948578063f4c6285214610a63576101a8565b8063a9059cbb1461074a578063ac11a368146107ac578063b8d20f3b146107b6576101a8565b80637a0347cb116100d35780637a0347cb1461065d578063837a9bc71461067b57806395d89b411461069957806397304ced1461071c576101a8565b80636043351a14610588578063606a6b76146105a657806370a0823114610605576101a8565b80632e7700f0116101665780634627da50116101405780634627da501461046757806352d6a0a31461048557806359c1414c146105085780635b39ad5514610526576101a8565b80632e7700f0146103a0578063329a27e7146103be5780633eaaf86b14610449576101a8565b8062e9c006146101ad57806306fdde03146101db578063121d3f4e1461025e57806318160ddd146102a857806323b872dd146102c657806327e235e314610348575b600080fd5b6101d9600480360360208110156101c357600080fd5b8101908080359060200190929190505050610ab1565b005b6101e3610ca8565b6040518080602001828103825283818151815260200191508051906020019080838360005b83811015610223578082015181840152602081019050610208565b50505050905090810190601f1680156102505780820380516001836020036101000a031916815260200191505b509250505060405180910390f35b610266610d46565b604051808273ffffffffffffffffffffffffffffffffffffffff1673ffffffffffffffffffffffffffffffffffffffff16815260200191505060405180910390f35b6102b0610d70565b6040518082815260200191505060405180910390f35b610332600480360360608110156102dc57600080fd5b81019080803573ffffffffffffffffffffffffffffffffffffffff169060200190929190803573ffffffffffffffffffffffffffffffffffffffff16906020019092919080359060200190929190505050610dbb565b6040518082815260200191505060405180910390f35b61038a6004803603602081101561035e57600080fd5b81019080803573ffffffffffffffffffffffffffffffffffffffff169060200190929190505050610ef5565b6040518082815260200191505060405180910390f35b6103a8610f0d565b6040518082815260200191505060405180910390f35b6103c6610f17565b604051808581526020018473ffffffffffffffffffffffffffffffffffffffff1673ffffffffffffffffffffffffffffffffffffffff1681526020018381526020018273ffffffffffffffffffffffffffffffffffffffff1673ffffffffffffffffffffffffffffffffffffffff16815260200194505050505060405180910390f35b610451610ff4565b6040518082815260200191505060405180910390f35b61046f610ffa565b6040518082815260200191505060405180910390f35b61048d611007565b6040518080602001828103825283818151815260200191508051906020019080838360005b838110156104cd5780820151818401526020810190506104b2565b50505050905090810190601f1680156104fa5780820380516001836020036101000a031916815260200191505b509250505060405180910390f35b6105106110e6565b6040518082815260200191505060405180910390f35b6105726004803603604081101561053c57600080fd5b81019080803573ffffffffffffffffffffffffffffffffffffffff169060200190929190803590602001909291905050506111a9565b6040518082815260200191505060405180910390f35b610590611252565b6040518082815260200191505060405180910390f35b6105ae61130d565b6040518080602001828103825283818151815260200191508051906020019060200280838360005b838110156105f15780820151818401526020810190506105d6565b505050509050019250505060405180910390f35b6106476004803603602081101561061b57600080fd5b81019080803573ffffffffffffffffffffffffffffffffffffffff16906020019092919050505061139b565b6040518082815260200191505060405180910390f35b6106656113e4565b6040518082815260200191505060405180910390f35b610683611442565b6040518082815260200191505060405180910390f35b6106a161144c565b6040518080602001828103825283818151815260200191508051906020019080838360005b838110156106e15780820151818401526020810190506106c6565b50505050905090810190601f16801561070e5780820380516001836020036101000a031916815260200191505b509250505060405180910390f35b6107486004803603602081101561073257600080fd5b81019080803590602001909291905050506114ea565b005b6107966004803603604081101561076057600080fd5b81019080803573ffffffffffffffffffffffffffffffffffffffff169060200190929190803590602001909291905050506115e2565b6040518082815260200191505060405180910390f35b6107b4611797565b005b6107ee600480360360408110156107cc57600080fd5b81019080803590602001909291908035151590602001909291905050506117ab565b005b6108d36004803603606081101561080657600080fd5b810190808035906020019064010000000081111561082357600080fd5b82018360208201111561083557600080fd5b8035906020019184600183028401116401000000008311171561085757600080fd5b91908080601f016020809104026020016040519081016040528093929190818152602001838380828437600081840152601f19601f820116905080830192505050505050509192919290803573ffffffffffffffffffffffffffffffffffffffff16906020019092919080359060200190929190505050611f2a565b6040518082815260200191505060405180910390f35b6108f1612419565b6040518080602001828103825283818151815260200191508051906020019060200280838360005b83811015610934578082015181840152602081019050610919565b505050509050019250505060405180910390f35b6109746004803603602081101561095e57600080fd5b8101908080359060200190929190505050612525565b60405180806020018673ffffffffffffffffffffffffffffffffffffffff1673ffffffffffffffffffffffffffffffffffffffff1681526020018573ffffffffffffffffffffffffffffffffffffffff1673ffffffffffffffffffffffffffffffffffffffff168152602001848152602001838152602001828103825287818151815260200191508051906020019080838360005b83811015610a24578082015181840152602081019050610a09565b50505050905090810190601f168015610a515780820380516001836020036101000a031916815260200191505b50965050505050505060405180910390f35b610aaf60048036036040811015610a7957600080fd5b8101908080359060200190929190803573ffffffffffffffffffffffffffffffffffffffff169060200190929190505050612744565b005b600860019054906101000a900473ffffffffffffffffffffffffffffffffffffffff1673ffffffffffffffffffffffffffffffffffffffff163373ffffffffffffffffffffffffffffffffffffffff161480610b5c57506001600960003373ffffffffffffffffffffffffffffffffffffffff1673ffffffffffffffffffffffffffffffffffffffff16815260200190815260200160002060009054906101000a900460ff1660ff16145b610b6557600080fd5b600080905060008090505b601080549050811015610bf6578160ff1660011415610bc45760108181548110610b9657fe5b906000526020600020015460106001830381548110610bb157fe5b9060005260206000200181905550610be9565b60108181548110610bd157fe5b9060005260206000200154831415610be857600191505b5b8080600101915050610b70565b506010805480610c0257fe5b60019003818190600052602060002001600090559055600f600083815260200190815260200160002060008082016000610c3c9190613166565b6001820160006101000a81549073ffffffffffffffffffffffffffffffffffffffff02191690556002820160006101000a81549073ffffffffffffffffffffffffffffffffffffffff021916905560038201600090556004820160009055600582016000905550505050565b60058054600181600116156101000203166002900480601f016020809104026020016040519081016040528092919081815260200182805460018160011615610100020316600290048015610d3e5780601f10610d1357610100808354040283529160200191610d3e565b820191906000526020600020905b815481529060010190602001808311610d2157829003601f168201915b505050505081565b6000600860019054906101000a900473ffffffffffffffffffffffffffffffffffffffff16905090565b6000600c60008073ffffffffffffffffffffffffffffffffffffffff1673ffffffffffffffffffffffffffffffffffffffff1681526020019081526020016000205460065403905090565b6000600860019054906101000a900473ffffffffffffffffffffffffffffffffffffffff1673ffffffffffffffffffffffffffffffffffffffff163373ffffffffffffffffffffffffffffffffffffffff161480610e6857506001600960003373ffffffffffffffffffffffffffffffffffffffff1673ffffffffffffffffffffffffffffffffffffffff16815260200190815260200160002060009054906101000a900460ff1660ff16145b610e7157600080fd5b8373ffffffffffffffffffffffffffffffffffffffff163373ffffffffffffffffffffffffffffffffffffffff1614610ea957600080fd5b610eea8484846040518060400160405280600881526020017f5452414e534645520000000000000000000000000000000000000000000000008152506127a5565b600190509392505050565b600c6020528060005260406000206000915090505481565b6000600e54905090565b600080600080600c60003373ffffffffffffffffffffffffffffffffffffffff1673ffffffffffffffffffffffffffffffffffffffff1681526020019081526020016000205433600c6000600860019054906101000a900473ffffffffffffffffffffffffffffffffffffffff1673ffffffffffffffffffffffffffffffffffffffff1673ffffffffffffffffffffffffffffffffffffffff16815260200190815260200160002054600860019054906101000a900473ffffffffffffffffffffffffffffffffffffffff16829250935093509350935090919293565b60065481565b6000600a80549050905090565b6060600d60003373ffffffffffffffffffffffffffffffffffffffff1673ffffffffffffffffffffffffffffffffffffffff1681526020019081526020016000208054600181600116156101000203166002900480601f0160208091040260200160405190810160405280929190818152602001828054600181600116156101000203166002900480156110dc5780601f106110b1576101008083540402835291602001916110dc565b820191906000526020600020905b8154815290600101906020018083116110bf57829003601f168201915b5050505050905090565b6000600860019054906101000a900473ffffffffffffffffffffffffffffffffffffffff1673ffffffffffffffffffffffffffffffffffffffff163373ffffffffffffffffffffffffffffffffffffffff16148061119357506001600960003373ffffffffffffffffffffffffffffffffffffffff1673ffffffffffffffffffffffffffffffffffffffff16815260200190815260200160002060009054906101000a900460ff1660ff16145b156111a157600190506111a6565b600090505b90565b600081600c60008573ffffffffffffffffffffffffffffffffffffffff1673ffffffffffffffffffffffffffffffffffffffff16815260200190815260200160002054106112475781600c60008573ffffffffffffffffffffffffffffffffffffffff1673ffffffffffffffffffffffffffffffffffffffff168152602001908152602001600020600082825403925050819055506001905061124c565b600090505b92915050565b60008033905060016112626110e6565b141561130457611270612b37565b600360009054906101000a900473ffffffffffffffffffffffffffffffffffffffff1673ffffffffffffffffffffffffffffffffffffffff16631da003dc6040518163ffffffff1660e01b8152600401600060405180830381600087803b1580156112da57600080fd5b505af11580156112ee573d6000803e3d6000fd5b505050506112fa611797565b600191505061130a565b60009150505b90565b6060600a80548060200260200160405190810160405280929190818152602001828054801561139157602002820191906000526020600020905b8160009054906101000a900473ffffffffffffffffffffffffffffffffffffffff1673ffffffffffffffffffffffffffffffffffffffff1681526020019060010190808311611347575b5050505050905090565b6000600c60008373ffffffffffffffffffffffffffffffffffffffff1673ffffffffffffffffffffffffffffffffffffffff168152602001908152602001600020549050919050565b6000600860009054906101000a900460ff161561141f576000600860006101000a81548160ff0219169083151502179055506000905061143f565b6001600860006101000a81548160ff021916908315150217905550600190505b90565b6000600754905090565b60048054600181600116156101000203166002900480601f0160208091040260200160405190810160405280929190818152602001828054600181600116156101000203166002900480156114e25780601f106114b7576101008083540402835291602001916114e2565b820191906000526020600020905b8154815290600101906020018083116114c557829003601f168201915b505050505081565b600860019054906101000a900473ffffffffffffffffffffffffffffffffffffffff1673ffffffffffffffffffffffffffffffffffffffff163373ffffffffffffffffffffffffffffffffffffffff16148061159557506001600960003373ffffffffffffffffffffffffffffffffffffffff1673ffffffffffffffffffffffffffffffffffffffff16815260200190815260200160002060009054906101000a900460ff1660ff16145b61159e57600080fd5b6115df3333836040518060400160405280600781526020017f4d494e54494e47000000000000000000000000000000000000000000000000008152506127a5565b50565b6000600860019054906101000a900473ffffffffffffffffffffffffffffffffffffffff1673ffffffffffffffffffffffffffffffffffffffff163373ffffffffffffffffffffffffffffffffffffffff16148061168f57506001600960003373ffffffffffffffffffffffffffffffffffffffff1673ffffffffffffffffffffffffffffffffffffffff16815260200190815260200160002060009054906101000a900460ff1660ff16145b61169857600080fd5b600860019054906101000a900473ffffffffffffffffffffffffffffffffffffffff1673ffffffffffffffffffffffffffffffffffffffff168373ffffffffffffffffffffffffffffffffffffffff16148061174357506001600960008573ffffffffffffffffffffffffffffffffffffffff1673ffffffffffffffffffffffffffffffffffffffff16815260200190815260200160002060009054906101000a900460ff1660ff16145b61174c57600080fd5b61178d3384846040518060400160405280600881526020017f5452414e534645520000000000000000000000000000000000000000000000008152506127a5565b6001905092915050565b600760008154809291906001019190505550565b600860019054906101000a900473ffffffffffffffffffffffffffffffffffffffff1673ffffffffffffffffffffffffffffffffffffffff163373ffffffffffffffffffffffffffffffffffffffff16148061185657506001600960003373ffffffffffffffffffffffffffffffffffffffff1673ffffffffffffffffffffffffffffffffffffffff16815260200190815260200160002060009054906101000a900460ff1660ff16145b61185f57600080fd5b6000600f600084815260200190815260200160002090508060010160009054906101000a900473ffffffffffffffffffffffffffffffffffffffff1673ffffffffffffffffffffffffffffffffffffffff16600073ffffffffffffffffffffffffffffffffffffffff1614156118d457600080fd5b60405160200180807f524543454956450000000000000000000000000000000000000000000000000081525060070190506040516020818303038152906040528051906020012081600001604051602001808280546001816001161561010002031660029004801561197d5780601f1061195b57610100808354040283529182019161197d565b820191906000526020600020905b815481529060010190602001808311611969575b5050915050604051602081830303815290604052805190602001201415611a00578060020160009054906101000a900473ffffffffffffffffffffffffffffffffffffffff1673ffffffffffffffffffffffffffffffffffffffff163373ffffffffffffffffffffffffffffffffffffffff1614156119fb57600080fd5b611a5e565b8060010160009054906101000a900473ffffffffffffffffffffffffffffffffffffffff1673ffffffffffffffffffffffffffffffffffffffff163373ffffffffffffffffffffffffffffffffffffffff161415611a5d57600080fd5b5b60018160060160003373ffffffffffffffffffffffffffffffffffffffff1673ffffffffffffffffffffffffffffffffffffffff16815260200190815260200160002060009054906101000a900460ff1660ff161415611abd57600080fd5b60018160060160003373ffffffffffffffffffffffffffffffffffffffff1673ffffffffffffffffffffffffffffffffffffffff16815260200190815260200160002060006101000a81548160ff021916908360ff1602179055508115611b335780600401600081548092919060010191905055505b80600501600081548092919060010191905055507ed302441f7789d3c0b048a3afa15b3bb872dbaaee83c64cb63a99a5973f2c87338260000185604051808473ffffffffffffffffffffffffffffffffffffffff1673ffffffffffffffffffffffffffffffffffffffff16815260200180602001838152602001828103825284818154600181600116156101000203166002900481526020019150805460018160011615610100020316600290048015611c2e5780601f10611c0357610100808354040283529160200191611c2e565b820191906000526020600020905b815481529060010190602001808311611c1157829003601f168201915b505094505050505060405180910390a1600b54816004015410611f0d5760405160200180807f4d494e54494e4700000000000000000000000000000000000000000000000000815250600701905060405160208183030381529060405280519060200120816000016040516020018082805460018160011615610100020316600290048015611cf45780601f10611cd2576101008083540402835291820191611cf4565b820191906000526020600020905b815481529060010190602001808311611ce0575b5050915050604051602081830303815290604052805190602001201415611d2757611d228160030154612e29565b611d7f565b611d7e8160010160009054906101000a900473ffffffffffffffffffffffffffffffffffffffff168260020160009054906101000a900473ffffffffffffffffffffffffffffffffffffffff168360030154612f54565b5b7f69b93c8351bb1a78d209527eed15f087c238c3120ba9a338db78be6b247f3fcb8160010160009054906101000a900473ffffffffffffffffffffffffffffffffffffffff168260020160009054906101000a900473ffffffffffffffffffffffffffffffffffffffff1683600301548460000187604051808673ffffffffffffffffffffffffffffffffffffffff1673ffffffffffffffffffffffffffffffffffffffff1681526020018573ffffffffffffffffffffffffffffffffffffffff1673ffffffffffffffffffffffffffffffffffffffff16815260200184815260200180602001838152602001828103825284818154600181600116156101000203166002900481526020019150805460018160011615610100020316600290048015611eed5780601f10611ec257610100808354040283529160200191611eed565b820191906000526020600020905b815481529060010190602001808311611ed057829003601f168201915b5050965050505050505060405180910390a1611f0883610ab1565b611f25565b600b54816005015410611f2457611f2383610ab1565b5b5b505050565b6000600860019054906101000a900473ffffffffffffffffffffffffffffffffffffffff1673ffffffffffffffffffffffffffffffffffffffff163373ffffffffffffffffffffffffffffffffffffffff1614611f8657600080fd5b6000600c60008573ffffffffffffffffffffffffffffffffffffffff1673ffffffffffffffffffffffffffffffffffffffff168152602001908152602001600020541480156120ac575060405160200180600001905060405160208183030381529060405280519060200120600d60008573ffffffffffffffffffffffffffffffffffffffff1673ffffffffffffffffffffffffffffffffffffffff168152602001908152602001600020604051602001808280546001816001161561010002031660029004801561208f5780601f1061206d57610100808354040283529182019161208f565b820191906000526020600020905b81548152906001019060200180831161207b575b505091505060405160208183030381529060405280519060200120145b1561240d5760405160200180807f636f756e63696c5f6d656d626572000000000000000000000000000000000000815250600e01905060405160208183030381529060405280519060200120846040516020018082805190602001908083835b6020831061212f578051825260208201915060208101905060208303925061210c565b6001836020036101000a038019825116818451168082178552505050505050905001915050604051602081830303815290604052805190602001201415612242576001600960008573ffffffffffffffffffffffffffffffffffffffff1673ffffffffffffffffffffffffffffffffffffffff16815260200190815260200160002060006101000a81548160ff021916908360ff160217905550600a8390806001815401808255809150509060018203906000526020600020016000909192909190916101000a81548173ffffffffffffffffffffffffffffffffffffffff021916908373ffffffffffffffffffffffffffffffffffffffff16021790555050600b600081548092919060010191905055505b83600d60008573ffffffffffffffffffffffffffffffffffffffff1673ffffffffffffffffffffffffffffffffffffffff16815260200190815260200160002090805190602001906122959291906131ae565b5061230a82600c6000600860019054906101000a900473ffffffffffffffffffffffffffffffffffffffff1673ffffffffffffffffffffffffffffffffffffffff1673ffffffffffffffffffffffffffffffffffffffff1681526020019081526020016000205461313390919063ffffffff16565b600c6000600860019054906101000a900473ffffffffffffffffffffffffffffffffffffffff1673ffffffffffffffffffffffffffffffffffffffff1673ffffffffffffffffffffffffffffffffffffffff168152602001908152602001600020819055506123c182600c60008673ffffffffffffffffffffffffffffffffffffffff1673ffffffffffffffffffffffffffffffffffffffff1681526020019081526020016000205461314a90919063ffffffff16565b600c60008573ffffffffffffffffffffffffffffffffffffffff1673ffffffffffffffffffffffffffffffffffffffff1681526020019081526020016000208190555060019050612412565b600090505b9392505050565b6060600860019054906101000a900473ffffffffffffffffffffffffffffffffffffffff1673ffffffffffffffffffffffffffffffffffffffff163373ffffffffffffffffffffffffffffffffffffffff1614806124c657506001600960003373ffffffffffffffffffffffffffffffffffffffff1673ffffffffffffffffffffffffffffffffffffffff16815260200190815260200160002060009054906101000a900460ff1660ff16145b6124cf57600080fd5b601080548060200260200160405190810160405280929190818152602001828054801561251b57602002820191906000526020600020905b815481526020019060010190808311612507575b5050505050905090565b60606000806000806000600f6000888152602001908152602001600020905060018160060160003373ffffffffffffffffffffffffffffffffffffffff1673ffffffffffffffffffffffffffffffffffffffff16815260200190815260200160002060009054906101000a900460ff1660ff16146126a157806000018160010160009054906101000a900473ffffffffffffffffffffffffffffffffffffffff168260020160009054906101000a900473ffffffffffffffffffffffffffffffffffffffff1683600301548460040154848054600181600116156101000203166002900480601f01602080910402602001604051908101604052809291908181526020018280546001816001161561010002031660029004801561268a5780601f1061265f5761010080835404028352916020019161268a565b820191906000526020600020905b81548152906001019060200180831161266d57829003601f168201915b50505050509450955095509550955095505061273b565b8060010160009054906101000a900473ffffffffffffffffffffffffffffffffffffffff168160020160009054906101000a900473ffffffffffffffffffffffffffffffffffffffff16826003015483600401546040518060400160405280600681526020017f5349474e454400000000000000000000000000000000000000000000000000008152509392919095509550955095509550505b91939590929450565b8160066000828254019250508190555081600c60008373ffffffffffffffffffffffffffffffffffffffff1673ffffffffffffffffffffffffffffffffffffffff168152602001908152602001600020600082825401925050819055505050565b600860019054906101000a900473ffffffffffffffffffffffffffffffffffffffff1673ffffffffffffffffffffffffffffffffffffffff163373ffffffffffffffffffffffffffffffffffffffff16148061285057506001600960003373ffffffffffffffffffffffffffffffffffffffff1673ffffffffffffffffffffffffffffffffffffffff16815260200190815260200160002060009054906101000a900460ff1660ff16145b61285957600080fd5b6000600e600081548092919060010191905055905061287661322e565b82816000018190525085816020019073ffffffffffffffffffffffffffffffffffffffff16908173ffffffffffffffffffffffffffffffffffffffff168152505084816040019073ffffffffffffffffffffffffffffffffffffffff16908173ffffffffffffffffffffffffffffffffffffffff168152505083816060018181525050600081608001818152505060008160a001818152505080600f6000848152602001908152602001600020600082015181600001908051906020019061293f929190613290565b5060208201518160010160006101000a81548173ffffffffffffffffffffffffffffffffffffffff021916908373ffffffffffffffffffffffffffffffffffffffff16021790555060408201518160020160006101000a81548173ffffffffffffffffffffffffffffffffffffffff021916908373ffffffffffffffffffffffffffffffffffffffff160217905550606082015181600301556080820151816004015560a0820151816005015590505060108290806001815401808255809150509060018203906000526020600020016000909192909190915055507f03381a518e187d6c4794b6bac94cc51b997c5cffeff1a8b77945e34a427940be8686868686604051808673ffffffffffffffffffffffffffffffffffffffff1673ffffffffffffffffffffffffffffffffffffffff1681526020018573ffffffffffffffffffffffffffffffffffffffff1673ffffffffffffffffffffffffffffffffffffffff16815260200184815260200180602001838152602001828103825284818151815260200191508051906020019080838360005b83811015612af1578082015181840152602081019050612ad6565b50505050905090810190601f168015612b1e5780820380516001836020036101000a031916815260200191505b50965050505050505060405180910390a1505050505050565b6000600160009054906101000a900473ffffffffffffffffffffffffffffffffffffffff1673ffffffffffffffffffffffffffffffffffffffff1663c08cc02d6040518163ffffffff1660e01b815260040160206040518083038186803b158015612ba157600080fd5b505afa158015612bb5573d6000803e3d6000fd5b505050506040513d6020811015612bcb57600080fd5b8101908080519060200190929190505050905060008090505b81811015612e25576000600360009054906101000a900473ffffffffffffffffffffffffffffffffffffffff1673ffffffffffffffffffffffffffffffffffffffff16638387a152836040518263ffffffff1660e01b81526004018082815260200191505060206040518083038186803b158015612c6157600080fd5b505afa158015612c75573d6000803e3d6000fd5b505050506040513d6020811015612c8b57600080fd5b8101908080519060200190929190505050905060008090505b81811015612e1657600080600360009054906101000a900473ffffffffffffffffffffffffffffffffffffffff1673ffffffffffffffffffffffffffffffffffffffff1663795cce9686856040518363ffffffff1660e01b81526004018083815260200182815260200192505050604080518083038186803b158015612d2957600080fd5b505afa158015612d3d573d6000803e3d6000fd5b505050506040513d6040811015612d5357600080fd5b81019080805190602001909291908051906020019092919050505091509150612dc482600c60008473ffffffffffffffffffffffffffffffffffffffff1673ffffffffffffffffffffffffffffffffffffffff1681526020019081526020016000205461314a90919063ffffffff16565b600c60008373ffffffffffffffffffffffffffffffffffffffff1673ffffffffffffffffffffffffffffffffffffffff1681526020019081526020016000208190555050508080600101915050612ca4565b50508080600101915050612be4565b5050565b8060066000828254019250508190555080600c6000600860019054906101000a900473ffffffffffffffffffffffffffffffffffffffff1673ffffffffffffffffffffffffffffffffffffffff1673ffffffffffffffffffffffffffffffffffffffff16815260200190815260200160002060008282540192505081905550600860019054906101000a900473ffffffffffffffffffffffffffffffffffffffff1673ffffffffffffffffffffffffffffffffffffffff16600860019054906101000a900473ffffffffffffffffffffffffffffffffffffffff1673ffffffffffffffffffffffffffffffffffffffff167fddf252ad1be2c89b69c2b068fc378daa952ba7f163c4a11628f55a4df523b3ef836040518082815260200191505060405180910390a350565b600c60008473ffffffffffffffffffffffffffffffffffffffff1673ffffffffffffffffffffffffffffffffffffffff168152602001908152602001600020548110612f9f57600080fd5b612ff181600c60008673ffffffffffffffffffffffffffffffffffffffff1673ffffffffffffffffffffffffffffffffffffffff1681526020019081526020016000205461313390919063ffffffff16565b600c60008573ffffffffffffffffffffffffffffffffffffffff1673ffffffffffffffffffffffffffffffffffffffff1681526020019081526020016000208190555061308681600c60008573ffffffffffffffffffffffffffffffffffffffff1673ffffffffffffffffffffffffffffffffffffffff1681526020019081526020016000205461314a90919063ffffffff16565b600c60008473ffffffffffffffffffffffffffffffffffffffff1673ffffffffffffffffffffffffffffffffffffffff168152602001908152602001600020819055508173ffffffffffffffffffffffffffffffffffffffff168373ffffffffffffffffffffffffffffffffffffffff167fddf252ad1be2c89b69c2b068fc378daa952ba7f163c4a11628f55a4df523b3ef836040518082815260200191505060405180910390a3505050565b60008282111561313f57fe5b818303905092915050565b60008082840190508381101561315c57fe5b8091505092915050565b50805460018160011615610100020316600290046000825580601f1061318c57506131ab565b601f0160209004906000526020600020908101906131aa9190613310565b5b50565b828054600181600116156101000203166002900490600052602060002090601f016020900481019282601f106131ef57805160ff191683800117855561321d565b8280016001018555821561321d579182015b8281111561321c578251825591602001919060010190613201565b5b50905061322a9190613310565b5090565b6040518060c0016040528060608152602001600073ffffffffffffffffffffffffffffffffffffffff168152602001600073ffffffffffffffffffffffffffffffffffffffff1681526020016000815260200160008152602001600081525090565b828054600181600116156101000203166002900490600052602060002090601f016020900481019282601f106132d157805160ff19168380011785556132ff565b828001600101855582156132ff579182015b828111156132fe5782518255916020019190600101906132e3565b5b50905061330c9190613310565b5090565b61333291905b8082111561332e576000816000905550600101613316565b5090565b9056fea265627a7a723158200cc42e7781dcad41d8d9ce5a5368db8ec2054090893d7d8af500ce1852a769a264736f6c63430005100032",
  "source": "pragma solidity >=0.4.21 <0.7.0;\nimport \"./Vote.sol\";\nimport \"./ProposalContract.sol\";\nimport \"./Safemath.sol\";\n\n// contract SafeMath {\n \n//     function safeAdd(uint a, uint b) public pure returns (uint c) {\n//         c = a + b;\n//         require(c >= a);\n//     }\n \n//     function safeSub(uint a, uint b) public pure returns (uint c) {\n//         require(b <= a);\n//         c = a - b;\n//     }\n \n//     function safeMul(uint a, uint b) public pure returns (uint c) {\n//         c = a * b;\n//         require(a == 0 || c / a == b);\n//     }\n \n//     function safeDiv(uint a, uint b) public pure returns (uint c) {\n//         require(b > 0);\n//         c = a / b;\n//     }\n// }\n \n \n//ERC Token Standard #20 Interface\ncontract ERC20Interface {\n    function totalSupply() public view returns (uint);\n    function balanceOf(address tokenOwner) public view returns (uint balance);\n    function transfer(address to, uint tokens) public returns (uint success);\n    function transferFrom(address from, address to, uint tokens) public returns (uint success);\n    event Transfer(address indexed from, address indexed to, uint tokens);\n    \n}\n \ncontract GovToken is ERC20Interface {\n    // change deployment addresses after deployment\n    address proposal_contract_address = 0x40B4A36A8f733BbeC4E65FdD75Cd522faB53AeF5;\n    ProposalContract p = ProposalContract(proposal_contract_address);\n\n    address vote_contract_address = 0xD1DD440475d2d5b9185927B3751C8f716aEcABD2;\n    Vote vote = Vote(vote_contract_address);\n\n    string public symbol;\n    string public  name;\n    uint public _totalSupply;\n    uint current_epoch = 0;\n    bool council_meeting = false;\n    \n    address internal _driver;\n    mapping(address => uint8) internal _councilMembers;\n    address[] internal councilMembersList;\n    \n    uint private MIN_SIGNATURES = 0;\n    \n\n    // struct Council{\n    //     address root_user;\n    //     address council_member_one;\n    //     address council_member_two;\n    // }\n    \n    modifier isOwner() {\n        require(msg.sender == _driver);\n        _;\n    }\n\n    modifier validOwner() {\n        require(msg.sender == _driver || _councilMembers[msg.sender] == 1);\n        _;\n    }\n    \n  \n    \n    using SafeMath for uint256;\n    mapping(address => uint256) public balances;\n    mapping(address => string) account_type;\n    // Council newCouncil = Council(address(0) , address(0) , address(0));\n    \n    constructor(string memory _name , string memory _symbol , uint _supply) public {\n        symbol = _symbol;\n        name = _name;\n        _totalSupply = _supply;\n        balances[msg.sender] = _supply;\n        // newCouncil.root_user = msg.sender;\n        _driver = msg.sender;\n        councilMembersList.push(msg.sender);\n        emit Transfer(address(0), msg.sender, _supply);\n    }\n\n    function revert_casted_votes_after_epoch_ends() internal {\n        uint end = p.getProposalCount();\n        for(uint i=0;i<end;i++){\n            uint casted_votes = vote.get_casted_votes_array_length(i);\n            for(uint k=0;k<casted_votes;k++){\n                (uint votes ,address  wallet_address ) = vote.get_token_and_address_for_a_cast(i,k);\n                balances[wallet_address] = balances[wallet_address].add(votes);\n            }\n        }\n    }\n\n    function start_new_epoch() public  returns (uint){\n        address user = msg.sender;\n        if(check_if_council_member() == 1) {\n            revert_casted_votes_after_epoch_ends();\n            vote.clear_casted_votes_after_epoch_ends();\n            increment_epoch();\n            return 1;\n        }\n        return 0;\n    }\n\n    function getWalletBalance() public view returns(uint, address, uint, address){\n      return (balances[msg.sender], msg.sender, balances[_driver], _driver);\n    }\n\n    function getAccountType() public view returns (string memory){\n      return account_type[msg.sender];\n    }\n    \n    function initial_transfer(string memory wallet_type, address receiver_address , uint tokens) isOwner public returns (uint){\n        \n        if(balances[receiver_address] == 0 && keccak256(abi.encodePacked(account_type[receiver_address])) == keccak256(abi.encodePacked(\"\"))){\n\n            if(keccak256(abi.encodePacked(wallet_type)) == keccak256(abi.encodePacked(\"council_member\"))){\n\n                // if(newCouncil.council_member_one == address(0)){\n                //     newCouncil.council_member_one = receiver_address;\n                // }\n                // else if(newCouncil.council_member_two == address(0)){\n                //     newCouncil.council_member_two = receiver_address;\n                // }\n                // else{\n                //     return 0;\n                // }\n                _councilMembers[receiver_address] =1;\n                councilMembersList.push(receiver_address);\n                MIN_SIGNATURES++;\n              \n            }\n\n            account_type[receiver_address] = wallet_type;\n            // balances[newCouncil.root_user] = safeSub(balances[newCouncil.root_user],tokens);\n            // balances[_driver] = safeSub(balances[_driver],tokens);\n            balances[_driver] = balances[_driver].sub(tokens);\n            balances[receiver_address] = balances[receiver_address].add(tokens);\n            // balances[receiver_address] = safeAdd(balances[receiver_address],tokens);\n            return 1;\n        }\n        return 0;\n        \n    }\n    \n    function totalSupply() public view returns (uint) {\n        return _totalSupply  - balances[address(0)];\n    }\n\n \n    function balanceOf(address tokenOwner) public view returns (uint) {\n        return balances[tokenOwner];\n    }\n \n\n    function _transfer(address from, address to, uint tokens) private  {\n        require (tokens < balances[from]);\n        balances[from] = balances[from].sub(tokens);\n        balances[to] = balances[to].add(tokens);\n        emit Transfer(from, to, tokens);\n        \n    }\n \n\n    function _mint(uint tokens) private {\n        _totalSupply += tokens;\n        balances[_driver] += tokens;\n        emit Transfer(_driver, _driver, tokens);\n    }\n    \n    \n    // 1. tranfer to another council member\n    function transfer(address to, uint tokens) validOwner public returns (uint success) {\n        require(to == _driver || _councilMembers[to] == 1);\n        createTransction(msg.sender, to, tokens, \"TRANSFER\");\n        return 1;\n    }\n    \n    function transferFrom(address from, address to, uint tokens) validOwner public returns (uint success) {\n        require(msg.sender == from);\n        createTransction(from, to, tokens, \"TRANSFER\");\n        return 1;\n    }\n    \n    // minting --> driver\n    function mintTokens(uint tokens) validOwner public {\n        createTransction(msg.sender, msg.sender, tokens, \"MINTING\");\n    }\n    // // minting --> goes to whoever is requesting\n    // function receiveTokens(uint tokens) validOwner public {\n    //     createTransction(_driver, msg.sender, tokens, \"RECEIVE\");\n    // }\n    \n    function mint_and_tranfer(uint tokens, address to) public {\n        _totalSupply += tokens;\n        balances[to] += tokens;\n        \n    }\n    \n \n    function deductToken(address user , uint tokens) public returns (uint){\n        if(balances[user]>=tokens){\n            balances[user]-=tokens;\n            return 1;\n        }\n        return 0;\n    }\n\n    function getDriverAddress() public view returns (address){\n        return _driver;\n    }\n    \n    function getCouncilCount() public view returns (uint) {\n        return councilMembersList.length;\n    }\n    function getCouncilMembers() public view returns (address[] memory) {\n        return councilMembersList;\n    }\n    \n    // multisig features\n    \n    struct Transaction {\n      string txnType;\n      address from;\n      address to;\n      uint tokens;\n      uint signatureCount;\n      uint total_signatures;\n      mapping (address => uint8) signatures;\n    }\n    \n    uint private _transactionIdx = 0;\n    mapping (uint => Transaction) private _transactions;\n    uint[] private _pendingTransactions;\n    \n    event TransactionCreated(address from, address to, uint amount, string txnType, uint transactionId);\n    event TransactionCompleted(address from, address to, uint amount, string txnType,  uint transactionId);\n    event TransactionSigned(address by, string txnType, uint transactionId);\n  \n    function createTransction(address from, address to, uint tokens, string memory txnType) validOwner private {\n        uint transactionId = _transactionIdx++;\n        Transaction memory transaction;\n        transaction.txnType = txnType;\n        transaction.from = from;\n        transaction.to = to;\n        transaction.tokens = tokens;\n        transaction.signatureCount = 0;\n        transaction.total_signatures = 0;\n        \n        _transactions[transactionId] = transaction;\n        _pendingTransactions.push(transactionId);\n\n        emit TransactionCreated(from, to, tokens,txnType, transactionId);\n        \n    }\n\n    function getTransactionCount() public view returns (uint) {\n        return _transactionIdx;\n    }\n    \n    // returns a list of ids of pending transactions\n    function getPendingTransactions()\n      view\n      validOwner\n      public\n      returns (uint[] memory) {\n      return _pendingTransactions;\n      // return one by one (look at proposal)\n    }\n    \n    // first string returned is \"SIGNED\" if user alr accpted/ rejected a pending txn\n    function getTransactionById(uint transactionId) public view returns (string memory, address, address, uint, uint) {\n        Transaction storage transaction = _transactions[transactionId];\n        if (transaction.signatures[msg.sender] != 1) {\n            return (transaction.txnType, transaction.from, transaction.to, transaction.tokens, transaction.signatureCount);\n        }\n        return (\"SIGNED\", transaction.from, transaction.to, transaction.tokens, transaction.signatureCount);\n     \n    }\n    \n    function signTransaction(uint transactionId, bool accept)\n      validOwner\n      public {\n\n      Transaction storage transaction = _transactions[transactionId];\n\n      // Transaction must exist\n      require(address(0x0) != transaction.from);\n      // Creator cannot sign the transaction\n      if (keccak256(abi.encodePacked(transaction.txnType)) == keccak256(abi.encodePacked(\"RECEIVE\"))) {\n     \n          require(msg.sender != transaction.to);\n      } else {\n          require(msg.sender != transaction.from);\n      }\n      \n      // Cannot sign a transaction more than once\n      require(transaction.signatures[msg.sender] != 1);\n\n      transaction.signatures[msg.sender] = 1;\n      if (accept) {\n          transaction.signatureCount++;\n      }\n      transaction.total_signatures++;\n      \n\n      emit TransactionSigned(msg.sender, transaction.txnType, transactionId);\n\n      if (transaction.signatureCount >= MIN_SIGNATURES) {\n        if (keccak256(abi.encodePacked(transaction.txnType)) == keccak256(abi.encodePacked(\"MINTING\"))) {\n            _mint(transaction.tokens);\n            //mint, i.e. increase vlue of _totalSupply and _driver balance\n        } else {\n            _transfer(transaction.from, transaction.to, transaction.tokens);\n      \n        }\n \n        emit TransactionCompleted(transaction.from, transaction.to, transaction.tokens, transaction.txnType, transactionId);\n        deleteTransaction(transactionId);\n      } else if (transaction.total_signatures >= MIN_SIGNATURES) {\n          deleteTransaction(transactionId);\n      }\n    }\n    \n    function deleteTransaction(uint transactionId)\n      validOwner\n      public {\n      uint8 replace = 0;\n      for(uint i = 0; i < _pendingTransactions.length; i++) {\n        if (1 == replace) {\n          _pendingTransactions[i-1] = _pendingTransactions[i];\n        } else if (transactionId == _pendingTransactions[i]) {\n          replace = 1;\n        }\n      }\n      _pendingTransactions.pop();\n      delete _transactions[transactionId];\n    }\n\n//  \n    function start_council_meeting() public returns (uint){\n        if(council_meeting){\n            council_meeting = false;\n            return 0;\n        }\n        else{\n            council_meeting = true;\n            return 1;\n        }\n    }\n\n    function check_if_council_member() public view returns (uint){\n        if(msg.sender == _driver || _councilMembers[msg.sender] == 1){\n            return 1;\n        }\n        return 0;\n    }\n\n    function increment_epoch() public {\n        current_epoch++;\n    }\n\n    function get_current_epoch() public view returns (uint){\n        return current_epoch;\n    }\n\n \n}",
  "sourcePath": "/Users/shashwat.arya/Desktop/BlockChain Project (Pied Piper)/BlockChain-Project--Pied-Piper-/contracts/GovToken.sol",
  "compiler": {
    "name": "solc",
    "version": "0.5.16+commit.9c3226ce.Emscripten.clang"
  },
  "schemaVersion": "3.4.3",
  "updatedAt": "2021-11-17T09:59:03.379Z",
  "networkType": "ethereum",
  "devdoc": {
    "methods": {}
  },
  "userdoc": {
    "methods": {}
  }
}