{
  "contractName": "GovToken",
  "abi": [
    {
      "inputs": [
        {
          "internalType": "string",
          "name": "_name",
          "type": "string"
        },
        {
          "internalType": "string",
          "name": "_symbol",
          "type": "string"
        },
        {
          "internalType": "uint256",
          "name": "_supply",
          "type": "uint256"
        }
      ],
      "payable": false,
      "stateMutability": "nonpayable",
      "type": "constructor"
    },
    {
      "anonymous": false,
      "inputs": [
        {
          "indexed": false,
          "internalType": "address",
          "name": "from",
          "type": "address"
        },
        {
          "indexed": false,
          "internalType": "address",
          "name": "to",
          "type": "address"
        },
        {
          "indexed": false,
          "internalType": "uint256",
          "name": "amount",
          "type": "uint256"
        },
        {
          "indexed": false,
          "internalType": "string",
          "name": "txnType",
          "type": "string"
        },
        {
          "indexed": false,
          "internalType": "uint256",
          "name": "transactionId",
          "type": "uint256"
        }
      ],
      "name": "TransactionCompleted",
      "type": "event"
    },
    {
      "anonymous": false,
      "inputs": [
        {
          "indexed": false,
          "internalType": "address",
          "name": "from",
          "type": "address"
        },
        {
          "indexed": false,
          "internalType": "address",
          "name": "to",
          "type": "address"
        },
        {
          "indexed": false,
          "internalType": "uint256",
          "name": "amount",
          "type": "uint256"
        },
        {
          "indexed": false,
          "internalType": "string",
          "name": "txnType",
          "type": "string"
        },
        {
          "indexed": false,
          "internalType": "uint256",
          "name": "transactionId",
          "type": "uint256"
        }
      ],
      "name": "TransactionCreated",
      "type": "event"
    },
    {
      "anonymous": false,
      "inputs": [
        {
          "indexed": false,
          "internalType": "address",
          "name": "by",
          "type": "address"
        },
        {
          "indexed": false,
          "internalType": "string",
          "name": "txnType",
          "type": "string"
        },
        {
          "indexed": false,
          "internalType": "uint256",
          "name": "transactionId",
          "type": "uint256"
        }
      ],
      "name": "TransactionSigned",
      "type": "event"
    },
    {
      "anonymous": false,
      "inputs": [
        {
          "indexed": true,
          "internalType": "address",
          "name": "from",
          "type": "address"
        },
        {
          "indexed": true,
          "internalType": "address",
          "name": "to",
          "type": "address"
        },
        {
          "indexed": false,
          "internalType": "uint256",
          "name": "tokens",
          "type": "uint256"
        }
      ],
      "name": "Transfer",
      "type": "event"
    },
    {
      "constant": true,
      "inputs": [],
      "name": "_totalSupply",
      "outputs": [
        {
          "internalType": "uint256",
          "name": "",
          "type": "uint256"
        }
      ],
      "payable": false,
      "stateMutability": "view",
      "type": "function"
    },
    {
      "constant": true,
      "inputs": [],
      "name": "name",
      "outputs": [
        {
          "internalType": "string",
          "name": "",
          "type": "string"
        }
      ],
      "payable": false,
      "stateMutability": "view",
      "type": "function"
    },
    {
      "constant": true,
      "inputs": [],
      "name": "symbol",
      "outputs": [
        {
          "internalType": "string",
          "name": "",
          "type": "string"
        }
      ],
      "payable": false,
      "stateMutability": "view",
      "type": "function"
    },
    {
      "constant": false,
      "inputs": [
        {
          "internalType": "string",
          "name": "wallet_type",
          "type": "string"
        },
        {
          "internalType": "address",
          "name": "receiver_address",
          "type": "address"
        },
        {
          "internalType": "uint256",
          "name": "tokens",
          "type": "uint256"
        }
      ],
      "name": "initial_transfer",
      "outputs": [
        {
          "internalType": "uint256",
          "name": "",
          "type": "uint256"
        }
      ],
      "payable": false,
      "stateMutability": "nonpayable",
      "type": "function"
    },
    {
      "constant": true,
      "inputs": [],
      "name": "totalSupply",
      "outputs": [
        {
          "internalType": "uint256",
          "name": "",
          "type": "uint256"
        }
      ],
      "payable": false,
      "stateMutability": "view",
      "type": "function"
    },
    {
      "constant": true,
      "inputs": [
        {
          "internalType": "address",
          "name": "tokenOwner",
          "type": "address"
        }
      ],
      "name": "balanceOf",
      "outputs": [
        {
          "internalType": "uint256",
          "name": "",
          "type": "uint256"
        }
      ],
      "payable": false,
      "stateMutability": "view",
      "type": "function"
    },
    {
      "constant": false,
      "inputs": [
        {
          "internalType": "address",
          "name": "to",
          "type": "address"
        },
        {
          "internalType": "uint256",
          "name": "tokens",
          "type": "uint256"
        }
      ],
      "name": "transfer",
      "outputs": [
        {
          "internalType": "uint256",
          "name": "success",
          "type": "uint256"
        }
      ],
      "payable": false,
      "stateMutability": "nonpayable",
      "type": "function"
    },
    {
      "constant": false,
      "inputs": [
        {
          "internalType": "address",
          "name": "from",
          "type": "address"
        },
        {
          "internalType": "address",
          "name": "to",
          "type": "address"
        },
        {
          "internalType": "uint256",
          "name": "tokens",
          "type": "uint256"
        }
      ],
      "name": "transferFrom",
      "outputs": [
        {
          "internalType": "uint256",
          "name": "success",
          "type": "uint256"
        }
      ],
      "payable": false,
      "stateMutability": "nonpayable",
      "type": "function"
    },
    {
      "constant": false,
      "inputs": [
        {
          "internalType": "uint256",
          "name": "tokens",
          "type": "uint256"
        }
      ],
      "name": "mintTokens",
      "outputs": [],
      "payable": false,
      "stateMutability": "nonpayable",
      "type": "function"
    },
    {
      "constant": false,
      "inputs": [
        {
          "internalType": "uint256",
          "name": "tokens",
          "type": "uint256"
        }
      ],
      "name": "receiveTokens",
      "outputs": [],
      "payable": false,
      "stateMutability": "nonpayable",
      "type": "function"
    },
    {
      "constant": false,
      "inputs": [
        {
          "internalType": "address",
          "name": "to",
          "type": "address"
        },
        {
          "internalType": "uint256",
          "name": "tokens",
          "type": "uint256"
        }
      ],
      "name": "transferTo",
      "outputs": [],
      "payable": false,
      "stateMutability": "nonpayable",
      "type": "function"
    },
    {
      "constant": true,
      "inputs": [],
      "name": "getPendingTransactions",
      "outputs": [
        {
          "internalType": "uint256[]",
          "name": "",
          "type": "uint256[]"
        }
      ],
      "payable": false,
      "stateMutability": "view",
      "type": "function"
    },
    {
      "constant": false,
      "inputs": [
        {
          "internalType": "uint256",
          "name": "transactionId",
          "type": "uint256"
        }
      ],
      "name": "signTransaction",
      "outputs": [],
      "payable": false,
      "stateMutability": "nonpayable",
      "type": "function"
    },
    {
      "constant": false,
      "inputs": [
        {
          "internalType": "uint256",
          "name": "transactionId",
          "type": "uint256"
        }
      ],
      "name": "deleteTransaction",
      "outputs": [],
      "payable": false,
      "stateMutability": "nonpayable",
      "type": "function"
    },
    {
      "constant": false,
      "inputs": [],
      "name": "start_council_meeting",
      "outputs": [
        {
          "internalType": "uint256",
          "name": "",
          "type": "uint256"
        }
      ],
      "payable": false,
      "stateMutability": "nonpayable",
      "type": "function"
    }
  ],
  "bytecode": "0x60806040526000600460006101000a81548160ff02191690831515021790555060006006553480156200003157600080fd5b50604051620028c9380380620028c9833981810160405260608110156200005757600080fd5b81019080805160405193929190846401000000008211156200007857600080fd5b838201915060208201858111156200008f57600080fd5b8251866001820283011164010000000082111715620000ad57600080fd5b8083526020830192505050908051906020019080838360005b83811015620000e3578082015181840152602081019050620000c6565b50505050905090810190601f168015620001115780820380516001836020036101000a031916815260200191505b50604052602001805160405193929190846401000000008211156200013557600080fd5b838201915060208201858111156200014c57600080fd5b82518660018202830111640100000000821117156200016a57600080fd5b8083526020830192505050908051906020019080838360005b83811015620001a057808201518184015260208101905062000183565b50505050905090810190601f168015620001ce5780820380516001836020036101000a031916815260200191505b50604052602001805190602001909291905050508160009080519060200190620001fa92919062000317565b5082600190805190602001906200021392919062000317565b508060028190555080600760003373ffffffffffffffffffffffffffffffffffffffff1673ffffffffffffffffffffffffffffffffffffffff16815260200190815260200160002081905550600060038190555033600460016101000a81548173ffffffffffffffffffffffffffffffffffffffff021916908373ffffffffffffffffffffffffffffffffffffffff1602179055503373ffffffffffffffffffffffffffffffffffffffff16600073ffffffffffffffffffffffffffffffffffffffff167fddf252ad1be2c89b69c2b068fc378daa952ba7f163c4a11628f55a4df523b3ef836040518082815260200191505060405180910390a3505050620003c6565b828054600181600116156101000203166002900490600052602060002090601f016020900481019282601f106200035a57805160ff19168380011785556200038b565b828001600101855582156200038b579182015b828111156200038a5782518255916020019190600101906200036d565b5b5090506200039a91906200039e565b5090565b620003c391905b80821115620003bf576000816000905550600101620003a5565b5090565b90565b6124f380620003d66000396000f3fe608060405234801561001057600080fd5b50600436106100f45760003560e01c806370a082311161009757806397304ced1161006657806397304ced1461040b578063a9059cbb14610439578063c640dd931461049b578063d11db83f14610594576100f4565b806370a08231146102e4578063743e0c9b1461033c5780637a0347cb1461036a57806395d89b4114610388576100f4565b806323b872dd116100d357806323b872dd146101c85780632ccb1b301461024a5780633eaaf86b146102985780635d9ec210146102b6576100f4565b8062e9c006146100f957806306fdde031461012757806318160ddd146101aa575b600080fd5b6101256004803603602081101561010f57600080fd5b81019080803590602001909291905050506105f3565b005b61012f6107ee565b6040518080602001828103825283818151815260200191508051906020019080838360005b8381101561016f578082015181840152602081019050610154565b50505050905090810190601f16801561019c5780820380516001836020036101000a031916815260200191505b509250505060405180910390f35b6101b261088c565b6040518082815260200191505060405180910390f35b610234600480360360608110156101de57600080fd5b81019080803573ffffffffffffffffffffffffffffffffffffffff169060200190929190803573ffffffffffffffffffffffffffffffffffffffff169060200190929190803590602001909291905050506108d7565b6040518082815260200191505060405180910390f35b6102966004803603604081101561026057600080fd5b81019080803573ffffffffffffffffffffffffffffffffffffffff16906020019092919080359060200190929190505050610a11565b005b6102a0610b0a565b6040518082815260200191505060405180910390f35b6102e2600480360360208110156102cc57600080fd5b8101908080359060200190929190505050610b10565b005b610326600480360360208110156102fa57600080fd5b81019080803573ffffffffffffffffffffffffffffffffffffffff169060200190929190505050611287565b6040518082815260200191505060405180910390f35b6103686004803603602081101561035257600080fd5b81019080803590602001909291905050506112d0565b005b6103726113ea565b6040518082815260200191505060405180910390f35b610390611448565b6040518080602001828103825283818151815260200191508051906020019080838360005b838110156103d05780820151818401526020810190506103b5565b50505050905090810190601f1680156103fd5780820380516001836020036101000a031916815260200191505b509250505060405180910390f35b6104376004803603602081101561042157600080fd5b81019080803590602001909291905050506114e6565b005b6104856004803603604081101561044f57600080fd5b81019080803573ffffffffffffffffffffffffffffffffffffffff16906020019092919080359060200190929190505050611584565b6040518082815260200191505060405180910390f35b61057e600480360360608110156104b157600080fd5b81019080803590602001906401000000008111156104ce57600080fd5b8201836020820111156104e057600080fd5b8035906020019184600183028401116401000000008311171561050257600080fd5b91908080601f016020809104026020016040519081016040528093929190818152602001838380828437600081840152601f19601f820116905080830192505050505050509192919290803573ffffffffffffffffffffffffffffffffffffffff16906020019092919080359060200190929190505050611685565b6040518082815260200191505060405180910390f35b61059c611b0e565b6040518080602001828103825283818151815260200191508051906020019060200280838360005b838110156105df5780820151818401526020810190506105c4565b505050509050019250505060405180910390f35b600460019054906101000a900473ffffffffffffffffffffffffffffffffffffffff1673ffffffffffffffffffffffffffffffffffffffff163373ffffffffffffffffffffffffffffffffffffffff16148061069e57506001600560003373ffffffffffffffffffffffffffffffffffffffff1673ffffffffffffffffffffffffffffffffffffffff16815260200190815260200160002060009054906101000a900460ff1660ff16145b6106a757600080fd5b600080905060008090505b600b80549050811015610738578160ff166001141561070657600b81815481106106d857fe5b9060005260206000200154600b60018303815481106106f357fe5b906000526020600020018190555061072b565b600b818154811061071357fe5b906000526020600020015483141561072a57600191505b5b80806001019150506106b2565b50600b80548061074457fe5b60019003818190600052602060002001600090559055600a60008381526020019081526020016000206000808201600061077e91906122f3565b6001820160006101000a81549073ffffffffffffffffffffffffffffffffffffffff02191690556002820160006101000a81549073ffffffffffffffffffffffffffffffffffffffff021916905560038201600090556004820160006101000a81549060ff021916905550505050565b60018054600181600116156101000203166002900480601f0160208091040260200160405190810160405280929190818152602001828054600181600116156101000203166002900480156108845780601f1061085957610100808354040283529160200191610884565b820191906000526020600020905b81548152906001019060200180831161086757829003601f168201915b505050505081565b6000600760008073ffffffffffffffffffffffffffffffffffffffff1673ffffffffffffffffffffffffffffffffffffffff1681526020019081526020016000205460025403905090565b6000600460019054906101000a900473ffffffffffffffffffffffffffffffffffffffff1673ffffffffffffffffffffffffffffffffffffffff163373ffffffffffffffffffffffffffffffffffffffff16148061098457506001600560003373ffffffffffffffffffffffffffffffffffffffff1673ffffffffffffffffffffffffffffffffffffffff16815260200190815260200160002060009054906101000a900460ff1660ff16145b61098d57600080fd5b8373ffffffffffffffffffffffffffffffffffffffff163373ffffffffffffffffffffffffffffffffffffffff16146109c557600080fd5b610a068484846040518060400160405280600881526020017f5452414e53464552000000000000000000000000000000000000000000000000815250611c1a565b600190509392505050565b600460019054906101000a900473ffffffffffffffffffffffffffffffffffffffff1673ffffffffffffffffffffffffffffffffffffffff163373ffffffffffffffffffffffffffffffffffffffff161480610abc57506001600560003373ffffffffffffffffffffffffffffffffffffffff1673ffffffffffffffffffffffffffffffffffffffff16815260200190815260200160002060009054906101000a900460ff1660ff16145b610ac557600080fd5b610b063383836040518060400160405280600881526020017f5452414e53464552000000000000000000000000000000000000000000000000815250611c1a565b5050565b60025481565b600460019054906101000a900473ffffffffffffffffffffffffffffffffffffffff1673ffffffffffffffffffffffffffffffffffffffff163373ffffffffffffffffffffffffffffffffffffffff161480610bbb57506001600560003373ffffffffffffffffffffffffffffffffffffffff1673ffffffffffffffffffffffffffffffffffffffff16815260200190815260200160002060009054906101000a900460ff1660ff16145b610bc457600080fd5b6000600a600083815260200190815260200160002090508060010160009054906101000a900473ffffffffffffffffffffffffffffffffffffffff1673ffffffffffffffffffffffffffffffffffffffff16600073ffffffffffffffffffffffffffffffffffffffff161415610c3957600080fd5b60405160200180807f5245434549564500000000000000000000000000000000000000000000000000815250600701905060405160208183030381529060405280519060200120816000016040516020018082805460018160011615610100020316600290048015610ce25780601f10610cc0576101008083540402835291820191610ce2565b820191906000526020600020905b815481529060010190602001808311610cce575b5050915050604051602081830303815290604052805190602001201415610d65578060020160009054906101000a900473ffffffffffffffffffffffffffffffffffffffff1673ffffffffffffffffffffffffffffffffffffffff163373ffffffffffffffffffffffffffffffffffffffff161415610d6057600080fd5b610dc3565b8060010160009054906101000a900473ffffffffffffffffffffffffffffffffffffffff1673ffffffffffffffffffffffffffffffffffffffff163373ffffffffffffffffffffffffffffffffffffffff161415610dc257600080fd5b5b60018160050160003373ffffffffffffffffffffffffffffffffffffffff1673ffffffffffffffffffffffffffffffffffffffff16815260200190815260200160002060009054906101000a900460ff1660ff161415610e2257600080fd5b60018160050160003373ffffffffffffffffffffffffffffffffffffffff1673ffffffffffffffffffffffffffffffffffffffff16815260200190815260200160002060006101000a81548160ff021916908360ff16021790555080600401600081819054906101000a900460ff168092919060010191906101000a81548160ff021916908360ff160217905550507ed302441f7789d3c0b048a3afa15b3bb872dbaaee83c64cb63a99a5973f2c87338260000184604051808473ffffffffffffffffffffffffffffffffffffffff1673ffffffffffffffffffffffffffffffffffffffff16815260200180602001838152602001828103825284818154600181600116156101000203166002900481526020019150805460018160011615610100020316600290048015610f985780601f10610f6d57610100808354040283529160200191610f98565b820191906000526020600020905b815481529060010190602001808311610f7b57829003601f168201915b505094505050505060405180910390a16006548160040160009054906101000a900460ff1660ff16106112835760405160200180807f4d494e54494e470000000000000000000000000000000000000000000000000081525060070190506040516020818303038152906040528051906020012081600001604051602001808280546001816001161561010002031660029004801561106e5780601f1061104c57610100808354040283529182019161106e565b820191906000526020600020905b81548152906001019060200180831161105a575b50509150506040516020818303038152906040528051906020012014156110a15761109c8160030154611fb6565b6110f9565b6110f88160010160009054906101000a900473ffffffffffffffffffffffffffffffffffffffff168260020160009054906101000a900473ffffffffffffffffffffffffffffffffffffffff1683600301546120e1565b5b7f69b93c8351bb1a78d209527eed15f087c238c3120ba9a338db78be6b247f3fcb8160010160009054906101000a900473ffffffffffffffffffffffffffffffffffffffff168260020160009054906101000a900473ffffffffffffffffffffffffffffffffffffffff1683600301548460000186604051808673ffffffffffffffffffffffffffffffffffffffff1673ffffffffffffffffffffffffffffffffffffffff1681526020018573ffffffffffffffffffffffffffffffffffffffff1673ffffffffffffffffffffffffffffffffffffffff168152602001848152602001806020018381526020018281038252848181546001816001161561010002031660029004815260200191508054600181600116156101000203166002900480156112675780601f1061123c57610100808354040283529160200191611267565b820191906000526020600020905b81548152906001019060200180831161124a57829003601f168201915b5050965050505050505060405180910390a1611282826105f3565b5b5050565b6000600760008373ffffffffffffffffffffffffffffffffffffffff1673ffffffffffffffffffffffffffffffffffffffff168152602001908152602001600020549050919050565b600460019054906101000a900473ffffffffffffffffffffffffffffffffffffffff1673ffffffffffffffffffffffffffffffffffffffff163373ffffffffffffffffffffffffffffffffffffffff16148061137b57506001600560003373ffffffffffffffffffffffffffffffffffffffff1673ffffffffffffffffffffffffffffffffffffffff16815260200190815260200160002060009054906101000a900460ff1660ff16145b61138457600080fd5b6113e7600460019054906101000a900473ffffffffffffffffffffffffffffffffffffffff1633836040518060400160405280600781526020017f5245434549564500000000000000000000000000000000000000000000000000815250611c1a565b50565b6000600460009054906101000a900460ff1615611425576000600460006101000a81548160ff02191690831515021790555060009050611445565b6001600460006101000a81548160ff021916908315150217905550600190505b90565b60008054600181600116156101000203166002900480601f0160208091040260200160405190810160405280929190818152602001828054600181600116156101000203166002900480156114de5780601f106114b3576101008083540402835291602001916114de565b820191906000526020600020905b8154815290600101906020018083116114c157829003601f168201915b505050505081565b600460019054906101000a900473ffffffffffffffffffffffffffffffffffffffff1673ffffffffffffffffffffffffffffffffffffffff163373ffffffffffffffffffffffffffffffffffffffff161461154057600080fd5b6115813333836040518060400160405280600781526020017f4d494e54494e4700000000000000000000000000000000000000000000000000815250611c1a565b50565b6000600460019054906101000a900473ffffffffffffffffffffffffffffffffffffffff1673ffffffffffffffffffffffffffffffffffffffff163373ffffffffffffffffffffffffffffffffffffffff16148061163157506001600560003373ffffffffffffffffffffffffffffffffffffffff1673ffffffffffffffffffffffffffffffffffffffff16815260200190815260200160002060009054906101000a900460ff1660ff16145b61163a57600080fd5b61167b3384846040518060400160405280600881526020017f5452414e53464552000000000000000000000000000000000000000000000000815250611c1a565b6001905092915050565b6000600460019054906101000a900473ffffffffffffffffffffffffffffffffffffffff1673ffffffffffffffffffffffffffffffffffffffff163373ffffffffffffffffffffffffffffffffffffffff16146116e157600080fd5b6000600760008573ffffffffffffffffffffffffffffffffffffffff1673ffffffffffffffffffffffffffffffffffffffff16815260200190815260200160002054148015611807575060405160200180600001905060405160208183030381529060405280519060200120600860008573ffffffffffffffffffffffffffffffffffffffff1673ffffffffffffffffffffffffffffffffffffffff16815260200190815260200160002060405160200180828054600181600116156101000203166002900480156117ea5780601f106117c85761010080835404028352918201916117ea565b820191906000526020600020905b8154815290600101906020018083116117d6575b505091505060405160208183030381529060405280519060200120145b15611b025760405160200180807f636f756e63696c5f6d656d626572000000000000000000000000000000000000815250600e01905060405160208183030381529060405280519060200120846040516020018082805190602001908083835b6020831061188a5780518252602082019150602081019050602083039250611867565b6001836020036101000a038019825116818451168082178552505050505050905001915050604051602081830303815290604052805190602001201415611937576001600560008573ffffffffffffffffffffffffffffffffffffffff1673ffffffffffffffffffffffffffffffffffffffff16815260200190815260200160002060006101000a81548160ff021916908360ff1602179055506006600081548092919060010191905055505b83600860008573ffffffffffffffffffffffffffffffffffffffff1673ffffffffffffffffffffffffffffffffffffffff168152602001908152602001600020908051906020019061198a92919061233b565b506119ff8260076000600460019054906101000a900473ffffffffffffffffffffffffffffffffffffffff1673ffffffffffffffffffffffffffffffffffffffff1673ffffffffffffffffffffffffffffffffffffffff168152602001908152602001600020546122c090919063ffffffff16565b60076000600460019054906101000a900473ffffffffffffffffffffffffffffffffffffffff1673ffffffffffffffffffffffffffffffffffffffff1673ffffffffffffffffffffffffffffffffffffffff16815260200190815260200160002081905550611ab682600760008673ffffffffffffffffffffffffffffffffffffffff1673ffffffffffffffffffffffffffffffffffffffff168152602001908152602001600020546122d790919063ffffffff16565b600760008573ffffffffffffffffffffffffffffffffffffffff1673ffffffffffffffffffffffffffffffffffffffff1681526020019081526020016000208190555060019050611b07565b600090505b9392505050565b6060600460019054906101000a900473ffffffffffffffffffffffffffffffffffffffff1673ffffffffffffffffffffffffffffffffffffffff163373ffffffffffffffffffffffffffffffffffffffff161480611bbb57506001600560003373ffffffffffffffffffffffffffffffffffffffff1673ffffffffffffffffffffffffffffffffffffffff16815260200190815260200160002060009054906101000a900460ff1660ff16145b611bc457600080fd5b600b805480602002602001604051908101604052809291908181526020018280548015611c1057602002820191906000526020600020905b815481526020019060010190808311611bfc575b5050505050905090565b600460019054906101000a900473ffffffffffffffffffffffffffffffffffffffff1673ffffffffffffffffffffffffffffffffffffffff163373ffffffffffffffffffffffffffffffffffffffff161480611cc557506001600560003373ffffffffffffffffffffffffffffffffffffffff1673ffffffffffffffffffffffffffffffffffffffff16815260200190815260200160002060009054906101000a900460ff1660ff16145b611cce57600080fd5b600060096000815480929190600101919050559050611ceb6123bb565b82816000018190525085816020019073ffffffffffffffffffffffffffffffffffffffff16908173ffffffffffffffffffffffffffffffffffffffff168152505084816040019073ffffffffffffffffffffffffffffffffffffffff16908173ffffffffffffffffffffffffffffffffffffffff1681525050838160600181815250506000816080019060ff16908160ff168152505080600a60008481526020019081526020016000206000820151816000019080519060200190611db1929190612419565b5060208201518160010160006101000a81548173ffffffffffffffffffffffffffffffffffffffff021916908373ffffffffffffffffffffffffffffffffffffffff16021790555060408201518160020160006101000a81548173ffffffffffffffffffffffffffffffffffffffff021916908373ffffffffffffffffffffffffffffffffffffffff1602179055506060820151816003015560808201518160040160006101000a81548160ff021916908360ff160217905550905050600b8290806001815401808255809150509060018203906000526020600020016000909192909190915055507f03381a518e187d6c4794b6bac94cc51b997c5cffeff1a8b77945e34a427940be8686868686604051808673ffffffffffffffffffffffffffffffffffffffff1673ffffffffffffffffffffffffffffffffffffffff1681526020018573ffffffffffffffffffffffffffffffffffffffff1673ffffffffffffffffffffffffffffffffffffffff16815260200184815260200180602001838152602001828103825284818151815260200191508051906020019080838360005b83811015611f70578082015181840152602081019050611f55565b50505050905090810190601f168015611f9d5780820380516001836020036101000a031916815260200191505b50965050505050505060405180910390a1505050505050565b806002600082825401925050819055508060076000600460019054906101000a900473ffffffffffffffffffffffffffffffffffffffff1673ffffffffffffffffffffffffffffffffffffffff1673ffffffffffffffffffffffffffffffffffffffff16815260200190815260200160002060008282540192505081905550600460019054906101000a900473ffffffffffffffffffffffffffffffffffffffff1673ffffffffffffffffffffffffffffffffffffffff16600460019054906101000a900473ffffffffffffffffffffffffffffffffffffffff1673ffffffffffffffffffffffffffffffffffffffff167fddf252ad1be2c89b69c2b068fc378daa952ba7f163c4a11628f55a4df523b3ef836040518082815260200191505060405180910390a350565b600760008473ffffffffffffffffffffffffffffffffffffffff1673ffffffffffffffffffffffffffffffffffffffff16815260200190815260200160002054811061212c57600080fd5b61217e81600760008673ffffffffffffffffffffffffffffffffffffffff1673ffffffffffffffffffffffffffffffffffffffff168152602001908152602001600020546122c090919063ffffffff16565b600760008573ffffffffffffffffffffffffffffffffffffffff1673ffffffffffffffffffffffffffffffffffffffff1681526020019081526020016000208190555061221381600760008573ffffffffffffffffffffffffffffffffffffffff1673ffffffffffffffffffffffffffffffffffffffff168152602001908152602001600020546122d790919063ffffffff16565b600760008473ffffffffffffffffffffffffffffffffffffffff1673ffffffffffffffffffffffffffffffffffffffff168152602001908152602001600020819055508173ffffffffffffffffffffffffffffffffffffffff168373ffffffffffffffffffffffffffffffffffffffff167fddf252ad1be2c89b69c2b068fc378daa952ba7f163c4a11628f55a4df523b3ef836040518082815260200191505060405180910390a3505050565b6000828211156122cc57fe5b818303905092915050565b6000808284019050838110156122e957fe5b8091505092915050565b50805460018160011615610100020316600290046000825580601f106123195750612338565b601f0160209004906000526020600020908101906123379190612499565b5b50565b828054600181600116156101000203166002900490600052602060002090601f016020900481019282601f1061237c57805160ff19168380011785556123aa565b828001600101855582156123aa579182015b828111156123a957825182559160200191906001019061238e565b5b5090506123b79190612499565b5090565b6040518060a0016040528060608152602001600073ffffffffffffffffffffffffffffffffffffffff168152602001600073ffffffffffffffffffffffffffffffffffffffff16815260200160008152602001600060ff1681525090565b828054600181600116156101000203166002900490600052602060002090601f016020900481019282601f1061245a57805160ff1916838001178555612488565b82800160010185558215612488579182015b8281111561248757825182559160200191906001019061246c565b5b5090506124959190612499565b5090565b6124bb91905b808211156124b757600081600090555060010161249f565b5090565b9056fea265627a7a723158203602e1d3cc1771ca21b4011d3bd4fbc33e3091342e85bf2a7fb8d1a8344dfbc064736f6c63430005100032",
  "source": "pragma solidity >=0.4.21 <0.7.0;\n \n\nimport \"./Safemath.sol\";\n\n// contract SafeMath {\n \n//     function safeAdd(uint a, uint b) public pure returns (uint c) {\n//         c = a + b;\n//         require(c >= a);\n//     }\n \n//     function safeSub(uint a, uint b) public pure returns (uint c) {\n//         require(b <= a);\n//         c = a - b;\n//     }\n \n//     function safeMul(uint a, uint b) public pure returns (uint c) {\n//         c = a * b;\n//         require(a == 0 || c / a == b);\n//     }\n \n//     function safeDiv(uint a, uint b) public pure returns (uint c) {\n//         require(b > 0);\n//         c = a / b;\n//     }\n// }\n \n \n//ERC Token Standard #20 Interface\ncontract ERC20Interface {\n    function totalSupply() public view returns (uint);\n    function balanceOf(address tokenOwner) public view returns (uint balance);\n    function transfer(address to, uint tokens) public returns (uint success);\n    function transferFrom(address from, address to, uint tokens) public returns (uint success);\n    event Transfer(address indexed from, address indexed to, uint tokens);\n    \n}\n \ncontract GovToken is ERC20Interface {\n    // currently the allocation etc is for council members only, need to extend to other platform users.\n    string public symbol;\n    string public  name;\n    uint public _totalSupply;\n    uint current_epoch ;\n    bool council_meeting = false;\n    \n    address internal _driver;\n    mapping(address => uint8) internal _councilMembers;\n    \n    uint private MIN_SIGNATURES = 0;\n    \n\n    // struct Council{\n    //     address root_user;\n    //     address council_member_one;\n    //     address council_member_two;\n    // }\n    \n    modifier isOwner() {\n        require(msg.sender == _driver);\n        _;\n    }\n\n    modifier validOwner() {\n        require(msg.sender == _driver || _councilMembers[msg.sender] == 1);\n        _;\n    }\n    \n    using SafeMath for uint256;\n    mapping(address => uint256) balances;\n    mapping(address => string) account_type;\n    // Council newCouncil = Council(address(0) , address(0) , address(0));\n    \n    constructor(string memory _name , string memory _symbol , uint _supply) public {\n        symbol = _symbol;\n        name = _name;\n        _totalSupply = _supply;\n        balances[msg.sender] = _supply;\n        current_epoch = 0;\n        // newCouncil.root_user = msg.sender;\n        _driver = msg.sender;\n        emit Transfer(address(0), msg.sender, _supply);\n    }\n\n    \n    function initial_transfer(string memory wallet_type, address receiver_address , uint tokens) isOwner public returns (uint){\n        \n        if(balances[receiver_address] == 0 && keccak256(abi.encodePacked(account_type[receiver_address])) == keccak256(abi.encodePacked(\"\"))){\n\n            if(keccak256(abi.encodePacked(wallet_type)) == keccak256(abi.encodePacked(\"council_member\"))){\n\n                // if(newCouncil.council_member_one == address(0)){\n                //     newCouncil.council_member_one = receiver_address;\n                // }\n                // else if(newCouncil.council_member_two == address(0)){\n                //     newCouncil.council_member_two = receiver_address;\n                // }\n                // else{\n                //     return 0;\n                // }\n                _councilMembers[receiver_address] =1;\n                MIN_SIGNATURES++;\n              \n            }\n\n            account_type[receiver_address] = wallet_type;\n            // balances[newCouncil.root_user] = safeSub(balances[newCouncil.root_user],tokens);\n            // balances[_driver] = safeSub(balances[_driver],tokens);\n            balances[_driver] = balances[_driver].sub(tokens);\n            balances[receiver_address] = balances[receiver_address].add(tokens);\n            // balances[receiver_address] = safeAdd(balances[receiver_address],tokens);\n            return 1;\n        }\n        return 0;\n\n        // else{\n        //     return 0;\n        // }\n        \n    }\n    \n    function totalSupply() public view returns (uint) {\n        return _totalSupply  - balances[address(0)];\n    }\n    // is this the supply that has yet to be assigned? we can display this so council knows when thr is a need to mint more?\n    // currently the driver initially has all the tokens\n    // when registering, r we minting new tokens? need multisig for these mints??\n    // else, transfer from driver, but this means driver's power changes constantly.\n \n    function balanceOf(address tokenOwner) public view returns (uint) {\n        return balances[tokenOwner];\n    }\n \n    // function transfer(address to, uint tokens) private returns (uint) {\n    //     if(tokens < balances[msg.sender]){\n    //         return 0;\n    //     }\n    //     balances[msg.sender] = safeSub(balances[msg.sender], tokens);\n    //     balances[to] = safeAdd(balances[to], tokens);\n    //     emit Transfer(msg.sender, to, tokens);\n    //     return 1;\n    // }\n    function _transfer(address from, address to, uint tokens) private  {\n        require (tokens < balances[from]);\n        balances[from] = balances[from].sub(tokens);\n        balances[to] = balances[to].add(tokens);\n        emit Transfer(from, to, tokens);\n        \n    }\n \n\n    function _mint(uint tokens) private {\n        _totalSupply += tokens;\n        balances[_driver] += tokens;\n        emit Transfer(_driver, _driver, tokens);\n    }\n    \n   \n    function transfer(address to, uint tokens) validOwner public returns (uint success) {\n        createTransction(msg.sender, to, tokens, \"TRANSFER\");\n        return 1;\n    }\n    \n    function transferFrom(address from, address to, uint tokens) validOwner public returns (uint success) {\n        require(msg.sender == from);\n        createTransction(from, to, tokens, \"TRANSFER\");\n        return 1;\n    }\n    \n    // do we need a way for non \n    \n    function mintTokens(uint tokens) isOwner public {\n        createTransction(msg.sender, msg.sender, tokens, \"MINTING\");\n    }\n    \n    function receiveTokens(uint tokens) validOwner public {\n        createTransction(_driver, msg.sender, tokens, \"RECEIVE\");\n    }\n    \n    function transferTo(address to, uint tokens) validOwner public  {\n        createTransction(msg.sender, to, tokens, \"TRANSFER\");\n    }\n    \n    \n    // multisig features\n    \n    struct Transaction {\n      string txnType;\n      address from;\n      address to;\n      uint tokens;\n      uint8 signatureCount;\n      mapping (address => uint8) signatures;\n    }\n    \n    uint private _transactionIdx;\n    mapping (uint => Transaction) private _transactions;\n    uint[] private _pendingTransactions;\n    \n    event TransactionCreated(address from, address to, uint amount, string txnType, uint transactionId);\n    event TransactionCompleted(address from, address to, uint amount, string txnType,  uint transactionId);\n    event TransactionSigned(address by, string txnType, uint transactionId);\n    \n    \n  \n    function createTransction(address from, address to, uint tokens, string memory txnType) validOwner private {\n        uint transactionId = _transactionIdx++;\n        Transaction memory transaction;\n        transaction.txnType = txnType;\n        transaction.from = from;\n        transaction.to = to;\n        transaction.tokens = tokens;\n        transaction.signatureCount = 0;\n        \n        _transactions[transactionId] = transaction;\n        _pendingTransactions.push(transactionId);\n\n        emit TransactionCreated(from, to, tokens,txnType, transactionId);\n        \n    }\n    function getPendingTransactions()\n      view\n      validOwner\n      public\n      returns (uint[] memory) {\n      return _pendingTransactions;\n    }\n    \n    function signTransaction(uint transactionId)\n      validOwner\n      public {\n\n      Transaction storage transaction = _transactions[transactionId];\n\n      // Transaction must exist\n      require(address(0x0) != transaction.from);\n      // Creator cannot sign the transaction\n      if (keccak256(abi.encodePacked(transaction.txnType)) == keccak256(abi.encodePacked(\"RECEIVE\"))) {\n     \n          require(msg.sender != transaction.to);\n      } else {\n          require(msg.sender != transaction.from);\n      }\n      \n      // Cannot sign a transaction more than once\n      require(transaction.signatures[msg.sender] != 1);\n\n      transaction.signatures[msg.sender] = 1;\n      transaction.signatureCount++;\n\n      emit TransactionSigned(msg.sender, transaction.txnType, transactionId);\n\n      if (transaction.signatureCount >= MIN_SIGNATURES) {\n        if (keccak256(abi.encodePacked(transaction.txnType)) == keccak256(abi.encodePacked(\"MINTING\"))) {\n      \n            // mint(transaction.to, transaction.tokens);\n            _mint(transaction.tokens);\n            //mint, i.e. increase vlue of _totalSupply and _driver balance\n        } else {\n            _transfer(transaction.from, transaction.to, transaction.tokens);\n            \n            //transfer tokens from transaction.from to transaction.to\n            // receive, i.e. transfer tokens from _driver to transaction.to\n        }\n          \n          \n        // require(address(this).balance >= transaction.amount);\n        // transaction.to.transfer(transaction.amount);\n        emit TransactionCompleted(transaction.from, transaction.to, transaction.tokens, transaction.txnType, transactionId);\n        deleteTransaction(transactionId);\n      }\n    }\n    \n    function deleteTransaction(uint transactionId)\n      validOwner\n      public {\n      uint8 replace = 0;\n      for(uint i = 0; i < _pendingTransactions.length; i++) {\n        if (1 == replace) {\n          _pendingTransactions[i-1] = _pendingTransactions[i];\n        } else if (transactionId == _pendingTransactions[i]) {\n          replace = 1;\n        }\n      }\n      _pendingTransactions.pop();\n      delete _transactions[transactionId];\n    }\n\n//  \n    function start_council_meeting() public returns (uint){\n        if(council_meeting){\n            council_meeting = false;\n            return 0;\n        }\n        else{\n            council_meeting = true;\n            return 1;\n        }\n    }\n\n \n}",
  "sourcePath": "/Users/kirath/Desktop/BlockChain-Project--Pied-Piper-/contracts/GovToken.sol",
  "compiler": {
    "name": "solc",
    "version": "0.5.16+commit.9c3226ce.Emscripten.clang"
  },
  "schemaVersion": "3.4.3",
  "updatedAt": "2021-11-07T13:59:01.405Z",
  "devdoc": {
    "methods": {}
  },
  "userdoc": {
    "methods": {}
  }
}