{
  "contractName": "ProposalContract",
  "abi": [
    {
      "anonymous": false,
      "inputs": [
        {
          "indexed": false,
          "internalType": "uint256",
          "name": "ProposalID",
          "type": "uint256"
        },
        {
          "indexed": false,
          "internalType": "string",
          "name": "proposal_title",
          "type": "string"
        }
      ],
      "name": "ProposalCreated",
      "type": "event"
    },
    {
      "constant": true,
      "inputs": [],
      "name": "ProposalID",
      "outputs": [
        {
          "internalType": "uint256",
          "name": "",
          "type": "uint256"
        }
      ],
      "payable": false,
      "stateMutability": "view",
      "type": "function"
    },
    {
      "constant": true,
      "inputs": [],
      "name": "approved_proposals_count",
      "outputs": [
        {
          "internalType": "uint256",
          "name": "",
          "type": "uint256"
        }
      ],
      "payable": false,
      "stateMutability": "view",
      "type": "function"
    },
    {
      "constant": true,
      "inputs": [
        {
          "internalType": "uint256",
          "name": "",
          "type": "uint256"
        }
      ],
      "name": "proposals",
      "outputs": [
        {
          "internalType": "string",
          "name": "proposal_text",
          "type": "string"
        },
        {
          "internalType": "string",
          "name": "proposal_title",
          "type": "string"
        },
        {
          "internalType": "bool",
          "name": "completed",
          "type": "bool"
        },
        {
          "internalType": "uint256",
          "name": "epoch",
          "type": "uint256"
        },
        {
          "internalType": "uint256",
          "name": "votes",
          "type": "uint256"
        }
      ],
      "payable": false,
      "stateMutability": "view",
      "type": "function"
    },
    {
      "constant": false,
      "inputs": [
        {
          "internalType": "string",
          "name": "proposal_text",
          "type": "string"
        },
        {
          "internalType": "string",
          "name": "proposal_title",
          "type": "string"
        }
      ],
      "name": "addProposal",
      "outputs": [
        {
          "internalType": "uint256",
          "name": "",
          "type": "uint256"
        }
      ],
      "payable": false,
      "stateMutability": "nonpayable",
      "type": "function"
    },
    {
      "constant": true,
      "inputs": [],
      "name": "getProposalCount",
      "outputs": [
        {
          "internalType": "uint256",
          "name": "",
          "type": "uint256"
        }
      ],
      "payable": false,
      "stateMutability": "view",
      "type": "function"
    },
    {
      "constant": true,
      "inputs": [
        {
          "internalType": "uint256",
          "name": "id",
          "type": "uint256"
        }
      ],
      "name": "getProposalById",
      "outputs": [
        {
          "internalType": "string",
          "name": "",
          "type": "string"
        },
        {
          "internalType": "string",
          "name": "",
          "type": "string"
        },
        {
          "internalType": "uint256",
          "name": "",
          "type": "uint256"
        }
      ],
      "payable": false,
      "stateMutability": "view",
      "type": "function"
    },
    {
      "constant": false,
      "inputs": [
        {
          "internalType": "uint256",
          "name": "id",
          "type": "uint256"
        },
        {
          "internalType": "uint256",
          "name": "votes",
          "type": "uint256"
        }
      ],
      "name": "addVotes",
      "outputs": [],
      "payable": false,
      "stateMutability": "nonpayable",
      "type": "function"
    },
    {
      "constant": true,
      "inputs": [
        {
          "internalType": "uint256",
          "name": "proposal_id",
          "type": "uint256"
        }
      ],
      "name": "getVote",
      "outputs": [
        {
          "internalType": "uint256",
          "name": "",
          "type": "uint256"
        }
      ],
      "payable": false,
      "stateMutability": "view",
      "type": "function"
    },
    {
      "constant": false,
      "inputs": [],
      "name": "resetProposalCount",
      "outputs": [],
      "payable": false,
      "stateMutability": "nonpayable",
      "type": "function"
    }
  ],
  "bytecode": "0x608060405260008055600060045534801561001957600080fd5b50610af1806100296000396000f3fe608060405234801561001057600080fd5b50600436106100935760003560e01c80635a55c1f0116100665780635a55c1f01461014c5780637797933f1461017c5780639175e8ac14610198578063a7d5564c146101a2578063c08cc02d146101c057610093565b8063013cf08b146100985780631f6e7c0f146100cc57806323d1c95e146100ea5780633656de211461011a575b600080fd5b6100b260048036036100ad91908101906107c8565b6101de565b6040516100c3959493929190610902565b60405180910390f35b6100d4610351565b6040516100e19190610963565b60405180910390f35b61010460048036036100ff919081019061075c565b610357565b6040516101119190610963565b60405180910390f35b610134600480360361012f91908101906107c8565b610461565b604051610143939291906108bd565b60405180910390f35b610166600480360361016191908101906107c8565b6105ee565b6040516101739190610963565b60405180910390f35b610196600480360361019191908101906107f1565b61060e565b005b6101a0610636565b005b6101aa61063f565b6040516101b79190610963565b60405180910390f35b6101c8610645565b6040516101d59190610963565b60405180910390f35b6002602052806000526040600020600091509050806000018054600181600116156101000203166002900480601f01602080910402602001604051908101604052809291908181526020018280546001816001161561010002031660029004801561028a5780601f1061025f5761010080835404028352916020019161028a565b820191906000526020600020905b81548152906001019060200180831161026d57829003601f168201915b505050505090806001018054600181600116156101000203166002900480601f0160208091040260200160405190810160405280929190818152602001828054600181600116156101000203166002900480156103285780601f106102fd57610100808354040283529160200191610328565b820191906000526020600020905b81548152906001019060200180831161030b57829003601f168201915b5050505050908060020160009054906101000a900460ff16908060030154908060040154905085565b60005481565b60006040518060a00160405280848152602001838152602001600015158152602001600081526020016000815250600260008054815260200190815260200160002060008201518160000190805190602001906103b592919061064e565b5060208201518160010190805190602001906103d292919061064e565b5060408201518160020160006101000a81548160ff02191690831515021790555060608201518160030155608082015181600401559050507f9c770c289ab5bf7e57cb1d23c8ceae993aea46eb64847072fd3d78ca60d3e4326000548360405161043d92919061097e565b60405180910390a16000808154809291906001019190505550600054905092915050565b606080600060026000858152602001908152602001600020600001600260008681526020019081526020016000206001016002600087815260200190815260200160002060040154828054600181600116156101000203166002900480601f01602080910402602001604051908101604052809291908181526020018280546001816001161561010002031660029004801561053e5780601f106105135761010080835404028352916020019161053e565b820191906000526020600020905b81548152906001019060200180831161052157829003601f168201915b50505050509250818054600181600116156101000203166002900480601f0160208091040260200160405190810160405280929190818152602001828054600181600116156101000203166002900480156105da5780601f106105af576101008083540402835291602001916105da565b820191906000526020600020905b8154815290600101906020018083116105bd57829003601f168201915b505050505091509250925092509193909250565b600060026000838152602001908152602001600020600401549050919050565b8060026000848152602001908152602001600020600401600082825401925050819055505050565b60008081905550565b60045481565b60008054905090565b828054600181600116156101000203166002900490600052602060002090601f016020900481019282601f1061068f57805160ff19168380011785556106bd565b828001600101855582156106bd579182015b828111156106bc5782518255916020019190600101906106a1565b5b5090506106ca91906106ce565b5090565b6106f091905b808211156106ec5760008160009055506001016106d4565b5090565b90565b600082601f83011261070457600080fd5b8135610717610712826109db565b6109ae565b9150808252602083016020830185838301111561073357600080fd5b61073e838284610a44565b50505092915050565b60008135905061075681610a97565b92915050565b6000806040838503121561076f57600080fd5b600083013567ffffffffffffffff81111561078957600080fd5b610795858286016106f3565b925050602083013567ffffffffffffffff8111156107b257600080fd5b6107be858286016106f3565b9150509250929050565b6000602082840312156107da57600080fd5b60006107e884828501610747565b91505092915050565b6000806040838503121561080457600080fd5b600061081285828601610747565b925050602061082385828601610747565b9150509250929050565b61083681610a2e565b82525050565b600061084782610a12565b6108518185610a1d565b9350610861818560208601610a53565b61086a81610a86565b840191505092915050565b600061088082610a07565b61088a8185610a1d565b935061089a818560208601610a53565b6108a381610a86565b840191505092915050565b6108b781610a3a565b82525050565b600060608201905081810360008301526108d7818661083c565b905081810360208301526108eb818561083c565b90506108fa60408301846108ae565b949350505050565b600060a082019050818103600083015261091c8188610875565b905081810360208301526109308187610875565b905061093f604083018661082d565b61094c60608301856108ae565b61095960808301846108ae565b9695505050505050565b600060208201905061097860008301846108ae565b92915050565b600060408201905061099360008301856108ae565b81810360208301526109a5818461083c565b90509392505050565b6000604051905081810181811067ffffffffffffffff821117156109d157600080fd5b8060405250919050565b600067ffffffffffffffff8211156109f257600080fd5b601f19601f8301169050602081019050919050565b600081519050919050565b600081519050919050565b600082825260208201905092915050565b60008115159050919050565b6000819050919050565b82818337600083830152505050565b60005b83811015610a71578082015181840152602081019050610a56565b83811115610a80576000848401525b50505050565b6000601f19601f8301169050919050565b610aa081610a3a565b8114610aab57600080fd5b5056fea365627a7a72315820604a56ddd9903fc5eb096715d4dd05182db94fecdd5b8bbd983ca1b7b15de2306c6578706572696d656e74616cf564736f6c63430005100040",
  "source": "pragma solidity >=0.4.21 <0.7.0;\npragma experimental ABIEncoderV2;\nimport \"./GovToken.sol\";\n\ncontract ProposalContract {\n    uint public ProposalID = 0;\n    GovToken gt;\n    struct Proposal {\n        string proposal_text;\n        string proposal_title;\n        bool completed;\n        uint epoch;\n        uint votes;\n    }\n\n    mapping(uint => Proposal) public proposals;\n\n    Proposal [] approved_proposals;\n    uint public approved_proposals_count = 0;\n    uint [] approved_proposals_votes;\n\n    event ProposalCreated(uint ProposalID, string proposal_title);\n\n    // constructor() GovToken() public {\n    // }\n\n    function addProposal(string memory proposal_text, string memory proposal_title) public returns (uint){\n        proposals[ProposalID] = Proposal(proposal_text, proposal_title , false , 0,0);\n        emit ProposalCreated(ProposalID, proposal_title);\n        ProposalID++;\n        return ProposalID;\n    }\n\n    function getProposalCount() public view returns (uint){\n      return ProposalID;\n    }\n\n    function getProposalById(uint id) public view returns (string memory  , string memory ,uint ){\n      return (proposals[id].proposal_text,proposals[id].proposal_title,proposals[id].votes);\n    }\n\n    function addVotes(uint id , uint votes)public {\n      proposals[id].votes+=votes;\n    }\n\n    function getVote(uint proposal_id)public view returns (uint){\n      return proposals[proposal_id].votes;\n    }\n    \n    function resetProposalCount() public {\n      ProposalID = 0;\n    }\n}",
  "sourcePath": "/Users/shashwat.arya/Desktop/BlockChain Project (Pied Piper)/BlockChain-Project--Pied-Piper-/contracts/ProposalContract.sol",
  "compiler": {
    "name": "solc",
    "version": "0.5.16+commit.9c3226ce.Emscripten.clang"
  },
  "schemaVersion": "3.4.3",
  "updatedAt": "2021-11-13T00:20:40.731Z",
  "networkType": "ethereum",
  "devdoc": {
    "methods": {}
  },
  "userdoc": {
    "methods": {}
  }
}