{
  "contractName": "ProposalContract",
  "abi": [
    {
      "anonymous": false,
      "inputs": [
        {
          "indexed": false,
          "internalType": "uint256",
          "name": "ProposalID",
          "type": "uint256"
        },
        {
          "indexed": false,
          "internalType": "string",
          "name": "proposal_title",
          "type": "string"
        }
      ],
      "name": "ProposalCreated",
      "type": "event"
    },
    {
      "constant": true,
      "inputs": [],
      "name": "ProposalID",
      "outputs": [
        {
          "internalType": "uint256",
          "name": "",
          "type": "uint256"
        }
      ],
      "payable": false,
      "stateMutability": "view",
      "type": "function"
    },
    {
      "constant": true,
      "inputs": [
        {
          "internalType": "uint256",
          "name": "",
          "type": "uint256"
        },
        {
          "internalType": "uint256",
          "name": "",
          "type": "uint256"
        }
      ],
      "name": "approved_proposals_for_epochs",
      "outputs": [
        {
          "internalType": "string",
          "name": "proposal_text",
          "type": "string"
        },
        {
          "internalType": "string",
          "name": "proposal_title",
          "type": "string"
        },
        {
          "internalType": "uint256",
          "name": "epoch",
          "type": "uint256"
        },
        {
          "internalType": "uint256",
          "name": "votes",
          "type": "uint256"
        }
      ],
      "payable": false,
      "stateMutability": "view",
      "type": "function"
    },
    {
      "constant": true,
      "inputs": [
        {
          "internalType": "uint256",
          "name": "",
          "type": "uint256"
        }
      ],
      "name": "proposal_count_for_epochs",
      "outputs": [
        {
          "internalType": "uint256",
          "name": "",
          "type": "uint256"
        }
      ],
      "payable": false,
      "stateMutability": "view",
      "type": "function"
    },
    {
      "constant": true,
      "inputs": [
        {
          "internalType": "uint256",
          "name": "",
          "type": "uint256"
        },
        {
          "internalType": "uint256",
          "name": "",
          "type": "uint256"
        }
      ],
      "name": "proposals",
      "outputs": [
        {
          "internalType": "string",
          "name": "proposal_text",
          "type": "string"
        },
        {
          "internalType": "string",
          "name": "proposal_title",
          "type": "string"
        },
        {
          "internalType": "uint256",
          "name": "epoch",
          "type": "uint256"
        },
        {
          "internalType": "uint256",
          "name": "votes",
          "type": "uint256"
        }
      ],
      "payable": false,
      "stateMutability": "view",
      "type": "function"
    },
    {
      "constant": false,
      "inputs": [
        {
          "internalType": "string",
          "name": "proposal_text",
          "type": "string"
        },
        {
          "internalType": "string",
          "name": "proposal_title",
          "type": "string"
        }
      ],
      "name": "addProposal",
      "outputs": [
        {
          "internalType": "uint256",
          "name": "",
          "type": "uint256"
        }
      ],
      "payable": false,
      "stateMutability": "nonpayable",
      "type": "function"
    },
    {
      "constant": true,
      "inputs": [],
      "name": "getProposalCount",
      "outputs": [
        {
          "internalType": "uint256",
          "name": "",
          "type": "uint256"
        }
      ],
      "payable": false,
      "stateMutability": "view",
      "type": "function"
    },
    {
      "constant": true,
      "inputs": [
        {
          "internalType": "uint256",
          "name": "id",
          "type": "uint256"
        }
      ],
      "name": "getProposalById",
      "outputs": [
        {
          "internalType": "string",
          "name": "",
          "type": "string"
        },
        {
          "internalType": "string",
          "name": "",
          "type": "string"
        },
        {
          "internalType": "uint256",
          "name": "",
          "type": "uint256"
        }
      ],
      "payable": false,
      "stateMutability": "view",
      "type": "function"
    },
    {
      "constant": false,
      "inputs": [
        {
          "internalType": "uint256",
          "name": "id",
          "type": "uint256"
        },
        {
          "internalType": "uint256",
          "name": "votes",
          "type": "uint256"
        }
      ],
      "name": "addVotes",
      "outputs": [],
      "payable": false,
      "stateMutability": "nonpayable",
      "type": "function"
    },
    {
      "constant": true,
      "inputs": [
        {
          "internalType": "uint256",
          "name": "proposal_id",
          "type": "uint256"
        }
      ],
      "name": "getVote",
      "outputs": [
        {
          "internalType": "uint256",
          "name": "",
          "type": "uint256"
        }
      ],
      "payable": false,
      "stateMutability": "view",
      "type": "function"
    }
  ],
  "bytecode": "0x608060405260008055733d416cfa03d21155529dc2aa7f877137b719ca74600160006101000a81548173ffffffffffffffffffffffffffffffffffffffff021916908373ffffffffffffffffffffffffffffffffffffffff160217905550600160009054906101000a900473ffffffffffffffffffffffffffffffffffffffff16600260006101000a81548173ffffffffffffffffffffffffffffffffffffffff021916908373ffffffffffffffffffffffffffffffffffffffff1602179055503480156100cc57600080fd5b5061106a806100dc6000396000f3fe608060405234801561001057600080fd5b50600436106100935760003560e01c80635a55c1f0116100665780635a55c1f0146101485780637797933f14610178578063b9decedb14610194578063c08cc02d146101c7578063c2cfee27146101e557610093565b806303acbefa146100985780631f6e7c0f146100c857806323d1c95e146100e65780633656de2114610116575b600080fd5b6100b260048036036100ad9190810190610d41565b610218565b6040516100bf9190610ee8565b60405180910390f35b6100d0610230565b6040516100dd9190610ee8565b60405180910390f35b61010060048036036100fb9190810190610cd5565b610236565b60405161010d9190610ee8565b60405180910390f35b610130600480360361012b9190810190610d41565b610400565b60405161013f93929190610e50565b60405180910390f35b610162600480360361015d9190810190610d41565b610664565b60405161016f9190610ee8565b60405180910390f35b610192600480360361018d9190810190610d93565b610734565b005b6101ae60048036036101a99190810190610d93565b61080c565b6040516101be9493929190610e95565b60405180910390f35b6101cf610986565b6040516101dc9190610ee8565b60405180910390f35b6101ff60048036036101fa9190810190610d93565b610a45565b60405161020f9493929190610e95565b60405180910390f35b60046020528060005260406000206000915090505481565b60005481565b600080600260009054906101000a900473ffffffffffffffffffffffffffffffffffffffff1673ffffffffffffffffffffffffffffffffffffffff1663837a9bc76040518163ffffffff1660e01b815260040160206040518083038186803b1580156102a157600080fd5b505afa1580156102b5573d6000803e3d6000fd5b505050506040513d601f19601f820116820180604052506102d99190810190610d6a565b905060405180608001604052808581526020018481526020018281526020016000815250600360008381526020019081526020016000206000600460008581526020019081526020016000205481526020019081526020016000206000820151816000019080519060200190610350929190610bb2565b50602082015181600101908051906020019061036d929190610bb2565b50604082015181600201556060820151816003015590505060046000828152602001908152602001600020600081548092919060010191905055507f9c770c289ab5bf7e57cb1d23c8ceae993aea46eb64847072fd3d78ca60d3e432600054846040516103db929190610f03565b60405180910390a1600460008281526020019081526020016000205491505092915050565b606080600080600260009054906101000a900473ffffffffffffffffffffffffffffffffffffffff1673ffffffffffffffffffffffffffffffffffffffff1663837a9bc76040518163ffffffff1660e01b815260040160206040518083038186803b15801561046e57600080fd5b505afa158015610482573d6000803e3d6000fd5b505050506040513d601f19601f820116820180604052506104a69190810190610d6a565b905060036000828152602001908152602001600020600086815260200190815260200160002060000160036000838152602001908152602001600020600087815260200190815260200160002060010160036000848152602001908152602001600020600088815260200190815260200160002060030154828054600181600116156101000203166002900480601f0160208091040260200160405190810160405280929190818152602001828054600181600116156101000203166002900480156105b35780601f10610588576101008083540402835291602001916105b3565b820191906000526020600020905b81548152906001019060200180831161059657829003601f168201915b50505050509250818054600181600116156101000203166002900480601f01602080910402602001604051908101604052809291908181526020018280546001816001161561010002031660029004801561064f5780601f106106245761010080835404028352916020019161064f565b820191906000526020600020905b81548152906001019060200180831161063257829003601f168201915b50505050509150935093509350509193909250565b600060036000600260009054906101000a900473ffffffffffffffffffffffffffffffffffffffff1673ffffffffffffffffffffffffffffffffffffffff1663837a9bc76040518163ffffffff1660e01b815260040160206040518083038186803b1580156106d257600080fd5b505afa1580156106e6573d6000803e3d6000fd5b505050506040513d601f19601f8201168201806040525061070a9190810190610d6a565b81526020019081526020016000206000838152602001908152602001600020600301549050919050565b8060036000600260009054906101000a900473ffffffffffffffffffffffffffffffffffffffff1673ffffffffffffffffffffffffffffffffffffffff1663837a9bc76040518163ffffffff1660e01b815260040160206040518083038186803b1580156107a157600080fd5b505afa1580156107b5573d6000803e3d6000fd5b505050506040513d601f19601f820116820180604052506107d99190810190610d6a565b81526020019081526020016000206000848152602001908152602001600020600301600082825401925050819055505050565b6005602052816000526040600020818154811061082557fe5b906000526020600020906004020160009150915050806000018054600181600116156101000203166002900480601f0160208091040260200160405190810160405280929190818152602001828054600181600116156101000203166002900480156108d25780601f106108a7576101008083540402835291602001916108d2565b820191906000526020600020905b8154815290600101906020018083116108b557829003601f168201915b505050505090806001018054600181600116156101000203166002900480601f0160208091040260200160405190810160405280929190818152602001828054600181600116156101000203166002900480156109705780601f1061094557610100808354040283529160200191610970565b820191906000526020600020905b81548152906001019060200180831161095357829003601f168201915b5050505050908060020154908060030154905084565b600080600260009054906101000a900473ffffffffffffffffffffffffffffffffffffffff1673ffffffffffffffffffffffffffffffffffffffff1663837a9bc76040518163ffffffff1660e01b815260040160206040518083038186803b1580156109f157600080fd5b505afa158015610a05573d6000803e3d6000fd5b505050506040513d601f19601f82011682018060405250610a299190810190610d6a565b9050600460008281526020019081526020016000205491505090565b600360205281600052604060002060205280600052604060002060009150915050806000018054600181600116156101000203166002900480601f016020809104026020016040519081016040528092919081815260200182805460018160011615610100020316600290048015610afe5780601f10610ad357610100808354040283529160200191610afe565b820191906000526020600020905b815481529060010190602001808311610ae157829003601f168201915b505050505090806001018054600181600116156101000203166002900480601f016020809104026020016040519081016040528092919081815260200182805460018160011615610100020316600290048015610b9c5780601f10610b7157610100808354040283529160200191610b9c565b820191906000526020600020905b815481529060010190602001808311610b7f57829003601f168201915b5050505050908060020154908060030154905084565b828054600181600116156101000203166002900490600052602060002090601f016020900481019282601f10610bf357805160ff1916838001178555610c21565b82800160010185558215610c21579182015b82811115610c20578251825591602001919060010190610c05565b5b509050610c2e9190610c32565b5090565b610c5491905b80821115610c50576000816000905550600101610c38565b5090565b90565b600082601f830112610c6857600080fd5b8135610c7b610c7682610f60565b610f33565b91508082526020830160208301858383011115610c9757600080fd5b610ca2838284610fbd565b50505092915050565b600081359050610cba81611010565b92915050565b600081519050610ccf81611010565b92915050565b60008060408385031215610ce857600080fd5b600083013567ffffffffffffffff811115610d0257600080fd5b610d0e85828601610c57565b925050602083013567ffffffffffffffff811115610d2b57600080fd5b610d3785828601610c57565b9150509250929050565b600060208284031215610d5357600080fd5b6000610d6184828501610cab565b91505092915050565b600060208284031215610d7c57600080fd5b6000610d8a84828501610cc0565b91505092915050565b60008060408385031215610da657600080fd5b6000610db485828601610cab565b9250506020610dc585828601610cab565b9150509250929050565b6000610dda82610f97565b610de48185610fa2565b9350610df4818560208601610fcc565b610dfd81610fff565b840191505092915050565b6000610e1382610f8c565b610e1d8185610fa2565b9350610e2d818560208601610fcc565b610e3681610fff565b840191505092915050565b610e4a81610fb3565b82525050565b60006060820190508181036000830152610e6a8186610dcf565b90508181036020830152610e7e8185610dcf565b9050610e8d6040830184610e41565b949350505050565b60006080820190508181036000830152610eaf8187610e08565b90508181036020830152610ec38186610e08565b9050610ed26040830185610e41565b610edf6060830184610e41565b95945050505050565b6000602082019050610efd6000830184610e41565b92915050565b6000604082019050610f186000830185610e41565b8181036020830152610f2a8184610dcf565b90509392505050565b6000604051905081810181811067ffffffffffffffff82111715610f5657600080fd5b8060405250919050565b600067ffffffffffffffff821115610f7757600080fd5b601f19601f8301169050602081019050919050565b600081519050919050565b600081519050919050565b600082825260208201905092915050565b6000819050919050565b82818337600083830152505050565b60005b83811015610fea578082015181840152602081019050610fcf565b83811115610ff9576000848401525b50505050565b6000601f19601f8301169050919050565b61101981610fb3565b811461102457600080fd5b5056fea365627a7a723158207bce44e67d76bf95df7ef7345d87d72b132fd0aa775081db2b51ab9a2c3e21a96c6578706572696d656e74616cf564736f6c63430005100040",
  "source": "pragma solidity >=0.4.21 <0.7.0;\npragma experimental ABIEncoderV2;\nimport \"./GovToken.sol\";\n\ncontract ProposalContract {\n    uint public ProposalID = 0;\n\n    address govToken_addr  = 0x3D416Cfa03D21155529Dc2aa7f877137B719ca74;\n    GovToken gt = GovToken(govToken_addr);\n    struct Proposal {\n        string proposal_text;\n        string proposal_title;\n        uint epoch;\n        uint votes;\n    }\n\n    mapping (uint => mapping(uint => Proposal)) public proposals;\n    mapping (uint => uint) public proposal_count_for_epochs;\n    mapping (uint => Proposal[]) public approved_proposals_for_epochs;\n\n\n    event ProposalCreated(uint ProposalID, string proposal_title);\n\n    function addProposal(string memory proposal_text, string memory proposal_title) public returns (uint){\n      uint current_e = gt.get_current_epoch();\n      proposals[current_e][proposal_count_for_epochs[current_e]] = Proposal(proposal_text, proposal_title , current_e,0);\n      \n      proposal_count_for_epochs[current_e]++;\n      // if (abi.encodePacked(proposal_count_for_epochs[current_e]).length > 0) {\n      //   proposal_count_for_epochs[current_e]++;\n      // }\n      // else {\n      //   proposal_count_for_epochs[current_e] = 1;\n      // }\n      \n      emit ProposalCreated(ProposalID, proposal_title);\n      return proposal_count_for_epochs[current_e];\n    }\n\n    function getProposalCount() public view returns (uint){\n      // GovToken gov_t;\n      uint current_e = gt.get_current_epoch();\n      return proposal_count_for_epochs[current_e];\n      // return 0;\n    }\n\n    function getProposalById(uint id) public view returns (string memory  , string memory ,uint ){\n      uint current_e = gt.get_current_epoch();\n      return (proposals[current_e][id].proposal_text ,proposals[current_e][id].proposal_title,\n      proposals[current_e][id].votes );\n    }\n\n    function addVotes(uint id , uint votes)public {\n      proposals[gt.get_current_epoch()][id].votes += votes;\n    }\n\n    function getVote(uint proposal_id)public view returns (uint){\n      return proposals[gt.get_current_epoch()][proposal_id].votes;\n    }\n    \n}",
  "sourcePath": "/Users/shashwat.arya/Desktop/BlockChain Project (Pied Piper)/BlockChain-Project--Pied-Piper-/contracts/ProposalContract.sol",
  "compiler": {
    "name": "solc",
    "version": "0.5.16+commit.9c3226ce.Emscripten.clang"
  },
  "schemaVersion": "3.4.3",
  "updatedAt": "2021-11-13T17:31:11.164Z",
  "networkType": "ethereum",
  "devdoc": {
    "methods": {}
  },
  "userdoc": {
    "methods": {}
  }
}