{
  "contractName": "ProposalContract",
  "abi": [
    {
      "anonymous": false,
      "inputs": [
        {
          "indexed": false,
          "internalType": "uint256",
          "name": "ProposalID",
          "type": "uint256"
        },
        {
          "indexed": false,
          "internalType": "string",
          "name": "proposal_title",
          "type": "string"
        }
      ],
      "name": "ProposalCreated",
      "type": "event"
    },
    {
      "constant": true,
      "inputs": [],
      "name": "ProposalID",
      "outputs": [
        {
          "internalType": "uint256",
          "name": "",
          "type": "uint256"
        }
      ],
      "payable": false,
      "stateMutability": "view",
      "type": "function"
    },
    {
      "constant": true,
      "inputs": [
        {
          "internalType": "uint256",
          "name": "",
          "type": "uint256"
        }
      ],
      "name": "proposals",
      "outputs": [
        {
          "internalType": "string",
          "name": "proposal_text",
          "type": "string"
        },
        {
          "internalType": "string",
          "name": "proposal_title",
          "type": "string"
        }
      ],
      "payable": false,
      "stateMutability": "view",
      "type": "function"
    },
    {
      "constant": false,
      "inputs": [
        {
          "internalType": "string",
          "name": "proposal_text",
          "type": "string"
        },
        {
          "internalType": "string",
          "name": "proposal_title",
          "type": "string"
        }
      ],
      "name": "addProposal",
      "outputs": [
        {
          "internalType": "uint256",
          "name": "",
          "type": "uint256"
        }
      ],
      "payable": false,
      "stateMutability": "nonpayable",
      "type": "function"
    },
    {
      "constant": true,
      "inputs": [],
      "name": "getProposalCount",
      "outputs": [
        {
          "internalType": "uint256",
          "name": "",
          "type": "uint256"
        }
      ],
      "payable": false,
      "stateMutability": "view",
      "type": "function"
    },
    {
      "constant": true,
      "inputs": [
        {
          "internalType": "uint256",
          "name": "id",
          "type": "uint256"
        }
      ],
      "name": "getProposalById",
      "outputs": [
        {
          "internalType": "string",
          "name": "proposal_text",
          "type": "string"
        },
        {
          "internalType": "string",
          "name": "proposal_title",
          "type": "string"
        }
      ],
      "payable": false,
      "stateMutability": "view",
      "type": "function"
    }
  ],
  "bytecode": "0x60806040526000805534801561001457600080fd5b506108d0806100246000396000f3fe608060405234801561001057600080fd5b50600436106100575760003560e01c8063013cf08b1461005c5780631f6e7c0f1461008d57806323d1c95e146100ab5780633656de21146100db578063c08cc02d1461010c575b600080fd5b61007660048036036100719190810190610636565b61012a565b604051610084929190610717565b60405180910390f35b61009561027e565b6040516100a2919061074e565b60405180910390f35b6100c560048036036100c091908101906105ca565b610284565b6040516100d2919061074e565b60405180910390f35b6100f560048036036100f09190810190610636565b610343565b6040516101039291906106e0565b60405180910390f35b6101146104b3565b604051610121919061074e565b60405180910390f35b6001602052806000526040600020600091509050806000018054600181600116156101000203166002900480601f0160208091040260200160405190810160405280929190818152602001828054600181600116156101000203166002900480156101d65780601f106101ab576101008083540402835291602001916101d6565b820191906000526020600020905b8154815290600101906020018083116101b957829003601f168201915b505050505090806001018054600181600116156101000203166002900480601f0160208091040260200160405190810160405280929190818152602001828054600181600116156101000203166002900480156102745780601f1061024957610100808354040283529160200191610274565b820191906000526020600020905b81548152906001019060200180831161025757829003601f168201915b5050505050905082565b60005481565b6000604051806040016040528084815260200183815250600160008054815260200190815260200160002060008201518160000190805190602001906102cb9291906104bc565b5060208201518160010190805190602001906102e89291906104bc565b509050507f9c770c289ab5bf7e57cb1d23c8ceae993aea46eb64847072fd3d78ca60d3e4326000548360405161031f929190610769565b60405180910390a16000808154809291906001019190505550600054905092915050565b6060806001600084815260200190815260200160002060000160016000858152602001908152602001600020600101818054600181600116156101000203166002900480601f0160208091040260200160405190810160405280929190818152602001828054600181600116156101000203166002900480156104075780601f106103dc57610100808354040283529160200191610407565b820191906000526020600020905b8154815290600101906020018083116103ea57829003601f168201915b50505050509150808054600181600116156101000203166002900480601f0160208091040260200160405190810160405280929190818152602001828054600181600116156101000203166002900480156104a35780601f10610478576101008083540402835291602001916104a3565b820191906000526020600020905b81548152906001019060200180831161048657829003601f168201915b5050505050905091509150915091565b60008054905090565b828054600181600116156101000203166002900490600052602060002090601f016020900481019282601f106104fd57805160ff191683800117855561052b565b8280016001018555821561052b579182015b8281111561052a57825182559160200191906001019061050f565b5b509050610538919061053c565b5090565b61055e91905b8082111561055a576000816000905550600101610542565b5090565b90565b600082601f83011261057257600080fd5b8135610585610580826107c6565b610799565b915080825260208301602083018583830111156105a157600080fd5b6105ac838284610823565b50505092915050565b6000813590506105c481610876565b92915050565b600080604083850312156105dd57600080fd5b600083013567ffffffffffffffff8111156105f757600080fd5b61060385828601610561565b925050602083013567ffffffffffffffff81111561062057600080fd5b61062c85828601610561565b9150509250929050565b60006020828403121561064857600080fd5b6000610656848285016105b5565b91505092915050565b600061066a826107fd565b6106748185610808565b9350610684818560208601610832565b61068d81610865565b840191505092915050565b60006106a3826107f2565b6106ad8185610808565b93506106bd818560208601610832565b6106c681610865565b840191505092915050565b6106da81610819565b82525050565b600060408201905081810360008301526106fa818561065f565b9050818103602083015261070e818461065f565b90509392505050565b600060408201905081810360008301526107318185610698565b905081810360208301526107458184610698565b90509392505050565b600060208201905061076360008301846106d1565b92915050565b600060408201905061077e60008301856106d1565b8181036020830152610790818461065f565b90509392505050565b6000604051905081810181811067ffffffffffffffff821117156107bc57600080fd5b8060405250919050565b600067ffffffffffffffff8211156107dd57600080fd5b601f19601f8301169050602081019050919050565b600081519050919050565b600081519050919050565b600082825260208201905092915050565b6000819050919050565b82818337600083830152505050565b60005b83811015610850578082015181840152602081019050610835565b8381111561085f576000848401525b50505050565b6000601f19601f8301169050919050565b61087f81610819565b811461088a57600080fd5b5056fea365627a7a7231582035872c98243a25d5cc36f6711be92930e3562e11158be9729ee30c69fceeaf046c6578706572696d656e74616cf564736f6c63430005100040",
  "source": "pragma solidity >=0.4.21 <0.7.0;\npragma experimental ABIEncoderV2;\n\ncontract ProposalContract {\n    uint public ProposalID = 0;\n\n    struct Proposal {\n        string proposal_text;\n        string proposal_title;\n    }\n\n    mapping(uint => Proposal) public proposals;\n\n    event ProposalCreated(uint ProposalID, string proposal_title);\n\n    function addProposal(string memory proposal_text, string memory proposal_title) public returns (uint){\n        proposals[ProposalID] = Proposal(proposal_text, proposal_title);\n        emit ProposalCreated(ProposalID, proposal_title);\n        ProposalID++;\n        return ProposalID;\n    }\n\n    function getProposalCount() public view returns (uint){\n      return ProposalID;\n    }\n\n\n    function getProposalById(uint id) public view returns (string memory proposal_text , string memory proposal_title){\n      return (proposals[id].proposal_text,proposals[id].proposal_title);\n    }\n}",
  "sourcePath": "/Users/kirath/Desktop/BlockChain-Project--Pied-Piper-/contracts/ProposalContract.sol",
  "compiler": {
    "name": "solc",
    "version": "0.5.16+commit.9c3226ce.Emscripten.clang"
  },
  "schemaVersion": "3.4.3",
  "updatedAt": "2021-10-26T19:44:23.874Z",
  "networkType": "ethereum",
  "devdoc": {
    "methods": {}
  },
  "userdoc": {
    "methods": {}
  }
}