{
  "contractName": "ProposalContract",
  "abi": [
    {
      "anonymous": false,
      "inputs": [
        {
          "indexed": false,
          "internalType": "uint256",
          "name": "ProposalID",
          "type": "uint256"
        },
        {
          "indexed": false,
          "internalType": "string",
          "name": "proposal_title",
          "type": "string"
        }
      ],
      "name": "ProposalCreated",
      "type": "event"
    },
    {
      "constant": true,
      "inputs": [],
      "name": "ProposalID",
      "outputs": [
        {
          "internalType": "uint256",
          "name": "",
          "type": "uint256"
        }
      ],
      "payable": false,
      "stateMutability": "view",
      "type": "function"
    },
    {
      "constant": true,
      "inputs": [],
      "name": "approved_proposals_count",
      "outputs": [
        {
          "internalType": "uint256",
          "name": "",
          "type": "uint256"
        }
      ],
      "payable": false,
      "stateMutability": "view",
      "type": "function"
    },
    {
      "constant": true,
      "inputs": [
        {
          "internalType": "uint256",
          "name": "",
          "type": "uint256"
        }
      ],
      "name": "proposals",
      "outputs": [
        {
          "internalType": "string",
          "name": "proposal_text",
          "type": "string"
        },
        {
          "internalType": "string",
          "name": "proposal_title",
          "type": "string"
        },
        {
          "internalType": "bool",
          "name": "completed",
          "type": "bool"
        },
        {
          "internalType": "uint256",
          "name": "epoch",
          "type": "uint256"
        },
        {
          "internalType": "uint256",
          "name": "votes",
          "type": "uint256"
        }
      ],
      "payable": false,
      "stateMutability": "view",
      "type": "function"
    },
    {
      "constant": false,
      "inputs": [
        {
          "internalType": "string",
          "name": "proposal_text",
          "type": "string"
        },
        {
          "internalType": "string",
          "name": "proposal_title",
          "type": "string"
        },
        {
          "internalType": "uint256",
          "name": "current_epoch",
          "type": "uint256"
        }
      ],
      "name": "addProposal",
      "outputs": [
        {
          "internalType": "uint256",
          "name": "",
          "type": "uint256"
        }
      ],
      "payable": false,
      "stateMutability": "nonpayable",
      "type": "function"
    },
    {
      "constant": true,
      "inputs": [],
      "name": "getProposalCount",
      "outputs": [
        {
          "internalType": "uint256",
          "name": "",
          "type": "uint256"
        }
      ],
      "payable": false,
      "stateMutability": "view",
      "type": "function"
    },
    {
      "constant": true,
      "inputs": [
        {
          "internalType": "uint256",
          "name": "id",
          "type": "uint256"
        }
      ],
      "name": "getProposalById",
      "outputs": [
        {
          "internalType": "string",
          "name": "",
          "type": "string"
        },
        {
          "internalType": "string",
          "name": "",
          "type": "string"
        },
        {
          "internalType": "uint256",
          "name": "",
          "type": "uint256"
        }
      ],
      "payable": false,
      "stateMutability": "view",
      "type": "function"
    }
  ],
  "bytecode": "0x608060405260008055600060035534801561001957600080fd5b506109f0806100296000396000f3fe608060405234801561001057600080fd5b50600436106100625760003560e01c8063013cf08b146100675780631f6e7c0f1461009b578063211602af146100b95780633656de21146100e9578063a7d5564c1461011b578063c08cc02d14610139575b600080fd5b610081600480360361007c9190810190610703565b610157565b604051610092959493929190610801565b60405180910390f35b6100a36102ca565b6040516100b09190610862565b60405180910390f35b6100d360048036036100ce9190810190610684565b6102d0565b6040516100e09190610862565b60405180910390f35b61010360048036036100fe9190810190610703565b6103da565b604051610112939291906107bc565b60405180910390f35b610123610567565b6040516101309190610862565b60405180910390f35b61014161056d565b60405161014e9190610862565b60405180910390f35b6001602052806000526040600020600091509050806000018054600181600116156101000203166002900480601f0160208091040260200160405190810160405280929190818152602001828054600181600116156101000203166002900480156102035780601f106101d857610100808354040283529160200191610203565b820191906000526020600020905b8154815290600101906020018083116101e657829003601f168201915b505050505090806001018054600181600116156101000203166002900480601f0160208091040260200160405190810160405280929190818152602001828054600181600116156101000203166002900480156102a15780601f10610276576101008083540402835291602001916102a1565b820191906000526020600020905b81548152906001019060200180831161028457829003601f168201915b5050505050908060020160009054906101000a900460ff16908060030154908060040154905085565b60005481565b60006040518060a0016040528085815260200184815260200160001515815260200183815260200160008152506001600080548152602001908152602001600020600082015181600001908051906020019061032d929190610576565b50602082015181600101908051906020019061034a929190610576565b5060408201518160020160006101000a81548160ff02191690831515021790555060608201518160030155608082015181600401559050507f9c770c289ab5bf7e57cb1d23c8ceae993aea46eb64847072fd3d78ca60d3e432600054846040516103b592919061087d565b60405180910390a1600080815480929190600101919050555060005490509392505050565b606080600060016000858152602001908152602001600020600001600160008681526020019081526020016000206001016001600087815260200190815260200160002060040154828054600181600116156101000203166002900480601f0160208091040260200160405190810160405280929190818152602001828054600181600116156101000203166002900480156104b75780601f1061048c576101008083540402835291602001916104b7565b820191906000526020600020905b81548152906001019060200180831161049a57829003601f168201915b50505050509250818054600181600116156101000203166002900480601f0160208091040260200160405190810160405280929190818152602001828054600181600116156101000203166002900480156105535780601f1061052857610100808354040283529160200191610553565b820191906000526020600020905b81548152906001019060200180831161053657829003601f168201915b505050505091509250925092509193909250565b60035481565b60008054905090565b828054600181600116156101000203166002900490600052602060002090601f016020900481019282601f106105b757805160ff19168380011785556105e5565b828001600101855582156105e5579182015b828111156105e45782518255916020019190600101906105c9565b5b5090506105f291906105f6565b5090565b61061891905b808211156106145760008160009055506001016105fc565b5090565b90565b600082601f83011261062c57600080fd5b813561063f61063a826108da565b6108ad565b9150808252602083016020830185838301111561065b57600080fd5b610666838284610943565b50505092915050565b60008135905061067e81610996565b92915050565b60008060006060848603121561069957600080fd5b600084013567ffffffffffffffff8111156106b357600080fd5b6106bf8682870161061b565b935050602084013567ffffffffffffffff8111156106dc57600080fd5b6106e88682870161061b565b92505060406106f98682870161066f565b9150509250925092565b60006020828403121561071557600080fd5b60006107238482850161066f565b91505092915050565b6107358161092d565b82525050565b600061074682610911565b610750818561091c565b9350610760818560208601610952565b61076981610985565b840191505092915050565b600061077f82610906565b610789818561091c565b9350610799818560208601610952565b6107a281610985565b840191505092915050565b6107b681610939565b82525050565b600060608201905081810360008301526107d6818661073b565b905081810360208301526107ea818561073b565b90506107f960408301846107ad565b949350505050565b600060a082019050818103600083015261081b8188610774565b9050818103602083015261082f8187610774565b905061083e604083018661072c565b61084b60608301856107ad565b61085860808301846107ad565b9695505050505050565b600060208201905061087760008301846107ad565b92915050565b600060408201905061089260008301856107ad565b81810360208301526108a4818461073b565b90509392505050565b6000604051905081810181811067ffffffffffffffff821117156108d057600080fd5b8060405250919050565b600067ffffffffffffffff8211156108f157600080fd5b601f19601f8301169050602081019050919050565b600081519050919050565b600081519050919050565b600082825260208201905092915050565b60008115159050919050565b6000819050919050565b82818337600083830152505050565b60005b83811015610970578082015181840152602081019050610955565b8381111561097f576000848401525b50505050565b6000601f19601f8301169050919050565b61099f81610939565b81146109aa57600080fd5b5056fea365627a7a723158208f25476652123f20cf90be7d55bec68e6dedcf362bd35a70febe617cee334e706c6578706572696d656e74616cf564736f6c63430005100040",
  "source": "pragma solidity >=0.4.21 <0.7.0;\npragma experimental ABIEncoderV2;\nimport \"./GovToken.sol\";\n\ncontract ProposalContract {\n    uint public ProposalID = 0;\n\n    struct Proposal {\n        string proposal_text;\n        string proposal_title;\n        bool completed;\n        uint epoch;\n        uint votes;\n    }\n\n    mapping(uint => Proposal) public proposals;\n\n    Proposal [] approved_proposals;\n    uint public approved_proposals_count = 0;\n    uint [] approved_proposals_votes;\n\n    event ProposalCreated(uint ProposalID, string proposal_title);\n\n    // constructor() GovToken() public {\n    // }\n\n    function addProposal(string memory proposal_text, string memory proposal_title, uint current_epoch) public returns (uint){\n        proposals[ProposalID] = Proposal(proposal_text, proposal_title , false , current_epoch,0);\n        emit ProposalCreated(ProposalID, proposal_title);\n        ProposalID++;\n        return ProposalID;\n    }\n\n    function getProposalCount() public view returns (uint){\n      return ProposalID;\n    }\n\n    function getProposalById(uint id) public view returns (string memory  , string memory ,uint ){\n      return (proposals[id].proposal_text,proposals[id].proposal_title,proposals[id].votes);\n    }\n\n    \n\n    \n\n\n}",
  "sourcePath": "/Users/shashwat.arya/Desktop/BlockChain Project (Pied Piper)/BlockChain-Project--Pied-Piper-/contracts/ProposalContract.sol",
  "compiler": {
    "name": "solc",
    "version": "0.5.16+commit.9c3226ce.Emscripten.clang"
  },
  "schemaVersion": "3.4.3",
  "updatedAt": "2021-11-11T13:20:38.931Z",
  "devdoc": {
    "methods": {}
  },
  "userdoc": {
    "methods": {}
  }
}