{
  "contractName": "ProposalContract",
  "abi": [
    {
      "anonymous": false,
      "inputs": [
        {
          "indexed": false,
          "internalType": "uint256",
          "name": "ProposalID",
          "type": "uint256"
        },
        {
          "indexed": false,
          "internalType": "string",
          "name": "proposal_title",
          "type": "string"
        }
      ],
      "name": "ProposalCreated",
      "type": "event"
    },
    {
      "constant": true,
      "inputs": [],
      "name": "ProposalID",
      "outputs": [
        {
          "internalType": "uint256",
          "name": "",
          "type": "uint256"
        }
      ],
      "payable": false,
      "stateMutability": "view",
      "type": "function"
    },
    {
      "constant": true,
      "inputs": [
        {
          "internalType": "uint256",
          "name": "",
          "type": "uint256"
        }
      ],
      "name": "proposals",
      "outputs": [
        {
          "internalType": "string",
          "name": "proposal_text",
          "type": "string"
        },
        {
          "internalType": "string",
          "name": "proposal_title",
          "type": "string"
        }
      ],
      "payable": false,
      "stateMutability": "view",
      "type": "function"
    },
    {
      "constant": false,
      "inputs": [
        {
          "internalType": "string",
          "name": "proposal_text",
          "type": "string"
        },
        {
          "internalType": "string",
          "name": "proposal_title",
          "type": "string"
        }
      ],
      "name": "addProposal",
      "outputs": [],
      "payable": false,
      "stateMutability": "nonpayable",
      "type": "function"
    },
    {
      "constant": true,
      "inputs": [],
      "name": "getProposals",
      "outputs": [
        {
          "internalType": "string",
          "name": "",
          "type": "string"
        }
      ],
      "payable": false,
      "stateMutability": "view",
      "type": "function"
    }
  ],
  "bytecode": "0x60806040526000805534801561001457600080fd5b5061072b806100246000396000f3fe608060405234801561001057600080fd5b506004361061004c5760003560e01c8063013cf08b146100515780631f6e7c0f1461008257806323d1c95e146100a057806362564c48146100bc575b600080fd5b61006b600480360361006691908101906104a6565b6100da565b604051610079929190610572565b60405180910390f35b61008a61022e565b60405161009791906105a9565b60405180910390f35b6100ba60048036036100b5919081019061043a565b610234565b005b6100c46102ea565b6040516100d19190610550565b60405180910390f35b6001602052806000526040600020600091509050806000018054600181600116156101000203166002900480601f0160208091040260200160405190810160405280929190818152602001828054600181600116156101000203166002900480156101865780601f1061015b57610100808354040283529160200191610186565b820191906000526020600020905b81548152906001019060200180831161016957829003601f168201915b505050505090806001018054600181600116156101000203166002900480601f0160208091040260200160405190810160405280929190818152602001828054600181600116156101000203166002900480156102245780601f106101f957610100808354040283529160200191610224565b820191906000526020600020905b81548152906001019060200180831161020757829003601f168201915b5050505050905082565b60005481565b6040518060400160405280838152602001828152506001600080548152602001908152602001600020600082015181600001908051906020019061027992919061032c565b50602082015181600101908051906020019061029692919061032c565b5090505060008081548092919060010191905055507f9c770c289ab5bf7e57cb1d23c8ceae993aea46eb64847072fd3d78ca60d3e432600054826040516102de9291906105c4565b60405180910390a15050565b6060806040518060400160405280601681526020017f52455455524e494e47205354524f4e494e47524547440000000000000000000081525090508091505090565b828054600181600116156101000203166002900490600052602060002090601f016020900481019282601f1061036d57805160ff191683800117855561039b565b8280016001018555821561039b579182015b8281111561039a57825182559160200191906001019061037f565b5b5090506103a891906103ac565b5090565b6103ce91905b808211156103ca5760008160009055506001016103b2565b5090565b90565b600082601f8301126103e257600080fd5b81356103f56103f082610621565b6105f4565b9150808252602083016020830185838301111561041157600080fd5b61041c83828461067e565b50505092915050565b600081359050610434816106d1565b92915050565b6000806040838503121561044d57600080fd5b600083013567ffffffffffffffff81111561046757600080fd5b610473858286016103d1565b925050602083013567ffffffffffffffff81111561049057600080fd5b61049c858286016103d1565b9150509250929050565b6000602082840312156104b857600080fd5b60006104c684828501610425565b91505092915050565b60006104da82610658565b6104e48185610663565b93506104f481856020860161068d565b6104fd816106c0565b840191505092915050565b60006105138261064d565b61051d8185610663565b935061052d81856020860161068d565b610536816106c0565b840191505092915050565b61054a81610674565b82525050565b6000602082019050818103600083015261056a81846104cf565b905092915050565b6000604082019050818103600083015261058c8185610508565b905081810360208301526105a08184610508565b90509392505050565b60006020820190506105be6000830184610541565b92915050565b60006040820190506105d96000830185610541565b81810360208301526105eb81846104cf565b90509392505050565b6000604051905081810181811067ffffffffffffffff8211171561061757600080fd5b8060405250919050565b600067ffffffffffffffff82111561063857600080fd5b601f19601f8301169050602081019050919050565b600081519050919050565b600081519050919050565b600082825260208201905092915050565b6000819050919050565b82818337600083830152505050565b60005b838110156106ab578082015181840152602081019050610690565b838111156106ba576000848401525b50505050565b6000601f19601f8301169050919050565b6106da81610674565b81146106e557600080fd5b5056fea365627a7a72315820def6c91071a66dfa9130f3d4d0ccb697d0cf08d105991564059c402f3799251f6c6578706572696d656e74616cf564736f6c63430005100040",
  "source": "pragma solidity >=0.4.21 <0.7.0;\npragma experimental ABIEncoderV2;\n\ncontract ProposalContract {\n    uint public ProposalID = 0;\n\n    struct Proposal {\n        string proposal_text;\n        string proposal_title;\n    }\n\n    mapping(uint => Proposal) public proposals;\n\n    // modifier onlyOwner() {\n    //     require(msg.sender == owner);\n    //     _;\n    // }\n\n    event ProposalCreated(uint ProposalID, string proposal_title);\n\n    function addProposal(string memory proposal_text, string memory proposal_title) public {\n        proposals[ProposalID] = Proposal(proposal_text, proposal_title);\n        ProposalID++;\n        emit ProposalCreated(ProposalID, proposal_title);\n    }\n\n    function getProposals() public view returns (string memory) {\n        // Proposal[] memory ret = new Proposal[](ProposalID);\n        // for (uint i = 0; i < ProposalID; i++) {\n        //     ret[i] = proposals[i];\n        // }\n        string memory temp = \"RETURNING STRONINGREGD\";\n        return temp;\n    }\n}",
  "sourcePath": "/Users/shashwat.arya/Desktop/BlockChain Project (Pied Piper)/BlockChain-Project--Pied-Piper-/contracts/ProposalContract.sol",
  "compiler": {
    "name": "solc",
    "version": "0.5.16+commit.9c3226ce.Emscripten.clang"
  },
  "schemaVersion": "3.4.3",
  "updatedAt": "2021-10-22T10:48:28.291Z",
  "devdoc": {
    "methods": {}
  },
  "userdoc": {
    "methods": {}
  }
}