{
  "contractName": "ProposalContract",
  "abi": [
    {
      "anonymous": false,
      "inputs": [
        {
          "indexed": false,
          "internalType": "uint256",
          "name": "ProposalID",
          "type": "uint256"
        },
        {
          "indexed": false,
          "internalType": "string",
          "name": "proposal_title",
          "type": "string"
        }
      ],
      "name": "ProposalCreated",
      "type": "event"
    },
    {
      "constant": true,
      "inputs": [
        {
          "internalType": "uint256",
          "name": "",
          "type": "uint256"
        },
        {
          "internalType": "uint256",
          "name": "",
          "type": "uint256"
        }
      ],
      "name": "approved_proposals_for_epochs",
      "outputs": [
        {
          "internalType": "string",
          "name": "proposal_text",
          "type": "string"
        },
        {
          "internalType": "string",
          "name": "proposal_title",
          "type": "string"
        },
        {
          "internalType": "uint256",
          "name": "epoch",
          "type": "uint256"
        },
        {
          "internalType": "uint256",
          "name": "votes",
          "type": "uint256"
        },
        {
          "internalType": "address",
          "name": "proposer",
          "type": "address"
        }
      ],
      "payable": false,
      "stateMutability": "view",
      "type": "function"
    },
    {
      "constant": true,
      "inputs": [
        {
          "internalType": "uint256",
          "name": "",
          "type": "uint256"
        }
      ],
      "name": "proposal_count_for_epochs",
      "outputs": [
        {
          "internalType": "uint256",
          "name": "",
          "type": "uint256"
        }
      ],
      "payable": false,
      "stateMutability": "view",
      "type": "function"
    },
    {
      "constant": true,
      "inputs": [
        {
          "internalType": "uint256",
          "name": "",
          "type": "uint256"
        },
        {
          "internalType": "uint256",
          "name": "",
          "type": "uint256"
        }
      ],
      "name": "proposals",
      "outputs": [
        {
          "internalType": "string",
          "name": "proposal_text",
          "type": "string"
        },
        {
          "internalType": "string",
          "name": "proposal_title",
          "type": "string"
        },
        {
          "internalType": "uint256",
          "name": "epoch",
          "type": "uint256"
        },
        {
          "internalType": "uint256",
          "name": "votes",
          "type": "uint256"
        },
        {
          "internalType": "address",
          "name": "proposer",
          "type": "address"
        }
      ],
      "payable": false,
      "stateMutability": "view",
      "type": "function"
    },
    {
      "constant": false,
      "inputs": [
        {
          "internalType": "string",
          "name": "proposal_text",
          "type": "string"
        },
        {
          "internalType": "string",
          "name": "proposal_title",
          "type": "string"
        }
      ],
      "name": "addProposal",
      "outputs": [
        {
          "internalType": "uint256",
          "name": "",
          "type": "uint256"
        }
      ],
      "payable": false,
      "stateMutability": "nonpayable",
      "type": "function"
    },
    {
      "constant": true,
      "inputs": [],
      "name": "getProposalCount",
      "outputs": [
        {
          "internalType": "uint256",
          "name": "",
          "type": "uint256"
        }
      ],
      "payable": false,
      "stateMutability": "view",
      "type": "function"
    },
    {
      "constant": true,
      "inputs": [
        {
          "internalType": "uint256",
          "name": "id",
          "type": "uint256"
        }
      ],
      "name": "getProposalById",
      "outputs": [
        {
          "internalType": "string",
          "name": "",
          "type": "string"
        },
        {
          "internalType": "string",
          "name": "",
          "type": "string"
        },
        {
          "internalType": "uint256",
          "name": "",
          "type": "uint256"
        },
        {
          "internalType": "address",
          "name": "",
          "type": "address"
        }
      ],
      "payable": false,
      "stateMutability": "view",
      "type": "function"
    },
    {
      "constant": true,
      "inputs": [
        {
          "internalType": "uint256",
          "name": "id",
          "type": "uint256"
        }
      ],
      "name": "getProposer",
      "outputs": [
        {
          "internalType": "address",
          "name": "",
          "type": "address"
        }
      ],
      "payable": false,
      "stateMutability": "view",
      "type": "function"
    },
    {
      "constant": false,
      "inputs": [
        {
          "internalType": "uint256",
          "name": "id",
          "type": "uint256"
        },
        {
          "internalType": "uint256",
          "name": "votes",
          "type": "uint256"
        }
      ],
      "name": "addVotes",
      "outputs": [],
      "payable": false,
      "stateMutability": "nonpayable",
      "type": "function"
    },
    {
      "constant": true,
      "inputs": [
        {
          "internalType": "uint256",
          "name": "proposal_id",
          "type": "uint256"
        }
      ],
      "name": "getVote",
      "outputs": [
        {
          "internalType": "uint256",
          "name": "",
          "type": "uint256"
        }
      ],
      "payable": false,
      "stateMutability": "view",
      "type": "function"
    },
    {
      "constant": true,
      "inputs": [
        {
          "internalType": "uint256",
          "name": "id",
          "type": "uint256"
        },
        {
          "internalType": "uint256",
          "name": "epoch",
          "type": "uint256"
        }
      ],
      "name": "getPastProposal",
      "outputs": [
        {
          "internalType": "string",
          "name": "",
          "type": "string"
        },
        {
          "internalType": "string",
          "name": "",
          "type": "string"
        },
        {
          "internalType": "uint256",
          "name": "",
          "type": "uint256"
        },
        {
          "internalType": "address",
          "name": "",
          "type": "address"
        }
      ],
      "payable": false,
      "stateMutability": "view",
      "type": "function"
    },
    {
      "constant": true,
      "inputs": [
        {
          "internalType": "uint256",
          "name": "epoch",
          "type": "uint256"
        }
      ],
      "name": "getPastProposalCount",
      "outputs": [
        {
          "internalType": "uint256",
          "name": "",
          "type": "uint256"
        }
      ],
      "payable": false,
      "stateMutability": "view",
      "type": "function"
    },
    {
      "constant": true,
      "inputs": [],
      "name": "get_current_epoch",
      "outputs": [
        {
          "internalType": "uint256",
          "name": "",
          "type": "uint256"
        }
      ],
      "payable": false,
      "stateMutability": "view",
      "type": "function"
    }
  ],
  "bytecode": "0x6080604052733d416cfa03d21155529dc2aa7f877137b719ca746000806101000a81548173ffffffffffffffffffffffffffffffffffffffff021916908373ffffffffffffffffffffffffffffffffffffffff1602179055506000809054906101000a900473ffffffffffffffffffffffffffffffffffffffff16600160006101000a81548173ffffffffffffffffffffffffffffffffffffffff021916908373ffffffffffffffffffffffffffffffffffffffff1602179055503480156100c657600080fd5b5061185b806100d66000396000f3fe608060405234801561001057600080fd5b50600436106100b45760003560e01c8063a52253bc11610071578063a52253bc146101b6578063b9decedb146101e6578063c08cc02d1461021a578063c2cfee2714610238578063e14bd8741461026c578063f86067aa1461029c576100b4565b806303acbefa146100b957806323d1c95e146100e95780633656de21146101195780635a55c1f01461014c5780637797933f1461017c578063837a9bc714610198575b600080fd5b6100d360048036036100ce91908101906114ba565b6102cf565b6040516100e091906116a7565b60405180910390f35b61010360048036036100fe919081019061144e565b6102e7565b60405161011091906116a7565b60405180910390f35b610133600480360361012e91908101906114ba565b610525565b60405161014394939291906115f3565b60405180910390f35b610166600480360361016191908101906114ba565b6107e1565b60405161017391906116a7565b60405180910390f35b6101966004803603610191919081019061150c565b6108b1565b005b6101a0610989565b6040516101ad91906116a7565b60405180910390f35b6101d060048036036101cb91908101906114ba565b610a30565b6040516101dd91906116a7565b60405180910390f35b61020060048036036101fb919081019061150c565b610a4d565b604051610211959493929190611646565b60405180910390f35b610222610bed565b60405161022f91906116a7565b60405180910390f35b610252600480360361024d919081019061150c565b610cac565b604051610263959493929190611646565b60405180910390f35b610286600480360361028191908101906114ba565b610e3f565b60405161029391906115d8565b60405180910390f35b6102b660048036036102b1919081019061150c565b6110d9565b6040516102c694939291906115f3565b60405180910390f35b60036020528060005260406000206000915090505481565b600080600160009054906101000a900473ffffffffffffffffffffffffffffffffffffffff1673ffffffffffffffffffffffffffffffffffffffff1663837a9bc76040518163ffffffff1660e01b815260040160206040518083038186803b15801561035257600080fd5b505afa158015610366573d6000803e3d6000fd5b505050506040513d601f19601f8201168201806040525061038a91908101906114e3565b90506040518060a00160405280858152602001848152602001828152602001600081526020013373ffffffffffffffffffffffffffffffffffffffff1681525060026000838152602001908152602001600020600060036000858152602001908152602001600020548152602001908152602001600020600082015181600001908051906020019061041d9291906112e6565b50602082015181600101908051906020019061043a9291906112e6565b50604082015181600201556060820151816003015560808201518160040160006101000a81548173ffffffffffffffffffffffffffffffffffffffff021916908373ffffffffffffffffffffffffffffffffffffffff16021790555090505060036000828152602001908152602001600020600081548092919060010191905055507f9c770c289ab5bf7e57cb1d23c8ceae993aea46eb64847072fd3d78ca60d3e4326003600083815260200190815260200160002054846040516105009291906116c2565b60405180910390a1600360008281526020019081526020016000205491505092915050565b6060806000806000600160009054906101000a900473ffffffffffffffffffffffffffffffffffffffff1673ffffffffffffffffffffffffffffffffffffffff1663837a9bc76040518163ffffffff1660e01b815260040160206040518083038186803b15801561059557600080fd5b505afa1580156105a9573d6000803e3d6000fd5b505050506040513d601f19601f820116820180604052506105cd91908101906114e3565b90506105d7611366565b6002600083815260200190815260200160002060008881526020019081526020016000206040518060a0016040529081600082018054600181600116156101000203166002900480601f01602080910402602001604051908101604052809291908181526020018280546001816001161561010002031660029004801561069f5780601f106106745761010080835404028352916020019161069f565b820191906000526020600020905b81548152906001019060200180831161068257829003601f168201915b50505050508152602001600182018054600181600116156101000203166002900480601f0160208091040260200160405190810160405280929190818152602001828054600181600116156101000203166002900480156107415780601f1061071657610100808354040283529160200191610741565b820191906000526020600020905b81548152906001019060200180831161072457829003601f168201915b5050505050815260200160028201548152602001600382015481526020016004820160009054906101000a900473ffffffffffffffffffffffffffffffffffffffff1673ffffffffffffffffffffffffffffffffffffffff1673ffffffffffffffffffffffffffffffffffffffff168152505090508060000151816020015182606001518360800151839350829250955095509550955050509193509193565b600060026000600160009054906101000a900473ffffffffffffffffffffffffffffffffffffffff1673ffffffffffffffffffffffffffffffffffffffff1663837a9bc76040518163ffffffff1660e01b815260040160206040518083038186803b15801561084f57600080fd5b505afa158015610863573d6000803e3d6000fd5b505050506040513d601f19601f8201168201806040525061088791908101906114e3565b81526020019081526020016000206000838152602001908152602001600020600301549050919050565b8060026000600160009054906101000a900473ffffffffffffffffffffffffffffffffffffffff1673ffffffffffffffffffffffffffffffffffffffff1663837a9bc76040518163ffffffff1660e01b815260040160206040518083038186803b15801561091e57600080fd5b505afa158015610932573d6000803e3d6000fd5b505050506040513d601f19601f8201168201806040525061095691908101906114e3565b81526020019081526020016000206000848152602001908152602001600020600301600082825401925050819055505050565b6000600160009054906101000a900473ffffffffffffffffffffffffffffffffffffffff1673ffffffffffffffffffffffffffffffffffffffff1663837a9bc76040518163ffffffff1660e01b815260040160206040518083038186803b1580156109f357600080fd5b505afa158015610a07573d6000803e3d6000fd5b505050506040513d601f19601f82011682018060405250610a2b91908101906114e3565b905090565b600060036000838152602001908152602001600020549050919050565b60046020528160005260406000208181548110610a6657fe5b906000526020600020906005020160009150915050806000018054600181600116156101000203166002900480601f016020809104026020016040519081016040528092919081815260200182805460018160011615610100020316600290048015610b135780601f10610ae857610100808354040283529160200191610b13565b820191906000526020600020905b815481529060010190602001808311610af657829003601f168201915b505050505090806001018054600181600116156101000203166002900480601f016020809104026020016040519081016040528092919081815260200182805460018160011615610100020316600290048015610bb15780601f10610b8657610100808354040283529160200191610bb1565b820191906000526020600020905b815481529060010190602001808311610b9457829003601f168201915b5050505050908060020154908060030154908060040160009054906101000a900473ffffffffffffffffffffffffffffffffffffffff16905085565b600080600160009054906101000a900473ffffffffffffffffffffffffffffffffffffffff1673ffffffffffffffffffffffffffffffffffffffff1663837a9bc76040518163ffffffff1660e01b815260040160206040518083038186803b158015610c5857600080fd5b505afa158015610c6c573d6000803e3d6000fd5b505050506040513d601f19601f82011682018060405250610c9091908101906114e3565b9050600360008281526020019081526020016000205491505090565b600260205281600052604060002060205280600052604060002060009150915050806000018054600181600116156101000203166002900480601f016020809104026020016040519081016040528092919081815260200182805460018160011615610100020316600290048015610d655780601f10610d3a57610100808354040283529160200191610d65565b820191906000526020600020905b815481529060010190602001808311610d4857829003601f168201915b505050505090806001018054600181600116156101000203166002900480601f016020809104026020016040519081016040528092919081815260200182805460018160011615610100020316600290048015610e035780601f10610dd857610100808354040283529160200191610e03565b820191906000526020600020905b815481529060010190602001808311610de657829003601f168201915b5050505050908060020154908060030154908060040160009054906101000a900473ffffffffffffffffffffffffffffffffffffffff16905085565b600080600160009054906101000a900473ffffffffffffffffffffffffffffffffffffffff1673ffffffffffffffffffffffffffffffffffffffff1663837a9bc76040518163ffffffff1660e01b815260040160206040518083038186803b158015610eaa57600080fd5b505afa158015610ebe573d6000803e3d6000fd5b505050506040513d601f19601f82011682018060405250610ee291908101906114e3565b9050610eec611366565b6002600083815260200190815260200160002060008581526020019081526020016000206040518060a0016040529081600082018054600181600116156101000203166002900480601f016020809104026020016040519081016040528092919081815260200182805460018160011615610100020316600290048015610fb45780601f10610f8957610100808354040283529160200191610fb4565b820191906000526020600020905b815481529060010190602001808311610f9757829003601f168201915b50505050508152602001600182018054600181600116156101000203166002900480601f0160208091040260200160405190810160405280929190818152602001828054600181600116156101000203166002900480156110565780601f1061102b57610100808354040283529160200191611056565b820191906000526020600020905b81548152906001019060200180831161103957829003601f168201915b5050505050815260200160028201548152602001600382015481526020016004820160009054906101000a900473ffffffffffffffffffffffffffffffffffffffff1673ffffffffffffffffffffffffffffffffffffffff1673ffffffffffffffffffffffffffffffffffffffff16815250509050806080015192505050919050565b606080600080600260008681526020019081526020016000206000878152602001908152602001600020600101600260008781526020019081526020016000206000888152602001908152602001600020600001600260008881526020019081526020016000206000898152602001908152602001600020600301546002600089815260200190815260200160002060008a815260200190815260200160002060040160009054906101000a900473ffffffffffffffffffffffffffffffffffffffff16838054600181600116156101000203166002900480601f0160208091040260200160405190810160405280929190818152602001828054600181600116156101000203166002900480156112325780601f1061120757610100808354040283529160200191611232565b820191906000526020600020905b81548152906001019060200180831161121557829003601f168201915b50505050509350828054600181600116156101000203166002900480601f0160208091040260200160405190810160405280929190818152602001828054600181600116156101000203166002900480156112ce5780601f106112a3576101008083540402835291602001916112ce565b820191906000526020600020905b8154815290600101906020018083116112b157829003601f168201915b50505050509250935093509350935092959194509250565b828054600181600116156101000203166002900490600052602060002090601f016020900481019282601f1061132757805160ff1916838001178555611355565b82800160010185558215611355579182015b82811115611354578251825591602001919060010190611339565b5b50905061136291906113ab565b5090565b6040518060a0016040528060608152602001606081526020016000815260200160008152602001600073ffffffffffffffffffffffffffffffffffffffff1681525090565b6113cd91905b808211156113c95760008160009055506001016113b1565b5090565b90565b600082601f8301126113e157600080fd5b81356113f46113ef8261171f565b6116f2565b9150808252602083016020830185838301111561141057600080fd5b61141b8382846117ae565b50505092915050565b60008135905061143381611801565b92915050565b60008151905061144881611801565b92915050565b6000806040838503121561146157600080fd5b600083013567ffffffffffffffff81111561147b57600080fd5b611487858286016113d0565b925050602083013567ffffffffffffffff8111156114a457600080fd5b6114b0858286016113d0565b9150509250929050565b6000602082840312156114cc57600080fd5b60006114da84828501611424565b91505092915050565b6000602082840312156114f557600080fd5b600061150384828501611439565b91505092915050565b6000806040838503121561151f57600080fd5b600061152d85828601611424565b925050602061153e85828601611424565b9150509250929050565b61155181611772565b82525050565b600061156282611756565b61156c8185611761565b935061157c8185602086016117bd565b611585816117f0565b840191505092915050565b600061159b8261174b565b6115a58185611761565b93506115b58185602086016117bd565b6115be816117f0565b840191505092915050565b6115d2816117a4565b82525050565b60006020820190506115ed6000830184611548565b92915050565b6000608082019050818103600083015261160d8187611557565b905081810360208301526116218186611557565b905061163060408301856115c9565b61163d6060830184611548565b95945050505050565b600060a08201905081810360008301526116608188611590565b905081810360208301526116748187611590565b905061168360408301866115c9565b61169060608301856115c9565b61169d6080830184611548565b9695505050505050565b60006020820190506116bc60008301846115c9565b92915050565b60006040820190506116d760008301856115c9565b81810360208301526116e98184611557565b90509392505050565b6000604051905081810181811067ffffffffffffffff8211171561171557600080fd5b8060405250919050565b600067ffffffffffffffff82111561173657600080fd5b601f19601f8301169050602081019050919050565b600081519050919050565b600081519050919050565b600082825260208201905092915050565b600061177d82611784565b9050919050565b600073ffffffffffffffffffffffffffffffffffffffff82169050919050565b6000819050919050565b82818337600083830152505050565b60005b838110156117db5780820151818401526020810190506117c0565b838111156117ea576000848401525b50505050565b6000601f19601f8301169050919050565b61180a816117a4565b811461181557600080fd5b5056fea365627a7a72315820da171414a0ee41070eed0d2d908219494768998fc65795b01df2c0899ffa92d16c6578706572696d656e74616cf564736f6c63430005100040",
  "source": "pragma solidity >=0.4.21 <0.7.0;\npragma experimental ABIEncoderV2;\nimport \"./GovToken.sol\";\n\ncontract ProposalContract {\n  // change deployment addresses after deployment\n    address govToken_addr  = 0x3D416Cfa03D21155529Dc2aa7f877137B719ca74;\n    GovToken gt = GovToken(govToken_addr);\n    struct Proposal {\n        string proposal_text;\n        string proposal_title;\n        uint epoch;\n        uint votes;\n        address proposer;\n    }\n    \n    mapping (uint => mapping(uint => Proposal)) public proposals;\n    mapping (uint => uint) public proposal_count_for_epochs;\n    mapping (uint => Proposal[]) public approved_proposals_for_epochs;\n\n\n    event ProposalCreated(uint ProposalID, string proposal_title);\n\n    function addProposal(string memory proposal_text, string memory proposal_title) public returns (uint){\n      uint current_e = gt.get_current_epoch();\n      proposals[current_e][proposal_count_for_epochs[current_e]] = Proposal(proposal_text, proposal_title , current_e,0, msg.sender);\n      proposal_count_for_epochs[current_e]++;\n      emit ProposalCreated(proposal_count_for_epochs[current_e], proposal_title);\n      return proposal_count_for_epochs[current_e];\n    }\n\n    function getProposalCount() public view returns (uint){\n      uint current_e = gt.get_current_epoch();\n      return proposal_count_for_epochs[current_e];\n    }\n\n    function getProposalById(uint id) public view returns (string memory  , string memory ,uint, address ){\n      uint current_e = gt.get_current_epoch();\n      Proposal memory proposal = proposals[current_e][id];\n      return (proposal.proposal_text, proposal.proposal_title, proposal.votes, proposal.proposer);\n    }\n    \n    function getProposer(uint id) public view returns (address){\n      uint current_e = gt.get_current_epoch();\n      Proposal memory proposal = proposals[current_e][id];\n      return proposal.proposer;\n    }\n\n    function addVotes(uint id , uint votes)public {\n      proposals[gt.get_current_epoch()][id].votes += votes;\n    }\n\n    function getVote(uint proposal_id)public view returns (uint){\n      return proposals[gt.get_current_epoch()][proposal_id].votes;\n    }\n\n    function getPastProposal(uint id , uint epoch) public view returns(string memory , string memory , uint , address){\n      return (proposals[epoch][id].proposal_title , proposals[epoch][id].proposal_text , proposals[epoch][id].votes , proposals[epoch][id].proposer);\n    }\n\n    function getPastProposalCount(uint epoch) public view returns (uint) {\n      return (proposal_count_for_epochs[epoch]);\n    }\n\n    function get_current_epoch() public view returns (uint) {\n      return gt.get_current_epoch();\n    }\n    \n}",
  "sourcePath": "/Users/shashwat.arya/Desktop/BlockChain Project (Pied Piper)/BlockChain-Project--Pied-Piper-/contracts/ProposalContract.sol",
  "compiler": {
    "name": "solc",
    "version": "0.5.16+commit.9c3226ce.Emscripten.clang"
  },
  "schemaVersion": "3.4.3",
  "updatedAt": "2021-11-17T09:59:03.373Z",
  "networkType": "ethereum",
  "devdoc": {
    "methods": {}
  },
  "userdoc": {
    "methods": {}
  }
}