{
  "contractName": "ProposalContract",
  "abi": [
    {
      "anonymous": false,
      "inputs": [
        {
          "indexed": false,
          "internalType": "uint256",
          "name": "ProposalID",
          "type": "uint256"
        },
        {
          "indexed": false,
          "internalType": "string",
          "name": "proposal_title",
          "type": "string"
        }
      ],
      "name": "ProposalCreated",
      "type": "event"
    },
    {
      "constant": true,
      "inputs": [],
      "name": "ProposalID",
      "outputs": [
        {
          "internalType": "uint256",
          "name": "",
          "type": "uint256"
        }
      ],
      "payable": false,
      "stateMutability": "view",
      "type": "function"
    },
    {
      "constant": true,
      "inputs": [
        {
          "internalType": "uint256",
          "name": "",
          "type": "uint256"
        },
        {
          "internalType": "uint256",
          "name": "",
          "type": "uint256"
        }
      ],
      "name": "approved_proposals_for_epochs",
      "outputs": [
        {
          "internalType": "string",
          "name": "proposal_text",
          "type": "string"
        },
        {
          "internalType": "string",
          "name": "proposal_title",
          "type": "string"
        },
        {
          "internalType": "uint256",
          "name": "epoch",
          "type": "uint256"
        },
        {
          "internalType": "uint256",
          "name": "votes",
          "type": "uint256"
        }
      ],
      "payable": false,
      "stateMutability": "view",
      "type": "function"
    },
    {
      "constant": true,
      "inputs": [
        {
          "internalType": "uint256",
          "name": "",
          "type": "uint256"
        }
      ],
      "name": "proposal_count_for_epochs",
      "outputs": [
        {
          "internalType": "uint256",
          "name": "",
          "type": "uint256"
        }
      ],
      "payable": false,
      "stateMutability": "view",
      "type": "function"
    },
    {
      "constant": true,
      "inputs": [
        {
          "internalType": "uint256",
          "name": "",
          "type": "uint256"
        },
        {
          "internalType": "uint256",
          "name": "",
          "type": "uint256"
        }
      ],
      "name": "proposals",
      "outputs": [
        {
          "internalType": "string",
          "name": "proposal_text",
          "type": "string"
        },
        {
          "internalType": "string",
          "name": "proposal_title",
          "type": "string"
        },
        {
          "internalType": "uint256",
          "name": "epoch",
          "type": "uint256"
        },
        {
          "internalType": "uint256",
          "name": "votes",
          "type": "uint256"
        }
      ],
      "payable": false,
      "stateMutability": "view",
      "type": "function"
    },
    {
      "constant": false,
      "inputs": [
        {
          "internalType": "string",
          "name": "proposal_text",
          "type": "string"
        },
        {
          "internalType": "string",
          "name": "proposal_title",
          "type": "string"
        }
      ],
      "name": "addProposal",
      "outputs": [
        {
          "internalType": "uint256",
          "name": "",
          "type": "uint256"
        }
      ],
      "payable": false,
      "stateMutability": "nonpayable",
      "type": "function"
    },
    {
      "constant": true,
      "inputs": [],
      "name": "getProposalCount",
      "outputs": [
        {
          "internalType": "uint256",
          "name": "",
          "type": "uint256"
        }
      ],
      "payable": false,
      "stateMutability": "view",
      "type": "function"
    },
    {
      "constant": true,
      "inputs": [
        {
          "internalType": "uint256",
          "name": "id",
          "type": "uint256"
        }
      ],
      "name": "getProposalById",
      "outputs": [
        {
          "internalType": "string",
          "name": "",
          "type": "string"
        },
        {
          "internalType": "string",
          "name": "",
          "type": "string"
        },
        {
          "internalType": "uint256",
          "name": "",
          "type": "uint256"
        }
      ],
      "payable": false,
      "stateMutability": "view",
      "type": "function"
    },
    {
      "constant": false,
      "inputs": [
        {
          "internalType": "uint256",
          "name": "id",
          "type": "uint256"
        },
        {
          "internalType": "uint256",
          "name": "votes",
          "type": "uint256"
        }
      ],
      "name": "addVotes",
      "outputs": [],
      "payable": false,
      "stateMutability": "nonpayable",
      "type": "function"
    },
    {
      "constant": true,
      "inputs": [
        {
          "internalType": "uint256",
          "name": "proposal_id",
          "type": "uint256"
        }
      ],
      "name": "getVote",
      "outputs": [
        {
          "internalType": "uint256",
          "name": "",
          "type": "uint256"
        }
      ],
      "payable": false,
      "stateMutability": "view",
      "type": "function"
    }
  ],
  "bytecode": "0x608060405260008055731c5daa6045c2e15134ec879b79b7efaebc7d16fc600160006101000a81548173ffffffffffffffffffffffffffffffffffffffff021916908373ffffffffffffffffffffffffffffffffffffffff160217905550600160009054906101000a900473ffffffffffffffffffffffffffffffffffffffff16600260006101000a81548173ffffffffffffffffffffffffffffffffffffffff021916908373ffffffffffffffffffffffffffffffffffffffff1602179055503480156100cc57600080fd5b50611101806100dc6000396000f3fe608060405234801561001057600080fd5b50600436106100935760003560e01c80635a55c1f0116100665780635a55c1f0146101485780637797933f14610178578063b9decedb14610194578063c08cc02d146101c7578063c2cfee27146101e557610093565b806303acbefa146100985780631f6e7c0f146100c857806323d1c95e146100e65780633656de2114610116575b600080fd5b6100b260048036036100ad9190810190610d9c565b610218565b6040516100bf9190610f75565b60405180910390f35b6100d0610230565b6040516100dd9190610f75565b60405180910390f35b61010060048036036100fb9190810190610d30565b610236565b60405161010d9190610f75565b60405180910390f35b610130600480360361012b9190810190610d9c565b61045b565b60405161013f93929190610edd565b60405180910390f35b610162600480360361015d9190810190610d9c565b6106bf565b60405161016f9190610f75565b60405180910390f35b610192600480360361018d9190810190610dee565b61078f565b005b6101ae60048036036101a99190810190610dee565b610867565b6040516101be9493929190610f22565b60405180910390f35b6101cf6109e1565b6040516101dc9190610f75565b60405180910390f35b6101ff60048036036101fa9190810190610dee565b610aa0565b60405161020f9493929190610f22565b60405180910390f35b60046020528060005260406000206000915090505481565b60005481565b600080600260009054906101000a900473ffffffffffffffffffffffffffffffffffffffff1673ffffffffffffffffffffffffffffffffffffffff1663837a9bc76040518163ffffffff1660e01b815260040160206040518083038186803b1580156102a157600080fd5b505afa1580156102b5573d6000803e3d6000fd5b505050506040513d601f19601f820116820180604052506102d99190810190610dc5565b905060405180608001604052808581526020018481526020018281526020016000815250600360008381526020019081526020016000206000600460008581526020019081526020016000205481526020019081526020016000206000820151816000019080519060200190610350929190610c0d565b50602082015181600101908051906020019061036d929190610c0d565b506040820151816002015560608201518160030155905050600060046000838152602001908152602001600020546040516020016103ab9190610ec2565b6040516020818303038152906040525111156103e9576004600082815260200190815260200160002060008154809291906001019190505550610403565b600160046000838152602001908152602001600020819055505b7f9c770c289ab5bf7e57cb1d23c8ceae993aea46eb64847072fd3d78ca60d3e43260005484604051610436929190610f90565b60405180910390a1600460008281526020019081526020016000205491505092915050565b606080600080600260009054906101000a900473ffffffffffffffffffffffffffffffffffffffff1673ffffffffffffffffffffffffffffffffffffffff1663837a9bc76040518163ffffffff1660e01b815260040160206040518083038186803b1580156104c957600080fd5b505afa1580156104dd573d6000803e3d6000fd5b505050506040513d601f19601f820116820180604052506105019190810190610dc5565b905060036000828152602001908152602001600020600086815260200190815260200160002060000160036000838152602001908152602001600020600087815260200190815260200160002060010160036000848152602001908152602001600020600088815260200190815260200160002060030154828054600181600116156101000203166002900480601f01602080910402602001604051908101604052809291908181526020018280546001816001161561010002031660029004801561060e5780601f106105e35761010080835404028352916020019161060e565b820191906000526020600020905b8154815290600101906020018083116105f157829003601f168201915b50505050509250818054600181600116156101000203166002900480601f0160208091040260200160405190810160405280929190818152602001828054600181600116156101000203166002900480156106aa5780601f1061067f576101008083540402835291602001916106aa565b820191906000526020600020905b81548152906001019060200180831161068d57829003601f168201915b50505050509150935093509350509193909250565b600060036000600260009054906101000a900473ffffffffffffffffffffffffffffffffffffffff1673ffffffffffffffffffffffffffffffffffffffff1663837a9bc76040518163ffffffff1660e01b815260040160206040518083038186803b15801561072d57600080fd5b505afa158015610741573d6000803e3d6000fd5b505050506040513d601f19601f820116820180604052506107659190810190610dc5565b81526020019081526020016000206000838152602001908152602001600020600301549050919050565b8060036000600260009054906101000a900473ffffffffffffffffffffffffffffffffffffffff1673ffffffffffffffffffffffffffffffffffffffff1663837a9bc76040518163ffffffff1660e01b815260040160206040518083038186803b1580156107fc57600080fd5b505afa158015610810573d6000803e3d6000fd5b505050506040513d601f19601f820116820180604052506108349190810190610dc5565b81526020019081526020016000206000848152602001908152602001600020600301600082825401925050819055505050565b6005602052816000526040600020818154811061088057fe5b906000526020600020906004020160009150915050806000018054600181600116156101000203166002900480601f01602080910402602001604051908101604052809291908181526020018280546001816001161561010002031660029004801561092d5780601f106109025761010080835404028352916020019161092d565b820191906000526020600020905b81548152906001019060200180831161091057829003601f168201915b505050505090806001018054600181600116156101000203166002900480601f0160208091040260200160405190810160405280929190818152602001828054600181600116156101000203166002900480156109cb5780601f106109a0576101008083540402835291602001916109cb565b820191906000526020600020905b8154815290600101906020018083116109ae57829003601f168201915b5050505050908060020154908060030154905084565b600080600260009054906101000a900473ffffffffffffffffffffffffffffffffffffffff1673ffffffffffffffffffffffffffffffffffffffff1663837a9bc76040518163ffffffff1660e01b815260040160206040518083038186803b158015610a4c57600080fd5b505afa158015610a60573d6000803e3d6000fd5b505050506040513d601f19601f82011682018060405250610a849190810190610dc5565b9050600460008281526020019081526020016000205491505090565b600360205281600052604060002060205280600052604060002060009150915050806000018054600181600116156101000203166002900480601f016020809104026020016040519081016040528092919081815260200182805460018160011615610100020316600290048015610b595780601f10610b2e57610100808354040283529160200191610b59565b820191906000526020600020905b815481529060010190602001808311610b3c57829003601f168201915b505050505090806001018054600181600116156101000203166002900480601f016020809104026020016040519081016040528092919081815260200182805460018160011615610100020316600290048015610bf75780601f10610bcc57610100808354040283529160200191610bf7565b820191906000526020600020905b815481529060010190602001808311610bda57829003601f168201915b5050505050908060020154908060030154905084565b828054600181600116156101000203166002900490600052602060002090601f016020900481019282601f10610c4e57805160ff1916838001178555610c7c565b82800160010185558215610c7c579182015b82811115610c7b578251825591602001919060010190610c60565b5b509050610c899190610c8d565b5090565b610caf91905b80821115610cab576000816000905550600101610c93565b5090565b90565b600082601f830112610cc357600080fd5b8135610cd6610cd182610fed565b610fc0565b91508082526020830160208301858383011115610cf257600080fd5b610cfd83828461104a565b50505092915050565b600081359050610d15816110a7565b92915050565b600081519050610d2a816110a7565b92915050565b60008060408385031215610d4357600080fd5b600083013567ffffffffffffffff811115610d5d57600080fd5b610d6985828601610cb2565b925050602083013567ffffffffffffffff811115610d8657600080fd5b610d9285828601610cb2565b9150509250929050565b600060208284031215610dae57600080fd5b6000610dbc84828501610d06565b91505092915050565b600060208284031215610dd757600080fd5b6000610de584828501610d1b565b91505092915050565b60008060408385031215610e0157600080fd5b6000610e0f85828601610d06565b9250506020610e2085828601610d06565b9150509250929050565b6000610e3582611024565b610e3f818561102f565b9350610e4f818560208601611059565b610e5881611096565b840191505092915050565b6000610e6e82611019565b610e78818561102f565b9350610e88818560208601611059565b610e9181611096565b840191505092915050565b610ea581611040565b82525050565b610ebc610eb782611040565b61108c565b82525050565b6000610ece8284610eab565b60208201915081905092915050565b60006060820190508181036000830152610ef78186610e2a565b90508181036020830152610f0b8185610e2a565b9050610f1a6040830184610e9c565b949350505050565b60006080820190508181036000830152610f3c8187610e63565b90508181036020830152610f508186610e63565b9050610f5f6040830185610e9c565b610f6c6060830184610e9c565b95945050505050565b6000602082019050610f8a6000830184610e9c565b92915050565b6000604082019050610fa56000830185610e9c565b8181036020830152610fb78184610e2a565b90509392505050565b6000604051905081810181811067ffffffffffffffff82111715610fe357600080fd5b8060405250919050565b600067ffffffffffffffff82111561100457600080fd5b601f19601f8301169050602081019050919050565b600081519050919050565b600081519050919050565b600082825260208201905092915050565b6000819050919050565b82818337600083830152505050565b60005b8381101561107757808201518184015260208101905061105c565b83811115611086576000848401525b50505050565b6000819050919050565b6000601f19601f8301169050919050565b6110b081611040565b81146110bb57600080fd5b5056fea365627a7a72315820aeacf416bdf70034eb6378ad61b5ecf673bf6f1e8c10a1af5ea49fa99c4671e76c6578706572696d656e74616cf564736f6c63430005100040",
  "source": "pragma solidity >=0.4.21 <0.7.0;\npragma experimental ABIEncoderV2;\nimport \"./GovToken.sol\";\n\ncontract ProposalContract {\n    uint public ProposalID = 0;\n\n    address govToken_addr  = 0x1c5Daa6045C2e15134Ec879B79B7EFaeBC7D16fC;\n    GovToken gt = GovToken(govToken_addr);\n    struct Proposal {\n        string proposal_text;\n        string proposal_title;\n        uint epoch;\n        uint votes;\n    }\n\n    mapping (uint => mapping(uint => Proposal)) public proposals;\n    mapping (uint => uint) public proposal_count_for_epochs;\n    mapping (uint => Proposal[]) public approved_proposals_for_epochs;\n\n\n    event ProposalCreated(uint ProposalID, string proposal_title);\n\n    function addProposal(string memory proposal_text, string memory proposal_title) public returns (uint){\n      uint current_e = gt.get_current_epoch();\n      proposals[current_e][proposal_count_for_epochs[current_e]] = Proposal(proposal_text, proposal_title , current_e,0);\n      \n      // proposal_count_for_epochs[current_e]++;\n      if (abi.encodePacked(proposal_count_for_epochs[current_e]).length > 0) {\n        proposal_count_for_epochs[current_e]++;\n      }\n      else {\n        proposal_count_for_epochs[current_e] = 1;\n      }\n      \n      emit ProposalCreated(ProposalID, proposal_title);\n      return proposal_count_for_epochs[current_e];\n    }\n\n    function getProposalCount() public view returns (uint){\n      // GovToken gov_t;\n      uint current_e = gt.get_current_epoch();\n      return proposal_count_for_epochs[current_e];\n    }\n\n    function getProposalById(uint id) public view returns (string memory  , string memory ,uint ){\n      uint current_e = gt.get_current_epoch();\n      return (proposals[current_e][id].proposal_text ,proposals[current_e][id].proposal_title,\n      proposals[current_e][id].votes );\n    }\n\n    function addVotes(uint id , uint votes)public {\n      proposals[gt.get_current_epoch()][id].votes += votes;\n    }\n\n    function getVote(uint proposal_id)public view returns (uint){\n      return proposals[gt.get_current_epoch()][proposal_id].votes;\n    }\n    \n}",
  "sourcePath": "/Users/shashwat.arya/Desktop/BlockChain Project (Pied Piper)/BlockChain-Project--Pied-Piper-/contracts/ProposalContract.sol",
  "compiler": {
    "name": "solc",
    "version": "0.5.16+commit.9c3226ce.Emscripten.clang"
  },
  "schemaVersion": "3.4.3",
  "updatedAt": "2021-11-13T17:07:12.208Z",
  "devdoc": {
    "methods": {}
  },
  "userdoc": {
    "methods": {}
  }
}