{
  "contractName": "ProposalContract",
  "abi": [
    {
      "anonymous": false,
      "inputs": [
        {
          "indexed": false,
          "internalType": "uint256",
          "name": "ProposalID",
          "type": "uint256"
        },
        {
          "indexed": false,
          "internalType": "string",
          "name": "proposal_title",
          "type": "string"
        }
      ],
      "name": "ProposalCreated",
      "type": "event"
    },
    {
      "constant": true,
      "inputs": [],
      "name": "ProposalID",
      "outputs": [
        {
          "internalType": "uint256",
          "name": "",
          "type": "uint256"
        }
      ],
      "payable": false,
      "stateMutability": "view",
      "type": "function"
    },
    {
      "constant": true,
      "inputs": [],
      "name": "approved_proposals_count",
      "outputs": [
        {
          "internalType": "uint256",
          "name": "",
          "type": "uint256"
        }
      ],
      "payable": false,
      "stateMutability": "view",
      "type": "function"
    },
    {
      "constant": true,
      "inputs": [
        {
          "internalType": "uint256",
          "name": "",
          "type": "uint256"
        }
      ],
      "name": "proposals",
      "outputs": [
        {
          "internalType": "string",
          "name": "proposal_text",
          "type": "string"
        },
        {
          "internalType": "string",
          "name": "proposal_title",
          "type": "string"
        },
        {
          "internalType": "bool",
          "name": "completed",
          "type": "bool"
        },
        {
          "internalType": "uint256",
          "name": "epoch",
          "type": "uint256"
        },
        {
          "internalType": "uint256",
          "name": "votes",
          "type": "uint256"
        }
      ],
      "payable": false,
      "stateMutability": "view",
      "type": "function"
    },
    {
      "constant": false,
      "inputs": [
        {
          "internalType": "string",
          "name": "proposal_text",
          "type": "string"
        },
        {
          "internalType": "string",
          "name": "proposal_title",
          "type": "string"
        }
      ],
      "name": "addProposal",
      "outputs": [
        {
          "internalType": "uint256",
          "name": "",
          "type": "uint256"
        }
      ],
      "payable": false,
      "stateMutability": "nonpayable",
      "type": "function"
    },
    {
      "constant": true,
      "inputs": [],
      "name": "getProposalCount",
      "outputs": [
        {
          "internalType": "uint256",
          "name": "",
          "type": "uint256"
        }
      ],
      "payable": false,
      "stateMutability": "view",
      "type": "function"
    },
    {
      "constant": true,
      "inputs": [
        {
          "internalType": "uint256",
          "name": "id",
          "type": "uint256"
        }
      ],
      "name": "getProposalById",
      "outputs": [
        {
          "internalType": "string",
          "name": "",
          "type": "string"
        },
        {
          "internalType": "string",
          "name": "",
          "type": "string"
        },
        {
          "internalType": "uint256",
          "name": "",
          "type": "uint256"
        }
      ],
      "payable": false,
      "stateMutability": "view",
      "type": "function"
    },
    {
      "constant": false,
      "inputs": [
        {
          "internalType": "uint256",
          "name": "id",
          "type": "uint256"
        },
        {
          "internalType": "uint256",
          "name": "votes",
          "type": "uint256"
        }
      ],
      "name": "addVotes",
      "outputs": [],
      "payable": false,
      "stateMutability": "nonpayable",
      "type": "function"
    },
    {
      "constant": true,
      "inputs": [
        {
          "internalType": "uint256",
          "name": "proposal_id",
          "type": "uint256"
        }
      ],
      "name": "getVote",
      "outputs": [
        {
          "internalType": "uint256",
          "name": "",
          "type": "uint256"
        }
      ],
      "payable": false,
      "stateMutability": "view",
      "type": "function"
    },
    {
      "constant": false,
      "inputs": [],
      "name": "resetProposalCount",
      "outputs": [],
      "payable": false,
      "stateMutability": "nonpayable",
      "type": "function"
    }
  ],
  "bytecode": "0x608060405260008055600060045534801561001957600080fd5b50610bcd806100296000396000f3fe608060405234801561001057600080fd5b50600436106100935760003560e01c80635a55c1f0116100665780635a55c1f01461014c5780637797933f1461017c5780639175e8ac14610198578063a7d5564c146101a2578063c08cc02d146101c057610093565b8063013cf08b146100985780631f6e7c0f146100cc57806323d1c95e146100ea5780633656de211461011a575b600080fd5b6100b260048036036100ad919081019061087b565b6101de565b6040516100c39594939291906109de565b60405180910390f35b6100d4610351565b6040516100e19190610a3f565b60405180910390f35b61010460048036036100ff919081019061080f565b610357565b6040516101119190610a3f565b60405180910390f35b610134600480360361012f919081019061087b565b6104ff565b60405161014393929190610999565b60405180910390f35b6101666004803603610161919081019061087b565b61068c565b6040516101739190610a3f565b60405180910390f35b610196600480360361019191908101906108cd565b6106ac565b005b6101a06106d4565b005b6101aa6106dd565b6040516101b79190610a3f565b60405180910390f35b6101c86106e3565b6040516101d59190610a3f565b60405180910390f35b6002602052806000526040600020600091509050806000018054600181600116156101000203166002900480601f01602080910402602001604051908101604052809291908181526020018280546001816001161561010002031660029004801561028a5780601f1061025f5761010080835404028352916020019161028a565b820191906000526020600020905b81548152906001019060200180831161026d57829003601f168201915b505050505090806001018054600181600116156101000203166002900480601f0160208091040260200160405190810160405280929190818152602001828054600181600116156101000203166002900480156103285780601f106102fd57610100808354040283529160200191610328565b820191906000526020600020905b81548152906001019060200180831161030b57829003601f168201915b5050505050908060020160009054906101000a900460ff16908060030154908060040154905085565b60005481565b60006040518060a00160405280848152602001838152602001600015158152602001600160009054906101000a900473ffffffffffffffffffffffffffffffffffffffff1673ffffffffffffffffffffffffffffffffffffffff1663837a9bc76040518163ffffffff1660e01b815260040160206040518083038186803b1580156103e157600080fd5b505afa1580156103f5573d6000803e3d6000fd5b505050506040513d601f19601f8201168201806040525061041991908101906108a4565b81526020016000815250600260008054815260200190815260200160002060008201518160000190805190602001906104539291906106ec565b5060208201518160010190805190602001906104709291906106ec565b5060408201518160020160006101000a81548160ff02191690831515021790555060608201518160030155608082015181600401559050507f9c770c289ab5bf7e57cb1d23c8ceae993aea46eb64847072fd3d78ca60d3e432600054836040516104db929190610a5a565b60405180910390a16000808154809291906001019190505550600054905092915050565b606080600060026000858152602001908152602001600020600001600260008681526020019081526020016000206001016002600087815260200190815260200160002060040154828054600181600116156101000203166002900480601f0160208091040260200160405190810160405280929190818152602001828054600181600116156101000203166002900480156105dc5780601f106105b1576101008083540402835291602001916105dc565b820191906000526020600020905b8154815290600101906020018083116105bf57829003601f168201915b50505050509250818054600181600116156101000203166002900480601f0160208091040260200160405190810160405280929190818152602001828054600181600116156101000203166002900480156106785780601f1061064d57610100808354040283529160200191610678565b820191906000526020600020905b81548152906001019060200180831161065b57829003601f168201915b505050505091509250925092509193909250565b600060026000838152602001908152602001600020600401549050919050565b8060026000848152602001908152602001600020600401600082825401925050819055505050565b60008081905550565b60045481565b60008054905090565b828054600181600116156101000203166002900490600052602060002090601f016020900481019282601f1061072d57805160ff191683800117855561075b565b8280016001018555821561075b579182015b8281111561075a57825182559160200191906001019061073f565b5b509050610768919061076c565b5090565b61078e91905b8082111561078a576000816000905550600101610772565b5090565b90565b600082601f8301126107a257600080fd5b81356107b56107b082610ab7565b610a8a565b915080825260208301602083018583830111156107d157600080fd5b6107dc838284610b20565b50505092915050565b6000813590506107f481610b73565b92915050565b60008151905061080981610b73565b92915050565b6000806040838503121561082257600080fd5b600083013567ffffffffffffffff81111561083c57600080fd5b61084885828601610791565b925050602083013567ffffffffffffffff81111561086557600080fd5b61087185828601610791565b9150509250929050565b60006020828403121561088d57600080fd5b600061089b848285016107e5565b91505092915050565b6000602082840312156108b657600080fd5b60006108c4848285016107fa565b91505092915050565b600080604083850312156108e057600080fd5b60006108ee858286016107e5565b92505060206108ff858286016107e5565b9150509250929050565b61091281610b0a565b82525050565b600061092382610aee565b61092d8185610af9565b935061093d818560208601610b2f565b61094681610b62565b840191505092915050565b600061095c82610ae3565b6109668185610af9565b9350610976818560208601610b2f565b61097f81610b62565b840191505092915050565b61099381610b16565b82525050565b600060608201905081810360008301526109b38186610918565b905081810360208301526109c78185610918565b90506109d6604083018461098a565b949350505050565b600060a08201905081810360008301526109f88188610951565b90508181036020830152610a0c8187610951565b9050610a1b6040830186610909565b610a28606083018561098a565b610a35608083018461098a565b9695505050505050565b6000602082019050610a54600083018461098a565b92915050565b6000604082019050610a6f600083018561098a565b8181036020830152610a818184610918565b90509392505050565b6000604051905081810181811067ffffffffffffffff82111715610aad57600080fd5b8060405250919050565b600067ffffffffffffffff821115610ace57600080fd5b601f19601f8301169050602081019050919050565b600081519050919050565b600081519050919050565b600082825260208201905092915050565b60008115159050919050565b6000819050919050565b82818337600083830152505050565b60005b83811015610b4d578082015181840152602081019050610b32565b83811115610b5c576000848401525b50505050565b6000601f19601f8301169050919050565b610b7c81610b16565b8114610b8757600080fd5b5056fea365627a7a72315820294a383811b5fad551ac3a4effd8bece3a78d62704c86280edc4944ac01941bd6c6578706572696d656e74616cf564736f6c63430005100040",
  "source": "pragma solidity >=0.4.21 <0.7.0;\npragma experimental ABIEncoderV2;\nimport \"./GovToken.sol\";\n\ncontract ProposalContract {\n    uint public ProposalID = 0;\n    GovToken gt;\n    struct Proposal {\n        string proposal_text;\n        string proposal_title;\n        bool completed;\n        uint epoch;\n        uint votes;\n    }\n\n    mapping(uint => Proposal) public proposals;\n\n    Proposal [] approved_proposals;\n    uint public approved_proposals_count = 0;\n    uint [] approved_proposals_votes;\n\n    event ProposalCreated(uint ProposalID, string proposal_title);\n\n    // constructor() GovToken() public {\n    // }\n\n    function addProposal(string memory proposal_text, string memory proposal_title) public returns (uint){\n        proposals[ProposalID] = Proposal(proposal_text, proposal_title , false , gt.get_current_epoch(),0);\n        emit ProposalCreated(ProposalID, proposal_title);\n        ProposalID++;\n        return ProposalID;\n    }\n\n    function getProposalCount() public view returns (uint){\n      return ProposalID;\n    }\n\n    function getProposalById(uint id) public view returns (string memory  , string memory ,uint ){\n      return (proposals[id].proposal_text,proposals[id].proposal_title,proposals[id].votes);\n    }\n\n    function addVotes(uint id , uint votes)public {\n      proposals[id].votes+=votes;\n    }\n\n    function getVote(uint proposal_id)public view returns (uint){\n      return proposals[proposal_id].votes;\n    }\n    \n    function resetProposalCount() public {\n      ProposalID = 0;\n    }\n}",
  "sourcePath": "/Users/kirath/Desktop/BlockChain-Project--Pied-Piper-/contracts/ProposalContract.sol",
  "compiler": {
    "name": "solc",
    "version": "0.5.16+commit.9c3226ce.Emscripten.clang"
  },
  "schemaVersion": "3.4.3",
  "updatedAt": "2021-11-12T13:51:29.723Z",
  "devdoc": {
    "methods": {}
  },
  "userdoc": {
    "methods": {}
  }
}