{
  "contractName": "ProposalContract",
  "abi": [
    {
      "anonymous": false,
      "inputs": [
        {
          "indexed": false,
          "internalType": "uint256",
          "name": "ProposalID",
          "type": "uint256"
        },
        {
          "indexed": false,
          "internalType": "string",
          "name": "proposal_title",
          "type": "string"
        }
      ],
      "name": "ProposalCreated",
      "type": "event"
    },
    {
      "constant": true,
      "inputs": [
        {
          "internalType": "uint256",
          "name": "",
          "type": "uint256"
        },
        {
          "internalType": "uint256",
          "name": "",
          "type": "uint256"
        }
      ],
      "name": "approved_proposals_for_epochs",
      "outputs": [
        {
          "internalType": "string",
          "name": "proposal_text",
          "type": "string"
        },
        {
          "internalType": "string",
          "name": "proposal_title",
          "type": "string"
        },
        {
          "internalType": "uint256",
          "name": "epoch",
          "type": "uint256"
        },
        {
          "internalType": "uint256",
          "name": "votes",
          "type": "uint256"
        },
        {
          "internalType": "address",
          "name": "proposer",
          "type": "address"
        }
      ],
      "payable": false,
      "stateMutability": "view",
      "type": "function"
    },
    {
      "constant": true,
      "inputs": [
        {
          "internalType": "uint256",
          "name": "",
          "type": "uint256"
        }
      ],
      "name": "proposal_count_for_epochs",
      "outputs": [
        {
          "internalType": "uint256",
          "name": "",
          "type": "uint256"
        }
      ],
      "payable": false,
      "stateMutability": "view",
      "type": "function"
    },
    {
      "constant": true,
      "inputs": [
        {
          "internalType": "uint256",
          "name": "",
          "type": "uint256"
        },
        {
          "internalType": "uint256",
          "name": "",
          "type": "uint256"
        }
      ],
      "name": "proposals",
      "outputs": [
        {
          "internalType": "string",
          "name": "proposal_text",
          "type": "string"
        },
        {
          "internalType": "string",
          "name": "proposal_title",
          "type": "string"
        },
        {
          "internalType": "uint256",
          "name": "epoch",
          "type": "uint256"
        },
        {
          "internalType": "uint256",
          "name": "votes",
          "type": "uint256"
        },
        {
          "internalType": "address",
          "name": "proposer",
          "type": "address"
        }
      ],
      "payable": false,
      "stateMutability": "view",
      "type": "function"
    },
    {
      "constant": false,
      "inputs": [
        {
          "internalType": "string",
          "name": "proposal_text",
          "type": "string"
        },
        {
          "internalType": "string",
          "name": "proposal_title",
          "type": "string"
        }
      ],
      "name": "addProposal",
      "outputs": [
        {
          "internalType": "uint256",
          "name": "",
          "type": "uint256"
        }
      ],
      "payable": false,
      "stateMutability": "nonpayable",
      "type": "function"
    },
    {
      "constant": true,
      "inputs": [],
      "name": "getProposalCount",
      "outputs": [
        {
          "internalType": "uint256",
          "name": "",
          "type": "uint256"
        }
      ],
      "payable": false,
      "stateMutability": "view",
      "type": "function"
    },
    {
      "constant": true,
      "inputs": [
        {
          "internalType": "uint256",
          "name": "id",
          "type": "uint256"
        }
      ],
      "name": "getProposalById",
      "outputs": [
        {
          "internalType": "string",
          "name": "",
          "type": "string"
        },
        {
          "internalType": "string",
          "name": "",
          "type": "string"
        },
        {
          "internalType": "uint256",
          "name": "",
          "type": "uint256"
        },
        {
          "internalType": "address",
          "name": "",
          "type": "address"
        }
      ],
      "payable": false,
      "stateMutability": "view",
      "type": "function"
    },
    {
      "constant": false,
      "inputs": [
        {
          "internalType": "uint256",
          "name": "id",
          "type": "uint256"
        },
        {
          "internalType": "uint256",
          "name": "votes",
          "type": "uint256"
        }
      ],
      "name": "addVotes",
      "outputs": [],
      "payable": false,
      "stateMutability": "nonpayable",
      "type": "function"
    },
    {
      "constant": true,
      "inputs": [
        {
          "internalType": "uint256",
          "name": "proposal_id",
          "type": "uint256"
        }
      ],
      "name": "getVote",
      "outputs": [
        {
          "internalType": "uint256",
          "name": "",
          "type": "uint256"
        }
      ],
      "payable": false,
      "stateMutability": "view",
      "type": "function"
    },
    {
      "constant": true,
      "inputs": [
        {
          "internalType": "uint256",
          "name": "id",
          "type": "uint256"
        },
        {
          "internalType": "uint256",
          "name": "epoch",
          "type": "uint256"
        }
      ],
      "name": "getPastProposal",
      "outputs": [
        {
          "internalType": "string",
          "name": "",
          "type": "string"
        },
        {
          "internalType": "string",
          "name": "",
          "type": "string"
        },
        {
          "internalType": "uint256",
          "name": "",
          "type": "uint256"
        },
        {
          "internalType": "address",
          "name": "",
          "type": "address"
        }
      ],
      "payable": false,
      "stateMutability": "view",
      "type": "function"
    }
  ],
  "bytecode": "0x608060405260008060006101000a81548173ffffffffffffffffffffffffffffffffffffffff021916908373ffffffffffffffffffffffffffffffffffffffff1602179055506000809054906101000a900473ffffffffffffffffffffffffffffffffffffffff16600160006101000a81548173ffffffffffffffffffffffffffffffffffffffff021916908373ffffffffffffffffffffffffffffffffffffffff1602179055503480156100b357600080fd5b50611443806100c36000396000f3fe608060405234801561001057600080fd5b50600436106100935760003560e01c80637797933f116100665780637797933f1461015b578063b9decedb14610177578063c08cc02d146101ab578063c2cfee27146101c9578063f86067aa146101fd57610093565b806303acbefa1461009857806323d1c95e146100c85780633656de21146100f85780635a55c1f01461012b575b600080fd5b6100b260048036036100ad91908101906110bd565b610230565b6040516100bf919061128f565b60405180910390f35b6100e260048036036100dd9190810190611051565b610248565b6040516100ef919061128f565b60405180910390f35b610112600480360361010d91908101906110bd565b610486565b60405161012294939291906111db565b60405180910390f35b610145600480360361014091908101906110bd565b610742565b604051610152919061128f565b60405180910390f35b6101756004803603610170919081019061110f565b610812565b005b610191600480360361018c919081019061110f565b6108ea565b6040516101a295949392919061122e565b60405180910390f35b6101b3610a8a565b6040516101c0919061128f565b60405180910390f35b6101e360048036036101de919081019061110f565b610b49565b6040516101f495949392919061122e565b60405180910390f35b6102176004803603610212919081019061110f565b610cdc565b60405161022794939291906111db565b60405180910390f35b60036020528060005260406000206000915090505481565b600080600160009054906101000a900473ffffffffffffffffffffffffffffffffffffffff1673ffffffffffffffffffffffffffffffffffffffff1663837a9bc76040518163ffffffff1660e01b815260040160206040518083038186803b1580156102b357600080fd5b505afa1580156102c7573d6000803e3d6000fd5b505050506040513d601f19601f820116820180604052506102eb91908101906110e6565b90506040518060a00160405280858152602001848152602001828152602001600081526020013373ffffffffffffffffffffffffffffffffffffffff1681525060026000838152602001908152602001600020600060036000858152602001908152602001600020548152602001908152602001600020600082015181600001908051906020019061037e929190610ee9565b50602082015181600101908051906020019061039b929190610ee9565b50604082015181600201556060820151816003015560808201518160040160006101000a81548173ffffffffffffffffffffffffffffffffffffffff021916908373ffffffffffffffffffffffffffffffffffffffff16021790555090505060036000828152602001908152602001600020600081548092919060010191905055507f9c770c289ab5bf7e57cb1d23c8ceae993aea46eb64847072fd3d78ca60d3e4326003600083815260200190815260200160002054846040516104619291906112aa565b60405180910390a1600360008281526020019081526020016000205491505092915050565b6060806000806000600160009054906101000a900473ffffffffffffffffffffffffffffffffffffffff1673ffffffffffffffffffffffffffffffffffffffff1663837a9bc76040518163ffffffff1660e01b815260040160206040518083038186803b1580156104f657600080fd5b505afa15801561050a573d6000803e3d6000fd5b505050506040513d601f19601f8201168201806040525061052e91908101906110e6565b9050610538610f69565b6002600083815260200190815260200160002060008881526020019081526020016000206040518060a0016040529081600082018054600181600116156101000203166002900480601f0160208091040260200160405190810160405280929190818152602001828054600181600116156101000203166002900480156106005780601f106105d557610100808354040283529160200191610600565b820191906000526020600020905b8154815290600101906020018083116105e357829003601f168201915b50505050508152602001600182018054600181600116156101000203166002900480601f0160208091040260200160405190810160405280929190818152602001828054600181600116156101000203166002900480156106a25780601f10610677576101008083540402835291602001916106a2565b820191906000526020600020905b81548152906001019060200180831161068557829003601f168201915b5050505050815260200160028201548152602001600382015481526020016004820160009054906101000a900473ffffffffffffffffffffffffffffffffffffffff1673ffffffffffffffffffffffffffffffffffffffff1673ffffffffffffffffffffffffffffffffffffffff168152505090508060000151816020015182606001518360800151839350829250955095509550955050509193509193565b600060026000600160009054906101000a900473ffffffffffffffffffffffffffffffffffffffff1673ffffffffffffffffffffffffffffffffffffffff1663837a9bc76040518163ffffffff1660e01b815260040160206040518083038186803b1580156107b057600080fd5b505afa1580156107c4573d6000803e3d6000fd5b505050506040513d601f19601f820116820180604052506107e891908101906110e6565b81526020019081526020016000206000838152602001908152602001600020600301549050919050565b8060026000600160009054906101000a900473ffffffffffffffffffffffffffffffffffffffff1673ffffffffffffffffffffffffffffffffffffffff1663837a9bc76040518163ffffffff1660e01b815260040160206040518083038186803b15801561087f57600080fd5b505afa158015610893573d6000803e3d6000fd5b505050506040513d601f19601f820116820180604052506108b791908101906110e6565b81526020019081526020016000206000848152602001908152602001600020600301600082825401925050819055505050565b6004602052816000526040600020818154811061090357fe5b906000526020600020906005020160009150915050806000018054600181600116156101000203166002900480601f0160208091040260200160405190810160405280929190818152602001828054600181600116156101000203166002900480156109b05780601f10610985576101008083540402835291602001916109b0565b820191906000526020600020905b81548152906001019060200180831161099357829003601f168201915b505050505090806001018054600181600116156101000203166002900480601f016020809104026020016040519081016040528092919081815260200182805460018160011615610100020316600290048015610a4e5780601f10610a2357610100808354040283529160200191610a4e565b820191906000526020600020905b815481529060010190602001808311610a3157829003601f168201915b5050505050908060020154908060030154908060040160009054906101000a900473ffffffffffffffffffffffffffffffffffffffff16905085565b600080600160009054906101000a900473ffffffffffffffffffffffffffffffffffffffff1673ffffffffffffffffffffffffffffffffffffffff1663837a9bc76040518163ffffffff1660e01b815260040160206040518083038186803b158015610af557600080fd5b505afa158015610b09573d6000803e3d6000fd5b505050506040513d601f19601f82011682018060405250610b2d91908101906110e6565b9050600360008281526020019081526020016000205491505090565b600260205281600052604060002060205280600052604060002060009150915050806000018054600181600116156101000203166002900480601f016020809104026020016040519081016040528092919081815260200182805460018160011615610100020316600290048015610c025780601f10610bd757610100808354040283529160200191610c02565b820191906000526020600020905b815481529060010190602001808311610be557829003601f168201915b505050505090806001018054600181600116156101000203166002900480601f016020809104026020016040519081016040528092919081815260200182805460018160011615610100020316600290048015610ca05780601f10610c7557610100808354040283529160200191610ca0565b820191906000526020600020905b815481529060010190602001808311610c8357829003601f168201915b5050505050908060020154908060030154908060040160009054906101000a900473ffffffffffffffffffffffffffffffffffffffff16905085565b606080600080600260008681526020019081526020016000206000878152602001908152602001600020600101600260008781526020019081526020016000206000888152602001908152602001600020600001600260008881526020019081526020016000206000898152602001908152602001600020600301546002600089815260200190815260200160002060008a815260200190815260200160002060040160009054906101000a900473ffffffffffffffffffffffffffffffffffffffff16838054600181600116156101000203166002900480601f016020809104026020016040519081016040528092919081815260200182805460018160011615610100020316600290048015610e355780601f10610e0a57610100808354040283529160200191610e35565b820191906000526020600020905b815481529060010190602001808311610e1857829003601f168201915b50505050509350828054600181600116156101000203166002900480601f016020809104026020016040519081016040528092919081815260200182805460018160011615610100020316600290048015610ed15780601f10610ea657610100808354040283529160200191610ed1565b820191906000526020600020905b815481529060010190602001808311610eb457829003601f168201915b50505050509250935093509350935092959194509250565b828054600181600116156101000203166002900490600052602060002090601f016020900481019282601f10610f2a57805160ff1916838001178555610f58565b82800160010185558215610f58579182015b82811115610f57578251825591602001919060010190610f3c565b5b509050610f659190610fae565b5090565b6040518060a0016040528060608152602001606081526020016000815260200160008152602001600073ffffffffffffffffffffffffffffffffffffffff1681525090565b610fd091905b80821115610fcc576000816000905550600101610fb4565b5090565b90565b600082601f830112610fe457600080fd5b8135610ff7610ff282611307565b6112da565b9150808252602083016020830185838301111561101357600080fd5b61101e838284611396565b50505092915050565b600081359050611036816113e9565b92915050565b60008151905061104b816113e9565b92915050565b6000806040838503121561106457600080fd5b600083013567ffffffffffffffff81111561107e57600080fd5b61108a85828601610fd3565b925050602083013567ffffffffffffffff8111156110a757600080fd5b6110b385828601610fd3565b9150509250929050565b6000602082840312156110cf57600080fd5b60006110dd84828501611027565b91505092915050565b6000602082840312156110f857600080fd5b60006111068482850161103c565b91505092915050565b6000806040838503121561112257600080fd5b600061113085828601611027565b925050602061114185828601611027565b9150509250929050565b6111548161135a565b82525050565b60006111658261133e565b61116f8185611349565b935061117f8185602086016113a5565b611188816113d8565b840191505092915050565b600061119e82611333565b6111a88185611349565b93506111b88185602086016113a5565b6111c1816113d8565b840191505092915050565b6111d58161138c565b82525050565b600060808201905081810360008301526111f5818761115a565b90508181036020830152611209818661115a565b905061121860408301856111cc565b611225606083018461114b565b95945050505050565b600060a08201905081810360008301526112488188611193565b9050818103602083015261125c8187611193565b905061126b60408301866111cc565b61127860608301856111cc565b611285608083018461114b565b9695505050505050565b60006020820190506112a460008301846111cc565b92915050565b60006040820190506112bf60008301856111cc565b81810360208301526112d1818461115a565b90509392505050565b6000604051905081810181811067ffffffffffffffff821117156112fd57600080fd5b8060405250919050565b600067ffffffffffffffff82111561131e57600080fd5b601f19601f8301169050602081019050919050565b600081519050919050565b600081519050919050565b600082825260208201905092915050565b60006113658261136c565b9050919050565b600073ffffffffffffffffffffffffffffffffffffffff82169050919050565b6000819050919050565b82818337600083830152505050565b60005b838110156113c35780820151818401526020810190506113a8565b838111156113d2576000848401525b50505050565b6000601f19601f8301169050919050565b6113f28161138c565b81146113fd57600080fd5b5056fea365627a7a72315820e0290d001877449cb0b29ca0efba6200373883a9e477ea7981b861b14bf4fc036c6578706572696d656e74616cf564736f6c63430005100040",
  "source": "pragma solidity >=0.4.21 <0.7.0;\npragma experimental ABIEncoderV2;\nimport \"./GovToken.sol\";\n\ncontract ProposalContract {\n  // change deployment addresses after deployment\n    address govToken_addr  = address(0x0);\n    GovToken gt = GovToken(govToken_addr);\n    struct Proposal {\n        string proposal_text;\n        string proposal_title;\n        uint epoch;\n        uint votes;\n        address proposer;\n    }\n    \n    mapping (uint => mapping(uint => Proposal)) public proposals;\n    mapping (uint => uint) public proposal_count_for_epochs;\n    mapping (uint => Proposal[]) public approved_proposals_for_epochs;\n\n\n    event ProposalCreated(uint ProposalID, string proposal_title);\n\n    function addProposal(string memory proposal_text, string memory proposal_title) public returns (uint){\n      uint current_e = gt.get_current_epoch();\n      proposals[current_e][proposal_count_for_epochs[current_e]] = Proposal(proposal_text, proposal_title , current_e,0, msg.sender);\n      \n      proposal_count_for_epochs[current_e]++;\n      // if (abi.encodePacked(proposal_count_for_epochs[current_e]).length > 0) {\n      //   proposal_count_for_epochs[current_e]++;\n      // }\n      // else {\n      //   proposal_count_for_epochs[current_e] = 1;\n      // }\n      \n      emit ProposalCreated(proposal_count_for_epochs[current_e], proposal_title);\n      return proposal_count_for_epochs[current_e];\n    }\n\n    function getProposalCount() public view returns (uint){\n      // GovToken gov_t;\n      uint current_e = gt.get_current_epoch();\n      return proposal_count_for_epochs[current_e];\n      // return 0;\n    }\n\n    function getProposalById(uint id) public view returns (string memory  , string memory ,uint, address ){\n      uint current_e = gt.get_current_epoch();\n      Proposal memory proposal = proposals[current_e][id];\n      return (proposal.proposal_text, proposal.proposal_title, proposal.votes, proposal.proposer);\n      //return (proposals[current_e][id].proposal_text ,proposals[current_e][id].proposal_title,\n      //proposals[current_e][id].votes,  );\n    }\n\n    function addVotes(uint id , uint votes)public {\n      proposals[gt.get_current_epoch()][id].votes += votes;\n    }\n\n    function getVote(uint proposal_id)public view returns (uint){\n      return proposals[gt.get_current_epoch()][proposal_id].votes;\n    }\n\n    function getPastProposal(uint id , uint epoch) public view returns(string memory , string memory , uint , address){\n      return (proposals[epoch][id].proposal_title , proposals[epoch][id].proposal_text , proposals[epoch][id].votes , proposals[epoch][id].proposer);\n    }\n    \n}",
  "sourcePath": "/Users/kirath/Desktop/BlockChain-Project--Pied-Piper-/contracts/ProposalContract.sol",
  "compiler": {
    "name": "solc",
    "version": "0.5.16+commit.9c3226ce.Emscripten.clang"
  },
  "schemaVersion": "3.4.3",
  "updatedAt": "2021-11-14T14:54:58.285Z",
  "devdoc": {
    "methods": {}
  },
  "userdoc": {
    "methods": {}
  }
}