{
  "contractName": "ProposalContract",
  "abi": [
    {
      "anonymous": false,
      "inputs": [
        {
          "indexed": false,
          "internalType": "uint256",
          "name": "ProposalID",
          "type": "uint256"
        },
        {
          "indexed": false,
          "internalType": "string",
          "name": "proposal_title",
          "type": "string"
        }
      ],
      "name": "ProposalCreated",
      "type": "event"
    },
    {
      "constant": true,
      "inputs": [
        {
          "internalType": "uint256",
          "name": "",
          "type": "uint256"
        }
      ],
      "name": "proposal_count_for_epochs",
      "outputs": [
        {
          "internalType": "uint256",
          "name": "",
          "type": "uint256"
        }
      ],
      "payable": false,
      "stateMutability": "view",
      "type": "function"
    },
    {
      "constant": true,
      "inputs": [
        {
          "internalType": "uint256",
          "name": "",
          "type": "uint256"
        },
        {
          "internalType": "uint256",
          "name": "",
          "type": "uint256"
        }
      ],
      "name": "proposals",
      "outputs": [
        {
          "internalType": "string",
          "name": "proposal_text",
          "type": "string"
        },
        {
          "internalType": "string",
          "name": "proposal_title",
          "type": "string"
        },
        {
          "internalType": "uint256",
          "name": "epoch",
          "type": "uint256"
        },
        {
          "internalType": "uint256",
          "name": "votes",
          "type": "uint256"
        },
        {
          "internalType": "address",
          "name": "proposer",
          "type": "address"
        }
      ],
      "payable": false,
      "stateMutability": "view",
      "type": "function"
    },
    {
      "constant": true,
      "inputs": [
        {
          "internalType": "uint256",
          "name": "epoch",
          "type": "uint256"
        }
      ],
      "name": "getApprovalsByEpoch",
      "outputs": [
        {
          "internalType": "uint256[]",
          "name": "",
          "type": "uint256[]"
        }
      ],
      "payable": false,
      "stateMutability": "view",
      "type": "function"
    },
    {
      "constant": false,
      "inputs": [
        {
          "internalType": "uint256",
          "name": "id",
          "type": "uint256"
        }
      ],
      "name": "updateApprovalStatus",
      "outputs": [],
      "payable": false,
      "stateMutability": "nonpayable",
      "type": "function"
    },
    {
      "constant": false,
      "inputs": [
        {
          "internalType": "string",
          "name": "proposal_text",
          "type": "string"
        },
        {
          "internalType": "string",
          "name": "proposal_title",
          "type": "string"
        }
      ],
      "name": "addProposal",
      "outputs": [
        {
          "internalType": "uint256",
          "name": "",
          "type": "uint256"
        }
      ],
      "payable": false,
      "stateMutability": "nonpayable",
      "type": "function"
    },
    {
      "constant": true,
      "inputs": [],
      "name": "getProposalCount",
      "outputs": [
        {
          "internalType": "uint256",
          "name": "",
          "type": "uint256"
        }
      ],
      "payable": false,
      "stateMutability": "view",
      "type": "function"
    },
    {
      "constant": true,
      "inputs": [
        {
          "internalType": "uint256",
          "name": "id",
          "type": "uint256"
        }
      ],
      "name": "getProposalById",
      "outputs": [
        {
          "internalType": "string",
          "name": "",
          "type": "string"
        },
        {
          "internalType": "string",
          "name": "",
          "type": "string"
        },
        {
          "internalType": "uint256",
          "name": "",
          "type": "uint256"
        },
        {
          "internalType": "address",
          "name": "",
          "type": "address"
        }
      ],
      "payable": false,
      "stateMutability": "view",
      "type": "function"
    },
    {
      "constant": true,
      "inputs": [
        {
          "internalType": "uint256",
          "name": "id",
          "type": "uint256"
        }
      ],
      "name": "getProposer",
      "outputs": [
        {
          "internalType": "address",
          "name": "",
          "type": "address"
        }
      ],
      "payable": false,
      "stateMutability": "view",
      "type": "function"
    },
    {
      "constant": false,
      "inputs": [
        {
          "internalType": "uint256",
          "name": "id",
          "type": "uint256"
        },
        {
          "internalType": "uint256",
          "name": "votes",
          "type": "uint256"
        }
      ],
      "name": "addVotes",
      "outputs": [],
      "payable": false,
      "stateMutability": "nonpayable",
      "type": "function"
    },
    {
      "constant": true,
      "inputs": [
        {
          "internalType": "uint256",
          "name": "proposal_id",
          "type": "uint256"
        }
      ],
      "name": "getVote",
      "outputs": [
        {
          "internalType": "uint256",
          "name": "",
          "type": "uint256"
        }
      ],
      "payable": false,
      "stateMutability": "view",
      "type": "function"
    },
    {
      "constant": true,
      "inputs": [
        {
          "internalType": "uint256",
          "name": "id",
          "type": "uint256"
        },
        {
          "internalType": "uint256",
          "name": "epoch",
          "type": "uint256"
        }
      ],
      "name": "getPastProposal",
      "outputs": [
        {
          "internalType": "string",
          "name": "",
          "type": "string"
        },
        {
          "internalType": "string",
          "name": "",
          "type": "string"
        },
        {
          "internalType": "uint256",
          "name": "",
          "type": "uint256"
        },
        {
          "internalType": "address",
          "name": "",
          "type": "address"
        },
        {
          "internalType": "uint8",
          "name": "",
          "type": "uint8"
        }
      ],
      "payable": false,
      "stateMutability": "view",
      "type": "function"
    },
    {
      "constant": true,
      "inputs": [
        {
          "internalType": "uint256",
          "name": "epoch",
          "type": "uint256"
        }
      ],
      "name": "getPastProposalCount",
      "outputs": [
        {
          "internalType": "uint256",
          "name": "",
          "type": "uint256"
        }
      ],
      "payable": false,
      "stateMutability": "view",
      "type": "function"
    },
    {
      "constant": true,
      "inputs": [],
      "name": "get_current_epoch",
      "outputs": [
        {
          "internalType": "uint256",
          "name": "",
          "type": "uint256"
        }
      ],
      "payable": false,
      "stateMutability": "view",
      "type": "function"
    },
    {
      "constant": true,
      "inputs": [],
      "name": "getAddressProposal",
      "outputs": [
        {
          "internalType": "address",
          "name": "",
          "type": "address"
        }
      ],
      "payable": false,
      "stateMutability": "view",
      "type": "function"
    },
    {
      "constant": false,
      "inputs": [
        {
          "internalType": "address",
          "name": "govtoken_add",
          "type": "address"
        }
      ],
      "name": "setContractAddress",
      "outputs": [],
      "payable": false,
      "stateMutability": "nonpayable",
      "type": "function"
    }
  ],
  "bytecode": "0x6080604052733d416cfa03d21155529dc2aa7f877137b719ca746000806101000a81548173ffffffffffffffffffffffffffffffffffffffff021916908373ffffffffffffffffffffffffffffffffffffffff1602179055506000809054906101000a900473ffffffffffffffffffffffffffffffffffffffff16600160006101000a81548173ffffffffffffffffffffffffffffffffffffffff021916908373ffffffffffffffffffffffffffffffffffffffff1602179055503480156100c657600080fd5b50611bb0806100d66000396000f3fe608060405234801561001057600080fd5b50600436106100f55760003560e01c8063a52253bc11610097578063d22bab3511610066578063d22bab35146102b1578063e14bd874146102e1578063f11609b614610311578063f86067aa1461032f576100f5565b8063a52253bc14610213578063c01a80ab14610243578063c08cc02d1461025f578063c2cfee271461027d576100f5565b8063477bddaa116100d3578063477bddaa1461018d5780635a55c1f0146101a95780637797933f146101d9578063837a9bc7146101f5576100f5565b806303acbefa146100fa57806323d1c95e1461012a5780633656de211461015a575b600080fd5b610114600480360361010f919081019061169b565b610363565b604051610121919061199f565b60405180910390f35b610144600480360361013f919081019061162f565b61037b565b604051610151919061199f565b60405180910390f35b610174600480360361016f919081019061169b565b6105b9565b604051610184949392919061188a565b60405180910390f35b6101a760048036036101a29190810190611606565b610875565b005b6101c360048036036101be919081019061169b565b6108b9565b6040516101d0919061199f565b60405180910390f35b6101f360048036036101ee91908101906116ed565b610989565b005b6101fd610a61565b60405161020a919061199f565b60405180910390f35b61022d6004803603610228919081019061169b565b610b08565b60405161023a919061199f565b60405180910390f35b61025d6004803603610258919081019061169b565b610b25565b005b610267610ce1565b604051610274919061199f565b60405180910390f35b610297600480360361029291908101906116ed565b610da0565b6040516102a895949392919061193e565b60405180910390f35b6102cb60048036036102c6919081019061169b565b610f33565b6040516102d89190611868565b60405180910390f35b6102fb60048036036102f6919081019061169b565b610f9e565b604051610308919061184d565b60405180910390f35b610319611238565b604051610326919061184d565b60405180910390f35b610349600480360361034491908101906116ed565b611240565b60405161035a9594939291906118dd565b60405180910390f35b60036020528060005260406000206000915090505481565b600080600160009054906101000a900473ffffffffffffffffffffffffffffffffffffffff1673ffffffffffffffffffffffffffffffffffffffff1663837a9bc76040518163ffffffff1660e01b815260040160206040518083038186803b1580156103e657600080fd5b505afa1580156103fa573d6000803e3d6000fd5b505050506040513d601f19601f8201168201806040525061041e91908101906116c4565b90506040518060a00160405280858152602001848152602001828152602001600081526020013373ffffffffffffffffffffffffffffffffffffffff168152506002600083815260200190815260200160002060006003600085815260200190815260200160002054815260200190815260200160002060008201518160000190805190602001906104b1929190611489565b5060208201518160010190805190602001906104ce929190611489565b50604082015181600201556060820151816003015560808201518160040160006101000a81548173ffffffffffffffffffffffffffffffffffffffff021916908373ffffffffffffffffffffffffffffffffffffffff16021790555090505060036000828152602001908152602001600020600081548092919060010191905055507f9c770c289ab5bf7e57cb1d23c8ceae993aea46eb64847072fd3d78ca60d3e4326003600083815260200190815260200160002054846040516105949291906119ba565b60405180910390a1600360008281526020019081526020016000205491505092915050565b6060806000806000600160009054906101000a900473ffffffffffffffffffffffffffffffffffffffff1673ffffffffffffffffffffffffffffffffffffffff1663837a9bc76040518163ffffffff1660e01b815260040160206040518083038186803b15801561062957600080fd5b505afa15801561063d573d6000803e3d6000fd5b505050506040513d601f19601f8201168201806040525061066191908101906116c4565b905061066b611509565b6002600083815260200190815260200160002060008881526020019081526020016000206040518060a0016040529081600082018054600181600116156101000203166002900480601f0160208091040260200160405190810160405280929190818152602001828054600181600116156101000203166002900480156107335780601f1061070857610100808354040283529160200191610733565b820191906000526020600020905b81548152906001019060200180831161071657829003601f168201915b50505050508152602001600182018054600181600116156101000203166002900480601f0160208091040260200160405190810160405280929190818152602001828054600181600116156101000203166002900480156107d55780601f106107aa576101008083540402835291602001916107d5565b820191906000526020600020905b8154815290600101906020018083116107b857829003601f168201915b5050505050815260200160028201548152602001600382015481526020016004820160009054906101000a900473ffffffffffffffffffffffffffffffffffffffff1673ffffffffffffffffffffffffffffffffffffffff1673ffffffffffffffffffffffffffffffffffffffff168152505090508060000151816020015182606001518360800151839350829250955095509550955050509193509193565b80600160006101000a81548173ffffffffffffffffffffffffffffffffffffffff021916908373ffffffffffffffffffffffffffffffffffffffff16021790555050565b600060026000600160009054906101000a900473ffffffffffffffffffffffffffffffffffffffff1673ffffffffffffffffffffffffffffffffffffffff1663837a9bc76040518163ffffffff1660e01b815260040160206040518083038186803b15801561092757600080fd5b505afa15801561093b573d6000803e3d6000fd5b505050506040513d601f19601f8201168201806040525061095f91908101906116c4565b81526020019081526020016000206000838152602001908152602001600020600301549050919050565b8060026000600160009054906101000a900473ffffffffffffffffffffffffffffffffffffffff1673ffffffffffffffffffffffffffffffffffffffff1663837a9bc76040518163ffffffff1660e01b815260040160206040518083038186803b1580156109f657600080fd5b505afa158015610a0a573d6000803e3d6000fd5b505050506040513d601f19601f82011682018060405250610a2e91908101906116c4565b81526020019081526020016000206000848152602001908152602001600020600301600082825401925050819055505050565b6000600160009054906101000a900473ffffffffffffffffffffffffffffffffffffffff1673ffffffffffffffffffffffffffffffffffffffff1663837a9bc76040518163ffffffff1660e01b815260040160206040518083038186803b158015610acb57600080fd5b505afa158015610adf573d6000803e3d6000fd5b505050506040513d601f19601f82011682018060405250610b0391908101906116c4565b905090565b600060036000838152602001908152602001600020549050919050565b60046000600160009054906101000a900473ffffffffffffffffffffffffffffffffffffffff1673ffffffffffffffffffffffffffffffffffffffff1663837a9bc76040518163ffffffff1660e01b815260040160206040518083038186803b158015610b9157600080fd5b505afa158015610ba5573d6000803e3d6000fd5b505050506040513d601f19601f82011682018060405250610bc991908101906116c4565b8152602001908152602001600020819080600181540180825580915050906001820390600052602060002001600090919290919091505550600160056000600160009054906101000a900473ffffffffffffffffffffffffffffffffffffffff1673ffffffffffffffffffffffffffffffffffffffff1663837a9bc76040518163ffffffff1660e01b815260040160206040518083038186803b158015610c6f57600080fd5b505afa158015610c83573d6000803e3d6000fd5b505050506040513d601f19601f82011682018060405250610ca791908101906116c4565b8152602001908152602001600020600083815260200190815260200160002060006101000a81548160ff021916908360ff16021790555050565b600080600160009054906101000a900473ffffffffffffffffffffffffffffffffffffffff1673ffffffffffffffffffffffffffffffffffffffff1663837a9bc76040518163ffffffff1660e01b815260040160206040518083038186803b158015610d4c57600080fd5b505afa158015610d60573d6000803e3d6000fd5b505050506040513d601f19601f82011682018060405250610d8491908101906116c4565b9050600360008281526020019081526020016000205491505090565b600260205281600052604060002060205280600052604060002060009150915050806000018054600181600116156101000203166002900480601f016020809104026020016040519081016040528092919081815260200182805460018160011615610100020316600290048015610e595780601f10610e2e57610100808354040283529160200191610e59565b820191906000526020600020905b815481529060010190602001808311610e3c57829003601f168201915b505050505090806001018054600181600116156101000203166002900480601f016020809104026020016040519081016040528092919081815260200182805460018160011615610100020316600290048015610ef75780601f10610ecc57610100808354040283529160200191610ef7565b820191906000526020600020905b815481529060010190602001808311610eda57829003601f168201915b5050505050908060020154908060030154908060040160009054906101000a900473ffffffffffffffffffffffffffffffffffffffff16905085565b606060046000838152602001908152602001600020805480602002602001604051908101604052809291908181526020018280548015610f9257602002820191906000526020600020905b815481526020019060010190808311610f7e575b50505050509050919050565b600080600160009054906101000a900473ffffffffffffffffffffffffffffffffffffffff1673ffffffffffffffffffffffffffffffffffffffff1663837a9bc76040518163ffffffff1660e01b815260040160206040518083038186803b15801561100957600080fd5b505afa15801561101d573d6000803e3d6000fd5b505050506040513d601f19601f8201168201806040525061104191908101906116c4565b905061104b611509565b6002600083815260200190815260200160002060008581526020019081526020016000206040518060a0016040529081600082018054600181600116156101000203166002900480601f0160208091040260200160405190810160405280929190818152602001828054600181600116156101000203166002900480156111135780601f106110e857610100808354040283529160200191611113565b820191906000526020600020905b8154815290600101906020018083116110f657829003601f168201915b50505050508152602001600182018054600181600116156101000203166002900480601f0160208091040260200160405190810160405280929190818152602001828054600181600116156101000203166002900480156111b55780601f1061118a576101008083540402835291602001916111b5565b820191906000526020600020905b81548152906001019060200180831161119857829003601f168201915b5050505050815260200160028201548152602001600382015481526020016004820160009054906101000a900473ffffffffffffffffffffffffffffffffffffffff1673ffffffffffffffffffffffffffffffffffffffff1673ffffffffffffffffffffffffffffffffffffffff16815250509050806080015192505050919050565b600030905090565b60608060008060008060056000888152602001908152602001600020600089815260200190815260200160002060009054906101000a900460ff1690506002600088815260200190815260200160002060008981526020019081526020016000206001016002600089815260200190815260200160002060008a8152602001908152602001600020600001600260008a815260200190815260200160002060008b815260200190815260200160002060030154600260008b815260200190815260200160002060008c815260200190815260200160002060040160009054906101000a900473ffffffffffffffffffffffffffffffffffffffff1684848054600181600116156101000203166002900480601f0160208091040260200160405190810160405280929190818152602001828054600181600116156101000203166002900480156113d15780601f106113a6576101008083540402835291602001916113d1565b820191906000526020600020905b8154815290600101906020018083116113b457829003601f168201915b50505050509450838054600181600116156101000203166002900480601f01602080910402602001604051908101604052809291908181526020018280546001816001161561010002031660029004801561146d5780601f106114425761010080835404028352916020019161146d565b820191906000526020600020905b81548152906001019060200180831161145057829003601f168201915b5050505050935095509550955095509550509295509295909350565b828054600181600116156101000203166002900490600052602060002090601f016020900481019282601f106114ca57805160ff19168380011785556114f8565b828001600101855582156114f8579182015b828111156114f75782518255916020019190600101906114dc565b5b509050611505919061154e565b5090565b6040518060a0016040528060608152602001606081526020016000815260200160008152602001600073ffffffffffffffffffffffffffffffffffffffff1681525090565b61157091905b8082111561156c576000816000905550600101611554565b5090565b90565b60008135905061158281611b3f565b92915050565b600082601f83011261159957600080fd5b81356115ac6115a782611a17565b6119ea565b915080825260208301602083018583830111156115c857600080fd5b6115d3838284611aec565b50505092915050565b6000813590506115eb81611b56565b92915050565b60008151905061160081611b56565b92915050565b60006020828403121561161857600080fd5b600061162684828501611573565b91505092915050565b6000806040838503121561164257600080fd5b600083013567ffffffffffffffff81111561165c57600080fd5b61166885828601611588565b925050602083013567ffffffffffffffff81111561168557600080fd5b61169185828601611588565b9150509250929050565b6000602082840312156116ad57600080fd5b60006116bb848285016115dc565b91505092915050565b6000602082840312156116d657600080fd5b60006116e4848285016115f1565b91505092915050565b6000806040838503121561170057600080fd5b600061170e858286016115dc565b925050602061171f858286016115dc565b9150509250929050565b60006117358383611820565b60208301905092915050565b61174a81611aa3565b82525050565b600061175b82611a53565b6117658185611a81565b935061177083611a43565b8060005b838110156117a15781516117888882611729565b975061179383611a74565b925050600181019050611774565b5085935050505092915050565b60006117b982611a69565b6117c38185611a92565b93506117d3818560208601611afb565b6117dc81611b2e565b840191505092915050565b60006117f282611a5e565b6117fc8185611a92565b935061180c818560208601611afb565b61181581611b2e565b840191505092915050565b61182981611ad5565b82525050565b61183881611ad5565b82525050565b61184781611adf565b82525050565b60006020820190506118626000830184611741565b92915050565b600060208201905081810360008301526118828184611750565b905092915050565b600060808201905081810360008301526118a481876117ae565b905081810360208301526118b881866117ae565b90506118c7604083018561182f565b6118d46060830184611741565b95945050505050565b600060a08201905081810360008301526118f781886117ae565b9050818103602083015261190b81876117ae565b905061191a604083018661182f565b6119276060830185611741565b611934608083018461183e565b9695505050505050565b600060a082019050818103600083015261195881886117e7565b9050818103602083015261196c81876117e7565b905061197b604083018661182f565b611988606083018561182f565b6119956080830184611741565b9695505050505050565b60006020820190506119b4600083018461182f565b92915050565b60006040820190506119cf600083018561182f565b81810360208301526119e181846117ae565b90509392505050565b6000604051905081810181811067ffffffffffffffff82111715611a0d57600080fd5b8060405250919050565b600067ffffffffffffffff821115611a2e57600080fd5b601f19601f8301169050602081019050919050565b6000819050602082019050919050565b600081519050919050565b600081519050919050565b600081519050919050565b6000602082019050919050565b600082825260208201905092915050565b600082825260208201905092915050565b6000611aae82611ab5565b9050919050565b600073ffffffffffffffffffffffffffffffffffffffff82169050919050565b6000819050919050565b600060ff82169050919050565b82818337600083830152505050565b60005b83811015611b19578082015181840152602081019050611afe565b83811115611b28576000848401525b50505050565b6000601f19601f8301169050919050565b611b4881611aa3565b8114611b5357600080fd5b50565b611b5f81611ad5565b8114611b6a57600080fd5b5056fea365627a7a72315820d2a541203d51c17a60b4a16c83255c7c24ae8c628b1ef36547686c29433eb53c6c6578706572696d656e74616cf564736f6c63430005100040",
  "source": "pragma solidity >=0.4.21 <0.7.0;\npragma experimental ABIEncoderV2;\nimport \"./GovToken.sol\";\n\ncontract ProposalContract {\n  // change deployment addresses after deployment\n    address govToken_addr  = 0x3D416Cfa03D21155529Dc2aa7f877137B719ca74;\n    GovToken gt = GovToken(govToken_addr);\n    struct Proposal {\n        string proposal_text;\n        string proposal_title;\n        uint epoch;\n        uint votes;\n        address proposer;\n    }\n    \n    mapping (uint => mapping(uint => Proposal)) public proposals;\n    mapping (uint => uint) public proposal_count_for_epochs;\n    mapping(uint => uint[]) private approved_proposals;\n    mapping (uint =>  mapping(uint => uint8)) private approved_proposals_for_epochs;\n\n\n    event ProposalCreated(uint ProposalID, string proposal_title);\n    \n    function getApprovalsByEpoch(uint epoch) public view returns (uint[] memory) {\n        return approved_proposals[epoch];\n    }\n    \n    function updateApprovalStatus(uint id) public {\n        approved_proposals[gt.get_current_epoch()].push(id);\n        approved_proposals_for_epochs[gt.get_current_epoch()][id] = 1;\n    }\n\n    function addProposal(string memory proposal_text, string memory proposal_title) public returns (uint){\n      uint current_e = gt.get_current_epoch();\n      proposals[current_e][proposal_count_for_epochs[current_e]] = Proposal(proposal_text, proposal_title , current_e,0, msg.sender);\n      proposal_count_for_epochs[current_e]++;\n      emit ProposalCreated(proposal_count_for_epochs[current_e], proposal_title);\n      return proposal_count_for_epochs[current_e];\n    }\n\n    function getProposalCount() public view returns (uint){\n      uint current_e = gt.get_current_epoch();\n      return proposal_count_for_epochs[current_e];\n    }\n\n    function getProposalById(uint id) public view returns (string memory  , string memory ,uint, address ){\n      uint current_e = gt.get_current_epoch();\n      Proposal memory proposal = proposals[current_e][id];\n      return (proposal.proposal_text, proposal.proposal_title, proposal.votes, proposal.proposer);\n    }\n    \n    function getProposer(uint id) public view returns (address){\n      uint current_e = gt.get_current_epoch();\n      Proposal memory proposal = proposals[current_e][id];\n      return proposal.proposer;\n    }\n\n    function addVotes(uint id , uint votes) public {\n      proposals[gt.get_current_epoch()][id].votes += votes;\n    }\n\n    function getVote(uint proposal_id)public view returns (uint){\n      return proposals[gt.get_current_epoch()][proposal_id].votes;\n    }\n\n    function getPastProposal(uint id , uint epoch) public view returns(string memory , string memory , uint , address, uint8){\n      uint8 approval_status = approved_proposals_for_epochs[epoch][id];\n      return (proposals[epoch][id].proposal_title , proposals[epoch][id].proposal_text , proposals[epoch][id].votes , proposals[epoch][id].proposer, approval_status);\n    }\n\n    function getPastProposalCount(uint epoch) public view returns (uint) {\n      return (proposal_count_for_epochs[epoch]);\n    }\n\n    function get_current_epoch() public view returns (uint) {\n      return gt.get_current_epoch();\n    }\n    \n    function getAddressProposal() public view returns(address){\n      return address(this);\n    }\n\n    function setContractAddress(address govtoken_add) public {\n        gt = GovToken(govtoken_add);\n    }\n    \n}",
  "sourcePath": "/Users/shashwat.arya/Desktop/BlockChain Project (Pied Piper)/BlockChain-Project--Pied-Piper-/contracts/ProposalContract.sol",
  "compiler": {
    "name": "solc",
    "version": "0.5.16+commit.9c3226ce.Emscripten.clang"
  },
  "schemaVersion": "3.4.3",
  "updatedAt": "2021-11-25T09:11:14.340Z",
  "networkType": "ethereum",
  "devdoc": {
    "methods": {}
  },
  "userdoc": {
    "methods": {}
  }
}