{
  "contractName": "Vote",
  "abi": [
    {
      "anonymous": false,
      "inputs": [
        {
          "indexed": false,
          "internalType": "uint256",
          "name": "ProposalID",
          "type": "uint256"
        },
        {
          "indexed": false,
          "internalType": "uint256",
          "name": "votes",
          "type": "uint256"
        }
      ],
      "name": "VoteCasted",
      "type": "event"
    },
    {
      "constant": true,
      "inputs": [
        {
          "internalType": "uint256",
          "name": "vote_count",
          "type": "uint256"
        }
      ],
      "name": "can_vote",
      "outputs": [
        {
          "internalType": "uint256",
          "name": "",
          "type": "uint256"
        }
      ],
      "payable": false,
      "stateMutability": "view",
      "type": "function"
    },
    {
      "constant": false,
      "inputs": [
        {
          "internalType": "uint256",
          "name": "vote_count",
          "type": "uint256"
        },
        {
          "internalType": "uint256",
          "name": "proposal_id",
          "type": "uint256"
        }
      ],
      "name": "caste_vote",
      "outputs": [
        {
          "internalType": "uint256",
          "name": "",
          "type": "uint256"
        }
      ],
      "payable": false,
      "stateMutability": "nonpayable",
      "type": "function"
    },
    {
      "constant": false,
      "inputs": [],
      "name": "reward_most_voted_proposal",
      "outputs": [
        {
          "internalType": "uint256",
          "name": "",
          "type": "uint256"
        }
      ],
      "payable": false,
      "stateMutability": "nonpayable",
      "type": "function"
    },
    {
      "constant": false,
      "inputs": [],
      "name": "start_new_epoch",
      "outputs": [
        {
          "internalType": "uint256",
          "name": "",
          "type": "uint256"
        }
      ],
      "payable": false,
      "stateMutability": "nonpayable",
      "type": "function"
    }
  ],
  "bytecode": "0x608060405234801561001057600080fd5b50610cf5806100206000396000f3fe608060405234801561001057600080fd5b506004361061004c5760003560e01c80630f397b9f146100515780634712162b146100815780636043351a1461009f578063d91e5eb0146100bd575b600080fd5b61006b60048036036100669190810190610ab4565b6100ed565b6040516100789190610bce565b60405180910390f35b6100896101b3565b6040516100969190610bce565b60405180910390f35b6100a76103ec565b6040516100b49190610bce565b60405180910390f35b6100d760048036036100d29190810190610b06565b61069d565b6040516100e49190610bce565b60405180910390f35b6000816000809054906101000a900473ffffffffffffffffffffffffffffffffffffffff1673ffffffffffffffffffffffffffffffffffffffff166370a08231336040518263ffffffff1660e01b815260040161014a9190610b8a565b60206040518083038186803b15801561016257600080fd5b505afa158015610176573d6000803e3d6000fd5b505050506040513d601f19601f8201168201806040525061019a9190810190610add565b10156101a957600090506101ae565b600190505b919050565b6000806000905060008090506000600160009054906101000a900473ffffffffffffffffffffffffffffffffffffffff1673ffffffffffffffffffffffffffffffffffffffff1663c08cc02d6040518163ffffffff1660e01b815260040160206040518083038186803b15801561022957600080fd5b505afa15801561023d573d6000803e3d6000fd5b505050506040513d601f19601f820116820180604052506102619190810190610add565b905060008090505b818110156103e15783600160009054906101000a900473ffffffffffffffffffffffffffffffffffffffff1673ffffffffffffffffffffffffffffffffffffffff16635a55c1f0836040518263ffffffff1660e01b81526004016102cd9190610bce565b60206040518083038186803b1580156102e557600080fd5b505afa1580156102f9573d6000803e3d6000fd5b505050506040513d601f19601f8201168201806040525061031d9190810190610add565b11156103d457600160009054906101000a900473ffffffffffffffffffffffffffffffffffffffff1673ffffffffffffffffffffffffffffffffffffffff16635a55c1f0826040518263ffffffff1660e01b815260040161037e9190610bce565b60206040518083038186803b15801561039657600080fd5b505afa1580156103aa573d6000803e3d6000fd5b505050506040513d601f19601f820116820180604052506103ce9190810190610add565b93508092505b8080600101915050610269565b506001935050505090565b60008033905060008060009054906101000a900473ffffffffffffffffffffffffffffffffffffffff1673ffffffffffffffffffffffffffffffffffffffff1663121d3f4e6040518163ffffffff1660e01b815260040160206040518083038186803b15801561045b57600080fd5b505afa15801561046f573d6000803e3d6000fd5b505050506040513d601f19601f820116820180604052506104939190810190610a8b565b90508073ffffffffffffffffffffffffffffffffffffffff168273ffffffffffffffffffffffffffffffffffffffff161480610578575060016000809054906101000a900473ffffffffffffffffffffffffffffffffffffffff1673ffffffffffffffffffffffffffffffffffffffff1663870d7022846040518263ffffffff1660e01b81526004016105269190610b6f565b60206040518083038186803b15801561053e57600080fd5b505afa158015610552573d6000803e3d6000fd5b505050506040513d601f19601f820116820180604052506105769190810190610add565b145b15610693576105856108f8565b6000809054906101000a900473ffffffffffffffffffffffffffffffffffffffff1673ffffffffffffffffffffffffffffffffffffffff1663ac11a3686040518163ffffffff1660e01b8152600401600060405180830381600087803b1580156105ee57600080fd5b505af1158015610602573d6000803e3d6000fd5b50505050600160009054906101000a900473ffffffffffffffffffffffffffffffffffffffff1673ffffffffffffffffffffffffffffffffffffffff16639175e8ac6040518163ffffffff1660e01b8152600401600060405180830381600087803b15801561067057600080fd5b505af1158015610684573d6000803e3d6000fd5b5050505060019250505061069a565b6000925050505b90565b600060016106aa846100ed565b14156108ed576000809054906101000a900473ffffffffffffffffffffffffffffffffffffffff1673ffffffffffffffffffffffffffffffffffffffff16635b39ad5533856040518363ffffffff1660e01b815260040161070c929190610ba5565b602060405180830381600087803b15801561072657600080fd5b505af115801561073a573d6000803e3d6000fd5b505050506040513d601f19601f8201168201806040525061075e9190810190610add565b506002600083815260200190815260200160002060405180604001604052803373ffffffffffffffffffffffffffffffffffffffff168152602001858152509080600181540180825580915050906001820390600052602060002090600202016000909192909190915060008201518160000160006101000a81548173ffffffffffffffffffffffffffffffffffffffff021916908373ffffffffffffffffffffffffffffffffffffffff16021790555060208201518160010155505050600160009054906101000a900473ffffffffffffffffffffffffffffffffffffffff1673ffffffffffffffffffffffffffffffffffffffff16637797933f83856040518363ffffffff1660e01b8152600401610879929190610be9565b600060405180830381600087803b15801561089357600080fd5b505af11580156108a7573d6000803e3d6000fd5b505050507f5d4760119c8e8650149aac097d38c70515dfce015031561ad115606533e479be82846040516108dc929190610be9565b60405180910390a1600190506108f2565b600090505b92915050565b6000600160009054906101000a900473ffffffffffffffffffffffffffffffffffffffff1673ffffffffffffffffffffffffffffffffffffffff1663c08cc02d6040518163ffffffff1660e01b815260040160206040518083038186803b15801561096257600080fd5b505afa158015610976573d6000803e3d6000fd5b505050506040513d601f19601f8201168201806040525061099a9190810190610add565b905060008090505b818110156109d6576002600082815260200190815260200160002060006109c991906109da565b80806001019150506109a2565b5050565b50805460008255600202906000526020600020908101906109fb91906109fe565b50565b610a4991905b80821115610a4557600080820160006101000a81549073ffffffffffffffffffffffffffffffffffffffff0219169055600182016000905550600201610a04565b5090565b90565b600081519050610a5b81610c84565b92915050565b600081359050610a7081610c9b565b92915050565b600081519050610a8581610c9b565b92915050565b600060208284031215610a9d57600080fd5b6000610aab84828501610a4c565b91505092915050565b600060208284031215610ac657600080fd5b6000610ad484828501610a61565b91505092915050565b600060208284031215610aef57600080fd5b6000610afd84828501610a76565b91505092915050565b60008060408385031215610b1957600080fd5b6000610b2785828601610a61565b9250506020610b3885828601610a61565b9150509250929050565b610b4b81610c4e565b82525050565b610b5a81610c12565b82525050565b610b6981610c44565b82525050565b6000602082019050610b846000830184610b51565b92915050565b6000602082019050610b9f6000830184610b42565b92915050565b6000604082019050610bba6000830185610b42565b610bc76020830184610b60565b9392505050565b6000602082019050610be36000830184610b60565b92915050565b6000604082019050610bfe6000830185610b60565b610c0b6020830184610b60565b9392505050565b6000610c1d82610c24565b9050919050565b600073ffffffffffffffffffffffffffffffffffffffff82169050919050565b6000819050919050565b6000610c5982610c60565b9050919050565b6000610c6b82610c72565b9050919050565b6000610c7d82610c24565b9050919050565b610c8d81610c12565b8114610c9857600080fd5b50565b610ca481610c44565b8114610caf57600080fd5b5056fea365627a7a723158206b602ffc3884f934b1a4a6ab7c4028ab202afceba3efcf2edc29e4d418c358546c6578706572696d656e74616cf564736f6c63430005100040",
  "source": "pragma solidity >=0.4.21 <0.7.0;\npragma experimental ABIEncoderV2;\nimport \"./GovToken.sol\";\nimport \"./ProposalContract.sol\";\n\ncontract Vote  {\n    GovToken gt;\n    ProposalContract p;\n\n    struct CastedVote{\n        address wallet_address;\n        uint votes;\n    }\n\n    event VoteCasted(uint ProposalID, uint votes);\n\n    mapping(uint => CastedVote[]) proposal_casted_votes;\n\n    function can_vote(uint vote_count) public view returns (uint){\n        // create a function in govtoken to access this\n        if(gt.balanceOf(msg.sender) < vote_count){\n            return 0;\n        }\n        return 1;\n    }\n\n    function caste_vote(uint vote_count , uint proposal_id) public returns (uint){\n        \n        if(can_vote(vote_count) == 1){\n            gt.deductToken(msg.sender , vote_count);\n            proposal_casted_votes[proposal_id].push(CastedVote(msg.sender , vote_count));\n            p.addVotes(proposal_id , vote_count);\n            emit VoteCasted(proposal_id, vote_count);\n            return 1;\n        }\n        return 0;\n    }\n\n    function revert_casted_votes_after_epoch_ends() internal {\n        uint end = p.getProposalCount();\n        for(uint i=0;i<end;i++){\n            uint casted_votes = proposal_casted_votes[i].length;\n            for(uint k=0;k<casted_votes;k++){\n                // give these tokens back to the corresponding wallets\n            }\n        }\n    }\n\n    function clear_casted_votes_after_epoch_ends()internal{\n        uint end = p.getProposalCount();\n        for(uint i=0 ; i<end; i++){\n            delete proposal_casted_votes[i];\n        }\n    }\n\n    function reward_most_voted_proposal() public returns (uint){\n      uint maximum_votes = 0;\n      uint id = 0;\n      uint end = p.getProposalCount();\n      for(uint i=0;i<end;i++){\n        if(p.getVote(i) > maximum_votes){\n          maximum_votes = p.getVote(i);\n          id = i;\n        }\n      }\n      // Give 25 tokens to id\n    return 1;\n    }\n\n    function start_new_epoch() public  returns (uint){\n        address user = msg.sender;\n        address driver = gt.getDriverAddress();\n        if(user == driver || gt.check_if_address_is_council_member(user)==1) {\n            clear_casted_votes_after_epoch_ends();\n            gt.increment_epoch();\n            p.resetProposalCount();\n            return 1;\n        }\n        return 0;\n    }\n}",
  "sourcePath": "/Users/kirath/Desktop/BlockChain-Project--Pied-Piper-/contracts/Vote.sol",
  "compiler": {
    "name": "solc",
    "version": "0.5.16+commit.9c3226ce.Emscripten.clang"
  },
  "schemaVersion": "3.4.3",
  "updatedAt": "2021-11-12T13:51:29.726Z",
  "devdoc": {
    "methods": {}
  },
  "userdoc": {
    "methods": {}
  }
}