{
  "contractName": "Vote",
  "abi": [
    {
      "anonymous": false,
      "inputs": [
        {
          "indexed": false,
          "internalType": "uint256",
          "name": "ProposalID",
          "type": "uint256"
        },
        {
          "indexed": false,
          "internalType": "uint256",
          "name": "votes",
          "type": "uint256"
        }
      ],
      "name": "VoteCasted",
      "type": "event"
    },
    {
      "constant": true,
      "inputs": [
        {
          "internalType": "uint256",
          "name": "vote_count",
          "type": "uint256"
        }
      ],
      "name": "can_vote",
      "outputs": [
        {
          "internalType": "uint256",
          "name": "",
          "type": "uint256"
        }
      ],
      "payable": false,
      "stateMutability": "view",
      "type": "function"
    },
    {
      "constant": false,
      "inputs": [
        {
          "internalType": "uint256",
          "name": "vote_count",
          "type": "uint256"
        },
        {
          "internalType": "uint256",
          "name": "proposal_id",
          "type": "uint256"
        }
      ],
      "name": "caste_vote",
      "outputs": [
        {
          "internalType": "uint256",
          "name": "",
          "type": "uint256"
        }
      ],
      "payable": false,
      "stateMutability": "nonpayable",
      "type": "function"
    },
    {
      "constant": true,
      "inputs": [
        {
          "internalType": "uint256",
          "name": "proposal_id",
          "type": "uint256"
        }
      ],
      "name": "get_casted_votes_array_length",
      "outputs": [
        {
          "internalType": "uint256",
          "name": "",
          "type": "uint256"
        }
      ],
      "payable": false,
      "stateMutability": "view",
      "type": "function"
    },
    {
      "constant": true,
      "inputs": [
        {
          "internalType": "uint256",
          "name": "proposal_id",
          "type": "uint256"
        },
        {
          "internalType": "uint256",
          "name": "index",
          "type": "uint256"
        }
      ],
      "name": "get_token_and_address_for_a_cast",
      "outputs": [
        {
          "internalType": "uint256",
          "name": "",
          "type": "uint256"
        },
        {
          "internalType": "address",
          "name": "",
          "type": "address"
        }
      ],
      "payable": false,
      "stateMutability": "view",
      "type": "function"
    },
    {
      "constant": false,
      "inputs": [],
      "name": "clear_casted_votes_after_epoch_ends",
      "outputs": [],
      "payable": false,
      "stateMutability": "nonpayable",
      "type": "function"
    },
    {
      "constant": false,
      "inputs": [],
      "name": "reward_most_voted_proposal",
      "outputs": [
        {
          "internalType": "uint256",
          "name": "",
          "type": "uint256"
        }
      ],
      "payable": false,
      "stateMutability": "nonpayable",
      "type": "function"
    }
  ],
  "bytecode": "0x608060405234801561001057600080fd5b50610b1e806100206000396000f3fe608060405234801561001057600080fd5b50600436106100625760003560e01c80630f397b9f146100675780631da003dc146100975780634712162b146100a1578063795cce96146100bf5780638387a152146100f0578063d91e5eb014610120575b600080fd5b610081600480360361007c91908101906108e6565b610150565b60405161008e91906109e5565b60405180910390f35b61009f610216565b005b6100a96102f8565b6040516100b691906109e5565b60405180910390f35b6100d960048036036100d49190810190610938565b610531565b6040516100e7929190610a00565b60405180910390f35b61010a600480360361010591908101906108e6565b6105bf565b60405161011791906109e5565b60405180910390f35b61013a60048036036101359190810190610938565b6105df565b60405161014791906109e5565b60405180910390f35b6000816000809054906101000a900473ffffffffffffffffffffffffffffffffffffffff1673ffffffffffffffffffffffffffffffffffffffff166370a08231336040518263ffffffff1660e01b81526004016101ad91906109a1565b60206040518083038186803b1580156101c557600080fd5b505afa1580156101d9573d6000803e3d6000fd5b505050506040513d601f19601f820116820180604052506101fd919081019061090f565b101561020c5760009050610211565b600190505b919050565b6000600160009054906101000a900473ffffffffffffffffffffffffffffffffffffffff1673ffffffffffffffffffffffffffffffffffffffff1663c08cc02d6040518163ffffffff1660e01b815260040160206040518083038186803b15801561028057600080fd5b505afa158015610294573d6000803e3d6000fd5b505050506040513d601f19601f820116820180604052506102b8919081019061090f565b905060008090505b818110156102f4576002600082815260200190815260200160002060006102e7919061084a565b80806001019150506102c0565b5050565b6000806000905060008090506000600160009054906101000a900473ffffffffffffffffffffffffffffffffffffffff1673ffffffffffffffffffffffffffffffffffffffff1663c08cc02d6040518163ffffffff1660e01b815260040160206040518083038186803b15801561036e57600080fd5b505afa158015610382573d6000803e3d6000fd5b505050506040513d601f19601f820116820180604052506103a6919081019061090f565b905060008090505b818110156105265783600160009054906101000a900473ffffffffffffffffffffffffffffffffffffffff1673ffffffffffffffffffffffffffffffffffffffff16635a55c1f0836040518263ffffffff1660e01b815260040161041291906109e5565b60206040518083038186803b15801561042a57600080fd5b505afa15801561043e573d6000803e3d6000fd5b505050506040513d601f19601f82011682018060405250610462919081019061090f565b111561051957600160009054906101000a900473ffffffffffffffffffffffffffffffffffffffff1673ffffffffffffffffffffffffffffffffffffffff16635a55c1f0826040518263ffffffff1660e01b81526004016104c391906109e5565b60206040518083038186803b1580156104db57600080fd5b505afa1580156104ef573d6000803e3d6000fd5b505050506040513d601f19601f82011682018060405250610513919081019061090f565b93508092505b80806001019150506103ae565b506001935050505090565b60008060026000858152602001908152602001600020838154811061055257fe5b90600052602060002090600202016001015460026000868152602001908152602001600020848154811061058257fe5b906000526020600020906002020160000160009054906101000a900473ffffffffffffffffffffffffffffffffffffffff16915091509250929050565b600060026000838152602001908152602001600020805490509050919050565b600060016105ec84610150565b141561083f5760008060009054906101000a900473ffffffffffffffffffffffffffffffffffffffff1673ffffffffffffffffffffffffffffffffffffffff16635b39ad5533866040518363ffffffff1660e01b81526004016106509291906109bc565b602060405180830381600087803b15801561066a57600080fd5b505af115801561067e573d6000803e3d6000fd5b505050506040513d601f19601f820116820180604052506106a2919081019061090f565b14156106b15760009050610844565b6002600083815260200190815260200160002060405180604001604052803373ffffffffffffffffffffffffffffffffffffffff168152602001858152509080600181540180825580915050906001820390600052602060002090600202016000909192909190915060008201518160000160006101000a81548173ffffffffffffffffffffffffffffffffffffffff021916908373ffffffffffffffffffffffffffffffffffffffff16021790555060208201518160010155505050600160009054906101000a900473ffffffffffffffffffffffffffffffffffffffff1673ffffffffffffffffffffffffffffffffffffffff16637797933f83856040518363ffffffff1660e01b81526004016107cb929190610a29565b600060405180830381600087803b1580156107e557600080fd5b505af11580156107f9573d6000803e3d6000fd5b505050507f5d4760119c8e8650149aac097d38c70515dfce015031561ad115606533e479be828460405161082e929190610a29565b60405180910390a160019050610844565b600090505b92915050565b508054600082556002029060005260206000209081019061086b919061086e565b50565b6108b991905b808211156108b557600080820160006101000a81549073ffffffffffffffffffffffffffffffffffffffff0219169055600182016000905550600201610874565b5090565b90565b6000813590506108cb81610ac4565b92915050565b6000815190506108e081610ac4565b92915050565b6000602082840312156108f857600080fd5b6000610906848285016108bc565b91505092915050565b60006020828403121561092157600080fd5b600061092f848285016108d1565b91505092915050565b6000806040838503121561094b57600080fd5b6000610959858286016108bc565b925050602061096a858286016108bc565b9150509250929050565b61097d81610a8e565b82525050565b61098c81610a52565b82525050565b61099b81610a84565b82525050565b60006020820190506109b66000830184610974565b92915050565b60006040820190506109d16000830185610974565b6109de6020830184610992565b9392505050565b60006020820190506109fa6000830184610992565b92915050565b6000604082019050610a156000830185610992565b610a226020830184610983565b9392505050565b6000604082019050610a3e6000830185610992565b610a4b6020830184610992565b9392505050565b6000610a5d82610a64565b9050919050565b600073ffffffffffffffffffffffffffffffffffffffff82169050919050565b6000819050919050565b6000610a9982610aa0565b9050919050565b6000610aab82610ab2565b9050919050565b6000610abd82610a64565b9050919050565b610acd81610a84565b8114610ad857600080fd5b5056fea365627a7a72315820e7af3cd7b175d17038239579191e8567de228867b3758cef100059e35eb374596c6578706572696d656e74616cf564736f6c63430005100040",
  "source": "pragma solidity >=0.4.21 <0.7.0;\npragma experimental ABIEncoderV2;\nimport \"./GovToken.sol\";\nimport \"./ProposalContract.sol\";\n\ncontract Vote  {\n    GovToken gt;\n    ProposalContract p;\n\n    struct CastedVote{\n        address wallet_address;\n        uint votes;\n    }\n\n    event VoteCasted(uint ProposalID, uint votes);\n\n    mapping(uint => CastedVote[]) proposal_casted_votes;\n\n    function can_vote(uint vote_count) public view returns (uint){\n        // create a function in govtoken to access this\n        if(gt.balanceOf(msg.sender) < vote_count){\n            return 0;\n        }\n        return 1;\n    }\n\n    function caste_vote(uint vote_count , uint proposal_id) public returns (uint){\n        \n        if(can_vote(vote_count) == 1){\n            if(gt.deductToken(msg.sender , vote_count)==0){\n                return 0;\n            }\n            proposal_casted_votes[proposal_id].push(CastedVote(msg.sender , vote_count));\n            p.addVotes(proposal_id , vote_count);\n            emit VoteCasted(proposal_id, vote_count);\n            return 1;\n        }\n        return 0;\n    }\n\n    function get_casted_votes_array_length(uint proposal_id) public view returns (uint){\n        return proposal_casted_votes[proposal_id].length;\n    }\n\n    function get_token_and_address_for_a_cast(uint proposal_id , uint index) public view returns(uint , address){\n        return (proposal_casted_votes[proposal_id][index].votes , proposal_casted_votes[proposal_id][index].wallet_address);\n    }\n\n    function clear_casted_votes_after_epoch_ends()public{\n        uint end = p.getProposalCount();\n        for(uint i=0 ; i<end; i++){\n            delete proposal_casted_votes[i];\n        }\n    }\n\n    function reward_most_voted_proposal() public returns (uint){\n      uint maximum_votes = 0;\n      uint id = 0;\n      uint end = p.getProposalCount();\n      for(uint i=0;i<end;i++){\n        if(p.getVote(i) > maximum_votes){\n          maximum_votes = p.getVote(i);\n          id = i;\n        }\n      }\n      // Give 25 tokens to id\n    return 1;\n    }\n\n    \n}",
  "sourcePath": "/Users/kirath/Desktop/BlockChain-Project--Pied-Piper-/contracts/Vote.sol",
  "compiler": {
    "name": "solc",
    "version": "0.5.16+commit.9c3226ce.Emscripten.clang"
  },
  "schemaVersion": "3.4.3",
  "updatedAt": "2021-11-13T00:26:46.708Z",
  "devdoc": {
    "methods": {}
  },
  "userdoc": {
    "methods": {}
  }
}