{
  "contractName": "Vote",
  "abi": [
    {
      "anonymous": false,
      "inputs": [
        {
          "indexed": false,
          "internalType": "uint256",
          "name": "ProposalID",
          "type": "uint256"
        },
        {
          "indexed": false,
          "internalType": "uint256",
          "name": "votes",
          "type": "uint256"
        }
      ],
      "name": "VoteCasted",
      "type": "event"
    },
    {
      "constant": true,
      "inputs": [
        {
          "internalType": "uint256",
          "name": "vote_count",
          "type": "uint256"
        }
      ],
      "name": "can_vote",
      "outputs": [
        {
          "internalType": "uint256",
          "name": "",
          "type": "uint256"
        }
      ],
      "payable": false,
      "stateMutability": "view",
      "type": "function"
    },
    {
      "constant": false,
      "inputs": [
        {
          "internalType": "uint256",
          "name": "vote_count",
          "type": "uint256"
        },
        {
          "internalType": "uint256",
          "name": "proposal_id",
          "type": "uint256"
        }
      ],
      "name": "caste_vote",
      "outputs": [
        {
          "internalType": "uint256",
          "name": "",
          "type": "uint256"
        }
      ],
      "payable": false,
      "stateMutability": "nonpayable",
      "type": "function"
    },
    {
      "constant": true,
      "inputs": [
        {
          "internalType": "uint256",
          "name": "proposal_id",
          "type": "uint256"
        }
      ],
      "name": "get_casted_votes_array_length",
      "outputs": [
        {
          "internalType": "uint256",
          "name": "",
          "type": "uint256"
        }
      ],
      "payable": false,
      "stateMutability": "view",
      "type": "function"
    },
    {
      "constant": true,
      "inputs": [
        {
          "internalType": "uint256",
          "name": "proposal_id",
          "type": "uint256"
        },
        {
          "internalType": "uint256",
          "name": "index",
          "type": "uint256"
        }
      ],
      "name": "get_token_and_address_for_a_cast",
      "outputs": [
        {
          "internalType": "uint256",
          "name": "",
          "type": "uint256"
        },
        {
          "internalType": "address",
          "name": "",
          "type": "address"
        }
      ],
      "payable": false,
      "stateMutability": "view",
      "type": "function"
    },
    {
      "constant": false,
      "inputs": [],
      "name": "clear_casted_votes_after_epoch_ends",
      "outputs": [],
      "payable": false,
      "stateMutability": "nonpayable",
      "type": "function"
    },
    {
      "constant": false,
      "inputs": [],
      "name": "reward_most_voted_proposal",
      "outputs": [
        {
          "internalType": "uint256",
          "name": "",
          "type": "uint256"
        }
      ],
      "payable": false,
      "stateMutability": "nonpayable",
      "type": "function"
    }
  ],
  "bytecode": "0x6080604052733d416cfa03d21155529dc2aa7f877137b719ca746000806101000a81548173ffffffffffffffffffffffffffffffffffffffff021916908373ffffffffffffffffffffffffffffffffffffffff1602179055506000809054906101000a900473ffffffffffffffffffffffffffffffffffffffff16600160006101000a81548173ffffffffffffffffffffffffffffffffffffffff021916908373ffffffffffffffffffffffffffffffffffffffff1602179055507340b4a36a8f733bbec4e65fdd75cd522fab53aef5600260006101000a81548173ffffffffffffffffffffffffffffffffffffffff021916908373ffffffffffffffffffffffffffffffffffffffff160217905550600260009054906101000a900473ffffffffffffffffffffffffffffffffffffffff16600360006101000a81548173ffffffffffffffffffffffffffffffffffffffff021916908373ffffffffffffffffffffffffffffffffffffffff16021790555034801561017e57600080fd5b50610b208061018e6000396000f3fe608060405234801561001057600080fd5b50600436106100625760003560e01c80630f397b9f146100675780631da003dc146100975780634712162b146100a1578063795cce96146100bf5780638387a152146100f0578063d91e5eb014610120575b600080fd5b610081600480360361007c91908101906108e8565b610150565b60405161008e91906109e7565b60405180910390f35b61009f610217565b005b6100a96102f9565b6040516100b691906109e7565b60405180910390f35b6100d960048036036100d4919081019061093a565b610532565b6040516100e7929190610a02565b60405180910390f35b61010a600480360361010591908101906108e8565b6105c0565b60405161011791906109e7565b60405180910390f35b61013a6004803603610135919081019061093a565b6105e0565b60405161014791906109e7565b60405180910390f35b600081600160009054906101000a900473ffffffffffffffffffffffffffffffffffffffff1673ffffffffffffffffffffffffffffffffffffffff166370a08231336040518263ffffffff1660e01b81526004016101ae91906109a3565b60206040518083038186803b1580156101c657600080fd5b505afa1580156101da573d6000803e3d6000fd5b505050506040513d601f19601f820116820180604052506101fe9190810190610911565b101561020d5760009050610212565b600190505b919050565b6000600360009054906101000a900473ffffffffffffffffffffffffffffffffffffffff1673ffffffffffffffffffffffffffffffffffffffff1663c08cc02d6040518163ffffffff1660e01b815260040160206040518083038186803b15801561028157600080fd5b505afa158015610295573d6000803e3d6000fd5b505050506040513d601f19601f820116820180604052506102b99190810190610911565b905060008090505b818110156102f5576004600082815260200190815260200160002060006102e8919061084c565b80806001019150506102c1565b5050565b6000806000905060008090506000600360009054906101000a900473ffffffffffffffffffffffffffffffffffffffff1673ffffffffffffffffffffffffffffffffffffffff1663c08cc02d6040518163ffffffff1660e01b815260040160206040518083038186803b15801561036f57600080fd5b505afa158015610383573d6000803e3d6000fd5b505050506040513d601f19601f820116820180604052506103a79190810190610911565b905060008090505b818110156105275783600360009054906101000a900473ffffffffffffffffffffffffffffffffffffffff1673ffffffffffffffffffffffffffffffffffffffff16635a55c1f0836040518263ffffffff1660e01b815260040161041391906109e7565b60206040518083038186803b15801561042b57600080fd5b505afa15801561043f573d6000803e3d6000fd5b505050506040513d601f19601f820116820180604052506104639190810190610911565b111561051a57600360009054906101000a900473ffffffffffffffffffffffffffffffffffffffff1673ffffffffffffffffffffffffffffffffffffffff16635a55c1f0826040518263ffffffff1660e01b81526004016104c491906109e7565b60206040518083038186803b1580156104dc57600080fd5b505afa1580156104f0573d6000803e3d6000fd5b505050506040513d601f19601f820116820180604052506105149190810190610911565b93508092505b80806001019150506103af565b506001935050505090565b60008060046000858152602001908152602001600020838154811061055357fe5b90600052602060002090600202016001015460046000868152602001908152602001600020848154811061058357fe5b906000526020600020906002020160000160009054906101000a900473ffffffffffffffffffffffffffffffffffffffff16915091509250929050565b600060046000838152602001908152602001600020805490509050919050565b600060016105ed84610150565b1415610841576000600160009054906101000a900473ffffffffffffffffffffffffffffffffffffffff1673ffffffffffffffffffffffffffffffffffffffff16635b39ad5533866040518363ffffffff1660e01b81526004016106529291906109be565b602060405180830381600087803b15801561066c57600080fd5b505af1158015610680573d6000803e3d6000fd5b505050506040513d601f19601f820116820180604052506106a49190810190610911565b14156106b35760009050610846565b6004600083815260200190815260200160002060405180604001604052803373ffffffffffffffffffffffffffffffffffffffff168152602001858152509080600181540180825580915050906001820390600052602060002090600202016000909192909190915060008201518160000160006101000a81548173ffffffffffffffffffffffffffffffffffffffff021916908373ffffffffffffffffffffffffffffffffffffffff16021790555060208201518160010155505050600360009054906101000a900473ffffffffffffffffffffffffffffffffffffffff1673ffffffffffffffffffffffffffffffffffffffff16637797933f83856040518363ffffffff1660e01b81526004016107cd929190610a2b565b600060405180830381600087803b1580156107e757600080fd5b505af11580156107fb573d6000803e3d6000fd5b505050507f5d4760119c8e8650149aac097d38c70515dfce015031561ad115606533e479be8284604051610830929190610a2b565b60405180910390a160019050610846565b600090505b92915050565b508054600082556002029060005260206000209081019061086d9190610870565b50565b6108bb91905b808211156108b757600080820160006101000a81549073ffffffffffffffffffffffffffffffffffffffff0219169055600182016000905550600201610876565b5090565b90565b6000813590506108cd81610ac6565b92915050565b6000815190506108e281610ac6565b92915050565b6000602082840312156108fa57600080fd5b6000610908848285016108be565b91505092915050565b60006020828403121561092357600080fd5b6000610931848285016108d3565b91505092915050565b6000806040838503121561094d57600080fd5b600061095b858286016108be565b925050602061096c858286016108be565b9150509250929050565b61097f81610a90565b82525050565b61098e81610a54565b82525050565b61099d81610a86565b82525050565b60006020820190506109b86000830184610976565b92915050565b60006040820190506109d36000830185610976565b6109e06020830184610994565b9392505050565b60006020820190506109fc6000830184610994565b92915050565b6000604082019050610a176000830185610994565b610a246020830184610985565b9392505050565b6000604082019050610a406000830185610994565b610a4d6020830184610994565b9392505050565b6000610a5f82610a66565b9050919050565b600073ffffffffffffffffffffffffffffffffffffffff82169050919050565b6000819050919050565b6000610a9b82610aa2565b9050919050565b6000610aad82610ab4565b9050919050565b6000610abf82610a66565b9050919050565b610acf81610a86565b8114610ada57600080fd5b5056fea365627a7a72315820a8e6f2170dd66e96d84cc963f3c72fb57909959c159c10f925dd33d5a8299c816c6578706572696d656e74616cf564736f6c63430005100040",
  "source": "pragma solidity >=0.4.21 <0.7.0;\npragma experimental ABIEncoderV2;\nimport \"./GovToken.sol\";\nimport \"./ProposalContract.sol\";\n\ncontract Vote  {\n    // change deployment addresses after deployment\n    address govToken_addr  = 0x3D416Cfa03D21155529Dc2aa7f877137B719ca74;\n    GovToken gt = GovToken(govToken_addr);\n    address proposal_contract_address = 0x40B4A36A8f733BbeC4E65FdD75Cd522faB53AeF5;\n    ProposalContract p = ProposalContract(proposal_contract_address);\n\n    struct CastedVote{\n        address wallet_address;\n        uint votes;\n    }\n\n    event VoteCasted(uint ProposalID, uint votes);\n\n    mapping(uint => CastedVote[]) proposal_casted_votes;\n\n    function can_vote(uint vote_count) public view returns (uint){\n        // create a function in govtoken to access this\n        if(gt.balanceOf(msg.sender) < vote_count){\n            return 0;\n        }\n        return 1;\n    }\n\n    function caste_vote(uint vote_count , uint proposal_id) public returns (uint){\n        \n        if(can_vote(vote_count) == 1){\n            if(gt.deductToken(msg.sender , vote_count)==0){\n                return 0;\n            }\n            proposal_casted_votes[proposal_id].push(CastedVote(msg.sender , vote_count));\n            p.addVotes(proposal_id , vote_count);\n            emit VoteCasted(proposal_id, vote_count);\n            return 1;\n        }\n        return 0;\n    }\n\n    function get_casted_votes_array_length(uint proposal_id) public view returns (uint){\n        return proposal_casted_votes[proposal_id].length;\n    }\n\n    function get_token_and_address_for_a_cast(uint proposal_id , uint index) public view returns(uint , address){\n        return (proposal_casted_votes[proposal_id][index].votes , proposal_casted_votes[proposal_id][index].wallet_address);\n    }\n\n    function clear_casted_votes_after_epoch_ends()public{\n        uint end = p.getProposalCount();\n        for(uint i=0 ; i<end; i++){\n            delete proposal_casted_votes[i];\n        }\n    }\n\n    function reward_most_voted_proposal() public returns (uint){\n      uint maximum_votes = 0;\n      uint id = 0;\n      uint end = p.getProposalCount();\n      for(uint i=0;i<end;i++){\n        if(p.getVote(i) > maximum_votes){\n          maximum_votes = p.getVote(i);\n          id = i;\n        }\n      }\n      // Give 25 tokens to id\n    return 1;\n    }\n\n    \n}",
  "sourcePath": "/Users/shashwat.arya/Desktop/BlockChain Project (Pied Piper)/BlockChain-Project--Pied-Piper-/contracts/Vote.sol",
  "compiler": {
    "name": "solc",
    "version": "0.5.16+commit.9c3226ce.Emscripten.clang"
  },
  "schemaVersion": "3.4.3",
  "updatedAt": "2021-11-17T09:59:03.395Z",
  "networkType": "ethereum",
  "devdoc": {
    "methods": {}
  },
  "userdoc": {
    "methods": {}
  }
}