{
  "contractName": "Vote",
  "abi": [
    {
      "anonymous": false,
      "inputs": [
        {
          "indexed": false,
          "internalType": "uint256",
          "name": "ProposalID",
          "type": "uint256"
        },
        {
          "indexed": false,
          "internalType": "uint256",
          "name": "votes",
          "type": "uint256"
        }
      ],
      "name": "VoteCasted",
      "type": "event"
    },
    {
      "constant": true,
      "inputs": [
        {
          "internalType": "uint256",
          "name": "vote_count",
          "type": "uint256"
        }
      ],
      "name": "can_vote",
      "outputs": [
        {
          "internalType": "uint256",
          "name": "",
          "type": "uint256"
        }
      ],
      "payable": false,
      "stateMutability": "view",
      "type": "function"
    },
    {
      "constant": false,
      "inputs": [
        {
          "internalType": "uint256",
          "name": "vote_count",
          "type": "uint256"
        },
        {
          "internalType": "uint256",
          "name": "proposal_id",
          "type": "uint256"
        }
      ],
      "name": "caste_vote",
      "outputs": [
        {
          "internalType": "uint256",
          "name": "",
          "type": "uint256"
        }
      ],
      "payable": false,
      "stateMutability": "nonpayable",
      "type": "function"
    },
    {
      "constant": true,
      "inputs": [
        {
          "internalType": "uint256",
          "name": "proposal_id",
          "type": "uint256"
        }
      ],
      "name": "get_casted_votes_array_length",
      "outputs": [
        {
          "internalType": "uint256",
          "name": "",
          "type": "uint256"
        }
      ],
      "payable": false,
      "stateMutability": "view",
      "type": "function"
    },
    {
      "constant": true,
      "inputs": [
        {
          "internalType": "uint256",
          "name": "proposal_id",
          "type": "uint256"
        },
        {
          "internalType": "uint256",
          "name": "index",
          "type": "uint256"
        }
      ],
      "name": "get_token_and_address_for_a_cast",
      "outputs": [
        {
          "internalType": "uint256",
          "name": "",
          "type": "uint256"
        },
        {
          "internalType": "address",
          "name": "",
          "type": "address"
        }
      ],
      "payable": false,
      "stateMutability": "view",
      "type": "function"
    },
    {
      "constant": false,
      "inputs": [],
      "name": "clear_casted_votes_after_epoch_ends",
      "outputs": [],
      "payable": false,
      "stateMutability": "nonpayable",
      "type": "function"
    },
    {
      "constant": false,
      "inputs": [],
      "name": "reward_most_voted_proposal",
      "outputs": [
        {
          "internalType": "uint256",
          "name": "",
          "type": "uint256"
        }
      ],
      "payable": false,
      "stateMutability": "nonpayable",
      "type": "function"
    },
    {
      "constant": false,
      "inputs": [
        {
          "internalType": "address",
          "name": "govtoken_add",
          "type": "address"
        },
        {
          "internalType": "address",
          "name": "proposal_add",
          "type": "address"
        }
      ],
      "name": "setContractAddress",
      "outputs": [],
      "payable": false,
      "stateMutability": "nonpayable",
      "type": "function"
    }
  ],
  "bytecode": "0x6080604052733d416cfa03d21155529dc2aa7f877137b719ca746000806101000a81548173ffffffffffffffffffffffffffffffffffffffff021916908373ffffffffffffffffffffffffffffffffffffffff1602179055506000809054906101000a900473ffffffffffffffffffffffffffffffffffffffff16600160006101000a81548173ffffffffffffffffffffffffffffffffffffffff021916908373ffffffffffffffffffffffffffffffffffffffff1602179055507340b4a36a8f733bbec4e65fdd75cd522fab53aef5600260006101000a81548173ffffffffffffffffffffffffffffffffffffffff021916908373ffffffffffffffffffffffffffffffffffffffff160217905550600260009054906101000a900473ffffffffffffffffffffffffffffffffffffffff16600360006101000a81548173ffffffffffffffffffffffffffffffffffffffff021916908373ffffffffffffffffffffffffffffffffffffffff16021790555034801561017e57600080fd5b50610e0d8061018e6000396000f3fe608060405234801561001057600080fd5b506004361061007d5760003560e01c80634712162b1161005b5780634712162b146100d8578063795cce96146100f65780638387a15214610127578063d91e5eb0146101575761007d565b80630f397b9f146100825780631da003dc146100b257806323626df7146100bc575b600080fd5b61009c60048036036100979190810190610b74565b610187565b6040516100a99190610cab565b60405180910390f35b6100ba61024e565b005b6100d660048036036100d19190810190610b38565b610330565b005b6100e06103b6565b6040516100ed9190610cab565b60405180910390f35b610110600480360361010b9190810190610bc6565b61072f565b60405161011e929190610cc6565b60405180910390f35b610141600480360361013c9190810190610b74565b6107bd565b60405161014e9190610cab565b60405180910390f35b610171600480360361016c9190810190610bc6565b6107dd565b60405161017e9190610cab565b60405180910390f35b600081600160009054906101000a900473ffffffffffffffffffffffffffffffffffffffff1673ffffffffffffffffffffffffffffffffffffffff166370a08231336040518263ffffffff1660e01b81526004016101e59190610c3e565b60206040518083038186803b1580156101fd57600080fd5b505afa158015610211573d6000803e3d6000fd5b505050506040513d601f19601f820116820180604052506102359190810190610b9d565b10156102445760009050610249565b600190505b919050565b6000600360009054906101000a900473ffffffffffffffffffffffffffffffffffffffff1673ffffffffffffffffffffffffffffffffffffffff1663c08cc02d6040518163ffffffff1660e01b815260040160206040518083038186803b1580156102b857600080fd5b505afa1580156102cc573d6000803e3d6000fd5b505050506040513d601f19601f820116820180604052506102f09190810190610b9d565b905060008090505b8181101561032c5760046000828152602001908152602001600020600061031f9190610a49565b80806001019150506102f8565b5050565b80600360006101000a81548173ffffffffffffffffffffffffffffffffffffffff021916908373ffffffffffffffffffffffffffffffffffffffff16021790555081600160006101000a81548173ffffffffffffffffffffffffffffffffffffffff021916908373ffffffffffffffffffffffffffffffffffffffff1602179055505050565b6000806000905060008090506000600360009054906101000a900473ffffffffffffffffffffffffffffffffffffffff1673ffffffffffffffffffffffffffffffffffffffff1663c08cc02d6040518163ffffffff1660e01b815260040160206040518083038186803b15801561042c57600080fd5b505afa158015610440573d6000803e3d6000fd5b505050506040513d601f19601f820116820180604052506104649190810190610b9d565b905060008090505b818110156105e45783600360009054906101000a900473ffffffffffffffffffffffffffffffffffffffff1673ffffffffffffffffffffffffffffffffffffffff16635a55c1f0836040518263ffffffff1660e01b81526004016104d09190610cab565b60206040518083038186803b1580156104e857600080fd5b505afa1580156104fc573d6000803e3d6000fd5b505050506040513d601f19601f820116820180604052506105209190810190610b9d565b11156105d757600360009054906101000a900473ffffffffffffffffffffffffffffffffffffffff1673ffffffffffffffffffffffffffffffffffffffff16635a55c1f0826040518263ffffffff1660e01b81526004016105819190610cab565b60206040518083038186803b15801561059957600080fd5b505afa1580156105ad573d6000803e3d6000fd5b505050506040513d601f19601f820116820180604052506105d19190810190610b9d565b93508092505b808060010191505061046c565b506000600360009054906101000a900473ffffffffffffffffffffffffffffffffffffffff1673ffffffffffffffffffffffffffffffffffffffff1663e14bd874846040518263ffffffff1660e01b81526004016106429190610cab565b60206040518083038186803b15801561065a57600080fd5b505afa15801561066e573d6000803e3d6000fd5b505050506040513d601f19601f820116820180604052506106929190810190610b0f565b9050600160009054906101000a900473ffffffffffffffffffffffffffffffffffffffff1673ffffffffffffffffffffffffffffffffffffffff1663f4c628526019836040518363ffffffff1660e01b81526004016106f2929190610c82565b600060405180830381600087803b15801561070c57600080fd5b505af1158015610720573d6000803e3d6000fd5b50505050600194505050505090565b60008060046000858152602001908152602001600020838154811061075057fe5b90600052602060002090600202016001015460046000868152602001908152602001600020848154811061078057fe5b906000526020600020906002020160000160009054906101000a900473ffffffffffffffffffffffffffffffffffffffff16915091509250929050565b600060046000838152602001908152602001600020805490509050919050565b600060016107ea84610187565b1415610a3e576000600160009054906101000a900473ffffffffffffffffffffffffffffffffffffffff1673ffffffffffffffffffffffffffffffffffffffff16635b39ad5533866040518363ffffffff1660e01b815260040161084f929190610c59565b602060405180830381600087803b15801561086957600080fd5b505af115801561087d573d6000803e3d6000fd5b505050506040513d601f19601f820116820180604052506108a19190810190610b9d565b14156108b05760009050610a43565b6004600083815260200190815260200160002060405180604001604052803373ffffffffffffffffffffffffffffffffffffffff168152602001858152509080600181540180825580915050906001820390600052602060002090600202016000909192909190915060008201518160000160006101000a81548173ffffffffffffffffffffffffffffffffffffffff021916908373ffffffffffffffffffffffffffffffffffffffff16021790555060208201518160010155505050600360009054906101000a900473ffffffffffffffffffffffffffffffffffffffff1673ffffffffffffffffffffffffffffffffffffffff16637797933f83856040518363ffffffff1660e01b81526004016109ca929190610cef565b600060405180830381600087803b1580156109e457600080fd5b505af11580156109f8573d6000803e3d6000fd5b505050507f5d4760119c8e8650149aac097d38c70515dfce015031561ad115606533e479be8284604051610a2d929190610cef565b60405180910390a160019050610a43565b600090505b92915050565b5080546000825560020290600052602060002090810190610a6a9190610a6d565b50565b610ab891905b80821115610ab457600080820160006101000a81549073ffffffffffffffffffffffffffffffffffffffff0219169055600182016000905550600201610a73565b5090565b90565b600081359050610aca81610d9c565b92915050565b600081519050610adf81610d9c565b92915050565b600081359050610af481610db3565b92915050565b600081519050610b0981610db3565b92915050565b600060208284031215610b2157600080fd5b6000610b2f84828501610ad0565b91505092915050565b60008060408385031215610b4b57600080fd5b6000610b5985828601610abb565b9250506020610b6a85828601610abb565b9150509250929050565b600060208284031215610b8657600080fd5b6000610b9484828501610ae5565b91505092915050565b600060208284031215610baf57600080fd5b6000610bbd84828501610afa565b91505092915050565b60008060408385031215610bd957600080fd5b6000610be785828601610ae5565b9250506020610bf885828601610ae5565b9150509250929050565b610c0b81610d54565b82525050565b610c1a81610d18565b82525050565b610c2981610d66565b82525050565b610c3881610d4a565b82525050565b6000602082019050610c536000830184610c02565b92915050565b6000604082019050610c6e6000830185610c02565b610c7b6020830184610c2f565b9392505050565b6000604082019050610c976000830185610c20565b610ca46020830184610c11565b9392505050565b6000602082019050610cc06000830184610c2f565b92915050565b6000604082019050610cdb6000830185610c2f565b610ce86020830184610c11565b9392505050565b6000604082019050610d046000830185610c2f565b610d116020830184610c2f565b9392505050565b6000610d2382610d2a565b9050919050565b600073ffffffffffffffffffffffffffffffffffffffff82169050919050565b6000819050919050565b6000610d5f82610d78565b9050919050565b6000610d7182610d4a565b9050919050565b6000610d8382610d8a565b9050919050565b6000610d9582610d2a565b9050919050565b610da581610d18565b8114610db057600080fd5b50565b610dbc81610d4a565b8114610dc757600080fd5b5056fea365627a7a72315820d5be213e3aa82cf29a1b52c0b61ff8d8d318fe55dfcd2bbd6154826b2bcf70a06c6578706572696d656e74616cf564736f6c63430005100040",
  "source": "pragma solidity >=0.4.21 <0.7.0;\npragma experimental ABIEncoderV2;\nimport \"./GovToken.sol\";\nimport \"./ProposalContract.sol\";\n\ncontract Vote  {\n    // change deployment addresses after deployment\n    address govToken_addr  = 0x3D416Cfa03D21155529Dc2aa7f877137B719ca74;\n    GovToken gt = GovToken(govToken_addr);\n    address proposal_contract_address = 0x40B4A36A8f733BbeC4E65FdD75Cd522faB53AeF5;\n    ProposalContract p = ProposalContract(proposal_contract_address);\n\n    struct CastedVote{\n        address wallet_address;\n        uint votes;\n    }\n\n    event VoteCasted(uint ProposalID, uint votes);\n\n    mapping(uint => CastedVote[]) proposal_casted_votes;\n\n    function can_vote(uint vote_count) public view returns (uint){\n        // create a function in govtoken to access this\n        if(gt.balanceOf(msg.sender) < vote_count){\n            return 0;\n        }\n        return 1;\n    }\n\n    function caste_vote(uint vote_count , uint proposal_id) public returns (uint){\n        \n        if(can_vote(vote_count) == 1){\n            if(gt.deductToken(msg.sender , vote_count)==0){\n                return 0;\n            }\n            proposal_casted_votes[proposal_id].push(CastedVote(msg.sender , vote_count));\n            p.addVotes(proposal_id , vote_count);\n            emit VoteCasted(proposal_id, vote_count);\n            return 1;\n        }\n        return 0;\n    }\n\n    function get_casted_votes_array_length(uint proposal_id) public view returns (uint){\n        return proposal_casted_votes[proposal_id].length;\n    }\n\n    function get_token_and_address_for_a_cast(uint proposal_id , uint index) public view returns(uint , address){\n        return (proposal_casted_votes[proposal_id][index].votes , proposal_casted_votes[proposal_id][index].wallet_address);\n    }\n\n    function clear_casted_votes_after_epoch_ends()public{\n        uint end = p.getProposalCount();\n        for(uint i=0 ; i<end; i++){\n            delete proposal_casted_votes[i];\n        }\n    }\n\n    function reward_most_voted_proposal() public returns (uint){\n      uint maximum_votes = 0;\n      uint id = 0;\n      uint end = p.getProposalCount();\n      for(uint i=0;i<end;i++){\n        if(p.getVote(i) > maximum_votes){\n          maximum_votes = p.getVote(i);\n          id = i;\n        }\n      }\n      // Give 25 tokens to id\n      address user_a = p.getProposer(id);\n      gt.mint_and_tranfer(25, user_a);\n    return 1;\n    }\n\n    function setContractAddress(address govtoken_add , address proposal_add) public {\n        p = ProposalContract(proposal_add);\n        gt = GovToken(govtoken_add);\n    }\n    \n}",
  "sourcePath": "/Users/shashwat.arya/Desktop/BlockChain Project (Pied Piper)/BlockChain-Project--Pied-Piper-/contracts/Vote.sol",
  "compiler": {
    "name": "solc",
    "version": "0.5.16+commit.9c3226ce.Emscripten.clang"
  },
  "schemaVersion": "3.4.3",
  "updatedAt": "2021-11-25T09:11:14.358Z",
  "networkType": "ethereum",
  "devdoc": {
    "methods": {}
  },
  "userdoc": {
    "methods": {}
  }
}